{
  "_format": "hh-sol-artifact-1",
  "contractName": "MockAggregatorV3",
  "sourceName": "contracts/MockAggregatorV3.sol",
  "abi": [
    {
      "inputs": [
        {
          "internalType": "int256",
          "name": "_answer",
          "type": "int256"
        }
      ],
      "stateMutability": "nonpayable",
      "type": "constructor"
    },
    {
      "inputs": [],
      "name": "DECIMALS",
      "outputs": [
        {
          "internalType": "uint8",
          "name": "",
          "type": "uint8"
        }
      ],
      "stateMutability": "view",
      "type": "function"
    },
    {
      "inputs": [],
      "name": "answer",
      "outputs": [
        {
          "internalType": "int256",
          "name": "",
          "type": "int256"
        }
      ],
      "stateMutability": "view",
      "type": "function"
    },
    {
      "inputs": [],
      "name": "decimals",
      "outputs": [
        {
          "internalType": "uint8",
          "name": "",
          "type": "uint8"
        }
      ],
      "stateMutability": "pure",
      "type": "function"
    },
    {
      "inputs": [],
      "name": "description",
      "outputs": [
        {
          "internalType": "string",
          "name": "",
          "type": "string"
        }
      ],
      "stateMutability": "pure",
      "type": "function"
    },
    {
      "inputs": [
        {
          "internalType": "uint80",
          "name": "_roundId",
          "type": "uint80"
        }
      ],
      "name": "getRoundData",
      "outputs": [
        {
          "internalType": "uint80",
          "name": "roundId",
          "type": "uint80"
        },
        {
          "internalType": "int256",
          "name": "answer",
          "type": "int256"
        },
        {
          "internalType": "uint256",
          "name": "startedAt",
          "type": "uint256"
        },
        {
          "internalType": "uint256",
          "name": "updatedAt",
          "type": "uint256"
        },
        {
          "internalType": "uint80",
          "name": "answeredInRound",
          "type": "uint80"
        }
      ],
      "stateMutability": "view",
      "type": "function"
    },
    {
      "inputs": [],
      "name": "latestRoundData",
      "outputs": [
        {
          "internalType": "uint80",
          "name": "roundId",
          "type": "uint80"
        },
        {
          "internalType": "int256",
          "name": "answer",
          "type": "int256"
        },
        {
          "internalType": "uint256",
          "name": "startedAt",
          "type": "uint256"
        },
        {
          "internalType": "uint256",
          "name": "updatedAt",
          "type": "uint256"
        },
        {
          "internalType": "uint80",
          "name": "answeredInRound",
          "type": "uint80"
        }
      ],
      "stateMutability": "view",
      "type": "function"
    },
    {
      "inputs": [
        {
          "internalType": "int256",
          "name": "_newAnswer",
          "type": "int256"
        }
      ],
      "name": "updateAnswer",
      "outputs": [],
      "stateMutability": "nonpayable",
      "type": "function"
    },
    {
      "inputs": [],
      "name": "version",
      "outputs": [
        {
          "internalType": "uint256",
          "name": "",
          "type": "uint256"
        }
      ],
      "stateMutability": "pure",
      "type": "function"
    }
  ],
  "bytecode": "0x60803461005157601f6102da38819003918201601f19168301916001600160401b0383118484101761005657808492602094604052833981010312610051575160005560405161026d908161006d8239f35b600080fd5b634e487b7160e01b600052604160045260246000fdfe60806040818152600436101561001457600080fd5b600091823560e01c9081632e0f26251461021c57508063313ce5671461020157806354fd4d50146101e65780637284e4161461013557806385bb7d69146101195780639a6fc8f5146100cf578063a87a20ce146100b25763feaf968c1461007a57600080fd5b346100ae57816003193601126100ae57908160a0925191600183526020830152429082015242606082015260016080820152f35b5080fd5b82346100cc5760203660031901126100cc57600435815580f35b80fd5b5090346100cc5760203660031901126100cc5760043569ffffffffffffffffffff81168091036100ae578260a0935192828452602084015242908301524260608301526080820152f35b50346100ae57816003193601126100ae57602091549051908152f35b50346100ae57816003193601126100ae57805181810181811067ffffffffffffffff8211176101d2578252601781526020907f4d6f636b204554482f55534420507269636520466565640000000000000000008282015282519382859384528251928382860152825b8481106101bc57505050828201840152601f01601f19168101030190f35b818101830151888201880152879550820161019e565b634e487b7160e01b84526041600452602484fd5b50346100ae57816003193601126100ae576020905160018152f35b50346100ae57816003193601126100ae576020905160088152f35b8390346100ae57816003193601126100ae5780600860209252f3fea2646970667358221220d9fe2440dcd719c7773678788a8a14e3b3ac19f02e0e0face79cb651dd290b1f64736f6c63430008130033",
  "linkReferences": {},
  "deployedLinkReferences": {}
}