{
  "_format": "hh-sol-artifact-1",
  "contractName": "MockUSDFC",
  "sourceName": "contracts/MockUSDFC.sol",
  "abi": [
    {
      "inputs": [],
      "stateMutability": "nonpayable",
      "type": "constructor"
    },
    {
      "anonymous": false,
      "inputs": [
        {
          "indexed": true,
          "internalType": "address",
          "name": "owner",
          "type": "address"
        },
        {
          "indexed": true,
          "internalType": "address",
          "name": "spender",
          "type": "address"
        },
        {
          "indexed": false,
          "internalType": "uint256",
          "name": "value",
          "type": "uint256"
        }
      ],
      "name": "Approval",
      "type": "event"
    },
    {
      "anonymous": false,
      "inputs": [
        {
          "indexed": true,
          "internalType": "address",
          "name": "previousOwner",
          "type": "address"
        },
        {
          "indexed": true,
          "internalType": "address",
          "name": "newOwner",
          "type": "address"
        }
      ],
      "name": "OwnershipTransferred",
      "type": "event"
    },
    {
      "anonymous": false,
      "inputs": [
        {
          "indexed": true,
          "internalType": "address",
          "name": "from",
          "type": "address"
        },
        {
          "indexed": true,
          "internalType": "address",
          "name": "to",
          "type": "address"
        },
        {
          "indexed": false,
          "internalType": "uint256",
          "name": "value",
          "type": "uint256"
        }
      ],
      "name": "Transfer",
      "type": "event"
    },
    {
      "inputs": [],
      "name": "FAUCET_AMOUNT",
      "outputs": [
        {
          "internalType": "uint256",
          "name": "",
          "type": "uint256"
        }
      ],
      "stateMutability": "view",
      "type": "function"
    },
    {
      "inputs": [],
      "name": "FAUCET_COOLDOWN",
      "outputs": [
        {
          "internalType": "uint256",
          "name": "",
          "type": "uint256"
        }
      ],
      "stateMutability": "view",
      "type": "function"
    },
    {
      "inputs": [
        {
          "internalType": "address",
          "name": "owner",
          "type": "address"
        },
        {
          "internalType": "address",
          "name": "spender",
          "type": "address"
        }
      ],
      "name": "allowance",
      "outputs": [
        {
          "internalType": "uint256",
          "name": "",
          "type": "uint256"
        }
      ],
      "stateMutability": "view",
      "type": "function"
    },
    {
      "inputs": [
        {
          "internalType": "address",
          "name": "spender",
          "type": "address"
        },
        {
          "internalType": "uint256",
          "name": "amount",
          "type": "uint256"
        }
      ],
      "name": "approve",
      "outputs": [
        {
          "internalType": "bool",
          "name": "",
          "type": "bool"
        }
      ],
      "stateMutability": "nonpayable",
      "type": "function"
    },
    {
      "inputs": [
        {
          "internalType": "address",
          "name": "account",
          "type": "address"
        }
      ],
      "name": "balanceOf",
      "outputs": [
        {
          "internalType": "uint256",
          "name": "",
          "type": "uint256"
        }
      ],
      "stateMutability": "view",
      "type": "function"
    },
    {
      "inputs": [
        {
          "internalType": "address[]",
          "name": "recipients",
          "type": "address[]"
        },
        {
          "internalType": "uint256[]",
          "name": "amounts",
          "type": "uint256[]"
        }
      ],
      "name": "batchTransfer",
      "outputs": [],
      "stateMutability": "nonpayable",
      "type": "function"
    },
    {
      "inputs": [],
      "name": "decimals",
      "outputs": [
        {
          "internalType": "uint8",
          "name": "",
          "type": "uint8"
        }
      ],
      "stateMutability": "view",
      "type": "function"
    },
    {
      "inputs": [
        {
          "internalType": "address",
          "name": "spender",
          "type": "address"
        },
        {
          "internalType": "uint256",
          "name": "subtractedValue",
          "type": "uint256"
        }
      ],
      "name": "decreaseAllowance",
      "outputs": [
        {
          "internalType": "bool",
          "name": "",
          "type": "bool"
        }
      ],
      "stateMutability": "nonpayable",
      "type": "function"
    },
    {
      "inputs": [],
      "name": "faucet",
      "outputs": [],
      "stateMutability": "nonpayable",
      "type": "function"
    },
    {
      "inputs": [
        {
          "internalType": "address",
          "name": "spender",
          "type": "address"
        },
        {
          "internalType": "uint256",
          "name": "addedValue",
          "type": "uint256"
        }
      ],
      "name": "increaseAllowance",
      "outputs": [
        {
          "internalType": "bool",
          "name": "",
          "type": "bool"
        }
      ],
      "stateMutability": "nonpayable",
      "type": "function"
    },
    {
      "inputs": [
        {
          "internalType": "address",
          "name": "",
          "type": "address"
        }
      ],
      "name": "lastFaucetClaim",
      "outputs": [
        {
          "internalType": "uint256",
          "name": "",
          "type": "uint256"
        }
      ],
      "stateMutability": "view",
      "type": "function"
    },
    {
      "inputs": [
        {
          "internalType": "address",
          "name": "to",
          "type": "address"
        },
        {
          "internalType": "uint256",
          "name": "amount",
          "type": "uint256"
        }
      ],
      "name": "mint",
      "outputs": [],
      "stateMutability": "nonpayable",
      "type": "function"
    },
    {
      "inputs": [],
      "name": "name",
      "outputs": [
        {
          "internalType": "string",
          "name": "",
          "type": "string"
        }
      ],
      "stateMutability": "view",
      "type": "function"
    },
    {
      "inputs": [],
      "name": "owner",
      "outputs": [
        {
          "internalType": "address",
          "name": "",
          "type": "address"
        }
      ],
      "stateMutability": "view",
      "type": "function"
    },
    {
      "inputs": [],
      "name": "renounceOwnership",
      "outputs": [],
      "stateMutability": "nonpayable",
      "type": "function"
    },
    {
      "inputs": [],
      "name": "symbol",
      "outputs": [
        {
          "internalType": "string",
          "name": "",
          "type": "string"
        }
      ],
      "stateMutability": "view",
      "type": "function"
    },
    {
      "inputs": [],
      "name": "totalSupply",
      "outputs": [
        {
          "internalType": "uint256",
          "name": "",
          "type": "uint256"
        }
      ],
      "stateMutability": "view",
      "type": "function"
    },
    {
      "inputs": [
        {
          "internalType": "address",
          "name": "to",
          "type": "address"
        },
        {
          "internalType": "uint256",
          "name": "amount",
          "type": "uint256"
        }
      ],
      "name": "transfer",
      "outputs": [
        {
          "internalType": "bool",
          "name": "",
          "type": "bool"
        }
      ],
      "stateMutability": "nonpayable",
      "type": "function"
    },
    {
      "inputs": [
        {
          "internalType": "address",
          "name": "from",
          "type": "address"
        },
        {
          "internalType": "address",
          "name": "to",
          "type": "address"
        },
        {
          "internalType": "uint256",
          "name": "amount",
          "type": "uint256"
        }
      ],
      "name": "transferFrom",
      "outputs": [
        {
          "internalType": "bool",
          "name": "",
          "type": "bool"
        }
      ],
      "stateMutability": "nonpayable",
      "type": "function"
    },
    {
      "inputs": [
        {
          "internalType": "address",
          "name": "newOwner",
          "type": "address"
        }
      ],
      "name": "transferOwnership",
      "outputs": [],
      "stateMutability": "nonpayable",
      "type": "function"
    }
  ],
  "bytecode": "0x60806040523480156200001157600080fd5b506040518060400160405280601581526020017f4d6f636b20555344464320537461626c65636f696e000000000000000000000081525060405180604001604052806005815260200164555344464360d81b8152508160039081620000779190620002b7565b506004620000868282620002b7565b505050620000a36200009d620000f260201b60201c565b620000f6565b6005805460ff60a01b1916600360a11b1790819055620000ec903390620000d79060ff600160a01b90910416600a62000498565b620000e690620f4240620004b0565b62000148565b620004e0565b3390565b600580546001600160a01b038381166001600160a01b0319831681179093556040519116919082907f8be0079c531659141344cd1fd0a4f28419497f9722a3daafe3b4186f6b6457e090600090a35050565b6001600160a01b038216620001a35760405162461bcd60e51b815260206004820152601f60248201527f45524332303a206d696e7420746f20746865207a65726f206164647265737300604482015260640160405180910390fd5b8060026000828254620001b79190620004ca565b90915550506001600160a01b038216600081815260208181526040808320805486019055518481527fddf252ad1be2c89b69c2b068fc378daa952ba7f163c4a11628f55a4df523b3ef910160405180910390a35050565b505050565b634e487b7160e01b600052604160045260246000fd5b600181811c908216806200023e57607f821691505b6020821081036200025f57634e487b7160e01b600052602260045260246000fd5b50919050565b601f8211156200020e57600081815260208120601f850160051c810160208610156200028e5750805b601f850160051c820191505b81811015620002af578281556001016200029a565b505050505050565b81516001600160401b03811115620002d357620002d362000213565b620002eb81620002e4845462000229565b8462000265565b602080601f8311600181146200032357600084156200030a5750858301515b600019600386901b1c1916600185901b178555620002af565b600085815260208120601f198616915b82811015620003545788860151825594840194600190910190840162000333565b5085821015620003735787850151600019600388901b60f8161c191681555b5050505050600190811b01905550565b634e487b7160e01b600052601160045260246000fd5b600181815b80851115620003da578160001904821115620003be57620003be62000383565b80851615620003cc57918102915b93841c93908002906200039e565b509250929050565b600082620003f35750600162000492565b81620004025750600062000492565b81600181146200041b5760028114620004265762000446565b600191505062000492565b60ff8411156200043a576200043a62000383565b50506001821b62000492565b5060208310610133831016604e8410600b84101617156200046b575081810a62000492565b62000477838362000399565b80600019048211156200048e576200048e62000383565b0290505b92915050565b6000620004a960ff841683620003e2565b9392505050565b808202811582820484141762000492576200049262000383565b8082018082111562000492576200049262000383565b610dc680620004f06000396000f3fe608060405234801561001057600080fd5b506004361061012c5760003560e01c80637d1d5d19116100ad578063a457c2d711610071578063a457c2d71461027a578063a9059cbb1461028d578063dd62ed3e146102a0578063de5f72fd146102b3578063f2fde38b146102bb57600080fd5b80637d1d5d191461021a57806388d695b2146102245780638a877205146102375780638da5cb5b1461025757806395d89b411461027257600080fd5b806339509351116100f457806339509351146101b657806340c10f19146101c957806370a08231146101de578063715018a614610207578063766976401461020f57600080fd5b806306fdde0314610131578063095ea7b31461014f57806318160ddd1461017257806323b872dd14610184578063313ce56714610197575b600080fd5b6101396102ce565b6040516101469190610b21565b60405180910390f35b61016261015d366004610b8b565b610360565b6040519015158152602001610146565b6002545b604051908152602001610146565b610162610192366004610bb5565b61037a565b600554600160a01b900460ff1660405160ff9091168152602001610146565b6101626101c4366004610b8b565b61039e565b6101dc6101d7366004610b8b565b6103c0565b005b6101766101ec366004610bf1565b6001600160a01b031660009081526020819052604090205490565b6101dc6103d6565b6101766305f5e10081565b6101766201518081565b6101dc610232366004610c5f565b6103ea565b610176610245366004610bf1565b60066020526000908152604090205481565b6005546040516001600160a01b039091168152602001610146565b6101396104ab565b610162610288366004610b8b565b6104ba565b61016261029b366004610b8b565b610535565b6101766102ae366004610ccb565b610543565b6101dc61056e565b6101dc6102c9366004610bf1565b6105fb565b6060600380546102dd90610cfe565b80601f016020809104026020016040519081016040528092919081815260200182805461030990610cfe565b80156103565780601f1061032b57610100808354040283529160200191610356565b820191906000526020600020905b81548152906001019060200180831161033957829003601f168201915b5050505050905090565b60003361036e818585610674565b60019150505b92915050565b600033610388858285610798565b610393858585610812565b506001949350505050565b60003361036e8185856103b18383610543565b6103bb9190610d4e565b610674565b6103c86109b6565b6103d28282610a10565b5050565b6103de6109b6565b6103e86000610acf565b565b6103f26109b6565b82811461043f5760405162461bcd60e51b8152602060048201526016602482015275082e4e4c2f2e640d8cadccee8d040dad2e6dac2e8c6d60531b60448201526064015b60405180910390fd5b60005b838110156104a45761049285858381811061045f5761045f610d61565b90506020020160208101906104749190610bf1565b84848481811061048657610486610d61565b90506020020135610a10565b8061049c81610d77565b915050610442565b5050505050565b6060600480546102dd90610cfe565b600033816104c88286610543565b9050838110156105285760405162461bcd60e51b815260206004820152602560248201527f45524332303a2064656372656173656420616c6c6f77616e63652062656c6f77604482015264207a65726f60d81b6064820152608401610436565b6103938286868403610674565b60003361036e818585610812565b6001600160a01b03918216600090815260016020908152604080832093909416825291909152205490565b3360009081526006602052604090205461058c906201518090610d4e565b4210156105db5760405162461bcd60e51b815260206004820152601760248201527f46617563657420636f6f6c646f776e206e6f74206d65740000000000000000006044820152606401610436565b3360008181526006602052604090204290556103e8906305f5e100610a10565b6106036109b6565b6001600160a01b0381166106685760405162461bcd60e51b815260206004820152602660248201527f4f776e61626c653a206e6577206f776e657220697320746865207a65726f206160448201526564647265737360d01b6064820152608401610436565b61067181610acf565b50565b6001600160a01b0383166106d65760405162461bcd60e51b8152602060048201526024808201527f45524332303a20617070726f76652066726f6d20746865207a65726f206164646044820152637265737360e01b6064820152608401610436565b6001600160a01b0382166107375760405162461bcd60e51b815260206004820152602260248201527f45524332303a20617070726f766520746f20746865207a65726f206164647265604482015261737360f01b6064820152608401610436565b6001600160a01b0383811660008181526001602090815260408083209487168084529482529182902085905590518481527f8c5be1e5ebec7d5bd14f71427d1e84f3dd0314c0f7b2291e5b200ac8c7c3b925910160405180910390a3505050565b60006107a48484610543565b9050600019811461080c57818110156107ff5760405162461bcd60e51b815260206004820152601d60248201527f45524332303a20696e73756666696369656e7420616c6c6f77616e63650000006044820152606401610436565b61080c8484848403610674565b50505050565b6001600160a01b0383166108765760405162461bcd60e51b815260206004820152602560248201527f45524332303a207472616e736665722066726f6d20746865207a65726f206164604482015264647265737360d81b6064820152608401610436565b6001600160a01b0382166108d85760405162461bcd60e51b815260206004820152602360248201527f45524332303a207472616e7366657220746f20746865207a65726f206164647260448201526265737360e81b6064820152608401610436565b6001600160a01b038316600090815260208190526040902054818110156109505760405162461bcd60e51b815260206004820152602660248201527f45524332303a207472616e7366657220616d6f756e7420657863656564732062604482015265616c616e636560d01b6064820152608401610436565b6001600160a01b03848116600081815260208181526040808320878703905593871680835291849020805487019055925185815290927fddf252ad1be2c89b69c2b068fc378daa952ba7f163c4a11628f55a4df523b3ef910160405180910390a361080c565b6005546001600160a01b031633146103e85760405162461bcd60e51b815260206004820181905260248201527f4f776e61626c653a2063616c6c6572206973206e6f7420746865206f776e65726044820152606401610436565b6001600160a01b038216610a665760405162461bcd60e51b815260206004820152601f60248201527f45524332303a206d696e7420746f20746865207a65726f2061646472657373006044820152606401610436565b8060026000828254610a789190610d4e565b90915550506001600160a01b038216600081815260208181526040808320805486019055518481527fddf252ad1be2c89b69c2b068fc378daa952ba7f163c4a11628f55a4df523b3ef910160405180910390a35050565b600580546001600160a01b038381166001600160a01b0319831681179093556040519116919082907f8be0079c531659141344cd1fd0a4f28419497f9722a3daafe3b4186f6b6457e090600090a35050565b600060208083528351808285015260005b81811015610b4e57858101830151858201604001528201610b32565b506000604082860101526040601f19601f8301168501019250505092915050565b80356001600160a01b0381168114610b8657600080fd5b919050565b60008060408385031215610b9e57600080fd5b610ba783610b6f565b946020939093013593505050565b600080600060608486031215610bca57600080fd5b610bd384610b6f565b9250610be160208501610b6f565b9150604084013590509250925092565b600060208284031215610c0357600080fd5b610c0c82610b6f565b9392505050565b60008083601f840112610c2557600080fd5b50813567ffffffffffffffff811115610c3d57600080fd5b6020830191508360208260051b8501011115610c5857600080fd5b9250929050565b60008060008060408587031215610c7557600080fd5b843567ffffffffffffffff80821115610c8d57600080fd5b610c9988838901610c13565b90965094506020870135915080821115610cb257600080fd5b50610cbf87828801610c13565b95989497509550505050565b60008060408385031215610cde57600080fd5b610ce783610b6f565b9150610cf560208401610b6f565b90509250929050565b600181811c90821680610d1257607f821691505b602082108103610d3257634e487b7160e01b600052602260045260246000fd5b50919050565b634e487b7160e01b600052601160045260246000fd5b8082018082111561037457610374610d38565b634e487b7160e01b600052603260045260246000fd5b600060018201610d8957610d89610d38565b506001019056fea26469706673582212208f132fb46832284d80df903c31f0e263ee9573c17f339ac28b41844fed3829df64736f6c63430008130033",
  "linkReferences": {},
  "deployedLinkReferences": {}
}