{
  "_format": "hh-sol-artifact-1",
  "contractName": "MockUSDFC",
  "sourceName": "contracts/MockUSDFC.sol",
  "abi": [
    {
      "inputs": [],
      "stateMutability": "nonpayable",
      "type": "constructor"
    },
    {
      "anonymous": false,
      "inputs": [
        {
          "indexed": true,
          "internalType": "address",
          "name": "owner",
          "type": "address"
        },
        {
          "indexed": true,
          "internalType": "address",
          "name": "spender",
          "type": "address"
        },
        {
          "indexed": false,
          "internalType": "uint256",
          "name": "value",
          "type": "uint256"
        }
      ],
      "name": "Approval",
      "type": "event"
    },
    {
      "anonymous": false,
      "inputs": [
        {
          "indexed": true,
          "internalType": "address",
          "name": "previousOwner",
          "type": "address"
        },
        {
          "indexed": true,
          "internalType": "address",
          "name": "newOwner",
          "type": "address"
        }
      ],
      "name": "OwnershipTransferred",
      "type": "event"
    },
    {
      "anonymous": false,
      "inputs": [
        {
          "indexed": true,
          "internalType": "address",
          "name": "from",
          "type": "address"
        },
        {
          "indexed": true,
          "internalType": "address",
          "name": "to",
          "type": "address"
        },
        {
          "indexed": false,
          "internalType": "uint256",
          "name": "value",
          "type": "uint256"
        }
      ],
      "name": "Transfer",
      "type": "event"
    },
    {
      "inputs": [],
      "name": "FAUCET_AMOUNT",
      "outputs": [
        {
          "internalType": "uint256",
          "name": "",
          "type": "uint256"
        }
      ],
      "stateMutability": "view",
      "type": "function"
    },
    {
      "inputs": [],
      "name": "FAUCET_COOLDOWN",
      "outputs": [
        {
          "internalType": "uint256",
          "name": "",
          "type": "uint256"
        }
      ],
      "stateMutability": "view",
      "type": "function"
    },
    {
      "inputs": [
        {
          "internalType": "address",
          "name": "owner",
          "type": "address"
        },
        {
          "internalType": "address",
          "name": "spender",
          "type": "address"
        }
      ],
      "name": "allowance",
      "outputs": [
        {
          "internalType": "uint256",
          "name": "",
          "type": "uint256"
        }
      ],
      "stateMutability": "view",
      "type": "function"
    },
    {
      "inputs": [
        {
          "internalType": "address",
          "name": "spender",
          "type": "address"
        },
        {
          "internalType": "uint256",
          "name": "amount",
          "type": "uint256"
        }
      ],
      "name": "approve",
      "outputs": [
        {
          "internalType": "bool",
          "name": "",
          "type": "bool"
        }
      ],
      "stateMutability": "nonpayable",
      "type": "function"
    },
    {
      "inputs": [
        {
          "internalType": "address",
          "name": "account",
          "type": "address"
        }
      ],
      "name": "balanceOf",
      "outputs": [
        {
          "internalType": "uint256",
          "name": "",
          "type": "uint256"
        }
      ],
      "stateMutability": "view",
      "type": "function"
    },
    {
      "inputs": [
        {
          "internalType": "address[]",
          "name": "recipients",
          "type": "address[]"
        },
        {
          "internalType": "uint256[]",
          "name": "amounts",
          "type": "uint256[]"
        }
      ],
      "name": "batchTransfer",
      "outputs": [],
      "stateMutability": "nonpayable",
      "type": "function"
    },
    {
      "inputs": [],
      "name": "decimals",
      "outputs": [
        {
          "internalType": "uint8",
          "name": "",
          "type": "uint8"
        }
      ],
      "stateMutability": "view",
      "type": "function"
    },
    {
      "inputs": [
        {
          "internalType": "address",
          "name": "spender",
          "type": "address"
        },
        {
          "internalType": "uint256",
          "name": "subtractedValue",
          "type": "uint256"
        }
      ],
      "name": "decreaseAllowance",
      "outputs": [
        {
          "internalType": "bool",
          "name": "",
          "type": "bool"
        }
      ],
      "stateMutability": "nonpayable",
      "type": "function"
    },
    {
      "inputs": [],
      "name": "faucet",
      "outputs": [],
      "stateMutability": "nonpayable",
      "type": "function"
    },
    {
      "inputs": [
        {
          "internalType": "address",
          "name": "spender",
          "type": "address"
        },
        {
          "internalType": "uint256",
          "name": "addedValue",
          "type": "uint256"
        }
      ],
      "name": "increaseAllowance",
      "outputs": [
        {
          "internalType": "bool",
          "name": "",
          "type": "bool"
        }
      ],
      "stateMutability": "nonpayable",
      "type": "function"
    },
    {
      "inputs": [
        {
          "internalType": "address",
          "name": "",
          "type": "address"
        }
      ],
      "name": "lastFaucetClaim",
      "outputs": [
        {
          "internalType": "uint256",
          "name": "",
          "type": "uint256"
        }
      ],
      "stateMutability": "view",
      "type": "function"
    },
    {
      "inputs": [
        {
          "internalType": "address",
          "name": "to",
          "type": "address"
        },
        {
          "internalType": "uint256",
          "name": "amount",
          "type": "uint256"
        }
      ],
      "name": "mint",
      "outputs": [],
      "stateMutability": "nonpayable",
      "type": "function"
    },
    {
      "inputs": [],
      "name": "name",
      "outputs": [
        {
          "internalType": "string",
          "name": "",
          "type": "string"
        }
      ],
      "stateMutability": "view",
      "type": "function"
    },
    {
      "inputs": [],
      "name": "owner",
      "outputs": [
        {
          "internalType": "address",
          "name": "",
          "type": "address"
        }
      ],
      "stateMutability": "view",
      "type": "function"
    },
    {
      "inputs": [],
      "name": "renounceOwnership",
      "outputs": [],
      "stateMutability": "nonpayable",
      "type": "function"
    },
    {
      "inputs": [],
      "name": "symbol",
      "outputs": [
        {
          "internalType": "string",
          "name": "",
          "type": "string"
        }
      ],
      "stateMutability": "view",
      "type": "function"
    },
    {
      "inputs": [],
      "name": "totalSupply",
      "outputs": [
        {
          "internalType": "uint256",
          "name": "",
          "type": "uint256"
        }
      ],
      "stateMutability": "view",
      "type": "function"
    },
    {
      "inputs": [
        {
          "internalType": "address",
          "name": "to",
          "type": "address"
        },
        {
          "internalType": "uint256",
          "name": "amount",
          "type": "uint256"
        }
      ],
      "name": "transfer",
      "outputs": [
        {
          "internalType": "bool",
          "name": "",
          "type": "bool"
        }
      ],
      "stateMutability": "nonpayable",
      "type": "function"
    },
    {
      "inputs": [
        {
          "internalType": "address",
          "name": "from",
          "type": "address"
        },
        {
          "internalType": "address",
          "name": "to",
          "type": "address"
        },
        {
          "internalType": "uint256",
          "name": "amount",
          "type": "uint256"
        }
      ],
      "name": "transferFrom",
      "outputs": [
        {
          "internalType": "bool",
          "name": "",
          "type": "bool"
        }
      ],
      "stateMutability": "nonpayable",
      "type": "function"
    },
    {
      "inputs": [
        {
          "internalType": "address",
          "name": "newOwner",
          "type": "address"
        }
      ],
      "name": "transferOwnership",
      "outputs": [],
      "stateMutability": "nonpayable",
      "type": "function"
    }
  ],
  "bytecode": "0x6080346200045a576040906001600160401b0390808301828111828210176200035c578352601581526020907f4d6f636b20555344464320537461626c65636f696e000000000000000000000082820152835190848201828110858211176200035c57855260059081835264555344464360d81b848401528051948086116200035c5760038054966001938489811c991680156200044f575b888a101462000439578190601f998a8111620003e5575b5088908a83116001146200037e5760009262000372575b505060001982841b1c191690841b1781555b84519182116200035c5760049485548481811c9116801562000351575b888210146200033c57888111620002f3575b50869088841160011462000288579383949184926000956200027c575b50501b92600019911b1c19161782555b805485519160ff91336001600160a01b0382167f8be0079c531659141344cd1fd0a4f28419497f9722a3daafe3b4186f6b6457e0600080a36001600160a81b0319163360a084811b199190911691909117600360a11b17918290551c16604d81116200026757600a0a93620f42409480860295860403620002675733156200022a575050600254908382018092116200021557506000917fddf252ad1be2c89b69c2b068fc378daa952ba7f163c4a11628f55a4df523b3ef9160025533835282815284832084815401905584519384523393a351610ed19081620004608239f35b601190634e487b7160e01b6000525260246000fd5b8360649362461bcd60e51b845283015260248201527f45524332303a206d696e7420746f20746865207a65726f2061646472657373006044820152fd5b601183634e487b7160e01b6000525260246000fd5b01519350388062000124565b9190601f198416928760005284896000209460005b8b89838310620002db5750505010620002c0575b50505050811b01825562000134565b01519060f884600019921b161c1916905538808080620002b1565b8686015189559097019694850194889350016200029d565b866000528760002089808601881c8201928a871062000332575b01871c019085905b8281106200032557505062000107565b6000815501859062000315565b925081926200030d565b602287634e487b7160e01b6000525260246000fd5b90607f1690620000f5565b634e487b7160e01b600052604160045260246000fd5b015190503880620000c6565b90869350601f19831691856000528a6000209260005b8c828210620003ce5750508411620003b5575b505050811b018155620000d8565b015160001983861b60f8161c19169055388080620003a7565b8385015186558a9790950194938401930162000394565b90915083600052886000208a808501891c8201928b86106200042f575b91889186959493018a1c01915b8281106200041f575050620000af565b600081558594508891016200040f565b9250819262000402565b634e487b7160e01b600052602260045260246000fd5b98607f169862000098565b600080fdfe6080604081815260048036101561001557600080fd5b600092833560e01c90816306fdde031461094757508063095ea7b31461091d57806318160ddd146108fe57806323b872dd14610834578063313ce5671461080f57806339509351146107bf57806340c10f191461078f57806370a0823114610758578063715018a6146106fb57806376697640146106dc5780637d1d5d19146106be57806388d695b2146105b55780638a8772051461057d5780638da5cb5b1461055457806395d89b4114610434578063a457c2d71461038d578063a9059cbb1461035c578063dd62ed3e1461030f578063de5f72fd146101cd5763f2fde38b146100ff57600080fd5b346101c95760203660031901126101c957610118610a85565b90610121610ae7565b6001600160a01b03918216928315610177575050600554826bffffffffffffffffffffffff60a01b821617600555167f8be0079c531659141344cd1fd0a4f28419497f9722a3daafe3b4186f6b6457e08380a380f35b906020608492519162461bcd60e51b8352820152602660248201527f4f776e61626c653a206e6577206f776e657220697320746865207a65726f206160448201526564647265737360d01b6064820152fd5b8280fd5b5090346101c957826003193601126101c95733835260209060068252808420546201518081018091116102fc5742106102bb57338452600682524281852055331561027a576002546305f5e100938482018092116102675750917fddf252ad1be2c89b69c2b068fc378daa952ba7f163c4a11628f55a4df523b3ef918593600255338452838252808420858154019055519384523393a380f35b634e487b7160e01b865260119052602485fd5b5162461bcd60e51b815291820152601f60248201527f45524332303a206d696e7420746f20746865207a65726f206164647265737300604482015260649150fd5b5162461bcd60e51b815291820152601760248201527f46617563657420636f6f6c646f776e206e6f74206d6574000000000000000000604482015260649150fd5b634e487b7160e01b855260118452602485fd5b5050346103585780600319360112610358578060209261032d610a85565b610335610aa0565b6001600160a01b0391821683526001865283832091168252845220549051908152f35b5080fd5b50503461035857806003193601126103585760209061038661037c610a85565b6024359033610b62565b5160018152f35b5082346104315782600319360112610431576103a7610a85565b918360243592338152600160205281812060018060a01b03861682526020522054908282106103e0576020856103868585038733610cd0565b608490602086519162461bcd60e51b8352820152602560248201527f45524332303a2064656372656173656420616c6c6f77616e63652062656c6f77604482015264207a65726f60d81b6064820152fd5b80fd5b50919034610358578160031936011261035857805190828454600181811c9080831692831561054a575b60209384841081146105375783885290811561051b57506001146104c6575b505050829003601f01601f191682019267ffffffffffffffff8411838510176104b357508291826104af925282610a3c565b0390f35b634e487b7160e01b815260418552602490fd5b8787529192508591837f8a35acfbc15ff81a39ae7d344fd709f28e8600b4aa8c65c6b64bfe7fe36bd19b5b838510610507575050505083010138808061047d565b8054888601830152930192849082016104f1565b60ff1916878501525050151560051b840101905038808061047d565b634e487b7160e01b895260228a52602489fd5b91607f169161045e565b50503461035857816003193601126103585760055490516001600160a01b039091168152602090f35b5050346103585760203660031901126103585760209181906001600160a01b036105a5610a85565b1681526006845220549051908152f35b5090346101c957806003193601126101c95767ffffffffffffffff9180358381116106ba576105e79036908301610ab6565b60249391939485359081116106b6576106039036908501610ab6565b91909261060e610ae7565b82820361067c5750865b818110610623578780f35b61062e818388610e75565b356001600160a01b0381168103610678576106559061064e838688610e75565b3590610dd2565b600019811461066657600101610618565b634e487b7160e01b8852601185528688fd5b8880fd5b5162461bcd60e51b815260208186015260168188015275082e4e4c2f2e640d8cadccee8d040dad2e6dac2e8c6d60531b6044820152606490fd5b8680fd5b8480fd5b50503461035857816003193601126103585760209051620151808152f35b505034610358578160031936011261035857602090516305f5e1008152f35b8334610431578060031936011261043157610714610ae7565b600580546001600160a01b0319811690915581906001600160a01b03167f8be0079c531659141344cd1fd0a4f28419497f9722a3daafe3b4186f6b6457e08280a380f35b5050346103585760203660031901126103585760209181906001600160a01b03610780610a85565b16815280845220549051908152f35b50503461035857366003190112610431576107bc6107ab610a85565b6107b3610ae7565b60243590610dd2565b80f35b5050346103585780600319360112610358576103866020926108086107e2610a85565b338352600186528483206001600160a01b03821684528652918490205460243590610b3f565b9033610cd0565b50503461035857816003193601126103585760209060ff60055460a01c169051908152f35b5082903461035857606036600319011261035857610850610a85565b610858610aa0565b91846044359460018060a01b038416815260016020528181203382526020522054906000198203610892575b602086610386878787610b62565b8482106108bb57509183916108b06020969561038695033383610cd0565b919394819350610884565b606490602087519162461bcd60e51b8352820152601d60248201527f45524332303a20696e73756666696369656e7420616c6c6f77616e63650000006044820152fd5b5050346103585781600319360112610358576020906002549051908152f35b50503461035857806003193601126103585760209061038661093d610a85565b6024359033610cd0565b84915083346101c957826003193601126101c95782600354600181811c90808316928315610a32575b602093848410811461053757838852908115610a1657506001146109c057505050829003601f01601f191682019267ffffffffffffffff8411838510176104b357508291826104af925282610a3c565b600387529192508591837fc2575a0e9e593c00f959f8c92f12db2869c3395a3b0502d05e2516446f71f85b5b838510610a02575050505083010185808061047d565b8054888601830152930192849082016109ec565b60ff1916878501525050151560051b840101905085808061047d565b91607f1691610970565b6020808252825181830181905290939260005b828110610a7157505060409293506000838284010152601f8019910116010190565b818101860151848201604001528501610a4f565b600435906001600160a01b0382168203610a9b57565b600080fd5b602435906001600160a01b0382168203610a9b57565b9181601f84011215610a9b5782359167ffffffffffffffff8311610a9b576020808501948460051b010111610a9b57565b6005546001600160a01b03163303610afb57565b606460405162461bcd60e51b815260206004820152602060248201527f4f776e61626c653a2063616c6c6572206973206e6f7420746865206f776e65726044820152fd5b91908201809211610b4c57565b634e487b7160e01b600052601160045260246000fd5b6001600160a01b03908116918215610c7d5716918215610c2c57600082815280602052604081205491808310610bd857604082827fddf252ad1be2c89b69c2b068fc378daa952ba7f163c4a11628f55a4df523b3ef958760209652828652038282205586815220818154019055604051908152a3565b60405162461bcd60e51b815260206004820152602660248201527f45524332303a207472616e7366657220616d6f756e7420657863656564732062604482015265616c616e636560d01b6064820152608490fd5b60405162461bcd60e51b815260206004820152602360248201527f45524332303a207472616e7366657220746f20746865207a65726f206164647260448201526265737360e81b6064820152608490fd5b60405162461bcd60e51b815260206004820152602560248201527f45524332303a207472616e736665722066726f6d20746865207a65726f206164604482015264647265737360d81b6064820152608490fd5b6001600160a01b03908116918215610d815716918215610d315760207f8c5be1e5ebec7d5bd14f71427d1e84f3dd0314c0f7b2291e5b200ac8c7c3b925918360005260018252604060002085600052825280604060002055604051908152a3565b60405162461bcd60e51b815260206004820152602260248201527f45524332303a20617070726f766520746f20746865207a65726f206164647265604482015261737360f01b6064820152608490fd5b60405162461bcd60e51b8152602060048201526024808201527f45524332303a20617070726f76652066726f6d20746865207a65726f206164646044820152637265737360e01b6064820152608490fd5b6001600160a01b0316908115610e30577fddf252ad1be2c89b69c2b068fc378daa952ba7f163c4a11628f55a4df523b3ef602082610e14600094600254610b3f565b60025584845283825260408420818154019055604051908152a3565b60405162461bcd60e51b815260206004820152601f60248201527f45524332303a206d696e7420746f20746865207a65726f2061646472657373006044820152606490fd5b9190811015610e855760051b0190565b634e487b7160e01b600052603260045260246000fdfea2646970667358221220c45245db6aa521608d1a9b0b88a8d7f49355cade3fff5efb358dd3698658c18c64736f6c63430008130033",
  "linkReferences": {},
  "deployedLinkReferences": {}
}