{
  "_format": "hh-sol-artifact-1",
  "contractName": "ProofChainVoting",
  "sourceName": "contracts/ProofChainVoting.sol",
  "abi": [
    {
      "inputs": [
        {
          "internalType": "bytes32",
          "name": "_merkleRoot",
          "type": "bytes32"
        }
      ],
      "stateMutability": "nonpayable",
      "type": "constructor"
    },
    {
      "anonymous": false,
      "inputs": [
        {
          "indexed": true,
          "internalType": "uint256",
          "name": "contentId",
          "type": "uint256"
        },
        {
          "indexed": false,
          "internalType": "string",
          "name": "ipfsHash",
          "type": "string"
        },
        {
          "indexed": false,
          "internalType": "uint256",
          "name": "votingDeadline",
          "type": "uint256"
        },
        {
          "indexed": true,
          "internalType": "address",
          "name": "creator",
          "type": "address"
        }
      ],
      "name": "ContentSubmitted",
      "type": "event"
    },
    {
      "anonymous": false,
      "inputs": [
        {
          "indexed": true,
          "internalType": "address",
          "name": "previousOwner",
          "type": "address"
        },
        {
          "indexed": true,
          "internalType": "address",
          "name": "newOwner",
          "type": "address"
        }
      ],
      "name": "OwnershipTransferred",
      "type": "event"
    },
    {
      "anonymous": false,
      "inputs": [
        {
          "indexed": true,
          "internalType": "enum ProofChainVoting.TokenType",
          "name": "tokenType",
          "type": "uint8"
        },
        {
          "indexed": false,
          "internalType": "address",
          "name": "tokenAddress",
          "type": "address"
        },
        {
          "indexed": false,
          "internalType": "address",
          "name": "priceOracle",
          "type": "address"
        }
      ],
      "name": "TokenAdded",
      "type": "event"
    },
    {
      "anonymous": false,
      "inputs": [
        {
          "indexed": true,
          "internalType": "uint256",
          "name": "contentId",
          "type": "uint256"
        },
        {
          "indexed": true,
          "internalType": "address",
          "name": "voter",
          "type": "address"
        },
        {
          "indexed": false,
          "internalType": "enum ProofChainVoting.VoteOption",
          "name": "vote",
          "type": "uint8"
        },
        {
          "indexed": false,
          "internalType": "uint8",
          "name": "confidence",
          "type": "uint8"
        },
        {
          "indexed": false,
          "internalType": "enum ProofChainVoting.TokenType",
          "name": "tokenType",
          "type": "uint8"
        },
        {
          "indexed": false,
          "internalType": "uint256",
          "name": "stakeAmount",
          "type": "uint256"
        },
        {
          "indexed": false,
          "internalType": "uint256",
          "name": "votingWeight",
          "type": "uint256"
        }
      ],
      "name": "VoteSubmitted",
      "type": "event"
    },
    {
      "anonymous": false,
      "inputs": [
        {
          "indexed": true,
          "internalType": "uint256",
          "name": "contentId",
          "type": "uint256"
        },
        {
          "indexed": false,
          "internalType": "enum ProofChainVoting.VoteOption",
          "name": "winningOption",
          "type": "uint8"
        },
        {
          "indexed": false,
          "internalType": "uint256",
          "name": "totalParticipants",
          "type": "uint256"
        },
        {
          "indexed": false,
          "internalType": "uint256",
          "name": "totalUSDValue",
          "type": "uint256"
        }
      ],
      "name": "VotingFinalized",
      "type": "event"
    },
    {
      "inputs": [],
      "name": "MAX_VOTING_PERIOD",
      "outputs": [
        {
          "internalType": "uint256",
          "name": "",
          "type": "uint256"
        }
      ],
      "stateMutability": "view",
      "type": "function"
    },
    {
      "inputs": [],
      "name": "MIN_VOTING_PERIOD",
      "outputs": [
        {
          "internalType": "uint256",
          "name": "",
          "type": "uint256"
        }
      ],
      "stateMutability": "view",
      "type": "function"
    },
    {
      "inputs": [
        {
          "internalType": "enum ProofChainVoting.TokenType",
          "name": "tokenType",
          "type": "uint8"
        },
        {
          "internalType": "address",
          "name": "tokenAddress",
          "type": "address"
        },
        {
          "internalType": "address",
          "name": "priceOracle",
          "type": "address"
        },
        {
          "internalType": "uint8",
          "name": "decimals",
          "type": "uint8"
        },
        {
          "internalType": "uint256",
          "name": "bonusMultiplier",
          "type": "uint256"
        },
        {
          "internalType": "uint256",
          "name": "minStakeAmount",
          "type": "uint256"
        }
      ],
      "name": "addToken",
      "outputs": [],
      "stateMutability": "nonpayable",
      "type": "function"
    },
    {
      "inputs": [
        {
          "internalType": "uint256",
          "name": "usdValue",
          "type": "uint256"
        },
        {
          "internalType": "uint8",
          "name": "confidence",
          "type": "uint8"
        },
        {
          "internalType": "uint256",
          "name": "bonusMultiplier",
          "type": "uint256"
        }
      ],
      "name": "calculateVotingWeight",
      "outputs": [
        {
          "internalType": "uint256",
          "name": "",
          "type": "uint256"
        }
      ],
      "stateMutability": "pure",
      "type": "function"
    },
    {
      "inputs": [],
      "name": "contentCounter",
      "outputs": [
        {
          "internalType": "uint256",
          "name": "",
          "type": "uint256"
        }
      ],
      "stateMutability": "view",
      "type": "function"
    },
    {
      "inputs": [
        {
          "internalType": "uint256",
          "name": "",
          "type": "uint256"
        }
      ],
      "name": "contents",
      "outputs": [
        {
          "internalType": "string",
          "name": "ipfsHash",
          "type": "string"
        },
        {
          "internalType": "uint256",
          "name": "submissionTime",
          "type": "uint256"
        },
        {
          "internalType": "uint256",
          "name": "votingDeadline",
          "type": "uint256"
        },
        {
          "internalType": "address",
          "name": "creator",
          "type": "address"
        },
        {
          "internalType": "bool",
          "name": "isActive",
          "type": "bool"
        },
        {
          "internalType": "bool",
          "name": "isFinalized",
          "type": "bool"
        },
        {
          "internalType": "uint256",
          "name": "participantCount",
          "type": "uint256"
        },
        {
          "internalType": "uint256",
          "name": "totalUSDValue",
          "type": "uint256"
        },
        {
          "internalType": "enum ProofChainVoting.VoteOption",
          "name": "winningOption",
          "type": "uint8"
        }
      ],
      "stateMutability": "view",
      "type": "function"
    },
    {
      "inputs": [
        {
          "internalType": "enum ProofChainVoting.TokenType",
          "name": "tokenType",
          "type": "uint8"
        },
        {
          "internalType": "uint256",
          "name": "tokenAmount",
          "type": "uint256"
        }
      ],
      "name": "convertToUSD",
      "outputs": [
        {
          "internalType": "uint256",
          "name": "",
          "type": "uint256"
        }
      ],
      "stateMutability": "view",
      "type": "function"
    },
    {
      "inputs": [
        {
          "internalType": "enum ProofChainVoting.TokenType",
          "name": "tokenType",
          "type": "uint8"
        }
      ],
      "name": "deactivateToken",
      "outputs": [],
      "stateMutability": "nonpayable",
      "type": "function"
    },
    {
      "inputs": [
        {
          "internalType": "enum ProofChainVoting.TokenType",
          "name": "tokenType",
          "type": "uint8"
        },
        {
          "internalType": "uint256",
          "name": "amount",
          "type": "uint256"
        }
      ],
      "name": "emergencyWithdraw",
      "outputs": [],
      "stateMutability": "nonpayable",
      "type": "function"
    },
    {
      "inputs": [
        {
          "internalType": "uint256",
          "name": "contentId",
          "type": "uint256"
        }
      ],
      "name": "finalizeVoting",
      "outputs": [],
      "stateMutability": "nonpayable",
      "type": "function"
    },
    {
      "inputs": [
        {
          "internalType": "uint256",
          "name": "contentId",
          "type": "uint256"
        }
      ],
      "name": "getContentInfo",
      "outputs": [
        {
          "internalType": "string",
          "name": "ipfsHash",
          "type": "string"
        },
        {
          "internalType": "uint256",
          "name": "submissionTime",
          "type": "uint256"
        },
        {
          "internalType": "uint256",
          "name": "votingDeadline",
          "type": "uint256"
        },
        {
          "internalType": "bool",
          "name": "isActive",
          "type": "bool"
        },
        {
          "internalType": "bool",
          "name": "isFinalized",
          "type": "bool"
        },
        {
          "internalType": "uint256[]",
          "name": "voteDistribution",
          "type": "uint256[]"
        },
        {
          "internalType": "uint256",
          "name": "participantCount",
          "type": "uint256"
        },
        {
          "internalType": "uint256",
          "name": "totalUSDValue",
          "type": "uint256"
        },
        {
          "internalType": "enum ProofChainVoting.VoteOption",
          "name": "winningOption",
          "type": "uint8"
        }
      ],
      "stateMutability": "view",
      "type": "function"
    },
    {
      "inputs": [
        {
          "internalType": "enum ProofChainVoting.TokenType",
          "name": "tokenType",
          "type": "uint8"
        }
      ],
      "name": "getTokenPriceUSD",
      "outputs": [
        {
          "internalType": "uint256",
          "name": "",
          "type": "uint256"
        }
      ],
      "stateMutability": "view",
      "type": "function"
    },
    {
      "inputs": [
        {
          "internalType": "uint256",
          "name": "contentId",
          "type": "uint256"
        },
        {
          "internalType": "address",
          "name": "user",
          "type": "address"
        }
      ],
      "name": "getUserVote",
      "outputs": [
        {
          "internalType": "bool",
          "name": "hasVoted",
          "type": "bool"
        },
        {
          "internalType": "enum ProofChainVoting.VoteOption",
          "name": "vote",
          "type": "uint8"
        },
        {
          "internalType": "uint8",
          "name": "confidence",
          "type": "uint8"
        },
        {
          "internalType": "enum ProofChainVoting.TokenType",
          "name": "tokenType",
          "type": "uint8"
        },
        {
          "internalType": "uint256",
          "name": "stakeAmount",
          "type": "uint256"
        },
        {
          "internalType": "uint256",
          "name": "votingWeight",
          "type": "uint256"
        },
        {
          "internalType": "uint256",
          "name": "timestamp",
          "type": "uint256"
        }
      ],
      "stateMutability": "view",
      "type": "function"
    },
    {
      "inputs": [
        {
          "internalType": "address",
          "name": "user",
          "type": "address"
        },
        {
          "internalType": "bytes32[]",
          "name": "merkleProof",
          "type": "bytes32[]"
        }
      ],
      "name": "isVerifiedIdentity",
      "outputs": [
        {
          "internalType": "bool",
          "name": "",
          "type": "bool"
        }
      ],
      "stateMutability": "view",
      "type": "function"
    },
    {
      "inputs": [],
      "name": "merkleRoot",
      "outputs": [
        {
          "internalType": "bytes32",
          "name": "",
          "type": "bytes32"
        }
      ],
      "stateMutability": "view",
      "type": "function"
    },
    {
      "inputs": [],
      "name": "owner",
      "outputs": [
        {
          "internalType": "address",
          "name": "",
          "type": "address"
        }
      ],
      "stateMutability": "view",
      "type": "function"
    },
    {
      "inputs": [],
      "name": "renounceOwnership",
      "outputs": [],
      "stateMutability": "nonpayable",
      "type": "function"
    },
    {
      "inputs": [
        {
          "internalType": "string",
          "name": "ipfsHash",
          "type": "string"
        },
        {
          "internalType": "uint256",
          "name": "votingDuration",
          "type": "uint256"
        }
      ],
      "name": "submitContent",
      "outputs": [
        {
          "internalType": "uint256",
          "name": "",
          "type": "uint256"
        }
      ],
      "stateMutability": "nonpayable",
      "type": "function"
    },
    {
      "inputs": [
        {
          "internalType": "uint256",
          "name": "contentId",
          "type": "uint256"
        },
        {
          "internalType": "enum ProofChainVoting.VoteOption",
          "name": "vote",
          "type": "uint8"
        },
        {
          "internalType": "uint8",
          "name": "confidence",
          "type": "uint8"
        },
        {
          "internalType": "enum ProofChainVoting.TokenType",
          "name": "tokenType",
          "type": "uint8"
        },
        {
          "internalType": "uint256",
          "name": "stakeAmount",
          "type": "uint256"
        },
        {
          "internalType": "bytes32[]",
          "name": "merkleProof",
          "type": "bytes32[]"
        }
      ],
      "name": "submitVote",
      "outputs": [],
      "stateMutability": "payable",
      "type": "function"
    },
    {
      "inputs": [
        {
          "internalType": "enum ProofChainVoting.TokenType",
          "name": "",
          "type": "uint8"
        }
      ],
      "name": "supportedTokens",
      "outputs": [
        {
          "internalType": "address",
          "name": "tokenAddress",
          "type": "address"
        },
        {
          "internalType": "address",
          "name": "priceOracle",
          "type": "address"
        },
        {
          "internalType": "uint8",
          "name": "decimals",
          "type": "uint8"
        },
        {
          "internalType": "uint256",
          "name": "bonusMultiplier",
          "type": "uint256"
        },
        {
          "internalType": "uint256",
          "name": "minStakeAmount",
          "type": "uint256"
        },
        {
          "internalType": "bool",
          "name": "isActive",
          "type": "bool"
        }
      ],
      "stateMutability": "view",
      "type": "function"
    },
    {
      "inputs": [
        {
          "internalType": "address",
          "name": "newOwner",
          "type": "address"
        }
      ],
      "name": "transferOwnership",
      "outputs": [],
      "stateMutability": "nonpayable",
      "type": "function"
    },
    {
      "inputs": [
        {
          "internalType": "bytes32",
          "name": "newMerkleRoot",
          "type": "bytes32"
        }
      ],
      "name": "updateMerkleRoot",
      "outputs": [],
      "stateMutability": "nonpayable",
      "type": "function"
    },
    {
      "inputs": [
        {
          "internalType": "uint256",
          "name": "",
          "type": "uint256"
        },
        {
          "internalType": "address",
          "name": "",
          "type": "address"
        }
      ],
      "name": "userVotes",
      "outputs": [
        {
          "internalType": "bool",
          "name": "hasVoted",
          "type": "bool"
        },
        {
          "internalType": "enum ProofChainVoting.VoteOption",
          "name": "vote",
          "type": "uint8"
        },
        {
          "internalType": "uint8",
          "name": "confidence",
          "type": "uint8"
        },
        {
          "internalType": "enum ProofChainVoting.TokenType",
          "name": "tokenType",
          "type": "uint8"
        },
        {
          "internalType": "uint256",
          "name": "stakeAmount",
          "type": "uint256"
        },
        {
          "internalType": "uint256",
          "name": "votingWeight",
          "type": "uint256"
        },
        {
          "internalType": "uint256",
          "name": "timestamp",
          "type": "uint256"
        }
      ],
      "stateMutability": "view",
      "type": "function"
    }
  ],
  "bytecode": "0x6080346100a057601f611e9a38819003918201601f19168301916001600160401b038311848410176100a5578084926020946040528339810103126100a0575160008054336001600160a01b0319821681178355604051939290916001600160a01b0316907f8be0079c531659141344cd1fd0a4f28419497f9722a3daafe3b4186f6b6457e09080a3600180556002556000600355611dde90816100bc8239f35b600080fd5b634e487b7160e01b600052604160045260246000fdfe608080604052600436101561001357600080fd5b60003560e01c90816303c7881a1461161f57508063215809ca146116035780632eb4a7ab146115e55780633f572d361461156e5780634783f0ef1461154d57806349444831146113e257806363025f6d1461139457806367c95bde14611359578063714d985f14611329578063715018a6146112d05780637354c7e3146112a85780637509c33014611081578063782631a014610ad8578063877baeaa14610ab75780638da5cb5b14610a8e578063a64e024a14610a70578063b53d568a146108b9578063b5ecf91214610808578063ccf62c3d146106f0578063dad3fc1314610285578063e6a9aba314610267578063f2fde38b1461019e5763fe5b3e3b1461011c57600080fd5b3461019957604036600319011261019957610135611702565b600435600052600660205260406000209060018060a01b0316600052602052604060002080546101956001830154926003600282015491015490604051948460ff879660181c169060ff8160101c169060ff808260081c16911688611748565b0390f35b600080fd5b34610199576020366003190112610199576101b7611718565b6101bf611986565b6001600160a01b0390811690811561021357600054826bffffffffffffffffffffffff60a01b821617600055167f8be0079c531659141344cd1fd0a4f28419497f9722a3daafe3b4186f6b6457e0600080a3005b60405162461bcd60e51b815260206004820152602660248201527f4f776e61626c653a206e6577206f776e657220697320746865207a65726f206160448201526564647265737360d01b6064820152608490fd5b34610199576000366003190112610199576020600354604051908152f35b34610199576040366003190112610199576001600160401b036004351161019957366023600435011215610199576001600160401b03600435600401351161019957366024600435600401356004350101116101995760243560043560040135156106ab57603c8110158061069e575b15610659576103136103086003546119de565b918260035542611a03565b9060405191606083018381106001600160401b03821117610643576040526000835260006020840152600060408401526040519261035084611888565b60405161036c600480350135601f01601f1916602001826118bf565b6004803590810135808352906024016020830137600060206004356004013583010152845242602085015281604085015233606085015260016080850152600060a085015260c0840152600060e08401526000610100840152600061012084015281600052600560205260406000209280518051906001600160401b0382116106435781906103fb8754611833565b601f81116105f3575b50602090601f83116001146105875760009261057c575b50508160011b916000199060031b1c19161784555b60208101516001850155604081015160028501556003840160018060a01b0360608301511681549060ff60a01b6080850151151560a01b169060ff60a81b60a0860151151560a81b169269ffffffffffffffffffff60b01b16171717905560c081015160005b6003811061056557505060e081015160078501556101008101516008850155610120015192600384101561054f5760209360096104d39201611a2f565b604051906040825260043560040135604083015260043560040135602460043501606084013760006060600435600401358401015283820152817fbc19d37dc499c8455564517e576d7d380a7a6f6f340aefd0ee7007abb30a6c423392606081601f19601f6004356004013501168101030190a3604051908152f35b634e487b7160e01b600052602160045260246000fd5b600190602083519301926004828901015501610496565b01519050868061041b565b9250866000526020600020906000935b601f19841685106105d8576001945083601f198116106105bf575b505050811b018455610430565b015160001960f88460031b161c191690558680806105b2565b81810151835560209485019460019093019290910190610597565b909150866000526020600020601f840160051c81016020851061063c575b90849392915b601f830160051c8201811061062d575050610404565b60008155859450600101610617565b5080610611565b634e487b7160e01b600052604160045260246000fd5b60405162461bcd60e51b815260206004820152601760248201527f496e76616c696420766f74696e67206475726174696f6e0000000000000000006044820152606490fd5b5062093a808111156102f5565b60405162461bcd60e51b815260206004820152601960248201527f4950465320686173682063616e6e6f7420626520656d707479000000000000006044820152606490fd5b34610199576106fe36611814565b90610707611986565b600981101561054f576001810361074e575060008080809360018060a01b03825416828215610745575bf11561073957005b6040513d6000823e3d90fd5b506108fc610731565b61075960209161178b565b916044604051610768816118a4565b60018060a01b039060a060ff600484895416988985528260018201548781168b880152851c16604086015260028101546060860152600381015460808601520154161515910152600054166000604051958694859363a9059cbb60e01b8552600485015260248401525af18015610739576107df57005b6107ff9060203d8111610801575b6107f781836118bf565b810190611ad5565b005b503d6107ed565b346101995760203660031901126101995760043560005260056020526108736040600020610835816118e0565b90610195600182015491600281015490600381015460ff60078301549181600960088601549501541694604051998a99610120808c528b01906117d4565b9760208a0152604089015260018060a01b0381166060890152818160a01c161515608089015260a81c16151560a087015260c086015260e085015261010084019061172e565b346101995760c0366003190112610199576004356009811015610199576108de611702565b6001600160a01b039060443582811690819003610199576064359060ff82168092036101995761090c611986565b8415610a365780156109fa576109ed604093600487877fd7e0ffe3c5e893c914e856817d8bfcf09e393c7926b6cf6fd55867404db05cb198885194610950866118a4565b16968785526020850187815289860191825260608601916084358352608087019360a43585528061098860a08a01976001895261178b565b9851166bffffffffffffffffffffffff60a01b8954161788556001880192511682549160ff60a01b905160a01b16916affffffffffffffffffffff60a81b161717905551600285015551600384015551151591019060ff801983541691151516179055565b82519182526020820152a2005b60405162461bcd60e51b8152602060048201526014602482015273496e76616c6964207072696365206f7261636c6560601b6044820152606490fd5b60405162461bcd60e51b8152602060048201526012602482015271496e76616c696420746f6b656e207479706560701b6044820152606490fd5b3461019957600036600319011261019957602060405162093a808152f35b34610199576000366003190112610199576000546040516001600160a01b039091168152602090f35b34610199576020610ad0610aca36611814565b90611c0a565b604051908152f35b60c036600319011261019957600360243510156101995760ff604435166044350361019957600960643510156101995760a4356001600160401b03811161019957610b279036906004016117a4565b9060026001541461103c5760026001556004356000526005602052604060002091610b5b60ff600385015460a01c16611a47565b6002830154421161100157600435600052600660205260406000203360005260205260ff60406000205416610fcc57600160ff60443516101580610fbc575b15610f7757610bb960ff6004610bb160643561178b565b015416611a93565b6003610bc660643561178b565b015460843510610f3b5780610ee7575b5050606435600103610dd9576084353403610d9d575b610bfa608435606435611c0a565b610c156002610c0a60643561178b565b015460443583611c48565b9160405190610c238261186d565b600182526020820190610c3860243583611a10565b604083019160ff6044351683526060840192610c5660643585611aed565b60843560808601528660a08601524260c08601526004356000526006602052604060002033600052602052604060002091610ca086511515849060ff801983541691151516179055565b5194600386101561054f5762ff00008354925160101b16945190600982101561054f57610d349660089660039461ff0063ff00000060c09660181b16938a1b169063ffffff00191617171784556080810151600185015560a0810151600285015501519101556004602435820101610d19868254611a03565b905560078101610d2981546119de565b905501918254611a03565b905560405190610d468260243561172e565b60ff604435166020830152610d606040830160643561173b565b6084356060830152608082015233907ff641c07ff9548b4d94093e2363e7bead14740019250d143f6e940989f4e91bb360a060043592a360018055005b60405162461bcd60e51b8152602060048201526014602482015273125b98dbdc9c9958dd0811551208185b5bdd5b9d60621b6044820152606490fd5b34610e985760006020610ded60643561178b565b604051610df9816118a4565b60a060ff6004600180841b0394828682541696878752600183015490811689880152851c166040860152600281015460608601526003810154608086015201541615159101526064604051809481936323b872dd60e01b835233600484015230602484015260843560448401525af1801561073957610e79575b50610bec565b610e919060203d602011610801576107f781836118bf565b5081610e73565b60405162461bcd60e51b815260206004820152602160248201527f455448206e6f7420657870656374656420666f7220455243323020746f6b656e6044820152607360f81b6064820152608490fd5b610ef19133611cb9565b15610efd578180610bd6565b60405162461bcd60e51b815260206004820152601660248201527524b73b30b634b21034b232b73a34ba3c90383937b7b360511b6044820152606490fd5b60405162461bcd60e51b81526020600482015260146024820152735374616b6520616d6f756e7420746f6f206c6f7760601b6044820152606490fd5b60405162461bcd60e51b815260206004820152601860248201527f496e76616c696420636f6e666964656e6365206c6576656c00000000000000006044820152606490fd5b50600a60ff604435161115610b9a565b60405162461bcd60e51b815260206004820152600d60248201526c105b1c9958591e481d9bdd1959609a1b6044820152606490fd5b60405162461bcd60e51b8152602060048201526013602482015272159bdd1a5b99c81c195c9a5bd908195b991959606a1b6044820152606490fd5b60405162461bcd60e51b815260206004820152601f60248201527f5265656e7472616e637947756172643a207265656e7472616e742063616c6c006044820152606490fd5b346101995760203660031901126101995760043560005260056020526040600020604051906110af82611888565b6110b8816118e0565b8252600181015490602083019182526002810154604084015260ff600382015460018060a01b0381166060860152818160a01c161515608086015260a81c16151560a0840152604051908160048201906000905b600382106112925750505060608201916001600160401b0392818110848211176106435760405260c0850152600781015460e08501526008810154610100850152600901546111629060ff166101208501611a10565b6040519060808201908111828210176106435760405260038152606036602083013760c08301515181511561127c576020820152602060c0840151015181516001101561127c576040820152604060c0840151015181516002101561127c5760608201528251915192604081015193608082015115159060a0830151151560e08401519261012061010086015195015197600389101561054f57611213604051986101208a526101208a01906117d4565b93602089015260408801526060870152608086015284810360a08601526020808551928381520194019060005b818110611266575050509361019591849560c086015260e085015261010084019061172e565b8251865260209586019590920191600101611240565b634e487b7160e01b600052603260045260246000fd5b600160208192855481520193019101909161110c565b3461019957602036600319011261019957600435600981101561019957610ad0602091611b10565b34610199576000366003190112610199576112e9611986565b600080546001600160a01b0319811682556001600160a01b03167f8be0079c531659141344cd1fd0a4f28419497f9722a3daafe3b4186f6b6457e08280a3005b346101995760603660031901126101995760243560ff8116810361019957610ad060209160443590600435611c48565b3461019957602036600319011261019957600435600981101561019957611389600491611384611986565b61178b565b01805460ff19169055005b34610199576040366003190112610199576113ad611718565b6024356001600160401b038111610199576020916113d26113d89236906004016117a4565b91611cb9565b6040519015158152f35b346101995760203660031901126101995760043580600052600560205260406000206003810190815461141a60ff8260a01c16611a47565b60028201544211156115085760a81c60ff166114cf577fbbbe9b42ddfa0692cd5f3dc618525dde4b8fe438fe573f13b3fa9fb1287d6fcd91606091600091600482015460058301548181116114c3575b506006830154116114ba575b6114838360098401611a2f565b600160a81b61ffff60a01b1982541617905560086007820154910154906114ad604051809461172e565b60208301526040820152a2005b60029250611476565b9350506001928761146a565b60405162461bcd60e51b8152602060048201526011602482015270105b1c9958591e48199a5b985b1a5e9959607a1b6044820152606490fd5b60405162461bcd60e51b815260206004820152601760248201527f566f74696e6720706572696f64206e6f7420656e6465640000000000000000006044820152606490fd5b3461019957602036600319011261019957611566611986565b600435600255005b346101995760203660031901126101995760043560098110156101995761159660c09161178b565b60018060a01b038082541691600181015460ff600283015491816004600386015495015416946040519687528116602087015260a01c16604085015260608401526080830152151560a0820152f35b34610199576000366003190112610199576020600254604051908152f35b34610199576000366003190112610199576020604051603c8152f35b3461019957604036600319011261019957611638611702565b600435600052600660205260406000209060018060a01b031660005260205260406000206116658261186d565b80549060ff821615158352602083019161168560ff8260081c1684611a10565b604084019360ff8260101c1685526116a760ff606083019360181c1683611aed565b60018301549260808201938452600360028201549160a0840192835201549160c08101928352511515945195600387101561054f5760ff9051169251600981101561054f576101959451915192519360405197889788611748565b602435906001600160a01b038216820361019957565b600435906001600160a01b038216820361019957565b90600382101561054f5752565b90600982101561054f5752565b9360ff61177d929998979461176d60c0989560e089019c15158952602089019061172e565b166040860152606085019061173b565b608083015260a08201520152565b600981101561054f576000526004602052604060002090565b9181601f84011215610199578235916001600160401b038311610199576020808501948460051b01011161019957565b919082519283825260005b848110611800575050826000602080949584010152601f8019910116010190565b6020818301810151848301820152016117df565b6040906003190112610199576004356009811015610199579060243590565b90600182811c92168015611863575b602083101461184d57565b634e487b7160e01b600052602260045260246000fd5b91607f1691611842565b60e081019081106001600160401b0382111761064357604052565b61014081019081106001600160401b0382111761064357604052565b60c081019081106001600160401b0382111761064357604052565b90601f801991011681019081106001600160401b0382111761064357604052565b90604051918260008254926118f484611833565b9081845260019485811690816000146119635750600114611920575b505061191e925003836118bf565b565b9093915060005260209081600020936000915b81831061194b57505061191e93508201013880611910565b85548884018501529485019487945091830191611933565b91505061191e94506020925060ff191682840152151560051b8201013880611910565b6000546001600160a01b0316330361199a57565b606460405162461bcd60e51b815260206004820152602060248201527f4f776e61626c653a2063616c6c6572206973206e6f7420746865206f776e65726044820152fd5b60001981146119ed5760010190565b634e487b7160e01b600052601160045260246000fd5b919082018092116119ed57565b600382101561054f5752565b818102929181159184041417156119ed57565b90600381101561054f5760ff80198354169116179055565b15611a4e57565b60405162461bcd60e51b815260206004820152601d60248201527f436f6e74656e74206e6f7420666f756e64206f7220696e6163746976650000006044820152606490fd5b15611a9a57565b60405162461bcd60e51b8152602060048201526013602482015272151bdad95b881b9bdd081cdd5c1c1bdc9d1959606a1b6044820152606490fd5b90816020910312610199575180151581036101995790565b600982101561054f5752565b519069ffffffffffffffffffff8216820361019957565b60a0600491611b2460ff84610bb18461178b565b6001611b348180851b039261178b565b01541660405192838092633fabe5a360e21b82525afa90811561073957600091611b9b575b506000811315611b665790565b60405162461bcd60e51b815260206004820152600d60248201526c496e76616c696420707269636560981b6044820152606490fd5b9060a0823d8211611be2575b81611bb460a093836118bf565b81010312611bdf5750611bc681611af9565b50611bd8608060208301519201611af9565b5038611b59565b80fd5b3d9150611ba7565b8115611bf4570490565b634e487b7160e01b600052601260045260246000fd5b611c309060ff6001611c24611c1e84611b10565b9361178b565b015460a01c1692611a1c565b604d82116119ed57611c4591600a0a90611bea565b90565b9060018083016000818511611ca55750811c90835b848310611c855750505091611c7c611c819260ff6103e8951690611a1c565b611a1c565b0490565b90919350611c9c84611c978184611bea565b611a03565b821c9190611c5d565b634e487b7160e01b81526011600452602490fd5b60408051606092831b6bffffffffffffffffffffffff191660208083019182526014835295968284019693956001600160401b03959392868911848a1017610643578888528351902090600254968a1161064357600599808b1b90611d208883018c6118bf565b8a5285850190820191368311610199578790915b838310611d985750505050946000955b8851871015611d8c57868a1b84018501519088600083831015611d7c5750506000528552611d76876000205b966119de565b95611d44565b9091611d76938252885220611d70565b14975095505050505050565b8235815291810191889101611d3456fea2646970667358221220aa180ab336f662417e2104815b9bfcada89b5c081ffc8fd25e79d2b5c326bcf264736f6c63430008130033",
  "linkReferences": {},
  "deployedLinkReferences": {}
}