{"contracts/MockAggregatorV3.sol":{"MockAggregatorV3":{"abi":[{"inputs":[{"internalType":"int256","name":"_answer","type":"int256"}],"stateMutability":"nonpayable","type":"constructor"},{"inputs":[],"name":"DECIMALS","outputs":[{"internalType":"uint8","name":"","type":"uint8"}],"stateMutability":"view","type":"function"},{"inputs":[],"name":"answer","outputs":[{"internalType":"int256","name":"","type":"int256"}],"stateMutability":"view","type":"function"},{"inputs":[],"name":"decimals","outputs":[{"internalType":"uint8","name":"","type":"uint8"}],"stateMutability":"pure","type":"function"},{"inputs":[],"name":"description","outputs":[{"internalType":"string","name":"","type":"string"}],"stateMutability":"pure","type":"function"},{"inputs":[{"internalType":"uint80","name":"_roundId","type":"uint80"}],"name":"getRoundData","outputs":[{"internalType":"uint80","name":"roundId","type":"uint80"},{"internalType":"int256","name":"answer","type":"int256"},{"internalType":"uint256","name":"startedAt","type":"uint256"},{"internalType":"uint256","name":"updatedAt","type":"uint256"},{"internalType":"uint80","name":"answeredInRound","type":"uint80"}],"stateMutability":"view","type":"function"},{"inputs":[],"name":"latestRoundData","outputs":[{"internalType":"uint80","name":"roundId","type":"uint80"},{"internalType":"int256","name":"answer","type":"int256"},{"internalType":"uint256","name":"startedAt","type":"uint256"},{"internalType":"uint256","name":"updatedAt","type":"uint256"},{"internalType":"uint80","name":"answeredInRound","type":"uint80"}],"stateMutability":"view","type":"function"},{"inputs":[{"internalType":"int256","name":"_newAnswer","type":"int256"}],"name":"updateAnswer","outputs":[],"stateMutability":"nonpayable","type":"function"},{"inputs":[],"name":"version","outputs":[{"internalType":"uint256","name":"","type":"uint256"}],"stateMutability":"pure","type":"function"}],"evm":{"bytecode":{"linkReferences":{},"object":"608060405234801561001057600080fd5b506040516102ad3803806102ad83398101604081905261002f91610037565b600055610050565b60006020828403121561004957600080fd5b5051919050565b61024e8061005f6000396000f3fe608060405234801561001057600080fd5b50600436106100885760003560e01c806385bb7d691161005b57806385bb7d69146101035780639a6fc8f51461010c578063a87a20ce1461015d578063feaf968c1461017257600080fd5b80632e0f26251461008d578063313ce567146100ac57806354fd4d50146100b35780637284e416146100c4575b600080fd5b610095600881565b60405160ff90911681526020015b60405180910390f35b6008610095565b60015b6040519081526020016100a3565b604080518082018252601781527f4d6f636b204554482f5553442050726963652046656564000000000000000000602082015290516100a3919061017e565b6100b660005481565b61012661011a3660046101cc565b90600090429081908490565b6040805169ffffffffffffffffffff968716815260208101959095528401929092526060830152909116608082015260a0016100a3565b61017061016b3660046101ff565b600055565b005b60016000428083610126565b600060208083528351808285015260005b818110156101ab5785810183015185820160400152820161018f565b506000604082860101526040601f19601f8301168501019250505092915050565b6000602082840312156101de57600080fd5b813569ffffffffffffffffffff811681146101f857600080fd5b9392505050565b60006020828403121561021157600080fd5b503591905056fea2646970667358221220fef15d8b63404ea90910fff0cc5854c0761ce3b905f3785512467be9e1aedd7764736f6c63430008130033","opcodes":"PUSH1 0x80 PUSH1 0x40 MSTORE CALLVALUE DUP1 ISZERO PUSH2 0x10 JUMPI PUSH1 0x0 DUP1 REVERT JUMPDEST POP PUSH1 0x40 MLOAD PUSH2 0x2AD CODESIZE SUB DUP1 PUSH2 0x2AD DUP4 CODECOPY DUP2 ADD PUSH1 0x40 DUP2 SWAP1 MSTORE PUSH2 0x2F SWAP2 PUSH2 0x37 JUMP JUMPDEST PUSH1 0x0 SSTORE PUSH2 0x50 JUMP JUMPDEST PUSH1 0x0 PUSH1 0x20 DUP3 DUP5 SUB SLT ISZERO PUSH2 0x49 JUMPI PUSH1 0x0 DUP1 REVERT JUMPDEST POP MLOAD SWAP2 SWAP1 POP JUMP JUMPDEST PUSH2 0x24E DUP1 PUSH2 0x5F PUSH1 0x0 CODECOPY PUSH1 0x0 RETURN INVALID PUSH1 0x80 PUSH1 0x40 MSTORE CALLVALUE DUP1 ISZERO PUSH2 0x10 JUMPI PUSH1 0x0 DUP1 REVERT JUMPDEST POP PUSH1 0x4 CALLDATASIZE LT PUSH2 0x88 JUMPI PUSH1 0x0 CALLDATALOAD PUSH1 0xE0 SHR DUP1 PUSH4 0x85BB7D69 GT PUSH2 0x5B JUMPI DUP1 PUSH4 0x85BB7D69 EQ PUSH2 0x103 JUMPI DUP1 PUSH4 0x9A6FC8F5 EQ PUSH2 0x10C JUMPI DUP1 PUSH4 0xA87A20CE EQ PUSH2 0x15D JUMPI DUP1 PUSH4 0xFEAF968C EQ PUSH2 0x172 JUMPI PUSH1 0x0 DUP1 REVERT JUMPDEST DUP1 PUSH4 0x2E0F2625 EQ PUSH2 0x8D JUMPI DUP1 PUSH4 0x313CE567 EQ PUSH2 0xAC JUMPI DUP1 PUSH4 0x54FD4D50 EQ PUSH2 0xB3 JUMPI DUP1 PUSH4 0x7284E416 EQ PUSH2 0xC4 JUMPI JUMPDEST PUSH1 0x0 DUP1 REVERT JUMPDEST PUSH2 0x95 PUSH1 0x8 DUP2 JUMP JUMPDEST PUSH1 0x40 MLOAD PUSH1 0xFF SWAP1 SWAP2 AND DUP2 MSTORE PUSH1 0x20 ADD JUMPDEST PUSH1 0x40 MLOAD DUP1 SWAP2 SUB SWAP1 RETURN JUMPDEST PUSH1 0x8 PUSH2 0x95 JUMP JUMPDEST PUSH1 0x1 JUMPDEST PUSH1 0x40 MLOAD SWAP1 DUP2 MSTORE PUSH1 0x20 ADD PUSH2 0xA3 JUMP JUMPDEST PUSH1 0x40 DUP1 MLOAD DUP1 DUP3 ADD DUP3 MSTORE PUSH1 0x17 DUP2 MSTORE PUSH32 0x4D6F636B204554482F5553442050726963652046656564000000000000000000 PUSH1 0x20 DUP3 ADD MSTORE SWAP1 MLOAD PUSH2 0xA3 SWAP2 SWAP1 PUSH2 0x17E JUMP JUMPDEST PUSH2 0xB6 PUSH1 0x0 SLOAD DUP2 JUMP JUMPDEST PUSH2 0x126 PUSH2 0x11A CALLDATASIZE PUSH1 0x4 PUSH2 0x1CC JUMP JUMPDEST SWAP1 PUSH1 0x0 SWAP1 TIMESTAMP SWAP1 DUP2 SWAP1 DUP5 SWAP1 JUMP JUMPDEST PUSH1 0x40 DUP1 MLOAD PUSH10 0xFFFFFFFFFFFFFFFFFFFF SWAP7 DUP8 AND DUP2 MSTORE PUSH1 0x20 DUP2 ADD SWAP6 SWAP1 SWAP6 MSTORE DUP5 ADD SWAP3 SWAP1 SWAP3 MSTORE PUSH1 0x60 DUP4 ADD MSTORE SWAP1 SWAP2 AND PUSH1 0x80 DUP3 ADD MSTORE PUSH1 0xA0 ADD PUSH2 0xA3 JUMP JUMPDEST PUSH2 0x170 PUSH2 0x16B CALLDATASIZE PUSH1 0x4 PUSH2 0x1FF JUMP JUMPDEST PUSH1 0x0 SSTORE JUMP JUMPDEST STOP JUMPDEST PUSH1 0x1 PUSH1 0x0 TIMESTAMP DUP1 DUP4 PUSH2 0x126 JUMP JUMPDEST PUSH1 0x0 PUSH1 0x20 DUP1 DUP4 MSTORE DUP4 MLOAD DUP1 DUP3 DUP6 ADD MSTORE PUSH1 0x0 JUMPDEST DUP2 DUP2 LT ISZERO PUSH2 0x1AB JUMPI DUP6 DUP2 ADD DUP4 ADD MLOAD DUP6 DUP3 ADD PUSH1 0x40 ADD MSTORE DUP3 ADD PUSH2 0x18F JUMP JUMPDEST POP PUSH1 0x0 PUSH1 0x40 DUP3 DUP7 ADD ADD MSTORE PUSH1 0x40 PUSH1 0x1F NOT PUSH1 0x1F DUP4 ADD AND DUP6 ADD ADD SWAP3 POP POP POP SWAP3 SWAP2 POP POP JUMP JUMPDEST PUSH1 0x0 PUSH1 0x20 DUP3 DUP5 SUB SLT ISZERO PUSH2 0x1DE JUMPI PUSH1 0x0 DUP1 REVERT JUMPDEST DUP2 CALLDATALOAD PUSH10 0xFFFFFFFFFFFFFFFFFFFF DUP2 AND DUP2 EQ PUSH2 0x1F8 JUMPI PUSH1 0x0 DUP1 REVERT JUMPDEST SWAP4 SWAP3 POP POP POP JUMP JUMPDEST PUSH1 0x0 PUSH1 0x20 DUP3 DUP5 SUB SLT ISZERO PUSH2 0x211 JUMPI PUSH1 0x0 DUP1 REVERT JUMPDEST POP CALLDATALOAD SWAP2 SWAP1 POP JUMP INVALID LOG2 PUSH5 0x6970667358 0x22 SLT KECCAK256 INVALID CALL 0x5D DUP12 PUSH4 0x404EA909 LT SELFDESTRUCT CREATE 0xCC PC SLOAD 0xC0 PUSH23 0x1CE3B905F3785512467BE9E1AEDD7764736F6C63430008 SGT STOP CALLER "},"methodIdentifiers":{"DECIMALS()":"2e0f2625","answer()":"85bb7d69","decimals()":"313ce567","description()":"7284e416","getRoundData(uint80)":"9a6fc8f5","latestRoundData()":"feaf968c","updateAnswer(int256)":"a87a20ce","version()":"54fd4d50"}}}}}