{"contracts/ProofChainVoting.sol":{"ProofChainVoting":{"abi":[{"inputs":[{"internalType":"bytes32","name":"_merkleRoot","type":"bytes32"}],"stateMutability":"nonpayable","type":"constructor"},{"anonymous":false,"inputs":[{"indexed":true,"internalType":"uint256","name":"contentId","type":"uint256"},{"indexed":false,"internalType":"string","name":"ipfsHash","type":"string"},{"indexed":false,"internalType":"uint256","name":"votingDeadline","type":"uint256"},{"indexed":true,"internalType":"address","name":"creator","type":"address"}],"name":"ContentSubmitted","type":"event"},{"anonymous":false,"inputs":[{"indexed":true,"internalType":"address","name":"previousOwner","type":"address"},{"indexed":true,"internalType":"address","name":"newOwner","type":"address"}],"name":"OwnershipTransferred","type":"event"},{"anonymous":false,"inputs":[{"indexed":true,"internalType":"enum ProofChainVoting.TokenType","name":"tokenType","type":"uint8"},{"indexed":false,"internalType":"address","name":"tokenAddress","type":"address"},{"indexed":false,"internalType":"address","name":"priceOracle","type":"address"}],"name":"TokenAdded","type":"event"},{"anonymous":false,"inputs":[{"indexed":true,"internalType":"uint256","name":"contentId","type":"uint256"},{"indexed":true,"internalType":"address","name":"voter","type":"address"},{"indexed":false,"internalType":"enum ProofChainVoting.VoteOption","name":"vote","type":"uint8"},{"indexed":false,"internalType":"uint8","name":"confidence","type":"uint8"},{"indexed":false,"internalType":"enum ProofChainVoting.TokenType","name":"tokenType","type":"uint8"},{"indexed":false,"internalType":"uint256","name":"stakeAmount","type":"uint256"},{"indexed":false,"internalType":"uint256","name":"votingWeight","type":"uint256"}],"name":"VoteSubmitted","type":"event"},{"anonymous":false,"inputs":[{"indexed":true,"internalType":"uint256","name":"contentId","type":"uint256"},{"indexed":false,"internalType":"enum ProofChainVoting.VoteOption","name":"winningOption","type":"uint8"},{"indexed":false,"internalType":"uint256","name":"totalParticipants","type":"uint256"},{"indexed":false,"internalType":"uint256","name":"totalUSDValue","type":"uint256"}],"name":"VotingFinalized","type":"event"},{"inputs":[],"name":"MAX_VOTING_PERIOD","outputs":[{"internalType":"uint256","name":"","type":"uint256"}],"stateMutability":"view","type":"function"},{"inputs":[],"name":"MIN_VOTING_PERIOD","outputs":[{"internalType":"uint256","name":"","type":"uint256"}],"stateMutability":"view","type":"function"},{"inputs":[{"internalType":"enum ProofChainVoting.TokenType","name":"tokenType","type":"uint8"},{"internalType":"address","name":"tokenAddress","type":"address"},{"internalType":"address","name":"priceOracle","type":"address"},{"internalType":"uint8","name":"decimals","type":"uint8"},{"internalType":"uint256","name":"bonusMultiplier","type":"uint256"},{"internalType":"uint256","name":"minStakeAmount","type":"uint256"}],"name":"addToken","outputs":[],"stateMutability":"nonpayable","type":"function"},{"inputs":[{"internalType":"uint256","name":"usdValue","type":"uint256"},{"internalType":"uint8","name":"confidence","type":"uint8"},{"internalType":"uint256","name":"bonusMultiplier","type":"uint256"}],"name":"calculateVotingWeight","outputs":[{"internalType":"uint256","name":"","type":"uint256"}],"stateMutability":"pure","type":"function"},{"inputs":[],"name":"contentCounter","outputs":[{"internalType":"uint256","name":"","type":"uint256"}],"stateMutability":"view","type":"function"},{"inputs":[{"internalType":"uint256","name":"","type":"uint256"}],"name":"contents","outputs":[{"internalType":"string","name":"ipfsHash","type":"string"},{"internalType":"uint256","name":"submissionTime","type":"uint256"},{"internalType":"uint256","name":"votingDeadline","type":"uint256"},{"internalType":"address","name":"creator","type":"address"},{"internalType":"bool","name":"isActive","type":"bool"},{"internalType":"bool","name":"isFinalized","type":"bool"},{"internalType":"uint256","name":"participantCount","type":"uint256"},{"internalType":"uint256","name":"totalUSDValue","type":"uint256"},{"internalType":"enum ProofChainVoting.VoteOption","name":"winningOption","type":"uint8"}],"stateMutability":"view","type":"function"},{"inputs":[{"internalType":"enum ProofChainVoting.TokenType","name":"tokenType","type":"uint8"},{"internalType":"uint256","name":"tokenAmount","type":"uint256"}],"name":"convertToUSD","outputs":[{"internalType":"uint256","name":"","type":"uint256"}],"stateMutability":"view","type":"function"},{"inputs":[{"internalType":"enum ProofChainVoting.TokenType","name":"tokenType","type":"uint8"}],"name":"deactivateToken","outputs":[],"stateMutability":"nonpayable","type":"function"},{"inputs":[{"internalType":"enum ProofChainVoting.TokenType","name":"tokenType","type":"uint8"},{"internalType":"uint256","name":"amount","type":"uint256"}],"name":"emergencyWithdraw","outputs":[],"stateMutability":"nonpayable","type":"function"},{"inputs":[{"internalType":"uint256","name":"contentId","type":"uint256"}],"name":"finalizeVoting","outputs":[],"stateMutability":"nonpayable","type":"function"},{"inputs":[{"internalType":"uint256","name":"contentId","type":"uint256"}],"name":"getContentInfo","outputs":[{"internalType":"string","name":"ipfsHash","type":"string"},{"internalType":"uint256","name":"submissionTime","type":"uint256"},{"internalType":"uint256","name":"votingDeadline","type":"uint256"},{"internalType":"bool","name":"isActive","type":"bool"},{"internalType":"bool","name":"isFinalized","type":"bool"},{"internalType":"uint256[]","name":"voteDistribution","type":"uint256[]"},{"internalType":"uint256","name":"participantCount","type":"uint256"},{"internalType":"uint256","name":"totalUSDValue","type":"uint256"},{"internalType":"enum ProofChainVoting.VoteOption","name":"winningOption","type":"uint8"}],"stateMutability":"view","type":"function"},{"inputs":[{"internalType":"enum ProofChainVoting.TokenType","name":"tokenType","type":"uint8"}],"name":"getTokenPriceUSD","outputs":[{"internalType":"uint256","name":"","type":"uint256"}],"stateMutability":"view","type":"function"},{"inputs":[{"internalType":"uint256","name":"contentId","type":"uint256"},{"internalType":"address","name":"user","type":"address"}],"name":"getUserVote","outputs":[{"internalType":"bool","name":"hasVoted","type":"bool"},{"internalType":"enum ProofChainVoting.VoteOption","name":"vote","type":"uint8"},{"internalType":"uint8","name":"confidence","type":"uint8"},{"internalType":"enum ProofChainVoting.TokenType","name":"tokenType","type":"uint8"},{"internalType":"uint256","name":"stakeAmount","type":"uint256"},{"internalType":"uint256","name":"votingWeight","type":"uint256"},{"internalType":"uint256","name":"timestamp","type":"uint256"}],"stateMutability":"view","type":"function"},{"inputs":[{"internalType":"address","name":"user","type":"address"},{"internalType":"bytes32[]","name":"merkleProof","type":"bytes32[]"}],"name":"isVerifiedIdentity","outputs":[{"internalType":"bool","name":"","type":"bool"}],"stateMutability":"view","type":"function"},{"inputs":[],"name":"merkleRoot","outputs":[{"internalType":"bytes32","name":"","type":"bytes32"}],"stateMutability":"view","type":"function"},{"inputs":[],"name":"owner","outputs":[{"internalType":"address","name":"","type":"address"}],"stateMutability":"view","type":"function"},{"inputs":[],"name":"renounceOwnership","outputs":[],"stateMutability":"nonpayable","type":"function"},{"inputs":[{"internalType":"string","name":"ipfsHash","type":"string"},{"internalType":"uint256","name":"votingDuration","type":"uint256"}],"name":"submitContent","outputs":[{"internalType":"uint256","name":"","type":"uint256"}],"stateMutability":"nonpayable","type":"function"},{"inputs":[{"internalType":"uint256","name":"contentId","type":"uint256"},{"internalType":"enum ProofChainVoting.VoteOption","name":"vote","type":"uint8"},{"internalType":"uint8","name":"confidence","type":"uint8"},{"internalType":"enum ProofChainVoting.TokenType","name":"tokenType","type":"uint8"},{"internalType":"uint256","name":"stakeAmount","type":"uint256"},{"internalType":"bytes32[]","name":"merkleProof","type":"bytes32[]"}],"name":"submitVote","outputs":[],"stateMutability":"payable","type":"function"},{"inputs":[{"internalType":"enum ProofChainVoting.TokenType","name":"","type":"uint8"}],"name":"supportedTokens","outputs":[{"internalType":"address","name":"tokenAddress","type":"address"},{"internalType":"address","name":"priceOracle","type":"address"},{"internalType":"uint8","name":"decimals","type":"uint8"},{"internalType":"uint256","name":"bonusMultiplier","type":"uint256"},{"internalType":"uint256","name":"minStakeAmount","type":"uint256"},{"internalType":"bool","name":"isActive","type":"bool"}],"stateMutability":"view","type":"function"},{"inputs":[{"internalType":"address","name":"newOwner","type":"address"}],"name":"transferOwnership","outputs":[],"stateMutability":"nonpayable","type":"function"},{"inputs":[{"internalType":"bytes32","name":"newMerkleRoot","type":"bytes32"}],"name":"updateMerkleRoot","outputs":[],"stateMutability":"nonpayable","type":"function"},{"inputs":[{"internalType":"uint256","name":"","type":"uint256"},{"internalType":"address","name":"","type":"address"}],"name":"userVotes","outputs":[{"internalType":"bool","name":"hasVoted","type":"bool"},{"internalType":"enum ProofChainVoting.VoteOption","name":"vote","type":"uint8"},{"internalType":"uint8","name":"confidence","type":"uint8"},{"internalType":"enum ProofChainVoting.TokenType","name":"tokenType","type":"uint8"},{"internalType":"uint256","name":"stakeAmount","type":"uint256"},{"internalType":"uint256","name":"votingWeight","type":"uint256"},{"internalType":"uint256","name":"timestamp","type":"uint256"}],"stateMutability":"view","type":"function"}],"evm":{"bytecode":{"linkReferences":{},"object":"6080346100a057601f611e9a38819003918201601f19168301916001600160401b038311848410176100a5578084926020946040528339810103126100a0575160008054336001600160a01b0319821681178355604051939290916001600160a01b0316907f8be0079c531659141344cd1fd0a4f28419497f9722a3daafe3b4186f6b6457e09080a3600180556002556000600355611dde90816100bc8239f35b600080fd5b634e487b7160e01b600052604160045260246000fdfe608080604052600436101561001357600080fd5b60003560e01c90816303c7881a1461161f57508063215809ca146116035780632eb4a7ab146115e55780633f572d361461156e5780634783f0ef1461154d57806349444831146113e257806363025f6d1461139457806367c95bde14611359578063714d985f14611329578063715018a6146112d05780637354c7e3146112a85780637509c33014611081578063782631a014610ad8578063877baeaa14610ab75780638da5cb5b14610a8e578063a64e024a14610a70578063b53d568a146108b9578063b5ecf91214610808578063ccf62c3d146106f0578063dad3fc1314610285578063e6a9aba314610267578063f2fde38b1461019e5763fe5b3e3b1461011c57600080fd5b3461019957604036600319011261019957610135611702565b600435600052600660205260406000209060018060a01b0316600052602052604060002080546101956001830154926003600282015491015490604051948460ff879660181c169060ff8160101c169060ff808260081c16911688611748565b0390f35b600080fd5b34610199576020366003190112610199576101b7611718565b6101bf611986565b6001600160a01b0390811690811561021357600054826bffffffffffffffffffffffff60a01b821617600055167f8be0079c531659141344cd1fd0a4f28419497f9722a3daafe3b4186f6b6457e0600080a3005b60405162461bcd60e51b815260206004820152602660248201527f4f776e61626c653a206e6577206f776e657220697320746865207a65726f206160448201526564647265737360d01b6064820152608490fd5b34610199576000366003190112610199576020600354604051908152f35b34610199576040366003190112610199576001600160401b036004351161019957366023600435011215610199576001600160401b03600435600401351161019957366024600435600401356004350101116101995760243560043560040135156106ab57603c8110158061069e575b15610659576103136103086003546119de565b918260035542611a03565b9060405191606083018381106001600160401b03821117610643576040526000835260006020840152600060408401526040519261035084611888565b60405161036c600480350135601f01601f1916602001826118bf565b6004803590810135808352906024016020830137600060206004356004013583010152845242602085015281604085015233606085015260016080850152600060a085015260c0840152600060e08401526000610100840152600061012084015281600052600560205260406000209280518051906001600160401b0382116106435781906103fb8754611833565b601f81116105f3575b50602090601f83116001146105875760009261057c575b50508160011b916000199060031b1c19161784555b60208101516001850155604081015160028501556003840160018060a01b0360608301511681549060ff60a01b6080850151151560a01b169060ff60a81b60a0860151151560a81b169269ffffffffffffffffffff60b01b16171717905560c081015160005b6003811061056557505060e081015160078501556101008101516008850155610120015192600384101561054f5760209360096104d39201611a2f565b604051906040825260043560040135604083015260043560040135602460043501606084013760006060600435600401358401015283820152817fbc19d37dc499c8455564517e576d7d380a7a6f6f340aefd0ee7007abb30a6c423392606081601f19601f6004356004013501168101030190a3604051908152f35b634e487b7160e01b600052602160045260246000fd5b600190602083519301926004828901015501610496565b01519050868061041b565b9250866000526020600020906000935b601f19841685106105d8576001945083601f198116106105bf575b505050811b018455610430565b015160001960f88460031b161c191690558680806105b2565b81810151835560209485019460019093019290910190610597565b909150866000526020600020601f840160051c81016020851061063c575b90849392915b601f830160051c8201811061062d575050610404565b60008155859450600101610617565b5080610611565b634e487b7160e01b600052604160045260246000fd5b60405162461bcd60e51b815260206004820152601760248201527f496e76616c696420766f74696e67206475726174696f6e0000000000000000006044820152606490fd5b5062093a808111156102f5565b60405162461bcd60e51b815260206004820152601960248201527f4950465320686173682063616e6e6f7420626520656d707479000000000000006044820152606490fd5b34610199576106fe36611814565b90610707611986565b600981101561054f576001810361074e575060008080809360018060a01b03825416828215610745575bf11561073957005b6040513d6000823e3d90fd5b506108fc610731565b61075960209161178b565b916044604051610768816118a4565b60018060a01b039060a060ff600484895416988985528260018201548781168b880152851c16604086015260028101546060860152600381015460808601520154161515910152600054166000604051958694859363a9059cbb60e01b8552600485015260248401525af18015610739576107df57005b6107ff9060203d8111610801575b6107f781836118bf565b810190611ad5565b005b503d6107ed565b346101995760203660031901126101995760043560005260056020526108736040600020610835816118e0565b90610195600182015491600281015490600381015460ff60078301549181600960088601549501541694604051998a99610120808c528b01906117d4565b9760208a0152604089015260018060a01b0381166060890152818160a01c161515608089015260a81c16151560a087015260c086015260e085015261010084019061172e565b346101995760c0366003190112610199576004356009811015610199576108de611702565b6001600160a01b039060443582811690819003610199576064359060ff82168092036101995761090c611986565b8415610a365780156109fa576109ed604093600487877fd7e0ffe3c5e893c914e856817d8bfcf09e393c7926b6cf6fd55867404db05cb198885194610950866118a4565b16968785526020850187815289860191825260608601916084358352608087019360a43585528061098860a08a01976001895261178b565b9851166bffffffffffffffffffffffff60a01b8954161788556001880192511682549160ff60a01b905160a01b16916affffffffffffffffffffff60a81b161717905551600285015551600384015551151591019060ff801983541691151516179055565b82519182526020820152a2005b60405162461bcd60e51b8152602060048201526014602482015273496e76616c6964207072696365206f7261636c6560601b6044820152606490fd5b60405162461bcd60e51b8152602060048201526012602482015271496e76616c696420746f6b656e207479706560701b6044820152606490fd5b3461019957600036600319011261019957602060405162093a808152f35b34610199576000366003190112610199576000546040516001600160a01b039091168152602090f35b34610199576020610ad0610aca36611814565b90611c0a565b604051908152f35b60c036600319011261019957600360243510156101995760ff604435166044350361019957600960643510156101995760a4356001600160401b03811161019957610b279036906004016117a4565b9060026001541461103c5760026001556004356000526005602052604060002091610b5b60ff600385015460a01c16611a47565b6002830154421161100157600435600052600660205260406000203360005260205260ff60406000205416610fcc57600160ff60443516101580610fbc575b15610f7757610bb960ff6004610bb160643561178b565b015416611a93565b6003610bc660643561178b565b015460843510610f3b5780610ee7575b5050606435600103610dd9576084353403610d9d575b610bfa608435606435611c0a565b610c156002610c0a60643561178b565b015460443583611c48565b9160405190610c238261186d565b600182526020820190610c3860243583611a10565b604083019160ff6044351683526060840192610c5660643585611aed565b60843560808601528660a08601524260c08601526004356000526006602052604060002033600052602052604060002091610ca086511515849060ff801983541691151516179055565b5194600386101561054f5762ff00008354925160101b16945190600982101561054f57610d349660089660039461ff0063ff00000060c09660181b16938a1b169063ffffff00191617171784556080810151600185015560a0810151600285015501519101556004602435820101610d19868254611a03565b905560078101610d2981546119de565b905501918254611a03565b905560405190610d468260243561172e565b60ff604435166020830152610d606040830160643561173b565b6084356060830152608082015233907ff641c07ff9548b4d94093e2363e7bead14740019250d143f6e940989f4e91bb360a060043592a360018055005b60405162461bcd60e51b8152602060048201526014602482015273125b98dbdc9c9958dd0811551208185b5bdd5b9d60621b6044820152606490fd5b34610e985760006020610ded60643561178b565b604051610df9816118a4565b60a060ff6004600180841b0394828682541696878752600183015490811689880152851c166040860152600281015460608601526003810154608086015201541615159101526064604051809481936323b872dd60e01b835233600484015230602484015260843560448401525af1801561073957610e79575b50610bec565b610e919060203d602011610801576107f781836118bf565b5081610e73565b60405162461bcd60e51b815260206004820152602160248201527f455448206e6f7420657870656374656420666f7220455243323020746f6b656e6044820152607360f81b6064820152608490fd5b610ef19133611cb9565b15610efd578180610bd6565b60405162461bcd60e51b815260206004820152601660248201527524b73b30b634b21034b232b73a34ba3c90383937b7b360511b6044820152606490fd5b60405162461bcd60e51b81526020600482015260146024820152735374616b6520616d6f756e7420746f6f206c6f7760601b6044820152606490fd5b60405162461bcd60e51b815260206004820152601860248201527f496e76616c696420636f6e666964656e6365206c6576656c00000000000000006044820152606490fd5b50600a60ff604435161115610b9a565b60405162461bcd60e51b815260206004820152600d60248201526c105b1c9958591e481d9bdd1959609a1b6044820152606490fd5b60405162461bcd60e51b8152602060048201526013602482015272159bdd1a5b99c81c195c9a5bd908195b991959606a1b6044820152606490fd5b60405162461bcd60e51b815260206004820152601f60248201527f5265656e7472616e637947756172643a207265656e7472616e742063616c6c006044820152606490fd5b346101995760203660031901126101995760043560005260056020526040600020604051906110af82611888565b6110b8816118e0565b8252600181015490602083019182526002810154604084015260ff600382015460018060a01b0381166060860152818160a01c161515608086015260a81c16151560a0840152604051908160048201906000905b600382106112925750505060608201916001600160401b0392818110848211176106435760405260c0850152600781015460e08501526008810154610100850152600901546111629060ff166101208501611a10565b6040519060808201908111828210176106435760405260038152606036602083013760c08301515181511561127c576020820152602060c0840151015181516001101561127c576040820152604060c0840151015181516002101561127c5760608201528251915192604081015193608082015115159060a0830151151560e08401519261012061010086015195015197600389101561054f57611213604051986101208a526101208a01906117d4565b93602089015260408801526060870152608086015284810360a08601526020808551928381520194019060005b818110611266575050509361019591849560c086015260e085015261010084019061172e565b8251865260209586019590920191600101611240565b634e487b7160e01b600052603260045260246000fd5b600160208192855481520193019101909161110c565b3461019957602036600319011261019957600435600981101561019957610ad0602091611b10565b34610199576000366003190112610199576112e9611986565b600080546001600160a01b0319811682556001600160a01b03167f8be0079c531659141344cd1fd0a4f28419497f9722a3daafe3b4186f6b6457e08280a3005b346101995760603660031901126101995760243560ff8116810361019957610ad060209160443590600435611c48565b3461019957602036600319011261019957600435600981101561019957611389600491611384611986565b61178b565b01805460ff19169055005b34610199576040366003190112610199576113ad611718565b6024356001600160401b038111610199576020916113d26113d89236906004016117a4565b91611cb9565b6040519015158152f35b346101995760203660031901126101995760043580600052600560205260406000206003810190815461141a60ff8260a01c16611a47565b60028201544211156115085760a81c60ff166114cf577fbbbe9b42ddfa0692cd5f3dc618525dde4b8fe438fe573f13b3fa9fb1287d6fcd91606091600091600482015460058301548181116114c3575b506006830154116114ba575b6114838360098401611a2f565b600160a81b61ffff60a01b1982541617905560086007820154910154906114ad604051809461172e565b60208301526040820152a2005b60029250611476565b9350506001928761146a565b60405162461bcd60e51b8152602060048201526011602482015270105b1c9958591e48199a5b985b1a5e9959607a1b6044820152606490fd5b60405162461bcd60e51b815260206004820152601760248201527f566f74696e6720706572696f64206e6f7420656e6465640000000000000000006044820152606490fd5b3461019957602036600319011261019957611566611986565b600435600255005b346101995760203660031901126101995760043560098110156101995761159660c09161178b565b60018060a01b038082541691600181015460ff600283015491816004600386015495015416946040519687528116602087015260a01c16604085015260608401526080830152151560a0820152f35b34610199576000366003190112610199576020600254604051908152f35b34610199576000366003190112610199576020604051603c8152f35b3461019957604036600319011261019957611638611702565b600435600052600660205260406000209060018060a01b031660005260205260406000206116658261186d565b80549060ff821615158352602083019161168560ff8260081c1684611a10565b604084019360ff8260101c1685526116a760ff606083019360181c1683611aed565b60018301549260808201938452600360028201549160a0840192835201549160c08101928352511515945195600387101561054f5760ff9051169251600981101561054f576101959451915192519360405197889788611748565b602435906001600160a01b038216820361019957565b600435906001600160a01b038216820361019957565b90600382101561054f5752565b90600982101561054f5752565b9360ff61177d929998979461176d60c0989560e089019c15158952602089019061172e565b166040860152606085019061173b565b608083015260a08201520152565b600981101561054f576000526004602052604060002090565b9181601f84011215610199578235916001600160401b038311610199576020808501948460051b01011161019957565b919082519283825260005b848110611800575050826000602080949584010152601f8019910116010190565b6020818301810151848301820152016117df565b6040906003190112610199576004356009811015610199579060243590565b90600182811c92168015611863575b602083101461184d57565b634e487b7160e01b600052602260045260246000fd5b91607f1691611842565b60e081019081106001600160401b0382111761064357604052565b61014081019081106001600160401b0382111761064357604052565b60c081019081106001600160401b0382111761064357604052565b90601f801991011681019081106001600160401b0382111761064357604052565b90604051918260008254926118f484611833565b9081845260019485811690816000146119635750600114611920575b505061191e925003836118bf565b565b9093915060005260209081600020936000915b81831061194b57505061191e93508201013880611910565b85548884018501529485019487945091830191611933565b91505061191e94506020925060ff191682840152151560051b8201013880611910565b6000546001600160a01b0316330361199a57565b606460405162461bcd60e51b815260206004820152602060248201527f4f776e61626c653a2063616c6c6572206973206e6f7420746865206f776e65726044820152fd5b60001981146119ed5760010190565b634e487b7160e01b600052601160045260246000fd5b919082018092116119ed57565b600382101561054f5752565b818102929181159184041417156119ed57565b90600381101561054f5760ff80198354169116179055565b15611a4e57565b60405162461bcd60e51b815260206004820152601d60248201527f436f6e74656e74206e6f7420666f756e64206f7220696e6163746976650000006044820152606490fd5b15611a9a57565b60405162461bcd60e51b8152602060048201526013602482015272151bdad95b881b9bdd081cdd5c1c1bdc9d1959606a1b6044820152606490fd5b90816020910312610199575180151581036101995790565b600982101561054f5752565b519069ffffffffffffffffffff8216820361019957565b60a0600491611b2460ff84610bb18461178b565b6001611b348180851b039261178b565b01541660405192838092633fabe5a360e21b82525afa90811561073957600091611b9b575b506000811315611b665790565b60405162461bcd60e51b815260206004820152600d60248201526c496e76616c696420707269636560981b6044820152606490fd5b9060a0823d8211611be2575b81611bb460a093836118bf565b81010312611bdf5750611bc681611af9565b50611bd8608060208301519201611af9565b5038611b59565b80fd5b3d9150611ba7565b8115611bf4570490565b634e487b7160e01b600052601260045260246000fd5b611c309060ff6001611c24611c1e84611b10565b9361178b565b015460a01c1692611a1c565b604d82116119ed57611c4591600a0a90611bea565b90565b9060018083016000818511611ca55750811c90835b848310611c855750505091611c7c611c819260ff6103e8951690611a1c565b611a1c565b0490565b90919350611c9c84611c978184611bea565b611a03565b821c9190611c5d565b634e487b7160e01b81526011600452602490fd5b60408051606092831b6bffffffffffffffffffffffff191660208083019182526014835295968284019693956001600160401b03959392868911848a1017610643578888528351902090600254968a1161064357600599808b1b90611d208883018c6118bf565b8a5285850190820191368311610199578790915b838310611d985750505050946000955b8851871015611d8c57868a1b84018501519088600083831015611d7c5750506000528552611d76876000205b966119de565b95611d44565b9091611d76938252885220611d70565b14975095505050505050565b8235815291810191889101611d3456fea2646970667358221220aa180ab336f662417e2104815b9bfcada89b5c081ffc8fd25e79d2b5c326bcf264736f6c63430008130033","opcodes":"PUSH1 0x80 CALLVALUE PUSH2 0xA0 JUMPI PUSH1 0x1F PUSH2 0x1E9A CODESIZE DUP2 SWAP1 SUB SWAP2 DUP3 ADD PUSH1 0x1F NOT AND DUP4 ADD SWAP2 PUSH1 0x1 PUSH1 0x1 PUSH1 0x40 SHL SUB DUP4 GT DUP5 DUP5 LT OR PUSH2 0xA5 JUMPI DUP1 DUP5 SWAP3 PUSH1 0x20 SWAP5 PUSH1 0x40 MSTORE DUP4 CODECOPY DUP2 ADD SUB SLT PUSH2 0xA0 JUMPI MLOAD PUSH1 0x0 DUP1 SLOAD CALLER PUSH1 0x1 PUSH1 0x1 PUSH1 0xA0 SHL SUB NOT DUP3 AND DUP2 OR DUP4 SSTORE PUSH1 0x40 MLOAD SWAP4 SWAP3 SWAP1 SWAP2 PUSH1 0x1 PUSH1 0x1 PUSH1 0xA0 SHL SUB AND SWAP1 PUSH32 0x8BE0079C531659141344CD1FD0A4F28419497F9722A3DAAFE3B4186F6B6457E0 SWAP1 DUP1 LOG3 PUSH1 0x1 DUP1 SSTORE PUSH1 0x2 SSTORE PUSH1 0x0 PUSH1 0x3 SSTORE PUSH2 0x1DDE SWAP1 DUP2 PUSH2 0xBC DUP3 CODECOPY RETURN JUMPDEST PUSH1 0x0 DUP1 REVERT JUMPDEST PUSH4 0x4E487B71 PUSH1 0xE0 SHL PUSH1 0x0 MSTORE PUSH1 0x41 PUSH1 0x4 MSTORE PUSH1 0x24 PUSH1 0x0 REVERT INVALID PUSH1 0x80 DUP1 PUSH1 0x40 MSTORE PUSH1 0x4 CALLDATASIZE LT ISZERO PUSH2 0x13 JUMPI PUSH1 0x0 DUP1 REVERT JUMPDEST PUSH1 0x0 CALLDATALOAD PUSH1 0xE0 SHR SWAP1 DUP2 PUSH4 0x3C7881A EQ PUSH2 0x161F JUMPI POP DUP1 PUSH4 0x215809CA EQ PUSH2 0x1603 JUMPI DUP1 PUSH4 0x2EB4A7AB EQ PUSH2 0x15E5 JUMPI DUP1 PUSH4 0x3F572D36 EQ PUSH2 0x156E JUMPI DUP1 PUSH4 0x4783F0EF EQ PUSH2 0x154D JUMPI DUP1 PUSH4 0x49444831 EQ PUSH2 0x13E2 JUMPI DUP1 PUSH4 0x63025F6D EQ PUSH2 0x1394 JUMPI DUP1 PUSH4 0x67C95BDE EQ PUSH2 0x1359 JUMPI DUP1 PUSH4 0x714D985F EQ PUSH2 0x1329 JUMPI DUP1 PUSH4 0x715018A6 EQ PUSH2 0x12D0 JUMPI DUP1 PUSH4 0x7354C7E3 EQ PUSH2 0x12A8 JUMPI DUP1 PUSH4 0x7509C330 EQ PUSH2 0x1081 JUMPI DUP1 PUSH4 0x782631A0 EQ PUSH2 0xAD8 JUMPI DUP1 PUSH4 0x877BAEAA EQ PUSH2 0xAB7 JUMPI DUP1 PUSH4 0x8DA5CB5B EQ PUSH2 0xA8E JUMPI DUP1 PUSH4 0xA64E024A EQ PUSH2 0xA70 JUMPI DUP1 PUSH4 0xB53D568A EQ PUSH2 0x8B9 JUMPI DUP1 PUSH4 0xB5ECF912 EQ PUSH2 0x808 JUMPI DUP1 PUSH4 0xCCF62C3D EQ PUSH2 0x6F0 JUMPI DUP1 PUSH4 0xDAD3FC13 EQ PUSH2 0x285 JUMPI DUP1 PUSH4 0xE6A9ABA3 EQ PUSH2 0x267 JUMPI DUP1 PUSH4 0xF2FDE38B EQ PUSH2 0x19E JUMPI PUSH4 0xFE5B3E3B EQ PUSH2 0x11C JUMPI PUSH1 0x0 DUP1 REVERT JUMPDEST CALLVALUE PUSH2 0x199 JUMPI PUSH1 0x40 CALLDATASIZE PUSH1 0x3 NOT ADD SLT PUSH2 0x199 JUMPI PUSH2 0x135 PUSH2 0x1702 JUMP JUMPDEST PUSH1 0x4 CALLDATALOAD PUSH1 0x0 MSTORE PUSH1 0x6 PUSH1 0x20 MSTORE PUSH1 0x40 PUSH1 0x0 KECCAK256 SWAP1 PUSH1 0x1 DUP1 PUSH1 0xA0 SHL SUB AND PUSH1 0x0 MSTORE PUSH1 0x20 MSTORE PUSH1 0x40 PUSH1 0x0 KECCAK256 DUP1 SLOAD PUSH2 0x195 PUSH1 0x1 DUP4 ADD SLOAD SWAP3 PUSH1 0x3 PUSH1 0x2 DUP3 ADD SLOAD SWAP2 ADD SLOAD SWAP1 PUSH1 0x40 MLOAD SWAP5 DUP5 PUSH1 0xFF DUP8 SWAP7 PUSH1 0x18 SHR AND SWAP1 PUSH1 0xFF DUP2 PUSH1 0x10 SHR AND SWAP1 PUSH1 0xFF DUP1 DUP3 PUSH1 0x8 SHR AND SWAP2 AND DUP9 PUSH2 0x1748 JUMP JUMPDEST SUB SWAP1 RETURN JUMPDEST PUSH1 0x0 DUP1 REVERT JUMPDEST CALLVALUE PUSH2 0x199 JUMPI PUSH1 0x20 CALLDATASIZE PUSH1 0x3 NOT ADD SLT PUSH2 0x199 JUMPI PUSH2 0x1B7 PUSH2 0x1718 JUMP JUMPDEST PUSH2 0x1BF PUSH2 0x1986 JUMP JUMPDEST PUSH1 0x1 PUSH1 0x1 PUSH1 0xA0 SHL SUB SWAP1 DUP2 AND SWAP1 DUP2 ISZERO PUSH2 0x213 JUMPI PUSH1 0x0 SLOAD DUP3 PUSH12 0xFFFFFFFFFFFFFFFFFFFFFFFF PUSH1 0xA0 SHL DUP3 AND OR PUSH1 0x0 SSTORE AND PUSH32 0x8BE0079C531659141344CD1FD0A4F28419497F9722A3DAAFE3B4186F6B6457E0 PUSH1 0x0 DUP1 LOG3 STOP JUMPDEST PUSH1 0x40 MLOAD PUSH3 0x461BCD PUSH1 0xE5 SHL DUP2 MSTORE PUSH1 0x20 PUSH1 0x4 DUP3 ADD MSTORE PUSH1 0x26 PUSH1 0x24 DUP3 ADD MSTORE PUSH32 0x4F776E61626C653A206E6577206F776E657220697320746865207A65726F2061 PUSH1 0x44 DUP3 ADD MSTORE PUSH6 0x646472657373 PUSH1 0xD0 SHL PUSH1 0x64 DUP3 ADD MSTORE PUSH1 0x84 SWAP1 REVERT JUMPDEST CALLVALUE PUSH2 0x199 JUMPI PUSH1 0x0 CALLDATASIZE PUSH1 0x3 NOT ADD SLT PUSH2 0x199 JUMPI PUSH1 0x20 PUSH1 0x3 SLOAD PUSH1 0x40 MLOAD SWAP1 DUP2 MSTORE RETURN JUMPDEST CALLVALUE PUSH2 0x199 JUMPI PUSH1 0x40 CALLDATASIZE PUSH1 0x3 NOT ADD SLT PUSH2 0x199 JUMPI PUSH1 0x1 PUSH1 0x1 PUSH1 0x40 SHL SUB PUSH1 0x4 CALLDATALOAD GT PUSH2 0x199 JUMPI CALLDATASIZE PUSH1 0x23 PUSH1 0x4 CALLDATALOAD ADD SLT ISZERO PUSH2 0x199 JUMPI PUSH1 0x1 PUSH1 0x1 PUSH1 0x40 SHL SUB PUSH1 0x4 CALLDATALOAD PUSH1 0x4 ADD CALLDATALOAD GT PUSH2 0x199 JUMPI CALLDATASIZE PUSH1 0x24 PUSH1 0x4 CALLDATALOAD PUSH1 0x4 ADD CALLDATALOAD PUSH1 0x4 CALLDATALOAD ADD ADD GT PUSH2 0x199 JUMPI PUSH1 0x24 CALLDATALOAD PUSH1 0x4 CALLDATALOAD PUSH1 0x4 ADD CALLDATALOAD ISZERO PUSH2 0x6AB JUMPI PUSH1 0x3C DUP2 LT ISZERO DUP1 PUSH2 0x69E JUMPI JUMPDEST ISZERO PUSH2 0x659 JUMPI PUSH2 0x313 PUSH2 0x308 PUSH1 0x3 SLOAD PUSH2 0x19DE JUMP JUMPDEST SWAP2 DUP3 PUSH1 0x3 SSTORE TIMESTAMP PUSH2 0x1A03 JUMP JUMPDEST SWAP1 PUSH1 0x40 MLOAD SWAP2 PUSH1 0x60 DUP4 ADD DUP4 DUP2 LT PUSH1 0x1 PUSH1 0x1 PUSH1 0x40 SHL SUB DUP3 GT OR PUSH2 0x643 JUMPI PUSH1 0x40 MSTORE PUSH1 0x0 DUP4 MSTORE PUSH1 0x0 PUSH1 0x20 DUP5 ADD MSTORE PUSH1 0x0 PUSH1 0x40 DUP5 ADD MSTORE PUSH1 0x40 MLOAD SWAP3 PUSH2 0x350 DUP5 PUSH2 0x1888 JUMP JUMPDEST PUSH1 0x40 MLOAD PUSH2 0x36C PUSH1 0x4 DUP1 CALLDATALOAD ADD CALLDATALOAD PUSH1 0x1F ADD PUSH1 0x1F NOT AND PUSH1 0x20 ADD DUP3 PUSH2 0x18BF JUMP JUMPDEST PUSH1 0x4 DUP1 CALLDATALOAD SWAP1 DUP2 ADD CALLDATALOAD DUP1 DUP4 MSTORE SWAP1 PUSH1 0x24 ADD PUSH1 0x20 DUP4 ADD CALLDATACOPY PUSH1 0x0 PUSH1 0x20 PUSH1 0x4 CALLDATALOAD PUSH1 0x4 ADD CALLDATALOAD DUP4 ADD ADD MSTORE DUP5 MSTORE TIMESTAMP PUSH1 0x20 DUP6 ADD MSTORE DUP2 PUSH1 0x40 DUP6 ADD MSTORE CALLER PUSH1 0x60 DUP6 ADD MSTORE PUSH1 0x1 PUSH1 0x80 DUP6 ADD MSTORE PUSH1 0x0 PUSH1 0xA0 DUP6 ADD MSTORE PUSH1 0xC0 DUP5 ADD MSTORE PUSH1 0x0 PUSH1 0xE0 DUP5 ADD MSTORE PUSH1 0x0 PUSH2 0x100 DUP5 ADD MSTORE PUSH1 0x0 PUSH2 0x120 DUP5 ADD MSTORE DUP2 PUSH1 0x0 MSTORE PUSH1 0x5 PUSH1 0x20 MSTORE PUSH1 0x40 PUSH1 0x0 KECCAK256 SWAP3 DUP1 MLOAD DUP1 MLOAD SWAP1 PUSH1 0x1 PUSH1 0x1 PUSH1 0x40 SHL SUB DUP3 GT PUSH2 0x643 JUMPI DUP2 SWAP1 PUSH2 0x3FB DUP8 SLOAD PUSH2 0x1833 JUMP JUMPDEST PUSH1 0x1F DUP2 GT PUSH2 0x5F3 JUMPI JUMPDEST POP PUSH1 0x20 SWAP1 PUSH1 0x1F DUP4 GT PUSH1 0x1 EQ PUSH2 0x587 JUMPI PUSH1 0x0 SWAP3 PUSH2 0x57C JUMPI JUMPDEST POP POP DUP2 PUSH1 0x1 SHL SWAP2 PUSH1 0x0 NOT SWAP1 PUSH1 0x3 SHL SHR NOT AND OR DUP5 SSTORE JUMPDEST PUSH1 0x20 DUP2 ADD MLOAD PUSH1 0x1 DUP6 ADD SSTORE PUSH1 0x40 DUP2 ADD MLOAD PUSH1 0x2 DUP6 ADD SSTORE PUSH1 0x3 DUP5 ADD PUSH1 0x1 DUP1 PUSH1 0xA0 SHL SUB PUSH1 0x60 DUP4 ADD MLOAD AND DUP2 SLOAD SWAP1 PUSH1 0xFF PUSH1 0xA0 SHL PUSH1 0x80 DUP6 ADD MLOAD ISZERO ISZERO PUSH1 0xA0 SHL AND SWAP1 PUSH1 0xFF PUSH1 0xA8 SHL PUSH1 0xA0 DUP7 ADD MLOAD ISZERO ISZERO PUSH1 0xA8 SHL AND SWAP3 PUSH10 0xFFFFFFFFFFFFFFFFFFFF PUSH1 0xB0 SHL AND OR OR OR SWAP1 SSTORE PUSH1 0xC0 DUP2 ADD MLOAD PUSH1 0x0 JUMPDEST PUSH1 0x3 DUP2 LT PUSH2 0x565 JUMPI POP POP PUSH1 0xE0 DUP2 ADD MLOAD PUSH1 0x7 DUP6 ADD SSTORE PUSH2 0x100 DUP2 ADD MLOAD PUSH1 0x8 DUP6 ADD SSTORE PUSH2 0x120 ADD MLOAD SWAP3 PUSH1 0x3 DUP5 LT ISZERO PUSH2 0x54F JUMPI PUSH1 0x20 SWAP4 PUSH1 0x9 PUSH2 0x4D3 SWAP3 ADD PUSH2 0x1A2F JUMP JUMPDEST PUSH1 0x40 MLOAD SWAP1 PUSH1 0x40 DUP3 MSTORE PUSH1 0x4 CALLDATALOAD PUSH1 0x4 ADD CALLDATALOAD PUSH1 0x40 DUP4 ADD MSTORE PUSH1 0x4 CALLDATALOAD PUSH1 0x4 ADD CALLDATALOAD PUSH1 0x24 PUSH1 0x4 CALLDATALOAD ADD PUSH1 0x60 DUP5 ADD CALLDATACOPY PUSH1 0x0 PUSH1 0x60 PUSH1 0x4 CALLDATALOAD PUSH1 0x4 ADD CALLDATALOAD DUP5 ADD ADD MSTORE DUP4 DUP3 ADD MSTORE DUP2 PUSH32 0xBC19D37DC499C8455564517E576D7D380A7A6F6F340AEFD0EE7007ABB30A6C42 CALLER SWAP3 PUSH1 0x60 DUP2 PUSH1 0x1F NOT PUSH1 0x1F PUSH1 0x4 CALLDATALOAD PUSH1 0x4 ADD CALLDATALOAD ADD AND DUP2 ADD SUB ADD SWAP1 LOG3 PUSH1 0x40 MLOAD SWAP1 DUP2 MSTORE RETURN JUMPDEST PUSH4 0x4E487B71 PUSH1 0xE0 SHL PUSH1 0x0 MSTORE PUSH1 0x21 PUSH1 0x4 MSTORE PUSH1 0x24 PUSH1 0x0 REVERT JUMPDEST PUSH1 0x1 SWAP1 PUSH1 0x20 DUP4 MLOAD SWAP4 ADD SWAP3 PUSH1 0x4 DUP3 DUP10 ADD ADD SSTORE ADD PUSH2 0x496 JUMP JUMPDEST ADD MLOAD SWAP1 POP DUP7 DUP1 PUSH2 0x41B JUMP JUMPDEST SWAP3 POP DUP7 PUSH1 0x0 MSTORE PUSH1 0x20 PUSH1 0x0 KECCAK256 SWAP1 PUSH1 0x0 SWAP4 JUMPDEST PUSH1 0x1F NOT DUP5 AND DUP6 LT PUSH2 0x5D8 JUMPI PUSH1 0x1 SWAP5 POP DUP4 PUSH1 0x1F NOT DUP2 AND LT PUSH2 0x5BF JUMPI JUMPDEST POP POP POP DUP2 SHL ADD DUP5 SSTORE PUSH2 0x430 JUMP JUMPDEST ADD MLOAD PUSH1 0x0 NOT PUSH1 0xF8 DUP5 PUSH1 0x3 SHL AND SHR NOT AND SWAP1 SSTORE DUP7 DUP1 DUP1 PUSH2 0x5B2 JUMP JUMPDEST DUP2 DUP2 ADD MLOAD DUP4 SSTORE PUSH1 0x20 SWAP5 DUP6 ADD SWAP5 PUSH1 0x1 SWAP1 SWAP4 ADD SWAP3 SWAP1 SWAP2 ADD SWAP1 PUSH2 0x597 JUMP JUMPDEST SWAP1 SWAP2 POP DUP7 PUSH1 0x0 MSTORE PUSH1 0x20 PUSH1 0x0 KECCAK256 PUSH1 0x1F DUP5 ADD PUSH1 0x5 SHR DUP2 ADD PUSH1 0x20 DUP6 LT PUSH2 0x63C JUMPI JUMPDEST SWAP1 DUP5 SWAP4 SWAP3 SWAP2 JUMPDEST PUSH1 0x1F DUP4 ADD PUSH1 0x5 SHR DUP3 ADD DUP2 LT PUSH2 0x62D JUMPI POP POP PUSH2 0x404 JUMP JUMPDEST PUSH1 0x0 DUP2 SSTORE DUP6 SWAP5 POP PUSH1 0x1 ADD PUSH2 0x617 JUMP JUMPDEST POP DUP1 PUSH2 0x611 JUMP JUMPDEST PUSH4 0x4E487B71 PUSH1 0xE0 SHL PUSH1 0x0 MSTORE PUSH1 0x41 PUSH1 0x4 MSTORE PUSH1 0x24 PUSH1 0x0 REVERT JUMPDEST PUSH1 0x40 MLOAD PUSH3 0x461BCD PUSH1 0xE5 SHL DUP2 MSTORE PUSH1 0x20 PUSH1 0x4 DUP3 ADD MSTORE PUSH1 0x17 PUSH1 0x24 DUP3 ADD MSTORE PUSH32 0x496E76616C696420766F74696E67206475726174696F6E000000000000000000 PUSH1 0x44 DUP3 ADD MSTORE PUSH1 0x64 SWAP1 REVERT JUMPDEST POP PUSH3 0x93A80 DUP2 GT ISZERO PUSH2 0x2F5 JUMP JUMPDEST PUSH1 0x40 MLOAD PUSH3 0x461BCD PUSH1 0xE5 SHL DUP2 MSTORE PUSH1 0x20 PUSH1 0x4 DUP3 ADD MSTORE PUSH1 0x19 PUSH1 0x24 DUP3 ADD MSTORE PUSH32 0x4950465320686173682063616E6E6F7420626520656D70747900000000000000 PUSH1 0x44 DUP3 ADD MSTORE PUSH1 0x64 SWAP1 REVERT JUMPDEST CALLVALUE PUSH2 0x199 JUMPI PUSH2 0x6FE CALLDATASIZE PUSH2 0x1814 JUMP JUMPDEST SWAP1 PUSH2 0x707 PUSH2 0x1986 JUMP JUMPDEST PUSH1 0x9 DUP2 LT ISZERO PUSH2 0x54F JUMPI PUSH1 0x1 DUP2 SUB PUSH2 0x74E JUMPI POP PUSH1 0x0 DUP1 DUP1 DUP1 SWAP4 PUSH1 0x1 DUP1 PUSH1 0xA0 SHL SUB DUP3 SLOAD AND DUP3 DUP3 ISZERO PUSH2 0x745 JUMPI JUMPDEST CALL ISZERO PUSH2 0x739 JUMPI STOP JUMPDEST PUSH1 0x40 MLOAD RETURNDATASIZE PUSH1 0x0 DUP3 RETURNDATACOPY RETURNDATASIZE SWAP1 REVERT JUMPDEST POP PUSH2 0x8FC PUSH2 0x731 JUMP JUMPDEST PUSH2 0x759 PUSH1 0x20 SWAP2 PUSH2 0x178B JUMP JUMPDEST SWAP2 PUSH1 0x44 PUSH1 0x40 MLOAD PUSH2 0x768 DUP2 PUSH2 0x18A4 JUMP JUMPDEST PUSH1 0x1 DUP1 PUSH1 0xA0 SHL SUB SWAP1 PUSH1 0xA0 PUSH1 0xFF PUSH1 0x4 DUP5 DUP10 SLOAD AND SWAP9 DUP10 DUP6 MSTORE DUP3 PUSH1 0x1 DUP3 ADD SLOAD DUP8 DUP2 AND DUP12 DUP9 ADD MSTORE DUP6 SHR AND PUSH1 0x40 DUP7 ADD MSTORE PUSH1 0x2 DUP2 ADD SLOAD PUSH1 0x60 DUP7 ADD MSTORE PUSH1 0x3 DUP2 ADD SLOAD PUSH1 0x80 DUP7 ADD MSTORE ADD SLOAD AND ISZERO ISZERO SWAP2 ADD MSTORE PUSH1 0x0 SLOAD AND PUSH1 0x0 PUSH1 0x40 MLOAD SWAP6 DUP7 SWAP5 DUP6 SWAP4 PUSH4 0xA9059CBB PUSH1 0xE0 SHL DUP6 MSTORE PUSH1 0x4 DUP6 ADD MSTORE PUSH1 0x24 DUP5 ADD MSTORE GAS CALL DUP1 ISZERO PUSH2 0x739 JUMPI PUSH2 0x7DF JUMPI STOP JUMPDEST PUSH2 0x7FF SWAP1 PUSH1 0x20 RETURNDATASIZE DUP2 GT PUSH2 0x801 JUMPI JUMPDEST PUSH2 0x7F7 DUP2 DUP4 PUSH2 0x18BF JUMP JUMPDEST DUP2 ADD SWAP1 PUSH2 0x1AD5 JUMP JUMPDEST STOP JUMPDEST POP RETURNDATASIZE PUSH2 0x7ED JUMP JUMPDEST CALLVALUE PUSH2 0x199 JUMPI PUSH1 0x20 CALLDATASIZE PUSH1 0x3 NOT ADD SLT PUSH2 0x199 JUMPI PUSH1 0x4 CALLDATALOAD PUSH1 0x0 MSTORE PUSH1 0x5 PUSH1 0x20 MSTORE PUSH2 0x873 PUSH1 0x40 PUSH1 0x0 KECCAK256 PUSH2 0x835 DUP2 PUSH2 0x18E0 JUMP JUMPDEST SWAP1 PUSH2 0x195 PUSH1 0x1 DUP3 ADD SLOAD SWAP2 PUSH1 0x2 DUP2 ADD SLOAD SWAP1 PUSH1 0x3 DUP2 ADD SLOAD PUSH1 0xFF PUSH1 0x7 DUP4 ADD SLOAD SWAP2 DUP2 PUSH1 0x9 PUSH1 0x8 DUP7 ADD SLOAD SWAP6 ADD SLOAD AND SWAP5 PUSH1 0x40 MLOAD SWAP10 DUP11 SWAP10 PUSH2 0x120 DUP1 DUP13 MSTORE DUP12 ADD SWAP1 PUSH2 0x17D4 JUMP JUMPDEST SWAP8 PUSH1 0x20 DUP11 ADD MSTORE PUSH1 0x40 DUP10 ADD MSTORE PUSH1 0x1 DUP1 PUSH1 0xA0 SHL SUB DUP2 AND PUSH1 0x60 DUP10 ADD MSTORE DUP2 DUP2 PUSH1 0xA0 SHR AND ISZERO ISZERO PUSH1 0x80 DUP10 ADD MSTORE PUSH1 0xA8 SHR AND ISZERO ISZERO PUSH1 0xA0 DUP8 ADD MSTORE PUSH1 0xC0 DUP7 ADD MSTORE PUSH1 0xE0 DUP6 ADD MSTORE PUSH2 0x100 DUP5 ADD SWAP1 PUSH2 0x172E JUMP JUMPDEST CALLVALUE PUSH2 0x199 JUMPI PUSH1 0xC0 CALLDATASIZE PUSH1 0x3 NOT ADD SLT PUSH2 0x199 JUMPI PUSH1 0x4 CALLDATALOAD PUSH1 0x9 DUP2 LT ISZERO PUSH2 0x199 JUMPI PUSH2 0x8DE PUSH2 0x1702 JUMP JUMPDEST PUSH1 0x1 PUSH1 0x1 PUSH1 0xA0 SHL SUB SWAP1 PUSH1 0x44 CALLDATALOAD DUP3 DUP2 AND SWAP1 DUP2 SWAP1 SUB PUSH2 0x199 JUMPI PUSH1 0x64 CALLDATALOAD SWAP1 PUSH1 0xFF DUP3 AND DUP1 SWAP3 SUB PUSH2 0x199 JUMPI PUSH2 0x90C PUSH2 0x1986 JUMP JUMPDEST DUP5 ISZERO PUSH2 0xA36 JUMPI DUP1 ISZERO PUSH2 0x9FA JUMPI PUSH2 0x9ED PUSH1 0x40 SWAP4 PUSH1 0x4 DUP8 DUP8 PUSH32 0xD7E0FFE3C5E893C914E856817D8BFCF09E393C7926B6CF6FD55867404DB05CB1 SWAP9 DUP9 MLOAD SWAP5 PUSH2 0x950 DUP7 PUSH2 0x18A4 JUMP JUMPDEST AND SWAP7 DUP8 DUP6 MSTORE PUSH1 0x20 DUP6 ADD DUP8 DUP2 MSTORE DUP10 DUP7 ADD SWAP2 DUP3 MSTORE PUSH1 0x60 DUP7 ADD SWAP2 PUSH1 0x84 CALLDATALOAD DUP4 MSTORE PUSH1 0x80 DUP8 ADD SWAP4 PUSH1 0xA4 CALLDATALOAD DUP6 MSTORE DUP1 PUSH2 0x988 PUSH1 0xA0 DUP11 ADD SWAP8 PUSH1 0x1 DUP10 MSTORE PUSH2 0x178B JUMP JUMPDEST SWAP9 MLOAD AND PUSH12 0xFFFFFFFFFFFFFFFFFFFFFFFF PUSH1 0xA0 SHL DUP10 SLOAD AND OR DUP9 SSTORE PUSH1 0x1 DUP9 ADD SWAP3 MLOAD AND DUP3 SLOAD SWAP2 PUSH1 0xFF PUSH1 0xA0 SHL SWAP1 MLOAD PUSH1 0xA0 SHL AND SWAP2 PUSH11 0xFFFFFFFFFFFFFFFFFFFFFF PUSH1 0xA8 SHL AND OR OR SWAP1 SSTORE MLOAD PUSH1 0x2 DUP6 ADD SSTORE MLOAD PUSH1 0x3 DUP5 ADD SSTORE MLOAD ISZERO ISZERO SWAP2 ADD SWAP1 PUSH1 0xFF DUP1 NOT DUP4 SLOAD AND SWAP2 ISZERO ISZERO AND OR SWAP1 SSTORE JUMP JUMPDEST DUP3 MLOAD SWAP2 DUP3 MSTORE PUSH1 0x20 DUP3 ADD MSTORE LOG2 STOP JUMPDEST PUSH1 0x40 MLOAD PUSH3 0x461BCD PUSH1 0xE5 SHL DUP2 MSTORE PUSH1 0x20 PUSH1 0x4 DUP3 ADD MSTORE PUSH1 0x14 PUSH1 0x24 DUP3 ADD MSTORE PUSH20 0x496E76616C6964207072696365206F7261636C65 PUSH1 0x60 SHL PUSH1 0x44 DUP3 ADD MSTORE PUSH1 0x64 SWAP1 REVERT JUMPDEST PUSH1 0x40 MLOAD PUSH3 0x461BCD PUSH1 0xE5 SHL DUP2 MSTORE PUSH1 0x20 PUSH1 0x4 DUP3 ADD MSTORE PUSH1 0x12 PUSH1 0x24 DUP3 ADD MSTORE PUSH18 0x496E76616C696420746F6B656E2074797065 PUSH1 0x70 SHL PUSH1 0x44 DUP3 ADD MSTORE PUSH1 0x64 SWAP1 REVERT JUMPDEST CALLVALUE PUSH2 0x199 JUMPI PUSH1 0x0 CALLDATASIZE PUSH1 0x3 NOT ADD SLT PUSH2 0x199 JUMPI PUSH1 0x20 PUSH1 0x40 MLOAD PUSH3 0x93A80 DUP2 MSTORE RETURN JUMPDEST CALLVALUE PUSH2 0x199 JUMPI PUSH1 0x0 CALLDATASIZE PUSH1 0x3 NOT ADD SLT PUSH2 0x199 JUMPI PUSH1 0x0 SLOAD PUSH1 0x40 MLOAD PUSH1 0x1 PUSH1 0x1 PUSH1 0xA0 SHL SUB SWAP1 SWAP2 AND DUP2 MSTORE PUSH1 0x20 SWAP1 RETURN JUMPDEST CALLVALUE PUSH2 0x199 JUMPI PUSH1 0x20 PUSH2 0xAD0 PUSH2 0xACA CALLDATASIZE PUSH2 0x1814 JUMP JUMPDEST SWAP1 PUSH2 0x1C0A JUMP JUMPDEST PUSH1 0x40 MLOAD SWAP1 DUP2 MSTORE RETURN JUMPDEST PUSH1 0xC0 CALLDATASIZE PUSH1 0x3 NOT ADD SLT PUSH2 0x199 JUMPI PUSH1 0x3 PUSH1 0x24 CALLDATALOAD LT ISZERO PUSH2 0x199 JUMPI PUSH1 0xFF PUSH1 0x44 CALLDATALOAD AND PUSH1 0x44 CALLDATALOAD SUB PUSH2 0x199 JUMPI PUSH1 0x9 PUSH1 0x64 CALLDATALOAD LT ISZERO PUSH2 0x199 JUMPI PUSH1 0xA4 CALLDATALOAD PUSH1 0x1 PUSH1 0x1 PUSH1 0x40 SHL SUB DUP2 GT PUSH2 0x199 JUMPI PUSH2 0xB27 SWAP1 CALLDATASIZE SWAP1 PUSH1 0x4 ADD PUSH2 0x17A4 JUMP JUMPDEST SWAP1 PUSH1 0x2 PUSH1 0x1 SLOAD EQ PUSH2 0x103C JUMPI PUSH1 0x2 PUSH1 0x1 SSTORE PUSH1 0x4 CALLDATALOAD PUSH1 0x0 MSTORE PUSH1 0x5 PUSH1 0x20 MSTORE PUSH1 0x40 PUSH1 0x0 KECCAK256 SWAP2 PUSH2 0xB5B PUSH1 0xFF PUSH1 0x3 DUP6 ADD SLOAD PUSH1 0xA0 SHR AND PUSH2 0x1A47 JUMP JUMPDEST PUSH1 0x2 DUP4 ADD SLOAD TIMESTAMP GT PUSH2 0x1001 JUMPI PUSH1 0x4 CALLDATALOAD PUSH1 0x0 MSTORE PUSH1 0x6 PUSH1 0x20 MSTORE PUSH1 0x40 PUSH1 0x0 KECCAK256 CALLER PUSH1 0x0 MSTORE PUSH1 0x20 MSTORE PUSH1 0xFF PUSH1 0x40 PUSH1 0x0 KECCAK256 SLOAD AND PUSH2 0xFCC JUMPI PUSH1 0x1 PUSH1 0xFF PUSH1 0x44 CALLDATALOAD AND LT ISZERO DUP1 PUSH2 0xFBC JUMPI JUMPDEST ISZERO PUSH2 0xF77 JUMPI PUSH2 0xBB9 PUSH1 0xFF PUSH1 0x4 PUSH2 0xBB1 PUSH1 0x64 CALLDATALOAD PUSH2 0x178B JUMP JUMPDEST ADD SLOAD AND PUSH2 0x1A93 JUMP JUMPDEST PUSH1 0x3 PUSH2 0xBC6 PUSH1 0x64 CALLDATALOAD PUSH2 0x178B JUMP JUMPDEST ADD SLOAD PUSH1 0x84 CALLDATALOAD LT PUSH2 0xF3B JUMPI DUP1 PUSH2 0xEE7 JUMPI JUMPDEST POP POP PUSH1 0x64 CALLDATALOAD PUSH1 0x1 SUB PUSH2 0xDD9 JUMPI PUSH1 0x84 CALLDATALOAD CALLVALUE SUB PUSH2 0xD9D JUMPI JUMPDEST PUSH2 0xBFA PUSH1 0x84 CALLDATALOAD PUSH1 0x64 CALLDATALOAD PUSH2 0x1C0A JUMP JUMPDEST PUSH2 0xC15 PUSH1 0x2 PUSH2 0xC0A PUSH1 0x64 CALLDATALOAD PUSH2 0x178B JUMP JUMPDEST ADD SLOAD PUSH1 0x44 CALLDATALOAD DUP4 PUSH2 0x1C48 JUMP JUMPDEST SWAP2 PUSH1 0x40 MLOAD SWAP1 PUSH2 0xC23 DUP3 PUSH2 0x186D JUMP JUMPDEST PUSH1 0x1 DUP3 MSTORE PUSH1 0x20 DUP3 ADD SWAP1 PUSH2 0xC38 PUSH1 0x24 CALLDATALOAD DUP4 PUSH2 0x1A10 JUMP JUMPDEST PUSH1 0x40 DUP4 ADD SWAP2 PUSH1 0xFF PUSH1 0x44 CALLDATALOAD AND DUP4 MSTORE PUSH1 0x60 DUP5 ADD SWAP3 PUSH2 0xC56 PUSH1 0x64 CALLDATALOAD DUP6 PUSH2 0x1AED JUMP JUMPDEST PUSH1 0x84 CALLDATALOAD PUSH1 0x80 DUP7 ADD MSTORE DUP7 PUSH1 0xA0 DUP7 ADD MSTORE TIMESTAMP PUSH1 0xC0 DUP7 ADD MSTORE PUSH1 0x4 CALLDATALOAD PUSH1 0x0 MSTORE PUSH1 0x6 PUSH1 0x20 MSTORE PUSH1 0x40 PUSH1 0x0 KECCAK256 CALLER PUSH1 0x0 MSTORE PUSH1 0x20 MSTORE PUSH1 0x40 PUSH1 0x0 KECCAK256 SWAP2 PUSH2 0xCA0 DUP7 MLOAD ISZERO ISZERO DUP5 SWAP1 PUSH1 0xFF DUP1 NOT DUP4 SLOAD AND SWAP2 ISZERO ISZERO AND OR SWAP1 SSTORE JUMP JUMPDEST MLOAD SWAP5 PUSH1 0x3 DUP7 LT ISZERO PUSH2 0x54F JUMPI PUSH3 0xFF0000 DUP4 SLOAD SWAP3 MLOAD PUSH1 0x10 SHL AND SWAP5 MLOAD SWAP1 PUSH1 0x9 DUP3 LT ISZERO PUSH2 0x54F JUMPI PUSH2 0xD34 SWAP7 PUSH1 0x8 SWAP7 PUSH1 0x3 SWAP5 PUSH2 0xFF00 PUSH4 0xFF000000 PUSH1 0xC0 SWAP7 PUSH1 0x18 SHL AND SWAP4 DUP11 SHL AND SWAP1 PUSH4 0xFFFFFF00 NOT AND OR OR OR DUP5 SSTORE PUSH1 0x80 DUP2 ADD MLOAD PUSH1 0x1 DUP6 ADD SSTORE PUSH1 0xA0 DUP2 ADD MLOAD PUSH1 0x2 DUP6 ADD SSTORE ADD MLOAD SWAP2 ADD SSTORE PUSH1 0x4 PUSH1 0x24 CALLDATALOAD DUP3 ADD ADD PUSH2 0xD19 DUP7 DUP3 SLOAD PUSH2 0x1A03 JUMP JUMPDEST SWAP1 SSTORE PUSH1 0x7 DUP2 ADD PUSH2 0xD29 DUP2 SLOAD PUSH2 0x19DE JUMP JUMPDEST SWAP1 SSTORE ADD SWAP2 DUP3 SLOAD PUSH2 0x1A03 JUMP JUMPDEST SWAP1 SSTORE PUSH1 0x40 MLOAD SWAP1 PUSH2 0xD46 DUP3 PUSH1 0x24 CALLDATALOAD PUSH2 0x172E JUMP JUMPDEST PUSH1 0xFF PUSH1 0x44 CALLDATALOAD AND PUSH1 0x20 DUP4 ADD MSTORE PUSH2 0xD60 PUSH1 0x40 DUP4 ADD PUSH1 0x64 CALLDATALOAD PUSH2 0x173B JUMP JUMPDEST PUSH1 0x84 CALLDATALOAD PUSH1 0x60 DUP4 ADD MSTORE PUSH1 0x80 DUP3 ADD MSTORE CALLER SWAP1 PUSH32 0xF641C07FF9548B4D94093E2363E7BEAD14740019250D143F6E940989F4E91BB3 PUSH1 0xA0 PUSH1 0x4 CALLDATALOAD SWAP3 LOG3 PUSH1 0x1 DUP1 SSTORE STOP JUMPDEST PUSH1 0x40 MLOAD PUSH3 0x461BCD PUSH1 0xE5 SHL DUP2 MSTORE PUSH1 0x20 PUSH1 0x4 DUP3 ADD MSTORE PUSH1 0x14 PUSH1 0x24 DUP3 ADD MSTORE PUSH20 0x125B98DBDC9C9958DD0811551208185B5BDD5B9D PUSH1 0x62 SHL PUSH1 0x44 DUP3 ADD MSTORE PUSH1 0x64 SWAP1 REVERT JUMPDEST CALLVALUE PUSH2 0xE98 JUMPI PUSH1 0x0 PUSH1 0x20 PUSH2 0xDED PUSH1 0x64 CALLDATALOAD PUSH2 0x178B JUMP JUMPDEST PUSH1 0x40 MLOAD PUSH2 0xDF9 DUP2 PUSH2 0x18A4 JUMP JUMPDEST PUSH1 0xA0 PUSH1 0xFF PUSH1 0x4 PUSH1 0x1 DUP1 DUP5 SHL SUB SWAP5 DUP3 DUP7 DUP3 SLOAD AND SWAP7 DUP8 DUP8 MSTORE PUSH1 0x1 DUP4 ADD SLOAD SWAP1 DUP2 AND DUP10 DUP9 ADD MSTORE DUP6 SHR AND PUSH1 0x40 DUP7 ADD MSTORE PUSH1 0x2 DUP2 ADD SLOAD PUSH1 0x60 DUP7 ADD MSTORE PUSH1 0x3 DUP2 ADD SLOAD PUSH1 0x80 DUP7 ADD MSTORE ADD SLOAD AND ISZERO ISZERO SWAP2 ADD MSTORE PUSH1 0x64 PUSH1 0x40 MLOAD DUP1 SWAP5 DUP2 SWAP4 PUSH4 0x23B872DD PUSH1 0xE0 SHL DUP4 MSTORE CALLER PUSH1 0x4 DUP5 ADD MSTORE ADDRESS PUSH1 0x24 DUP5 ADD MSTORE PUSH1 0x84 CALLDATALOAD PUSH1 0x44 DUP5 ADD MSTORE GAS CALL DUP1 ISZERO PUSH2 0x739 JUMPI PUSH2 0xE79 JUMPI JUMPDEST POP PUSH2 0xBEC JUMP JUMPDEST PUSH2 0xE91 SWAP1 PUSH1 0x20 RETURNDATASIZE PUSH1 0x20 GT PUSH2 0x801 JUMPI PUSH2 0x7F7 DUP2 DUP4 PUSH2 0x18BF JUMP JUMPDEST POP DUP2 PUSH2 0xE73 JUMP JUMPDEST PUSH1 0x40 MLOAD PUSH3 0x461BCD PUSH1 0xE5 SHL DUP2 MSTORE PUSH1 0x20 PUSH1 0x4 DUP3 ADD MSTORE PUSH1 0x21 PUSH1 0x24 DUP3 ADD MSTORE PUSH32 0x455448206E6F7420657870656374656420666F7220455243323020746F6B656E PUSH1 0x44 DUP3 ADD MSTORE PUSH1 0x73 PUSH1 0xF8 SHL PUSH1 0x64 DUP3 ADD MSTORE PUSH1 0x84 SWAP1 REVERT JUMPDEST PUSH2 0xEF1 SWAP2 CALLER PUSH2 0x1CB9 JUMP JUMPDEST ISZERO PUSH2 0xEFD JUMPI DUP2 DUP1 PUSH2 0xBD6 JUMP JUMPDEST PUSH1 0x40 MLOAD PUSH3 0x461BCD PUSH1 0xE5 SHL DUP2 MSTORE PUSH1 0x20 PUSH1 0x4 DUP3 ADD MSTORE PUSH1 0x16 PUSH1 0x24 DUP3 ADD MSTORE PUSH22 0x24B73B30B634B21034B232B73A34BA3C90383937B7B3 PUSH1 0x51 SHL PUSH1 0x44 DUP3 ADD MSTORE PUSH1 0x64 SWAP1 REVERT JUMPDEST PUSH1 0x40 MLOAD PUSH3 0x461BCD PUSH1 0xE5 SHL DUP2 MSTORE PUSH1 0x20 PUSH1 0x4 DUP3 ADD MSTORE PUSH1 0x14 PUSH1 0x24 DUP3 ADD MSTORE PUSH20 0x5374616B6520616D6F756E7420746F6F206C6F77 PUSH1 0x60 SHL PUSH1 0x44 DUP3 ADD MSTORE PUSH1 0x64 SWAP1 REVERT JUMPDEST PUSH1 0x40 MLOAD PUSH3 0x461BCD PUSH1 0xE5 SHL DUP2 MSTORE PUSH1 0x20 PUSH1 0x4 DUP3 ADD MSTORE PUSH1 0x18 PUSH1 0x24 DUP3 ADD MSTORE PUSH32 0x496E76616C696420636F6E666964656E6365206C6576656C0000000000000000 PUSH1 0x44 DUP3 ADD MSTORE PUSH1 0x64 SWAP1 REVERT JUMPDEST POP PUSH1 0xA PUSH1 0xFF PUSH1 0x44 CALLDATALOAD AND GT ISZERO PUSH2 0xB9A JUMP JUMPDEST PUSH1 0x40 MLOAD PUSH3 0x461BCD PUSH1 0xE5 SHL DUP2 MSTORE PUSH1 0x20 PUSH1 0x4 DUP3 ADD MSTORE PUSH1 0xD PUSH1 0x24 DUP3 ADD MSTORE PUSH13 0x105B1C9958591E481D9BDD1959 PUSH1 0x9A SHL PUSH1 0x44 DUP3 ADD MSTORE PUSH1 0x64 SWAP1 REVERT JUMPDEST PUSH1 0x40 MLOAD PUSH3 0x461BCD PUSH1 0xE5 SHL DUP2 MSTORE PUSH1 0x20 PUSH1 0x4 DUP3 ADD MSTORE PUSH1 0x13 PUSH1 0x24 DUP3 ADD MSTORE PUSH19 0x159BDD1A5B99C81C195C9A5BD908195B991959 PUSH1 0x6A SHL PUSH1 0x44 DUP3 ADD MSTORE PUSH1 0x64 SWAP1 REVERT JUMPDEST PUSH1 0x40 MLOAD PUSH3 0x461BCD PUSH1 0xE5 SHL DUP2 MSTORE PUSH1 0x20 PUSH1 0x4 DUP3 ADD MSTORE PUSH1 0x1F PUSH1 0x24 DUP3 ADD MSTORE PUSH32 0x5265656E7472616E637947756172643A207265656E7472616E742063616C6C00 PUSH1 0x44 DUP3 ADD MSTORE PUSH1 0x64 SWAP1 REVERT JUMPDEST CALLVALUE PUSH2 0x199 JUMPI PUSH1 0x20 CALLDATASIZE PUSH1 0x3 NOT ADD SLT PUSH2 0x199 JUMPI PUSH1 0x4 CALLDATALOAD PUSH1 0x0 MSTORE PUSH1 0x5 PUSH1 0x20 MSTORE PUSH1 0x40 PUSH1 0x0 KECCAK256 PUSH1 0x40 MLOAD SWAP1 PUSH2 0x10AF DUP3 PUSH2 0x1888 JUMP JUMPDEST PUSH2 0x10B8 DUP2 PUSH2 0x18E0 JUMP JUMPDEST DUP3 MSTORE PUSH1 0x1 DUP2 ADD SLOAD SWAP1 PUSH1 0x20 DUP4 ADD SWAP2 DUP3 MSTORE PUSH1 0x2 DUP2 ADD SLOAD PUSH1 0x40 DUP5 ADD MSTORE PUSH1 0xFF PUSH1 0x3 DUP3 ADD SLOAD PUSH1 0x1 DUP1 PUSH1 0xA0 SHL SUB DUP2 AND PUSH1 0x60 DUP7 ADD MSTORE DUP2 DUP2 PUSH1 0xA0 SHR AND ISZERO ISZERO PUSH1 0x80 DUP7 ADD MSTORE PUSH1 0xA8 SHR AND ISZERO ISZERO PUSH1 0xA0 DUP5 ADD MSTORE PUSH1 0x40 MLOAD SWAP1 DUP2 PUSH1 0x4 DUP3 ADD SWAP1 PUSH1 0x0 SWAP1 JUMPDEST PUSH1 0x3 DUP3 LT PUSH2 0x1292 JUMPI POP POP POP PUSH1 0x60 DUP3 ADD SWAP2 PUSH1 0x1 PUSH1 0x1 PUSH1 0x40 SHL SUB SWAP3 DUP2 DUP2 LT DUP5 DUP3 GT OR PUSH2 0x643 JUMPI PUSH1 0x40 MSTORE PUSH1 0xC0 DUP6 ADD MSTORE PUSH1 0x7 DUP2 ADD SLOAD PUSH1 0xE0 DUP6 ADD MSTORE PUSH1 0x8 DUP2 ADD SLOAD PUSH2 0x100 DUP6 ADD MSTORE PUSH1 0x9 ADD SLOAD PUSH2 0x1162 SWAP1 PUSH1 0xFF AND PUSH2 0x120 DUP6 ADD PUSH2 0x1A10 JUMP JUMPDEST PUSH1 0x40 MLOAD SWAP1 PUSH1 0x80 DUP3 ADD SWAP1 DUP2 GT DUP3 DUP3 LT OR PUSH2 0x643 JUMPI PUSH1 0x40 MSTORE PUSH1 0x3 DUP2 MSTORE PUSH1 0x60 CALLDATASIZE PUSH1 0x20 DUP4 ADD CALLDATACOPY PUSH1 0xC0 DUP4 ADD MLOAD MLOAD DUP2 MLOAD ISZERO PUSH2 0x127C JUMPI PUSH1 0x20 DUP3 ADD MSTORE PUSH1 0x20 PUSH1 0xC0 DUP5 ADD MLOAD ADD MLOAD DUP2 MLOAD PUSH1 0x1 LT ISZERO PUSH2 0x127C JUMPI PUSH1 0x40 DUP3 ADD MSTORE PUSH1 0x40 PUSH1 0xC0 DUP5 ADD MLOAD ADD MLOAD DUP2 MLOAD PUSH1 0x2 LT ISZERO PUSH2 0x127C JUMPI PUSH1 0x60 DUP3 ADD MSTORE DUP3 MLOAD SWAP2 MLOAD SWAP3 PUSH1 0x40 DUP2 ADD MLOAD SWAP4 PUSH1 0x80 DUP3 ADD MLOAD ISZERO ISZERO SWAP1 PUSH1 0xA0 DUP4 ADD MLOAD ISZERO ISZERO PUSH1 0xE0 DUP5 ADD MLOAD SWAP3 PUSH2 0x120 PUSH2 0x100 DUP7 ADD MLOAD SWAP6 ADD MLOAD SWAP8 PUSH1 0x3 DUP10 LT ISZERO PUSH2 0x54F JUMPI PUSH2 0x1213 PUSH1 0x40 MLOAD SWAP9 PUSH2 0x120 DUP11 MSTORE PUSH2 0x120 DUP11 ADD SWAP1 PUSH2 0x17D4 JUMP JUMPDEST SWAP4 PUSH1 0x20 DUP10 ADD MSTORE PUSH1 0x40 DUP9 ADD MSTORE PUSH1 0x60 DUP8 ADD MSTORE PUSH1 0x80 DUP7 ADD MSTORE DUP5 DUP2 SUB PUSH1 0xA0 DUP7 ADD MSTORE PUSH1 0x20 DUP1 DUP6 MLOAD SWAP3 DUP4 DUP2 MSTORE ADD SWAP5 ADD SWAP1 PUSH1 0x0 JUMPDEST DUP2 DUP2 LT PUSH2 0x1266 JUMPI POP POP POP SWAP4 PUSH2 0x195 SWAP2 DUP5 SWAP6 PUSH1 0xC0 DUP7 ADD MSTORE PUSH1 0xE0 DUP6 ADD MSTORE PUSH2 0x100 DUP5 ADD SWAP1 PUSH2 0x172E JUMP JUMPDEST DUP3 MLOAD DUP7 MSTORE PUSH1 0x20 SWAP6 DUP7 ADD SWAP6 SWAP1 SWAP3 ADD SWAP2 PUSH1 0x1 ADD PUSH2 0x1240 JUMP JUMPDEST PUSH4 0x4E487B71 PUSH1 0xE0 SHL PUSH1 0x0 MSTORE PUSH1 0x32 PUSH1 0x4 MSTORE PUSH1 0x24 PUSH1 0x0 REVERT JUMPDEST PUSH1 0x1 PUSH1 0x20 DUP2 SWAP3 DUP6 SLOAD DUP2 MSTORE ADD SWAP4 ADD SWAP2 ADD SWAP1 SWAP2 PUSH2 0x110C JUMP JUMPDEST CALLVALUE PUSH2 0x199 JUMPI PUSH1 0x20 CALLDATASIZE PUSH1 0x3 NOT ADD SLT PUSH2 0x199 JUMPI PUSH1 0x4 CALLDATALOAD PUSH1 0x9 DUP2 LT ISZERO PUSH2 0x199 JUMPI PUSH2 0xAD0 PUSH1 0x20 SWAP2 PUSH2 0x1B10 JUMP JUMPDEST CALLVALUE PUSH2 0x199 JUMPI PUSH1 0x0 CALLDATASIZE PUSH1 0x3 NOT ADD SLT PUSH2 0x199 JUMPI PUSH2 0x12E9 PUSH2 0x1986 JUMP JUMPDEST PUSH1 0x0 DUP1 SLOAD PUSH1 0x1 PUSH1 0x1 PUSH1 0xA0 SHL SUB NOT DUP2 AND DUP3 SSTORE PUSH1 0x1 PUSH1 0x1 PUSH1 0xA0 SHL SUB AND PUSH32 0x8BE0079C531659141344CD1FD0A4F28419497F9722A3DAAFE3B4186F6B6457E0 DUP3 DUP1 LOG3 STOP JUMPDEST CALLVALUE PUSH2 0x199 JUMPI PUSH1 0x60 CALLDATASIZE PUSH1 0x3 NOT ADD SLT PUSH2 0x199 JUMPI PUSH1 0x24 CALLDATALOAD PUSH1 0xFF DUP2 AND DUP2 SUB PUSH2 0x199 JUMPI PUSH2 0xAD0 PUSH1 0x20 SWAP2 PUSH1 0x44 CALLDATALOAD SWAP1 PUSH1 0x4 CALLDATALOAD PUSH2 0x1C48 JUMP JUMPDEST CALLVALUE PUSH2 0x199 JUMPI PUSH1 0x20 CALLDATASIZE PUSH1 0x3 NOT ADD SLT PUSH2 0x199 JUMPI PUSH1 0x4 CALLDATALOAD PUSH1 0x9 DUP2 LT ISZERO PUSH2 0x199 JUMPI PUSH2 0x1389 PUSH1 0x4 SWAP2 PUSH2 0x1384 PUSH2 0x1986 JUMP JUMPDEST PUSH2 0x178B JUMP JUMPDEST ADD DUP1 SLOAD PUSH1 0xFF NOT AND SWAP1 SSTORE STOP JUMPDEST CALLVALUE PUSH2 0x199 JUMPI PUSH1 0x40 CALLDATASIZE PUSH1 0x3 NOT ADD SLT PUSH2 0x199 JUMPI PUSH2 0x13AD PUSH2 0x1718 JUMP JUMPDEST PUSH1 0x24 CALLDATALOAD PUSH1 0x1 PUSH1 0x1 PUSH1 0x40 SHL SUB DUP2 GT PUSH2 0x199 JUMPI PUSH1 0x20 SWAP2 PUSH2 0x13D2 PUSH2 0x13D8 SWAP3 CALLDATASIZE SWAP1 PUSH1 0x4 ADD PUSH2 0x17A4 JUMP JUMPDEST SWAP2 PUSH2 0x1CB9 JUMP JUMPDEST PUSH1 0x40 MLOAD SWAP1 ISZERO ISZERO DUP2 MSTORE RETURN JUMPDEST CALLVALUE PUSH2 0x199 JUMPI PUSH1 0x20 CALLDATASIZE PUSH1 0x3 NOT ADD SLT PUSH2 0x199 JUMPI PUSH1 0x4 CALLDATALOAD DUP1 PUSH1 0x0 MSTORE PUSH1 0x5 PUSH1 0x20 MSTORE PUSH1 0x40 PUSH1 0x0 KECCAK256 PUSH1 0x3 DUP2 ADD SWAP1 DUP2 SLOAD PUSH2 0x141A PUSH1 0xFF DUP3 PUSH1 0xA0 SHR AND PUSH2 0x1A47 JUMP JUMPDEST PUSH1 0x2 DUP3 ADD SLOAD TIMESTAMP GT ISZERO PUSH2 0x1508 JUMPI PUSH1 0xA8 SHR PUSH1 0xFF AND PUSH2 0x14CF JUMPI PUSH32 0xBBBE9B42DDFA0692CD5F3DC618525DDE4B8FE438FE573F13B3FA9FB1287D6FCD SWAP2 PUSH1 0x60 SWAP2 PUSH1 0x0 SWAP2 PUSH1 0x4 DUP3 ADD SLOAD PUSH1 0x5 DUP4 ADD SLOAD DUP2 DUP2 GT PUSH2 0x14C3 JUMPI JUMPDEST POP PUSH1 0x6 DUP4 ADD SLOAD GT PUSH2 0x14BA JUMPI JUMPDEST PUSH2 0x1483 DUP4 PUSH1 0x9 DUP5 ADD PUSH2 0x1A2F JUMP JUMPDEST PUSH1 0x1 PUSH1 0xA8 SHL PUSH2 0xFFFF PUSH1 0xA0 SHL NOT DUP3 SLOAD AND OR SWAP1 SSTORE PUSH1 0x8 PUSH1 0x7 DUP3 ADD SLOAD SWAP2 ADD SLOAD SWAP1 PUSH2 0x14AD PUSH1 0x40 MLOAD DUP1 SWAP5 PUSH2 0x172E JUMP JUMPDEST PUSH1 0x20 DUP4 ADD MSTORE PUSH1 0x40 DUP3 ADD MSTORE LOG2 STOP JUMPDEST PUSH1 0x2 SWAP3 POP PUSH2 0x1476 JUMP JUMPDEST SWAP4 POP POP PUSH1 0x1 SWAP3 DUP8 PUSH2 0x146A JUMP JUMPDEST PUSH1 0x40 MLOAD PUSH3 0x461BCD PUSH1 0xE5 SHL DUP2 MSTORE PUSH1 0x20 PUSH1 0x4 DUP3 ADD MSTORE PUSH1 0x11 PUSH1 0x24 DUP3 ADD MSTORE PUSH17 0x105B1C9958591E48199A5B985B1A5E9959 PUSH1 0x7A SHL PUSH1 0x44 DUP3 ADD MSTORE PUSH1 0x64 SWAP1 REVERT JUMPDEST PUSH1 0x40 MLOAD PUSH3 0x461BCD PUSH1 0xE5 SHL DUP2 MSTORE PUSH1 0x20 PUSH1 0x4 DUP3 ADD MSTORE PUSH1 0x17 PUSH1 0x24 DUP3 ADD MSTORE PUSH32 0x566F74696E6720706572696F64206E6F7420656E646564000000000000000000 PUSH1 0x44 DUP3 ADD MSTORE PUSH1 0x64 SWAP1 REVERT JUMPDEST CALLVALUE PUSH2 0x199 JUMPI PUSH1 0x20 CALLDATASIZE PUSH1 0x3 NOT ADD SLT PUSH2 0x199 JUMPI PUSH2 0x1566 PUSH2 0x1986 JUMP JUMPDEST PUSH1 0x4 CALLDATALOAD PUSH1 0x2 SSTORE STOP JUMPDEST CALLVALUE PUSH2 0x199 JUMPI PUSH1 0x20 CALLDATASIZE PUSH1 0x3 NOT ADD SLT PUSH2 0x199 JUMPI PUSH1 0x4 CALLDATALOAD PUSH1 0x9 DUP2 LT ISZERO PUSH2 0x199 JUMPI PUSH2 0x1596 PUSH1 0xC0 SWAP2 PUSH2 0x178B JUMP JUMPDEST PUSH1 0x1 DUP1 PUSH1 0xA0 SHL SUB DUP1 DUP3 SLOAD AND SWAP2 PUSH1 0x1 DUP2 ADD SLOAD PUSH1 0xFF PUSH1 0x2 DUP4 ADD SLOAD SWAP2 DUP2 PUSH1 0x4 PUSH1 0x3 DUP7 ADD SLOAD SWAP6 ADD SLOAD AND SWAP5 PUSH1 0x40 MLOAD SWAP7 DUP8 MSTORE DUP2 AND PUSH1 0x20 DUP8 ADD MSTORE PUSH1 0xA0 SHR AND PUSH1 0x40 DUP6 ADD MSTORE PUSH1 0x60 DUP5 ADD MSTORE PUSH1 0x80 DUP4 ADD MSTORE ISZERO ISZERO PUSH1 0xA0 DUP3 ADD MSTORE RETURN JUMPDEST CALLVALUE PUSH2 0x199 JUMPI PUSH1 0x0 CALLDATASIZE PUSH1 0x3 NOT ADD SLT PUSH2 0x199 JUMPI PUSH1 0x20 PUSH1 0x2 SLOAD PUSH1 0x40 MLOAD SWAP1 DUP2 MSTORE RETURN JUMPDEST CALLVALUE PUSH2 0x199 JUMPI PUSH1 0x0 CALLDATASIZE PUSH1 0x3 NOT ADD SLT PUSH2 0x199 JUMPI PUSH1 0x20 PUSH1 0x40 MLOAD PUSH1 0x3C DUP2 MSTORE RETURN JUMPDEST CALLVALUE PUSH2 0x199 JUMPI PUSH1 0x40 CALLDATASIZE PUSH1 0x3 NOT ADD SLT PUSH2 0x199 JUMPI PUSH2 0x1638 PUSH2 0x1702 JUMP JUMPDEST PUSH1 0x4 CALLDATALOAD PUSH1 0x0 MSTORE PUSH1 0x6 PUSH1 0x20 MSTORE PUSH1 0x40 PUSH1 0x0 KECCAK256 SWAP1 PUSH1 0x1 DUP1 PUSH1 0xA0 SHL SUB AND PUSH1 0x0 MSTORE PUSH1 0x20 MSTORE PUSH1 0x40 PUSH1 0x0 KECCAK256 PUSH2 0x1665 DUP3 PUSH2 0x186D JUMP JUMPDEST DUP1 SLOAD SWAP1 PUSH1 0xFF DUP3 AND ISZERO ISZERO DUP4 MSTORE PUSH1 0x20 DUP4 ADD SWAP2 PUSH2 0x1685 PUSH1 0xFF DUP3 PUSH1 0x8 SHR AND DUP5 PUSH2 0x1A10 JUMP JUMPDEST PUSH1 0x40 DUP5 ADD SWAP4 PUSH1 0xFF DUP3 PUSH1 0x10 SHR AND DUP6 MSTORE PUSH2 0x16A7 PUSH1 0xFF PUSH1 0x60 DUP4 ADD SWAP4 PUSH1 0x18 SHR AND DUP4 PUSH2 0x1AED JUMP JUMPDEST PUSH1 0x1 DUP4 ADD SLOAD SWAP3 PUSH1 0x80 DUP3 ADD SWAP4 DUP5 MSTORE PUSH1 0x3 PUSH1 0x2 DUP3 ADD SLOAD SWAP2 PUSH1 0xA0 DUP5 ADD SWAP3 DUP4 MSTORE ADD SLOAD SWAP2 PUSH1 0xC0 DUP2 ADD SWAP3 DUP4 MSTORE MLOAD ISZERO ISZERO SWAP5 MLOAD SWAP6 PUSH1 0x3 DUP8 LT ISZERO PUSH2 0x54F JUMPI PUSH1 0xFF SWAP1 MLOAD AND SWAP3 MLOAD PUSH1 0x9 DUP2 LT ISZERO PUSH2 0x54F JUMPI PUSH2 0x195 SWAP5 MLOAD SWAP2 MLOAD SWAP3 MLOAD SWAP4 PUSH1 0x40 MLOAD SWAP8 DUP9 SWAP8 DUP9 PUSH2 0x1748 JUMP JUMPDEST PUSH1 0x24 CALLDATALOAD SWAP1 PUSH1 0x1 PUSH1 0x1 PUSH1 0xA0 SHL SUB DUP3 AND DUP3 SUB PUSH2 0x199 JUMPI JUMP JUMPDEST PUSH1 0x4 CALLDATALOAD SWAP1 PUSH1 0x1 PUSH1 0x1 PUSH1 0xA0 SHL SUB DUP3 AND DUP3 SUB PUSH2 0x199 JUMPI JUMP JUMPDEST SWAP1 PUSH1 0x3 DUP3 LT ISZERO PUSH2 0x54F JUMPI MSTORE JUMP JUMPDEST SWAP1 PUSH1 0x9 DUP3 LT ISZERO PUSH2 0x54F JUMPI MSTORE JUMP JUMPDEST SWAP4 PUSH1 0xFF PUSH2 0x177D SWAP3 SWAP10 SWAP9 SWAP8 SWAP5 PUSH2 0x176D PUSH1 0xC0 SWAP9 SWAP6 PUSH1 0xE0 DUP10 ADD SWAP13 ISZERO ISZERO DUP10 MSTORE PUSH1 0x20 DUP10 ADD SWAP1 PUSH2 0x172E JUMP JUMPDEST AND PUSH1 0x40 DUP7 ADD MSTORE PUSH1 0x60 DUP6 ADD SWAP1 PUSH2 0x173B JUMP JUMPDEST PUSH1 0x80 DUP4 ADD MSTORE PUSH1 0xA0 DUP3 ADD MSTORE ADD MSTORE JUMP JUMPDEST PUSH1 0x9 DUP2 LT ISZERO PUSH2 0x54F JUMPI PUSH1 0x0 MSTORE PUSH1 0x4 PUSH1 0x20 MSTORE PUSH1 0x40 PUSH1 0x0 KECCAK256 SWAP1 JUMP JUMPDEST SWAP2 DUP2 PUSH1 0x1F DUP5 ADD SLT ISZERO PUSH2 0x199 JUMPI DUP3 CALLDATALOAD SWAP2 PUSH1 0x1 PUSH1 0x1 PUSH1 0x40 SHL SUB DUP4 GT PUSH2 0x199 JUMPI PUSH1 0x20 DUP1 DUP6 ADD SWAP5 DUP5 PUSH1 0x5 SHL ADD ADD GT PUSH2 0x199 JUMPI JUMP JUMPDEST SWAP2 SWAP1 DUP3 MLOAD SWAP3 DUP4 DUP3 MSTORE PUSH1 0x0 JUMPDEST DUP5 DUP2 LT PUSH2 0x1800 JUMPI POP POP DUP3 PUSH1 0x0 PUSH1 0x20 DUP1 SWAP5 SWAP6 DUP5 ADD ADD MSTORE PUSH1 0x1F DUP1 NOT SWAP2 ADD AND ADD ADD SWAP1 JUMP JUMPDEST PUSH1 0x20 DUP2 DUP4 ADD DUP2 ADD MLOAD DUP5 DUP4 ADD DUP3 ADD MSTORE ADD PUSH2 0x17DF JUMP JUMPDEST PUSH1 0x40 SWAP1 PUSH1 0x3 NOT ADD SLT PUSH2 0x199 JUMPI PUSH1 0x4 CALLDATALOAD PUSH1 0x9 DUP2 LT ISZERO PUSH2 0x199 JUMPI SWAP1 PUSH1 0x24 CALLDATALOAD SWAP1 JUMP JUMPDEST SWAP1 PUSH1 0x1 DUP3 DUP2 SHR SWAP3 AND DUP1 ISZERO PUSH2 0x1863 JUMPI JUMPDEST PUSH1 0x20 DUP4 LT EQ PUSH2 0x184D JUMPI JUMP JUMPDEST PUSH4 0x4E487B71 PUSH1 0xE0 SHL PUSH1 0x0 MSTORE PUSH1 0x22 PUSH1 0x4 MSTORE PUSH1 0x24 PUSH1 0x0 REVERT JUMPDEST SWAP2 PUSH1 0x7F AND SWAP2 PUSH2 0x1842 JUMP JUMPDEST PUSH1 0xE0 DUP2 ADD SWAP1 DUP2 LT PUSH1 0x1 PUSH1 0x1 PUSH1 0x40 SHL SUB DUP3 GT OR PUSH2 0x643 JUMPI PUSH1 0x40 MSTORE JUMP JUMPDEST PUSH2 0x140 DUP2 ADD SWAP1 DUP2 LT PUSH1 0x1 PUSH1 0x1 PUSH1 0x40 SHL SUB DUP3 GT OR PUSH2 0x643 JUMPI PUSH1 0x40 MSTORE JUMP JUMPDEST PUSH1 0xC0 DUP2 ADD SWAP1 DUP2 LT PUSH1 0x1 PUSH1 0x1 PUSH1 0x40 SHL SUB DUP3 GT OR PUSH2 0x643 JUMPI PUSH1 0x40 MSTORE JUMP JUMPDEST SWAP1 PUSH1 0x1F DUP1 NOT SWAP2 ADD AND DUP2 ADD SWAP1 DUP2 LT PUSH1 0x1 PUSH1 0x1 PUSH1 0x40 SHL SUB DUP3 GT OR PUSH2 0x643 JUMPI PUSH1 0x40 MSTORE JUMP JUMPDEST SWAP1 PUSH1 0x40 MLOAD SWAP2 DUP3 PUSH1 0x0 DUP3 SLOAD SWAP3 PUSH2 0x18F4 DUP5 PUSH2 0x1833 JUMP JUMPDEST SWAP1 DUP2 DUP5 MSTORE PUSH1 0x1 SWAP5 DUP6 DUP2 AND SWAP1 DUP2 PUSH1 0x0 EQ PUSH2 0x1963 JUMPI POP PUSH1 0x1 EQ PUSH2 0x1920 JUMPI JUMPDEST POP POP PUSH2 0x191E SWAP3 POP SUB DUP4 PUSH2 0x18BF JUMP JUMPDEST JUMP JUMPDEST SWAP1 SWAP4 SWAP2 POP PUSH1 0x0 MSTORE PUSH1 0x20 SWAP1 DUP2 PUSH1 0x0 KECCAK256 SWAP4 PUSH1 0x0 SWAP2 JUMPDEST DUP2 DUP4 LT PUSH2 0x194B JUMPI POP POP PUSH2 0x191E SWAP4 POP DUP3 ADD ADD CODESIZE DUP1 PUSH2 0x1910 JUMP JUMPDEST DUP6 SLOAD DUP9 DUP5 ADD DUP6 ADD MSTORE SWAP5 DUP6 ADD SWAP5 DUP8 SWAP5 POP SWAP2 DUP4 ADD SWAP2 PUSH2 0x1933 JUMP JUMPDEST SWAP2 POP POP PUSH2 0x191E SWAP5 POP PUSH1 0x20 SWAP3 POP PUSH1 0xFF NOT AND DUP3 DUP5 ADD MSTORE ISZERO ISZERO PUSH1 0x5 SHL DUP3 ADD ADD CODESIZE DUP1 PUSH2 0x1910 JUMP JUMPDEST PUSH1 0x0 SLOAD PUSH1 0x1 PUSH1 0x1 PUSH1 0xA0 SHL SUB AND CALLER SUB PUSH2 0x199A JUMPI JUMP JUMPDEST PUSH1 0x64 PUSH1 0x40 MLOAD PUSH3 0x461BCD PUSH1 0xE5 SHL DUP2 MSTORE PUSH1 0x20 PUSH1 0x4 DUP3 ADD MSTORE PUSH1 0x20 PUSH1 0x24 DUP3 ADD MSTORE PUSH32 0x4F776E61626C653A2063616C6C6572206973206E6F7420746865206F776E6572 PUSH1 0x44 DUP3 ADD MSTORE REVERT JUMPDEST PUSH1 0x0 NOT DUP2 EQ PUSH2 0x19ED JUMPI PUSH1 0x1 ADD SWAP1 JUMP JUMPDEST PUSH4 0x4E487B71 PUSH1 0xE0 SHL PUSH1 0x0 MSTORE PUSH1 0x11 PUSH1 0x4 MSTORE PUSH1 0x24 PUSH1 0x0 REVERT JUMPDEST SWAP2 SWAP1 DUP3 ADD DUP1 SWAP3 GT PUSH2 0x19ED JUMPI JUMP JUMPDEST PUSH1 0x3 DUP3 LT ISZERO PUSH2 0x54F JUMPI MSTORE JUMP JUMPDEST DUP2 DUP2 MUL SWAP3 SWAP2 DUP2 ISZERO SWAP2 DUP5 DIV EQ OR ISZERO PUSH2 0x19ED JUMPI JUMP JUMPDEST SWAP1 PUSH1 0x3 DUP2 LT ISZERO PUSH2 0x54F JUMPI PUSH1 0xFF DUP1 NOT DUP4 SLOAD AND SWAP2 AND OR SWAP1 SSTORE JUMP JUMPDEST ISZERO PUSH2 0x1A4E JUMPI JUMP JUMPDEST PUSH1 0x40 MLOAD PUSH3 0x461BCD PUSH1 0xE5 SHL DUP2 MSTORE PUSH1 0x20 PUSH1 0x4 DUP3 ADD MSTORE PUSH1 0x1D PUSH1 0x24 DUP3 ADD MSTORE PUSH32 0x436F6E74656E74206E6F7420666F756E64206F7220696E616374697665000000 PUSH1 0x44 DUP3 ADD MSTORE PUSH1 0x64 SWAP1 REVERT JUMPDEST ISZERO PUSH2 0x1A9A JUMPI JUMP JUMPDEST PUSH1 0x40 MLOAD PUSH3 0x461BCD PUSH1 0xE5 SHL DUP2 MSTORE PUSH1 0x20 PUSH1 0x4 DUP3 ADD MSTORE PUSH1 0x13 PUSH1 0x24 DUP3 ADD MSTORE PUSH19 0x151BDAD95B881B9BDD081CDD5C1C1BDC9D1959 PUSH1 0x6A SHL PUSH1 0x44 DUP3 ADD MSTORE PUSH1 0x64 SWAP1 REVERT JUMPDEST SWAP1 DUP2 PUSH1 0x20 SWAP2 SUB SLT PUSH2 0x199 JUMPI MLOAD DUP1 ISZERO ISZERO DUP2 SUB PUSH2 0x199 JUMPI SWAP1 JUMP JUMPDEST PUSH1 0x9 DUP3 LT ISZERO PUSH2 0x54F JUMPI MSTORE JUMP JUMPDEST MLOAD SWAP1 PUSH10 0xFFFFFFFFFFFFFFFFFFFF DUP3 AND DUP3 SUB PUSH2 0x199 JUMPI JUMP JUMPDEST PUSH1 0xA0 PUSH1 0x4 SWAP2 PUSH2 0x1B24 PUSH1 0xFF DUP5 PUSH2 0xBB1 DUP5 PUSH2 0x178B JUMP JUMPDEST PUSH1 0x1 PUSH2 0x1B34 DUP2 DUP1 DUP6 SHL SUB SWAP3 PUSH2 0x178B JUMP JUMPDEST ADD SLOAD AND PUSH1 0x40 MLOAD SWAP3 DUP4 DUP1 SWAP3 PUSH4 0x3FABE5A3 PUSH1 0xE2 SHL DUP3 MSTORE GAS STATICCALL SWAP1 DUP2 ISZERO PUSH2 0x739 JUMPI PUSH1 0x0 SWAP2 PUSH2 0x1B9B JUMPI JUMPDEST POP PUSH1 0x0 DUP2 SGT ISZERO PUSH2 0x1B66 JUMPI SWAP1 JUMP JUMPDEST PUSH1 0x40 MLOAD PUSH3 0x461BCD PUSH1 0xE5 SHL DUP2 MSTORE PUSH1 0x20 PUSH1 0x4 DUP3 ADD MSTORE PUSH1 0xD PUSH1 0x24 DUP3 ADD MSTORE PUSH13 0x496E76616C6964207072696365 PUSH1 0x98 SHL PUSH1 0x44 DUP3 ADD MSTORE PUSH1 0x64 SWAP1 REVERT JUMPDEST SWAP1 PUSH1 0xA0 DUP3 RETURNDATASIZE DUP3 GT PUSH2 0x1BE2 JUMPI JUMPDEST DUP2 PUSH2 0x1BB4 PUSH1 0xA0 SWAP4 DUP4 PUSH2 0x18BF JUMP JUMPDEST DUP2 ADD SUB SLT PUSH2 0x1BDF JUMPI POP PUSH2 0x1BC6 DUP2 PUSH2 0x1AF9 JUMP JUMPDEST POP PUSH2 0x1BD8 PUSH1 0x80 PUSH1 0x20 DUP4 ADD MLOAD SWAP3 ADD PUSH2 0x1AF9 JUMP JUMPDEST POP CODESIZE PUSH2 0x1B59 JUMP JUMPDEST DUP1 REVERT JUMPDEST RETURNDATASIZE SWAP2 POP PUSH2 0x1BA7 JUMP JUMPDEST DUP2 ISZERO PUSH2 0x1BF4 JUMPI DIV SWAP1 JUMP JUMPDEST PUSH4 0x4E487B71 PUSH1 0xE0 SHL PUSH1 0x0 MSTORE PUSH1 0x12 PUSH1 0x4 MSTORE PUSH1 0x24 PUSH1 0x0 REVERT JUMPDEST PUSH2 0x1C30 SWAP1 PUSH1 0xFF PUSH1 0x1 PUSH2 0x1C24 PUSH2 0x1C1E DUP5 PUSH2 0x1B10 JUMP JUMPDEST SWAP4 PUSH2 0x178B JUMP JUMPDEST ADD SLOAD PUSH1 0xA0 SHR AND SWAP3 PUSH2 0x1A1C JUMP JUMPDEST PUSH1 0x4D DUP3 GT PUSH2 0x19ED JUMPI PUSH2 0x1C45 SWAP2 PUSH1 0xA EXP SWAP1 PUSH2 0x1BEA JUMP JUMPDEST SWAP1 JUMP JUMPDEST SWAP1 PUSH1 0x1 DUP1 DUP4 ADD PUSH1 0x0 DUP2 DUP6 GT PUSH2 0x1CA5 JUMPI POP DUP2 SHR SWAP1 DUP4 JUMPDEST DUP5 DUP4 LT PUSH2 0x1C85 JUMPI POP POP POP SWAP2 PUSH2 0x1C7C PUSH2 0x1C81 SWAP3 PUSH1 0xFF PUSH2 0x3E8 SWAP6 AND SWAP1 PUSH2 0x1A1C JUMP JUMPDEST PUSH2 0x1A1C JUMP JUMPDEST DIV SWAP1 JUMP JUMPDEST SWAP1 SWAP2 SWAP4 POP PUSH2 0x1C9C DUP5 PUSH2 0x1C97 DUP2 DUP5 PUSH2 0x1BEA JUMP JUMPDEST PUSH2 0x1A03 JUMP JUMPDEST DUP3 SHR SWAP2 SWAP1 PUSH2 0x1C5D JUMP JUMPDEST PUSH4 0x4E487B71 PUSH1 0xE0 SHL DUP2 MSTORE PUSH1 0x11 PUSH1 0x4 MSTORE PUSH1 0x24 SWAP1 REVERT JUMPDEST PUSH1 0x40 DUP1 MLOAD PUSH1 0x60 SWAP3 DUP4 SHL PUSH12 0xFFFFFFFFFFFFFFFFFFFFFFFF NOT AND PUSH1 0x20 DUP1 DUP4 ADD SWAP2 DUP3 MSTORE PUSH1 0x14 DUP4 MSTORE SWAP6 SWAP7 DUP3 DUP5 ADD SWAP7 SWAP4 SWAP6 PUSH1 0x1 PUSH1 0x1 PUSH1 0x40 SHL SUB SWAP6 SWAP4 SWAP3 DUP7 DUP10 GT DUP5 DUP11 LT OR PUSH2 0x643 JUMPI DUP9 DUP9 MSTORE DUP4 MLOAD SWAP1 KECCAK256 SWAP1 PUSH1 0x2 SLOAD SWAP7 DUP11 GT PUSH2 0x643 JUMPI PUSH1 0x5 SWAP10 DUP1 DUP12 SHL SWAP1 PUSH2 0x1D20 DUP9 DUP4 ADD DUP13 PUSH2 0x18BF JUMP JUMPDEST DUP11 MSTORE DUP6 DUP6 ADD SWAP1 DUP3 ADD SWAP2 CALLDATASIZE DUP4 GT PUSH2 0x199 JUMPI DUP8 SWAP1 SWAP2 JUMPDEST DUP4 DUP4 LT PUSH2 0x1D98 JUMPI POP POP POP POP SWAP5 PUSH1 0x0 SWAP6 JUMPDEST DUP9 MLOAD DUP8 LT ISZERO PUSH2 0x1D8C JUMPI DUP7 DUP11 SHL DUP5 ADD DUP6 ADD MLOAD SWAP1 DUP9 PUSH1 0x0 DUP4 DUP4 LT ISZERO PUSH2 0x1D7C JUMPI POP POP PUSH1 0x0 MSTORE DUP6 MSTORE PUSH2 0x1D76 DUP8 PUSH1 0x0 KECCAK256 JUMPDEST SWAP7 PUSH2 0x19DE JUMP JUMPDEST SWAP6 PUSH2 0x1D44 JUMP JUMPDEST SWAP1 SWAP2 PUSH2 0x1D76 SWAP4 DUP3 MSTORE DUP9 MSTORE KECCAK256 PUSH2 0x1D70 JUMP JUMPDEST EQ SWAP8 POP SWAP6 POP POP POP POP POP POP JUMP JUMPDEST DUP3 CALLDATALOAD DUP2 MSTORE SWAP2 DUP2 ADD SWAP2 DUP9 SWAP2 ADD PUSH2 0x1D34 JUMP INVALID LOG2 PUSH5 0x6970667358 0x22 SLT KECCAK256 0xAA XOR EXP 0xB3 CALLDATASIZE 0xF6 PUSH3 0x417E21 DIV DUP2 JUMPDEST SWAP12 0xFC 0xAD 0xA8 SWAP12 0x5C ADDMOD 0x1F 0xFC DUP16 0xD2 0x5E PUSH26 0xD2B5C326BCF264736F6C63430008130033000000000000000000 "},"methodIdentifiers":{"MAX_VOTING_PERIOD()":"a64e024a","MIN_VOTING_PERIOD()":"215809ca","addToken(uint8,address,address,uint8,uint256,uint256)":"b53d568a","calculateVotingWeight(uint256,uint8,uint256)":"714d985f","contentCounter()":"e6a9aba3","contents(uint256)":"b5ecf912","convertToUSD(uint8,uint256)":"877baeaa","deactivateToken(uint8)":"67c95bde","emergencyWithdraw(uint8,uint256)":"ccf62c3d","finalizeVoting(uint256)":"49444831","getContentInfo(uint256)":"7509c330","getTokenPriceUSD(uint8)":"7354c7e3","getUserVote(uint256,address)":"03c7881a","isVerifiedIdentity(address,bytes32[])":"63025f6d","merkleRoot()":"2eb4a7ab","owner()":"8da5cb5b","renounceOwnership()":"715018a6","submitContent(string,uint256)":"dad3fc13","submitVote(uint256,uint8,uint8,uint8,uint256,bytes32[])":"782631a0","supportedTokens(uint8)":"3f572d36","transferOwnership(address)":"f2fde38b","updateMerkleRoot(bytes32)":"4783f0ef","userVotes(uint256,address)":"fe5b3e3b"}}}}}