{"contracts/ProofChainSimpleVoting.sol":{"ProofChainSimpleVoting":{"abi":[{"inputs":[{"internalType":"bytes32","name":"_merkleRoot","type":"bytes32"}],"stateMutability":"nonpayable","type":"constructor"},{"anonymous":false,"inputs":[{"indexed":true,"internalType":"uint256","name":"contentId","type":"uint256"},{"indexed":false,"internalType":"string","name":"ipfsHash","type":"string"},{"indexed":false,"internalType":"uint256","name":"votingDeadline","type":"uint256"},{"indexed":true,"internalType":"address","name":"creator","type":"address"}],"name":"ContentSubmitted","type":"event"},{"anonymous":false,"inputs":[{"indexed":true,"internalType":"address","name":"previousOwner","type":"address"},{"indexed":true,"internalType":"address","name":"newOwner","type":"address"}],"name":"OwnershipTransferred","type":"event"},{"anonymous":false,"inputs":[{"indexed":true,"internalType":"enum ProofChainSimpleVoting.TokenType","name":"tokenType","type":"uint8"},{"indexed":false,"internalType":"address","name":"tokenAddress","type":"address"},{"indexed":false,"internalType":"address","name":"priceOracle","type":"address"}],"name":"TokenAdded","type":"event"},{"anonymous":false,"inputs":[{"indexed":true,"internalType":"enum ProofChainSimpleVoting.TokenType","name":"tokenType","type":"uint8"},{"indexed":false,"internalType":"bool","name":"isActive","type":"bool"},{"indexed":false,"internalType":"uint256","name":"bonusMultiplier","type":"uint256"}],"name":"TokenUpdated","type":"event"},{"anonymous":false,"inputs":[{"indexed":true,"internalType":"uint256","name":"contentId","type":"uint256"},{"indexed":true,"internalType":"address","name":"voter","type":"address"},{"indexed":false,"internalType":"enum ProofChainSimpleVoting.VoteOption","name":"vote","type":"uint8"},{"indexed":false,"internalType":"uint8","name":"confidence","type":"uint8"},{"indexed":false,"internalType":"enum ProofChainSimpleVoting.TokenType","name":"tokenType","type":"uint8"},{"indexed":false,"internalType":"uint256","name":"stakeAmount","type":"uint256"},{"indexed":false,"internalType":"uint256","name":"weight","type":"uint256"}],"name":"VoteSubmitted","type":"event"},{"anonymous":false,"inputs":[{"indexed":true,"internalType":"uint256","name":"contentId","type":"uint256"},{"indexed":false,"internalType":"enum ProofChainSimpleVoting.VoteOption","name":"winningOption","type":"uint8"},{"indexed":false,"internalType":"uint256","name":"totalParticipants","type":"uint256"},{"indexed":false,"internalType":"uint256","name":"totalUSDValue","type":"uint256"}],"name":"VotingFinalized","type":"event"},{"inputs":[{"internalType":"enum ProofChainSimpleVoting.TokenType","name":"tokenType","type":"uint8"},{"internalType":"address","name":"tokenAddress","type":"address"},{"internalType":"address","name":"priceOracle","type":"address"},{"internalType":"uint8","name":"decimals","type":"uint8"},{"internalType":"uint256","name":"bonusMultiplier","type":"uint256"},{"internalType":"uint256","name":"minStakeAmount","type":"uint256"}],"name":"addToken","outputs":[],"stateMutability":"nonpayable","type":"function"},{"inputs":[{"internalType":"uint256","name":"usdValue","type":"uint256"},{"internalType":"uint8","name":"confidence","type":"uint8"},{"internalType":"uint256","name":"bonusMultiplier","type":"uint256"}],"name":"calculateVotingWeight","outputs":[{"internalType":"uint256","name":"","type":"uint256"}],"stateMutability":"pure","type":"function"},{"inputs":[{"internalType":"uint256","name":"","type":"uint256"}],"name":"contentItems","outputs":[{"internalType":"string","name":"ipfsHash","type":"string"},{"internalType":"uint256","name":"submissionTime","type":"uint256"},{"internalType":"uint256","name":"votingDeadline","type":"uint256"},{"internalType":"uint256","name":"totalUSDValue","type":"uint256"},{"internalType":"bool","name":"isActive","type":"bool"},{"internalType":"bool","name":"isFinalized","type":"bool"},{"internalType":"uint256","name":"participantCount","type":"uint256"},{"internalType":"enum ProofChainSimpleVoting.VoteOption","name":"winningOption","type":"uint8"}],"stateMutability":"view","type":"function"},{"inputs":[],"name":"defaultVotingDuration","outputs":[{"internalType":"uint256","name":"","type":"uint256"}],"stateMutability":"view","type":"function"},{"inputs":[{"internalType":"uint256","name":"contentId","type":"uint256"}],"name":"finalizeVoting","outputs":[],"stateMutability":"nonpayable","type":"function"},{"inputs":[{"internalType":"uint256","name":"contentId","type":"uint256"}],"name":"getContentInfo","outputs":[{"internalType":"string","name":"ipfsHash","type":"string"},{"internalType":"uint256","name":"submissionTime","type":"uint256"},{"internalType":"uint256","name":"votingDeadline","type":"uint256"},{"internalType":"bool","name":"isActive","type":"bool"},{"internalType":"bool","name":"isFinalized","type":"bool"},{"internalType":"uint256[]","name":"voteDistribution","type":"uint256[]"},{"internalType":"uint256","name":"participantCount","type":"uint256"},{"internalType":"uint256","name":"totalUSDValue","type":"uint256"},{"internalType":"enum ProofChainSimpleVoting.VoteOption","name":"winningOption","type":"uint8"}],"stateMutability":"view","type":"function"},{"inputs":[{"internalType":"enum ProofChainSimpleVoting.TokenType","name":"tokenType","type":"uint8"}],"name":"getTokenPriceUSD","outputs":[{"internalType":"uint256","name":"","type":"uint256"}],"stateMutability":"view","type":"function"},{"inputs":[{"internalType":"uint256","name":"contentId","type":"uint256"},{"internalType":"address","name":"user","type":"address"}],"name":"getUserVote","outputs":[{"internalType":"bool","name":"hasVoted","type":"bool"},{"internalType":"enum ProofChainSimpleVoting.VoteOption","name":"vote","type":"uint8"},{"internalType":"uint8","name":"confidence","type":"uint8"},{"internalType":"enum ProofChainSimpleVoting.TokenType","name":"tokenType","type":"uint8"},{"internalType":"uint256","name":"stakeAmount","type":"uint256"},{"internalType":"uint256","name":"weight","type":"uint256"},{"internalType":"uint256","name":"timestamp","type":"uint256"}],"stateMutability":"view","type":"function"},{"inputs":[],"name":"merkleRoot","outputs":[{"internalType":"bytes32","name":"","type":"bytes32"}],"stateMutability":"view","type":"function"},{"inputs":[],"name":"minimumStakeUSD","outputs":[{"internalType":"uint256","name":"","type":"uint256"}],"stateMutability":"view","type":"function"},{"inputs":[],"name":"nextContentId","outputs":[{"internalType":"uint256","name":"","type":"uint256"}],"stateMutability":"view","type":"function"},{"inputs":[],"name":"owner","outputs":[{"internalType":"address","name":"","type":"address"}],"stateMutability":"view","type":"function"},{"inputs":[],"name":"renounceOwnership","outputs":[],"stateMutability":"nonpayable","type":"function"},{"inputs":[{"internalType":"uint256","name":"_duration","type":"uint256"}],"name":"setDefaultVotingDuration","outputs":[],"stateMutability":"nonpayable","type":"function"},{"inputs":[{"internalType":"string","name":"ipfsHash","type":"string"},{"internalType":"uint256","name":"votingDuration","type":"uint256"}],"name":"submitContent","outputs":[{"internalType":"uint256","name":"","type":"uint256"}],"stateMutability":"nonpayable","type":"function"},{"inputs":[{"internalType":"uint256","name":"contentId","type":"uint256"},{"internalType":"enum ProofChainSimpleVoting.VoteOption","name":"vote","type":"uint8"},{"internalType":"uint8","name":"confidence","type":"uint8"},{"internalType":"enum ProofChainSimpleVoting.TokenType","name":"tokenType","type":"uint8"},{"internalType":"uint256","name":"stakeAmount","type":"uint256"},{"internalType":"bytes32[]","name":"merkleProof","type":"bytes32[]"}],"name":"submitVote","outputs":[],"stateMutability":"payable","type":"function"},{"inputs":[{"internalType":"enum ProofChainSimpleVoting.TokenType","name":"","type":"uint8"}],"name":"supportedTokens","outputs":[{"internalType":"address","name":"tokenAddress","type":"address"},{"internalType":"contract AggregatorV3Interface","name":"priceOracle","type":"address"},{"internalType":"uint8","name":"decimals","type":"uint8"},{"internalType":"bool","name":"isActive","type":"bool"},{"internalType":"uint256","name":"bonusMultiplier","type":"uint256"},{"internalType":"uint256","name":"minStakeAmount","type":"uint256"}],"stateMutability":"view","type":"function"},{"inputs":[{"internalType":"address","name":"newOwner","type":"address"}],"name":"transferOwnership","outputs":[],"stateMutability":"nonpayable","type":"function"},{"inputs":[{"internalType":"bytes32","name":"_merkleRoot","type":"bytes32"}],"name":"updateMerkleRoot","outputs":[],"stateMutability":"nonpayable","type":"function"},{"inputs":[{"internalType":"enum ProofChainSimpleVoting.TokenType","name":"tokenType","type":"uint8"},{"internalType":"bool","name":"isActive","type":"bool"},{"internalType":"uint256","name":"bonusMultiplier","type":"uint256"}],"name":"updateToken","outputs":[],"stateMutability":"nonpayable","type":"function"},{"inputs":[{"internalType":"bytes32","name":"","type":"bytes32"}],"name":"usedMerkleLeaves","outputs":[{"internalType":"bool","name":"","type":"bool"}],"stateMutability":"view","type":"function"}],"evm":{"bytecode":{"linkReferences":{},"object":"6080346100af57601f611bd538819003918201601f19168301916001600160401b038311848410176100b4578084926020946040528339810103126100af5751600160008181558154336001600160a01b0319821681179093556040519392916001600160a01b03909116907f8be0079c531659141344cd1fd0a4f28419497f9722a3daafe3b4186f6b6457e09080a3600160055562015180600655600a600755600855611b0a90816100cb8239f35b600080fd5b634e487b7160e01b600052604160045260246000fdfe6080604052600436101561001257600080fd5b60003560e01c806303c7881a1461157c5780630a248d7f1461155e5780630e73afdf146114bf5780632eb4a7ab146114a15780633f572d361461142c57806346f02f46146113b55780634783f0ef1461139457806349444831146111de578063714d985f146111ae578063715018a6146111515780637354c7e3146111215780637509c33014610fde578063782631a01461073f5780638da5cb5b14610716578063a09312fd146106f8578063b53d568a1461061b578063b9a1d20d14610584578063dad3fc1314610222578063eb6e1a6214610204578063f2d03924146101d35763f2fde38b1461010357600080fd5b346101ce5760203660031901126101ce576004356001600160a01b03818116918290036101ce576101326117e1565b811561017a57600154826bffffffffffffffffffffffff60a01b821617600155167f8be0079c531659141344cd1fd0a4f28419497f9722a3daafe3b4186f6b6457e0600080a3005b60405162461bcd60e51b815260206004820152602660248201527f4f776e61626c653a206e6577206f776e657220697320746865207a65726f206160448201526564647265737360d01b6064820152608490fd5b600080fd5b346101ce5760203660031901126101ce576004356000526004602052602060ff604060002054166040519015158152f35b346101ce5760003660031901126101ce576020600754604051908152f35b346101ce5760403660031901126101ce5760043567ffffffffffffffff8082116101ce57366023830112156101ce5781600401358181116101ce57602492368483830101116101ce57833593821561054b578415610541575b603c85101580610534575b156104f0576005549361029885611839565b60055584600052602095600387526040600020916102b68354611686565b601f81116104b5575b5085846000601f83116001146104495760009261043c575b50508660011b906000198860031b1c19161783555b6102fd60019242848601554261185f565b6002840190815560058401805460ff19168417905560405190936080820183811183821017610427576040526003825260078a830191606036843701915192831161041257600160401b83116104125781548383558084106103f5575b509287928996949795926000528a600020976000985b828a106103dc57505050507fbc19d37dc499c8455564517e576d7d380a7a6f6f340aefd0ee7007abb30a6c4294955054916040519360408552826040860152016060840137600060608684010152868201526060813395601f80199101168101030190a3604051908152f35b81518a820155988301988b98508a9550908c0190610370565b61040c9083600052848c6000209182019101611848565b8a61035a565b85634e487b7160e01b60005260416004526000fd5b86634e487b7160e01b60005260416004526000fd5b870101359050848a6102d7565b915050601f1987169084600052878a6000209260005b8c82821061049a5750501061047e575b5050600186811b0183556102ec565b8601850135600019600389901b60f8161c19169055888061046f565b8a85018a01358655600190950194938401938b93500161045f565b6104e0908460005289600020601f890160051c8101918b8a106104e6575b601f0160051c0190611848565b886102bf565b90915081906104d3565b60649060176040519162461bcd60e51b8352602060048401528201527f496e76616c696420766f74696e67206475726174696f6e0000000000000000006044820152fd5b5062093a80851115610286565b600654945061027b565b60649060126040519162461bcd60e51b8352602060048401528201527112541194c81a185cda081c995c5d5a5c995960721b6044820152fd5b346101ce5760603660031901126101ce5760043560098110156101ce576024358015158091036101ce5760407ff452027f24e21c883950a8c162ad4cf41a0ceecfc4c68c595a16b769d4a4ec7e916044356105dd6117e1565b60016105e8866117c8565b01805460ff60a81b191660a884901b60ff60a81b1617905580600261060c876117c8565b015582519182526020820152a2005b346101ce5760c03660031901126101ce5760043560098110156101ce57610640611640565b6001600160a01b03604435818116908190036101ce576064359060ff821682036101ce577fd7e0ffe3c5e893c914e856817d8bfcf09e393c7926b6cf6fd55867404db05cb1936040936106916117e1565b61069a876117c8565b80546001600160a01b0319169190921690811782556001820180546001600160b01b031916841760a09590951b60ff60a01b1694909417600160a81b17909355608435600282015560a43560039091015582519182526020820152a2005b346101ce5760003660031901126101ce576020600654604051908152f35b346101ce5760003660031901126101ce576001546040516001600160a01b039091168152602090f35b60c03660031901126101ce57600360243510156101ce5760ff60443516604435036101ce57600960643510156101ce5767ffffffffffffffff60a435116101ce5736602360a4350112156101ce5767ffffffffffffffff60a43560040135116101ce5736602460a4356004013560051b60a4350101116101ce57600260005414610f99576002600055600435151580610f8c575b6107dc9061187f565b6004356000526003602052604060002060058101549060ff821615610f5357600201544211610f185760081c60ff16610ed357600435600052600360205260066040600020013360005260205260ff60046040600020015416610e9e57600160ff60443516101580610e8e575b15610e4957600260ff6024351611610e0e576040513360601b60208201526014815280604081011067ffffffffffffffff604083011117610b87576040810160405280516020820120600854906108af602060a4356004013560051b01604085016116c0565b60a43560048101356040850152602401606084015b602460a4356004013560051b60a43501018210610dfe575050806000915b60408501518310156109325760608360051b860101519081811060001461091e5760005260205261091860406000205b92611839565b916108e2565b906000526020526109186040600020610912565b8303610dc05780600052600460205260ff60406000205416610d83576109596064356117c8565b9060ff600183015460a81c1615610d4857600382015460843510610d0d57606435600103610c1e576084353403610be2576109bc6109a360843561099e606435611978565b61186c565b6109b660ff600186015460a01c166118c0565b906118d1565b915b6007548310610b9d5760026109d891015460443584611937565b91600435600052600360205260406000209033600052600682016020526040600020610a06602435826118f1565b805462ff000060643560101b169061ff0060443560081b169062ffff00191617178155608435600182015581600282015584600382015560048101600160ff19825416179055600542910155610a6160243560078401611909565b81549060031b90610a748782841c61185f565b821b91600019901b1916179055606435600052600382016020526040600020610aa0608435825461185f565b9055610ab16004830191825461185f565b9055600981015490600160401b821015610b8757610add82600160089401600984015560098301611909565b81546001600160a01b0360039290921b91821b19163390911b179055018054610b0590611839565b905560005260046020526040600020600160ff1982541617905560405190610b2f82602435611656565b60ff604435166020830152610b4960408301606435611679565b6084356060830152608082015233907ff641c07ff9548b4d94093e2363e7bead14740019250d143f6e940989f4e91bb360a060043592a36001600055005b634e487b7160e01b600052604160045260246000fd5b60405162461bcd60e51b815260206004820152601d60248201527f5374616b652062656c6f77206d696e696d756d205553442076616c75650000006044820152606490fd5b60405162461bcd60e51b8152602060048201526014602482015273125b98dbdc9c9958dd0811551208185b5bdd5b9d60621b6044820152606490fd5b34610cc95781546040516323b872dd60e01b8152336004820152306024820152608435604482015290602090829060649082906000906001600160a01b03165af18015610cbd57610c85575b50610c7f6109a360843561099e606435611978565b916109be565b6020813d602011610cb5575b81610c9e602093836116c0565b810103126101ce5751801515036101ce5782610c6a565b3d9150610c91565b6040513d6000823e3d90fd5b606460405162461bcd60e51b815260206004820152602060248201527f455448206e6f7420726571756972656420666f7220746f6b656e207374616b656044820152fd5b60405162461bcd60e51b81526020600482015260136024820152725374616b652062656c6f77206d696e696d756d60681b6044820152606490fd5b60405162461bcd60e51b8152602060048201526013602482015272151bdad95b881b9bdd081cdd5c1c1bdc9d1959606a1b6044820152606490fd5b60405162461bcd60e51b81526020600482015260156024820152741259195b9d1a5d1e48185b1c9958591e481d5cd959605a1b6044820152606490fd5b60405162461bcd60e51b815260206004820152601660248201527524b73b30b634b21034b232b73a34ba3c90383937b7b360511b6044820152606490fd5b81358152602091820191016108c4565b60405162461bcd60e51b815260206004820152601360248201527224b73b30b634b2103b37ba329037b83a34b7b760691b6044820152606490fd5b60405162461bcd60e51b815260206004820152601760248201527f436f6e666964656e6365206d75737420626520312d31300000000000000000006044820152606490fd5b50600a60ff604435161115610849565b60405162461bcd60e51b815260206004820152600d60248201526c105b1c9958591e481d9bdd1959609a1b6044820152606490fd5b60405162461bcd60e51b815260206004820152601860248201527f566f74696e6720616c72656164792066696e616c697a656400000000000000006044820152606490fd5b60405162461bcd60e51b8152602060048201526013602482015272159bdd1a5b99c81c195c9a5bd908195b991959606a1b6044820152606490fd5b60405162461bcd60e51b8152602060048201526011602482015270566f74696e67206e6f742061637469766560781b6044820152606490fd5b50600554600435106107d3565b60405162461bcd60e51b815260206004820152601f60248201527f5265656e7472616e637947756172643a207265656e7472616e742063616c6c006044820152606490fd5b346101ce576020806003193601126101ce5760043580151580611116575b6110059061187f565b6000526003815260406000209060019182810154600282015490600583015493600784019560088501549260048601549461104760ff600a89015416976116e2565b976040519182868c54918281520190819c600052876000209060005b818110611103575050509160ff9161107f8589969503856116c0565b6110956040519c8d610120908181520190611788565b95858d015260408c0152818116151560608c015260081c16151560808a015288830360a08a0152519182815201979260005b8281106110f05788808b6110ec8b8b8b60c086015260e0850152610100840190611656565b0390f35b84518a52988101989381019383016110c7565b8254845292890192918801918801611063565b506005548110610ffc565b346101ce5760203660031901126101ce5760043560098110156101ce57611149602091611978565b604051908152f35b346101ce5760003660031901126101ce5761116a6117e1565b600180546001600160a01b031981169091556000906001600160a01b03167f8be0079c531659141344cd1fd0a4f28419497f9722a3daafe3b4186f6b6457e08280a3005b346101ce5760603660031901126101ce5760243560ff811681036101ce5761114960209160443590600435611937565b346101ce5760203660031901126101ce5760043580151580611389575b6112049061187f565b806000526003806020526040600020916002830154421115611344576005830160ff9283825460081c1661130b5760009492600784019086805b878116858110156112a557896112548387611909565b905490881b1c11611288575b5087168781146112725760010161123e565b634e487b7160e01b600052601160045260246000fd5b98509050866112978285611909565b905490861b1c989190611260565b837fbbbe9b42ddfa0692cd5f3dc618525dde4b8fe438fe573f13b3fa9fb1287d6fcd6060858b8b6112d983600a84016118f1565b61010061ffff1982541617905560046008820154910154906112fe6040518094611656565b60208301526040820152a2005b60405162461bcd60e51b8152602060048201526011602482015270105b1c9958591e48199a5b985b1a5e9959607a1b6044820152606490fd5b60405162461bcd60e51b815260206004820152601760248201527f566f74696e6720706572696f64206e6f7420656e6465640000000000000000006044820152606490fd5b5060055481106111fb565b346101ce5760203660031901126101ce576113ad6117e1565b600435600855005b346101ce5760203660031901126101ce576004356113d16117e1565b610e108110158061141f575b156113e757600655005b60405162461bcd60e51b815260206004820152601060248201526f24b73b30b634b210323ab930ba34b7b760811b6044820152606490fd5b5062093a808111156113dd565b346101ce5760203660031901126101ce5760043560098110156101ce5761145460c0916117c8565b60018060a01b03808254169160ff6001820154600360028401549301549360405195865281166020860152818160a01c16604086015260a81c1615156060840152608083015260a0820152f35b346101ce5760003660031901126101ce576020600854604051908152f35b346101ce5760203660031901126101ce57600435600052600360205261152a60406000206114ec816116e2565b906110ec60018201549160028101549060ff600482015460058301549082600a60088601549501541694604051998a99610100808c528b0190611788565b9760208a0152604089015260608801528181161515608088015260081c16151560a086015260c085015260e0840190611656565b346101ce5760003660031901126101ce576020600554604051908152f35b346101ce5760403660031901126101ce57600435611598611640565b9080151580611635575b6115ab9061187f565b600052600360205260066040600020019060018060a01b031660005260205260e0604060002060ff600482015416908054906001810154611624600560038401549301549360405195151586526116086020870160ff8316611656565b60ff8160081c16604087015260ff606087019160101c16611679565b608084015260a083015260c0820152f35b5060055481106115a2565b602435906001600160a01b03821682036101ce57565b9060038210156116635752565b634e487b7160e01b600052602160045260246000fd5b9060098210156116635752565b90600182811c921680156116b6575b60208310146116a057565b634e487b7160e01b600052602260045260246000fd5b91607f1691611695565b90601f8019910116810190811067ffffffffffffffff821117610b8757604052565b90604051918260008254926116f684611686565b9081845260019485811690816000146117655750600114611722575b5050611720925003836116c0565b565b9093915060005260209081600020936000915b81831061174d57505061172093508201013880611712565b85548884018501529485019487945091830191611735565b91505061172094506020925060ff191682840152151560051b8201013880611712565b919082519283825260005b8481106117b4575050826000602080949584010152601f8019910116010190565b602081830181015184830182015201611793565b6009811015611663576000526002602052604060002090565b6001546001600160a01b031633036117f557565b606460405162461bcd60e51b815260206004820152602060248201527f4f776e61626c653a2063616c6c6572206973206e6f7420746865206f776e65726044820152fd5b60001981146112725760010190565b818110611853575050565b60008155600101611848565b9190820180921161127257565b8181029291811591840414171561127257565b1561188657565b60405162461bcd60e51b8152602060048201526012602482015271125b9d985b1a590818dbdb9d195b9d08125160721b6044820152606490fd5b60ff16604d811161127257600a0a90565b81156118db570490565b634e487b7160e01b600052601260045260246000fd5b9060038110156116635760ff80198354169116179055565b80548210156119215760005260206000200190600090565b634e487b7160e01b600052603260045260246000fd5b91600a61195761195d9360ff61194f6103e897611a8a565b91169061186c565b0461186c565b0490565b519069ffffffffffffffffffff821682036101ce57565b6001600160a01b039060019061198d906117c8565b0154168015611a4e5760a060049160405192838092633fabe5a360e21b82525afa908115610cbd576000916119ff575b5060008113156119ca5790565b60405162461bcd60e51b815260206004820152600d60248201526c496e76616c696420707269636560981b6044820152606490fd5b9060a0823d8211611a46575b81611a1860a093836116c0565b81010312611a435750611a2a81611961565b50611a3c608060208301519201611961565b50386119bd565b80fd5b3d9150611a0b565b60405162461bcd60e51b8152602060048201526014602482015273141c9a58d9481bdc9858db19481b9bdd081cd95d60621b6044820152606490fd5b8015611ace57600180820180831161127257811c90825b838310611aae5750505090565b90919250611ac583611ac081846118d1565b61185f565b821c9190611aa1565b5060009056fea26469706673582212209d80f3bad739ac1dcb3fb44d958a9fdf3cc4fa024ff02b546b1290b42cacfada64736f6c63430008130033","opcodes":"PUSH1 0x80 CALLVALUE PUSH2 0xAF JUMPI PUSH1 0x1F PUSH2 0x1BD5 CODESIZE DUP2 SWAP1 SUB SWAP2 DUP3 ADD PUSH1 0x1F NOT AND DUP4 ADD SWAP2 PUSH1 0x1 PUSH1 0x1 PUSH1 0x40 SHL SUB DUP4 GT DUP5 DUP5 LT OR PUSH2 0xB4 JUMPI DUP1 DUP5 SWAP3 PUSH1 0x20 SWAP5 PUSH1 0x40 MSTORE DUP4 CODECOPY DUP2 ADD SUB SLT PUSH2 0xAF JUMPI MLOAD PUSH1 0x1 PUSH1 0x0 DUP2 DUP2 SSTORE DUP2 SLOAD CALLER PUSH1 0x1 PUSH1 0x1 PUSH1 0xA0 SHL SUB NOT DUP3 AND DUP2 OR SWAP1 SWAP4 SSTORE PUSH1 0x40 MLOAD SWAP4 SWAP3 SWAP2 PUSH1 0x1 PUSH1 0x1 PUSH1 0xA0 SHL SUB SWAP1 SWAP2 AND SWAP1 PUSH32 0x8BE0079C531659141344CD1FD0A4F28419497F9722A3DAAFE3B4186F6B6457E0 SWAP1 DUP1 LOG3 PUSH1 0x1 PUSH1 0x5 SSTORE PUSH3 0x15180 PUSH1 0x6 SSTORE PUSH1 0xA PUSH1 0x7 SSTORE PUSH1 0x8 SSTORE PUSH2 0x1B0A SWAP1 DUP2 PUSH2 0xCB DUP3 CODECOPY RETURN JUMPDEST PUSH1 0x0 DUP1 REVERT JUMPDEST PUSH4 0x4E487B71 PUSH1 0xE0 SHL PUSH1 0x0 MSTORE PUSH1 0x41 PUSH1 0x4 MSTORE PUSH1 0x24 PUSH1 0x0 REVERT INVALID PUSH1 0x80 PUSH1 0x40 MSTORE PUSH1 0x4 CALLDATASIZE LT ISZERO PUSH2 0x12 JUMPI PUSH1 0x0 DUP1 REVERT JUMPDEST PUSH1 0x0 CALLDATALOAD PUSH1 0xE0 SHR DUP1 PUSH4 0x3C7881A EQ PUSH2 0x157C JUMPI DUP1 PUSH4 0xA248D7F EQ PUSH2 0x155E JUMPI DUP1 PUSH4 0xE73AFDF EQ PUSH2 0x14BF JUMPI DUP1 PUSH4 0x2EB4A7AB EQ PUSH2 0x14A1 JUMPI DUP1 PUSH4 0x3F572D36 EQ PUSH2 0x142C JUMPI DUP1 PUSH4 0x46F02F46 EQ PUSH2 0x13B5 JUMPI DUP1 PUSH4 0x4783F0EF EQ PUSH2 0x1394 JUMPI DUP1 PUSH4 0x49444831 EQ PUSH2 0x11DE JUMPI DUP1 PUSH4 0x714D985F EQ PUSH2 0x11AE JUMPI DUP1 PUSH4 0x715018A6 EQ PUSH2 0x1151 JUMPI DUP1 PUSH4 0x7354C7E3 EQ PUSH2 0x1121 JUMPI DUP1 PUSH4 0x7509C330 EQ PUSH2 0xFDE JUMPI DUP1 PUSH4 0x782631A0 EQ PUSH2 0x73F JUMPI DUP1 PUSH4 0x8DA5CB5B EQ PUSH2 0x716 JUMPI DUP1 PUSH4 0xA09312FD EQ PUSH2 0x6F8 JUMPI DUP1 PUSH4 0xB53D568A EQ PUSH2 0x61B JUMPI DUP1 PUSH4 0xB9A1D20D EQ PUSH2 0x584 JUMPI DUP1 PUSH4 0xDAD3FC13 EQ PUSH2 0x222 JUMPI DUP1 PUSH4 0xEB6E1A62 EQ PUSH2 0x204 JUMPI DUP1 PUSH4 0xF2D03924 EQ PUSH2 0x1D3 JUMPI PUSH4 0xF2FDE38B EQ PUSH2 0x103 JUMPI PUSH1 0x0 DUP1 REVERT JUMPDEST CALLVALUE PUSH2 0x1CE JUMPI PUSH1 0x20 CALLDATASIZE PUSH1 0x3 NOT ADD SLT PUSH2 0x1CE JUMPI PUSH1 0x4 CALLDATALOAD PUSH1 0x1 PUSH1 0x1 PUSH1 0xA0 SHL SUB DUP2 DUP2 AND SWAP2 DUP3 SWAP1 SUB PUSH2 0x1CE JUMPI PUSH2 0x132 PUSH2 0x17E1 JUMP JUMPDEST DUP2 ISZERO PUSH2 0x17A JUMPI PUSH1 0x1 SLOAD DUP3 PUSH12 0xFFFFFFFFFFFFFFFFFFFFFFFF PUSH1 0xA0 SHL DUP3 AND OR PUSH1 0x1 SSTORE AND PUSH32 0x8BE0079C531659141344CD1FD0A4F28419497F9722A3DAAFE3B4186F6B6457E0 PUSH1 0x0 DUP1 LOG3 STOP JUMPDEST PUSH1 0x40 MLOAD PUSH3 0x461BCD PUSH1 0xE5 SHL DUP2 MSTORE PUSH1 0x20 PUSH1 0x4 DUP3 ADD MSTORE PUSH1 0x26 PUSH1 0x24 DUP3 ADD MSTORE PUSH32 0x4F776E61626C653A206E6577206F776E657220697320746865207A65726F2061 PUSH1 0x44 DUP3 ADD MSTORE PUSH6 0x646472657373 PUSH1 0xD0 SHL PUSH1 0x64 DUP3 ADD MSTORE PUSH1 0x84 SWAP1 REVERT JUMPDEST PUSH1 0x0 DUP1 REVERT JUMPDEST CALLVALUE PUSH2 0x1CE JUMPI PUSH1 0x20 CALLDATASIZE PUSH1 0x3 NOT ADD SLT PUSH2 0x1CE JUMPI PUSH1 0x4 CALLDATALOAD PUSH1 0x0 MSTORE PUSH1 0x4 PUSH1 0x20 MSTORE PUSH1 0x20 PUSH1 0xFF PUSH1 0x40 PUSH1 0x0 KECCAK256 SLOAD AND PUSH1 0x40 MLOAD SWAP1 ISZERO ISZERO DUP2 MSTORE RETURN JUMPDEST CALLVALUE PUSH2 0x1CE JUMPI PUSH1 0x0 CALLDATASIZE PUSH1 0x3 NOT ADD SLT PUSH2 0x1CE JUMPI PUSH1 0x20 PUSH1 0x7 SLOAD PUSH1 0x40 MLOAD SWAP1 DUP2 MSTORE RETURN JUMPDEST CALLVALUE PUSH2 0x1CE JUMPI PUSH1 0x40 CALLDATASIZE PUSH1 0x3 NOT ADD SLT PUSH2 0x1CE JUMPI PUSH1 0x4 CALLDATALOAD PUSH8 0xFFFFFFFFFFFFFFFF DUP1 DUP3 GT PUSH2 0x1CE JUMPI CALLDATASIZE PUSH1 0x23 DUP4 ADD SLT ISZERO PUSH2 0x1CE JUMPI DUP2 PUSH1 0x4 ADD CALLDATALOAD DUP2 DUP2 GT PUSH2 0x1CE JUMPI PUSH1 0x24 SWAP3 CALLDATASIZE DUP5 DUP4 DUP4 ADD ADD GT PUSH2 0x1CE JUMPI DUP4 CALLDATALOAD SWAP4 DUP3 ISZERO PUSH2 0x54B JUMPI DUP5 ISZERO PUSH2 0x541 JUMPI JUMPDEST PUSH1 0x3C DUP6 LT ISZERO DUP1 PUSH2 0x534 JUMPI JUMPDEST ISZERO PUSH2 0x4F0 JUMPI PUSH1 0x5 SLOAD SWAP4 PUSH2 0x298 DUP6 PUSH2 0x1839 JUMP JUMPDEST PUSH1 0x5 SSTORE DUP5 PUSH1 0x0 MSTORE PUSH1 0x20 SWAP6 PUSH1 0x3 DUP8 MSTORE PUSH1 0x40 PUSH1 0x0 KECCAK256 SWAP2 PUSH2 0x2B6 DUP4 SLOAD PUSH2 0x1686 JUMP JUMPDEST PUSH1 0x1F DUP2 GT PUSH2 0x4B5 JUMPI JUMPDEST POP DUP6 DUP5 PUSH1 0x0 PUSH1 0x1F DUP4 GT PUSH1 0x1 EQ PUSH2 0x449 JUMPI PUSH1 0x0 SWAP3 PUSH2 0x43C JUMPI JUMPDEST POP POP DUP7 PUSH1 0x1 SHL SWAP1 PUSH1 0x0 NOT DUP9 PUSH1 0x3 SHL SHR NOT AND OR DUP4 SSTORE JUMPDEST PUSH2 0x2FD PUSH1 0x1 SWAP3 TIMESTAMP DUP5 DUP7 ADD SSTORE TIMESTAMP PUSH2 0x185F JUMP JUMPDEST PUSH1 0x2 DUP5 ADD SWAP1 DUP2 SSTORE PUSH1 0x5 DUP5 ADD DUP1 SLOAD PUSH1 0xFF NOT AND DUP5 OR SWAP1 SSTORE PUSH1 0x40 MLOAD SWAP1 SWAP4 PUSH1 0x80 DUP3 ADD DUP4 DUP2 GT DUP4 DUP3 LT OR PUSH2 0x427 JUMPI PUSH1 0x40 MSTORE PUSH1 0x3 DUP3 MSTORE PUSH1 0x7 DUP11 DUP4 ADD SWAP2 PUSH1 0x60 CALLDATASIZE DUP5 CALLDATACOPY ADD SWAP2 MLOAD SWAP3 DUP4 GT PUSH2 0x412 JUMPI PUSH1 0x1 PUSH1 0x40 SHL DUP4 GT PUSH2 0x412 JUMPI DUP2 SLOAD DUP4 DUP4 SSTORE DUP1 DUP5 LT PUSH2 0x3F5 JUMPI JUMPDEST POP SWAP3 DUP8 SWAP3 DUP10 SWAP7 SWAP5 SWAP8 SWAP6 SWAP3 PUSH1 0x0 MSTORE DUP11 PUSH1 0x0 KECCAK256 SWAP8 PUSH1 0x0 SWAP9 JUMPDEST DUP3 DUP11 LT PUSH2 0x3DC JUMPI POP POP POP POP PUSH32 0xBC19D37DC499C8455564517E576D7D380A7A6F6F340AEFD0EE7007ABB30A6C42 SWAP5 SWAP6 POP SLOAD SWAP2 PUSH1 0x40 MLOAD SWAP4 PUSH1 0x40 DUP6 MSTORE DUP3 PUSH1 0x40 DUP7 ADD MSTORE ADD PUSH1 0x60 DUP5 ADD CALLDATACOPY PUSH1 0x0 PUSH1 0x60 DUP7 DUP5 ADD ADD MSTORE DUP7 DUP3 ADD MSTORE PUSH1 0x60 DUP2 CALLER SWAP6 PUSH1 0x1F DUP1 NOT SWAP2 ADD AND DUP2 ADD SUB ADD SWAP1 LOG3 PUSH1 0x40 MLOAD SWAP1 DUP2 MSTORE RETURN JUMPDEST DUP2 MLOAD DUP11 DUP3 ADD SSTORE SWAP9 DUP4 ADD SWAP9 DUP12 SWAP9 POP DUP11 SWAP6 POP SWAP1 DUP13 ADD SWAP1 PUSH2 0x370 JUMP JUMPDEST PUSH2 0x40C SWAP1 DUP4 PUSH1 0x0 MSTORE DUP5 DUP13 PUSH1 0x0 KECCAK256 SWAP2 DUP3 ADD SWAP2 ADD PUSH2 0x1848 JUMP JUMPDEST DUP11 PUSH2 0x35A JUMP JUMPDEST DUP6 PUSH4 0x4E487B71 PUSH1 0xE0 SHL PUSH1 0x0 MSTORE PUSH1 0x41 PUSH1 0x4 MSTORE PUSH1 0x0 REVERT JUMPDEST DUP7 PUSH4 0x4E487B71 PUSH1 0xE0 SHL PUSH1 0x0 MSTORE PUSH1 0x41 PUSH1 0x4 MSTORE PUSH1 0x0 REVERT JUMPDEST DUP8 ADD ADD CALLDATALOAD SWAP1 POP DUP5 DUP11 PUSH2 0x2D7 JUMP JUMPDEST SWAP2 POP POP PUSH1 0x1F NOT DUP8 AND SWAP1 DUP5 PUSH1 0x0 MSTORE DUP8 DUP11 PUSH1 0x0 KECCAK256 SWAP3 PUSH1 0x0 JUMPDEST DUP13 DUP3 DUP3 LT PUSH2 0x49A JUMPI POP POP LT PUSH2 0x47E JUMPI JUMPDEST POP POP PUSH1 0x1 DUP7 DUP2 SHL ADD DUP4 SSTORE PUSH2 0x2EC JUMP JUMPDEST DUP7 ADD DUP6 ADD CALLDATALOAD PUSH1 0x0 NOT PUSH1 0x3 DUP10 SWAP1 SHL PUSH1 0xF8 AND SHR NOT AND SWAP1 SSTORE DUP9 DUP1 PUSH2 0x46F JUMP JUMPDEST DUP11 DUP6 ADD DUP11 ADD CALLDATALOAD DUP7 SSTORE PUSH1 0x1 SWAP1 SWAP6 ADD SWAP5 SWAP4 DUP5 ADD SWAP4 DUP12 SWAP4 POP ADD PUSH2 0x45F JUMP JUMPDEST PUSH2 0x4E0 SWAP1 DUP5 PUSH1 0x0 MSTORE DUP10 PUSH1 0x0 KECCAK256 PUSH1 0x1F DUP10 ADD PUSH1 0x5 SHR DUP2 ADD SWAP2 DUP12 DUP11 LT PUSH2 0x4E6 JUMPI JUMPDEST PUSH1 0x1F ADD PUSH1 0x5 SHR ADD SWAP1 PUSH2 0x1848 JUMP JUMPDEST DUP9 PUSH2 0x2BF JUMP JUMPDEST SWAP1 SWAP2 POP DUP2 SWAP1 PUSH2 0x4D3 JUMP JUMPDEST PUSH1 0x64 SWAP1 PUSH1 0x17 PUSH1 0x40 MLOAD SWAP2 PUSH3 0x461BCD PUSH1 0xE5 SHL DUP4 MSTORE PUSH1 0x20 PUSH1 0x4 DUP5 ADD MSTORE DUP3 ADD MSTORE PUSH32 0x496E76616C696420766F74696E67206475726174696F6E000000000000000000 PUSH1 0x44 DUP3 ADD MSTORE REVERT JUMPDEST POP PUSH3 0x93A80 DUP6 GT ISZERO PUSH2 0x286 JUMP JUMPDEST PUSH1 0x6 SLOAD SWAP5 POP PUSH2 0x27B JUMP JUMPDEST PUSH1 0x64 SWAP1 PUSH1 0x12 PUSH1 0x40 MLOAD SWAP2 PUSH3 0x461BCD PUSH1 0xE5 SHL DUP4 MSTORE PUSH1 0x20 PUSH1 0x4 DUP5 ADD MSTORE DUP3 ADD MSTORE PUSH18 0x12541194C81A185CDA081C995C5D5A5C9959 PUSH1 0x72 SHL PUSH1 0x44 DUP3 ADD MSTORE REVERT JUMPDEST CALLVALUE PUSH2 0x1CE JUMPI PUSH1 0x60 CALLDATASIZE PUSH1 0x3 NOT ADD SLT PUSH2 0x1CE JUMPI PUSH1 0x4 CALLDATALOAD PUSH1 0x9 DUP2 LT ISZERO PUSH2 0x1CE JUMPI PUSH1 0x24 CALLDATALOAD DUP1 ISZERO ISZERO DUP1 SWAP2 SUB PUSH2 0x1CE JUMPI PUSH1 0x40 PUSH32 0xF452027F24E21C883950A8C162AD4CF41A0CEECFC4C68C595A16B769D4A4EC7E SWAP2 PUSH1 0x44 CALLDATALOAD PUSH2 0x5DD PUSH2 0x17E1 JUMP JUMPDEST PUSH1 0x1 PUSH2 0x5E8 DUP7 PUSH2 0x17C8 JUMP JUMPDEST ADD DUP1 SLOAD PUSH1 0xFF PUSH1 0xA8 SHL NOT AND PUSH1 0xA8 DUP5 SWAP1 SHL PUSH1 0xFF PUSH1 0xA8 SHL AND OR SWAP1 SSTORE DUP1 PUSH1 0x2 PUSH2 0x60C DUP8 PUSH2 0x17C8 JUMP JUMPDEST ADD SSTORE DUP3 MLOAD SWAP2 DUP3 MSTORE PUSH1 0x20 DUP3 ADD MSTORE LOG2 STOP JUMPDEST CALLVALUE PUSH2 0x1CE JUMPI PUSH1 0xC0 CALLDATASIZE PUSH1 0x3 NOT ADD SLT PUSH2 0x1CE JUMPI PUSH1 0x4 CALLDATALOAD PUSH1 0x9 DUP2 LT ISZERO PUSH2 0x1CE JUMPI PUSH2 0x640 PUSH2 0x1640 JUMP JUMPDEST PUSH1 0x1 PUSH1 0x1 PUSH1 0xA0 SHL SUB PUSH1 0x44 CALLDATALOAD DUP2 DUP2 AND SWAP1 DUP2 SWAP1 SUB PUSH2 0x1CE JUMPI PUSH1 0x64 CALLDATALOAD SWAP1 PUSH1 0xFF DUP3 AND DUP3 SUB PUSH2 0x1CE JUMPI PUSH32 0xD7E0FFE3C5E893C914E856817D8BFCF09E393C7926B6CF6FD55867404DB05CB1 SWAP4 PUSH1 0x40 SWAP4 PUSH2 0x691 PUSH2 0x17E1 JUMP JUMPDEST PUSH2 0x69A DUP8 PUSH2 0x17C8 JUMP JUMPDEST DUP1 SLOAD PUSH1 0x1 PUSH1 0x1 PUSH1 0xA0 SHL SUB NOT AND SWAP2 SWAP1 SWAP3 AND SWAP1 DUP2 OR DUP3 SSTORE PUSH1 0x1 DUP3 ADD DUP1 SLOAD PUSH1 0x1 PUSH1 0x1 PUSH1 0xB0 SHL SUB NOT AND DUP5 OR PUSH1 0xA0 SWAP6 SWAP1 SWAP6 SHL PUSH1 0xFF PUSH1 0xA0 SHL AND SWAP5 SWAP1 SWAP5 OR PUSH1 0x1 PUSH1 0xA8 SHL OR SWAP1 SWAP4 SSTORE PUSH1 0x84 CALLDATALOAD PUSH1 0x2 DUP3 ADD SSTORE PUSH1 0xA4 CALLDATALOAD PUSH1 0x3 SWAP1 SWAP2 ADD SSTORE DUP3 MLOAD SWAP2 DUP3 MSTORE PUSH1 0x20 DUP3 ADD MSTORE LOG2 STOP JUMPDEST CALLVALUE PUSH2 0x1CE JUMPI PUSH1 0x0 CALLDATASIZE PUSH1 0x3 NOT ADD SLT PUSH2 0x1CE JUMPI PUSH1 0x20 PUSH1 0x6 SLOAD PUSH1 0x40 MLOAD SWAP1 DUP2 MSTORE RETURN JUMPDEST CALLVALUE PUSH2 0x1CE JUMPI PUSH1 0x0 CALLDATASIZE PUSH1 0x3 NOT ADD SLT PUSH2 0x1CE JUMPI PUSH1 0x1 SLOAD PUSH1 0x40 MLOAD PUSH1 0x1 PUSH1 0x1 PUSH1 0xA0 SHL SUB SWAP1 SWAP2 AND DUP2 MSTORE PUSH1 0x20 SWAP1 RETURN JUMPDEST PUSH1 0xC0 CALLDATASIZE PUSH1 0x3 NOT ADD SLT PUSH2 0x1CE JUMPI PUSH1 0x3 PUSH1 0x24 CALLDATALOAD LT ISZERO PUSH2 0x1CE JUMPI PUSH1 0xFF PUSH1 0x44 CALLDATALOAD AND PUSH1 0x44 CALLDATALOAD SUB PUSH2 0x1CE JUMPI PUSH1 0x9 PUSH1 0x64 CALLDATALOAD LT ISZERO PUSH2 0x1CE JUMPI PUSH8 0xFFFFFFFFFFFFFFFF PUSH1 0xA4 CALLDATALOAD GT PUSH2 0x1CE JUMPI CALLDATASIZE PUSH1 0x23 PUSH1 0xA4 CALLDATALOAD ADD SLT ISZERO PUSH2 0x1CE JUMPI PUSH8 0xFFFFFFFFFFFFFFFF PUSH1 0xA4 CALLDATALOAD PUSH1 0x4 ADD CALLDATALOAD GT PUSH2 0x1CE JUMPI CALLDATASIZE PUSH1 0x24 PUSH1 0xA4 CALLDATALOAD PUSH1 0x4 ADD CALLDATALOAD PUSH1 0x5 SHL PUSH1 0xA4 CALLDATALOAD ADD ADD GT PUSH2 0x1CE JUMPI PUSH1 0x2 PUSH1 0x0 SLOAD EQ PUSH2 0xF99 JUMPI PUSH1 0x2 PUSH1 0x0 SSTORE PUSH1 0x4 CALLDATALOAD ISZERO ISZERO DUP1 PUSH2 0xF8C JUMPI JUMPDEST PUSH2 0x7DC SWAP1 PUSH2 0x187F JUMP JUMPDEST PUSH1 0x4 CALLDATALOAD PUSH1 0x0 MSTORE PUSH1 0x3 PUSH1 0x20 MSTORE PUSH1 0x40 PUSH1 0x0 KECCAK256 PUSH1 0x5 DUP2 ADD SLOAD SWAP1 PUSH1 0xFF DUP3 AND ISZERO PUSH2 0xF53 JUMPI PUSH1 0x2 ADD SLOAD TIMESTAMP GT PUSH2 0xF18 JUMPI PUSH1 0x8 SHR PUSH1 0xFF AND PUSH2 0xED3 JUMPI PUSH1 0x4 CALLDATALOAD PUSH1 0x0 MSTORE PUSH1 0x3 PUSH1 0x20 MSTORE PUSH1 0x6 PUSH1 0x40 PUSH1 0x0 KECCAK256 ADD CALLER PUSH1 0x0 MSTORE PUSH1 0x20 MSTORE PUSH1 0xFF PUSH1 0x4 PUSH1 0x40 PUSH1 0x0 KECCAK256 ADD SLOAD AND PUSH2 0xE9E JUMPI PUSH1 0x1 PUSH1 0xFF PUSH1 0x44 CALLDATALOAD AND LT ISZERO DUP1 PUSH2 0xE8E JUMPI JUMPDEST ISZERO PUSH2 0xE49 JUMPI PUSH1 0x2 PUSH1 0xFF PUSH1 0x24 CALLDATALOAD AND GT PUSH2 0xE0E JUMPI PUSH1 0x40 MLOAD CALLER PUSH1 0x60 SHL PUSH1 0x20 DUP3 ADD MSTORE PUSH1 0x14 DUP2 MSTORE DUP1 PUSH1 0x40 DUP2 ADD LT PUSH8 0xFFFFFFFFFFFFFFFF PUSH1 0x40 DUP4 ADD GT OR PUSH2 0xB87 JUMPI PUSH1 0x40 DUP2 ADD PUSH1 0x40 MSTORE DUP1 MLOAD PUSH1 0x20 DUP3 ADD KECCAK256 PUSH1 0x8 SLOAD SWAP1 PUSH2 0x8AF PUSH1 0x20 PUSH1 0xA4 CALLDATALOAD PUSH1 0x4 ADD CALLDATALOAD PUSH1 0x5 SHL ADD PUSH1 0x40 DUP6 ADD PUSH2 0x16C0 JUMP JUMPDEST PUSH1 0xA4 CALLDATALOAD PUSH1 0x4 DUP2 ADD CALLDATALOAD PUSH1 0x40 DUP6 ADD MSTORE PUSH1 0x24 ADD PUSH1 0x60 DUP5 ADD JUMPDEST PUSH1 0x24 PUSH1 0xA4 CALLDATALOAD PUSH1 0x4 ADD CALLDATALOAD PUSH1 0x5 SHL PUSH1 0xA4 CALLDATALOAD ADD ADD DUP3 LT PUSH2 0xDFE JUMPI POP POP DUP1 PUSH1 0x0 SWAP2 JUMPDEST PUSH1 0x40 DUP6 ADD MLOAD DUP4 LT ISZERO PUSH2 0x932 JUMPI PUSH1 0x60 DUP4 PUSH1 0x5 SHL DUP7 ADD ADD MLOAD SWAP1 DUP2 DUP2 LT PUSH1 0x0 EQ PUSH2 0x91E JUMPI PUSH1 0x0 MSTORE PUSH1 0x20 MSTORE PUSH2 0x918 PUSH1 0x40 PUSH1 0x0 KECCAK256 JUMPDEST SWAP3 PUSH2 0x1839 JUMP JUMPDEST SWAP2 PUSH2 0x8E2 JUMP JUMPDEST SWAP1 PUSH1 0x0 MSTORE PUSH1 0x20 MSTORE PUSH2 0x918 PUSH1 0x40 PUSH1 0x0 KECCAK256 PUSH2 0x912 JUMP JUMPDEST DUP4 SUB PUSH2 0xDC0 JUMPI DUP1 PUSH1 0x0 MSTORE PUSH1 0x4 PUSH1 0x20 MSTORE PUSH1 0xFF PUSH1 0x40 PUSH1 0x0 KECCAK256 SLOAD AND PUSH2 0xD83 JUMPI PUSH2 0x959 PUSH1 0x64 CALLDATALOAD PUSH2 0x17C8 JUMP JUMPDEST SWAP1 PUSH1 0xFF PUSH1 0x1 DUP4 ADD SLOAD PUSH1 0xA8 SHR AND ISZERO PUSH2 0xD48 JUMPI PUSH1 0x3 DUP3 ADD SLOAD PUSH1 0x84 CALLDATALOAD LT PUSH2 0xD0D JUMPI PUSH1 0x64 CALLDATALOAD PUSH1 0x1 SUB PUSH2 0xC1E JUMPI PUSH1 0x84 CALLDATALOAD CALLVALUE SUB PUSH2 0xBE2 JUMPI PUSH2 0x9BC PUSH2 0x9A3 PUSH1 0x84 CALLDATALOAD PUSH2 0x99E PUSH1 0x64 CALLDATALOAD PUSH2 0x1978 JUMP JUMPDEST PUSH2 0x186C JUMP JUMPDEST PUSH2 0x9B6 PUSH1 0xFF PUSH1 0x1 DUP7 ADD SLOAD PUSH1 0xA0 SHR AND PUSH2 0x18C0 JUMP JUMPDEST SWAP1 PUSH2 0x18D1 JUMP JUMPDEST SWAP2 JUMPDEST PUSH1 0x7 SLOAD DUP4 LT PUSH2 0xB9D JUMPI PUSH1 0x2 PUSH2 0x9D8 SWAP2 ADD SLOAD PUSH1 0x44 CALLDATALOAD DUP5 PUSH2 0x1937 JUMP JUMPDEST SWAP2 PUSH1 0x4 CALLDATALOAD PUSH1 0x0 MSTORE PUSH1 0x3 PUSH1 0x20 MSTORE PUSH1 0x40 PUSH1 0x0 KECCAK256 SWAP1 CALLER PUSH1 0x0 MSTORE PUSH1 0x6 DUP3 ADD PUSH1 0x20 MSTORE PUSH1 0x40 PUSH1 0x0 KECCAK256 PUSH2 0xA06 PUSH1 0x24 CALLDATALOAD DUP3 PUSH2 0x18F1 JUMP JUMPDEST DUP1 SLOAD PUSH3 0xFF0000 PUSH1 0x64 CALLDATALOAD PUSH1 0x10 SHL AND SWAP1 PUSH2 0xFF00 PUSH1 0x44 CALLDATALOAD PUSH1 0x8 SHL AND SWAP1 PUSH3 0xFFFF00 NOT AND OR OR DUP2 SSTORE PUSH1 0x84 CALLDATALOAD PUSH1 0x1 DUP3 ADD SSTORE DUP2 PUSH1 0x2 DUP3 ADD SSTORE DUP5 PUSH1 0x3 DUP3 ADD SSTORE PUSH1 0x4 DUP2 ADD PUSH1 0x1 PUSH1 0xFF NOT DUP3 SLOAD AND OR SWAP1 SSTORE PUSH1 0x5 TIMESTAMP SWAP2 ADD SSTORE PUSH2 0xA61 PUSH1 0x24 CALLDATALOAD PUSH1 0x7 DUP5 ADD PUSH2 0x1909 JUMP JUMPDEST DUP2 SLOAD SWAP1 PUSH1 0x3 SHL SWAP1 PUSH2 0xA74 DUP8 DUP3 DUP5 SHR PUSH2 0x185F JUMP JUMPDEST DUP3 SHL SWAP2 PUSH1 0x0 NOT SWAP1 SHL NOT AND OR SWAP1 SSTORE PUSH1 0x64 CALLDATALOAD PUSH1 0x0 MSTORE PUSH1 0x3 DUP3 ADD PUSH1 0x20 MSTORE PUSH1 0x40 PUSH1 0x0 KECCAK256 PUSH2 0xAA0 PUSH1 0x84 CALLDATALOAD DUP3 SLOAD PUSH2 0x185F JUMP JUMPDEST SWAP1 SSTORE PUSH2 0xAB1 PUSH1 0x4 DUP4 ADD SWAP2 DUP3 SLOAD PUSH2 0x185F JUMP JUMPDEST SWAP1 SSTORE PUSH1 0x9 DUP2 ADD SLOAD SWAP1 PUSH1 0x1 PUSH1 0x40 SHL DUP3 LT ISZERO PUSH2 0xB87 JUMPI PUSH2 0xADD DUP3 PUSH1 0x1 PUSH1 0x8 SWAP5 ADD PUSH1 0x9 DUP5 ADD SSTORE PUSH1 0x9 DUP4 ADD PUSH2 0x1909 JUMP JUMPDEST DUP2 SLOAD PUSH1 0x1 PUSH1 0x1 PUSH1 0xA0 SHL SUB PUSH1 0x3 SWAP3 SWAP1 SWAP3 SHL SWAP2 DUP3 SHL NOT AND CALLER SWAP1 SWAP2 SHL OR SWAP1 SSTORE ADD DUP1 SLOAD PUSH2 0xB05 SWAP1 PUSH2 0x1839 JUMP JUMPDEST SWAP1 SSTORE PUSH1 0x0 MSTORE PUSH1 0x4 PUSH1 0x20 MSTORE PUSH1 0x40 PUSH1 0x0 KECCAK256 PUSH1 0x1 PUSH1 0xFF NOT DUP3 SLOAD AND OR SWAP1 SSTORE PUSH1 0x40 MLOAD SWAP1 PUSH2 0xB2F DUP3 PUSH1 0x24 CALLDATALOAD PUSH2 0x1656 JUMP JUMPDEST PUSH1 0xFF PUSH1 0x44 CALLDATALOAD AND PUSH1 0x20 DUP4 ADD MSTORE PUSH2 0xB49 PUSH1 0x40 DUP4 ADD PUSH1 0x64 CALLDATALOAD PUSH2 0x1679 JUMP JUMPDEST PUSH1 0x84 CALLDATALOAD PUSH1 0x60 DUP4 ADD MSTORE PUSH1 0x80 DUP3 ADD MSTORE CALLER SWAP1 PUSH32 0xF641C07FF9548B4D94093E2363E7BEAD14740019250D143F6E940989F4E91BB3 PUSH1 0xA0 PUSH1 0x4 CALLDATALOAD SWAP3 LOG3 PUSH1 0x1 PUSH1 0x0 SSTORE STOP JUMPDEST PUSH4 0x4E487B71 PUSH1 0xE0 SHL PUSH1 0x0 MSTORE PUSH1 0x41 PUSH1 0x4 MSTORE PUSH1 0x24 PUSH1 0x0 REVERT JUMPDEST PUSH1 0x40 MLOAD PUSH3 0x461BCD PUSH1 0xE5 SHL DUP2 MSTORE PUSH1 0x20 PUSH1 0x4 DUP3 ADD MSTORE PUSH1 0x1D PUSH1 0x24 DUP3 ADD MSTORE PUSH32 0x5374616B652062656C6F77206D696E696D756D205553442076616C7565000000 PUSH1 0x44 DUP3 ADD MSTORE PUSH1 0x64 SWAP1 REVERT JUMPDEST PUSH1 0x40 MLOAD PUSH3 0x461BCD PUSH1 0xE5 SHL DUP2 MSTORE PUSH1 0x20 PUSH1 0x4 DUP3 ADD MSTORE PUSH1 0x14 PUSH1 0x24 DUP3 ADD MSTORE PUSH20 0x125B98DBDC9C9958DD0811551208185B5BDD5B9D PUSH1 0x62 SHL PUSH1 0x44 DUP3 ADD MSTORE PUSH1 0x64 SWAP1 REVERT JUMPDEST CALLVALUE PUSH2 0xCC9 JUMPI DUP2 SLOAD PUSH1 0x40 MLOAD PUSH4 0x23B872DD PUSH1 0xE0 SHL DUP2 MSTORE CALLER PUSH1 0x4 DUP3 ADD MSTORE ADDRESS PUSH1 0x24 DUP3 ADD MSTORE PUSH1 0x84 CALLDATALOAD PUSH1 0x44 DUP3 ADD MSTORE SWAP1 PUSH1 0x20 SWAP1 DUP3 SWAP1 PUSH1 0x64 SWAP1 DUP3 SWAP1 PUSH1 0x0 SWAP1 PUSH1 0x1 PUSH1 0x1 PUSH1 0xA0 SHL SUB AND GAS CALL DUP1 ISZERO PUSH2 0xCBD JUMPI PUSH2 0xC85 JUMPI JUMPDEST POP PUSH2 0xC7F PUSH2 0x9A3 PUSH1 0x84 CALLDATALOAD PUSH2 0x99E PUSH1 0x64 CALLDATALOAD PUSH2 0x1978 JUMP JUMPDEST SWAP2 PUSH2 0x9BE JUMP JUMPDEST PUSH1 0x20 DUP2 RETURNDATASIZE PUSH1 0x20 GT PUSH2 0xCB5 JUMPI JUMPDEST DUP2 PUSH2 0xC9E PUSH1 0x20 SWAP4 DUP4 PUSH2 0x16C0 JUMP JUMPDEST DUP2 ADD SUB SLT PUSH2 0x1CE JUMPI MLOAD DUP1 ISZERO ISZERO SUB PUSH2 0x1CE JUMPI DUP3 PUSH2 0xC6A JUMP JUMPDEST RETURNDATASIZE SWAP2 POP PUSH2 0xC91 JUMP JUMPDEST PUSH1 0x40 MLOAD RETURNDATASIZE PUSH1 0x0 DUP3 RETURNDATACOPY RETURNDATASIZE SWAP1 REVERT JUMPDEST PUSH1 0x64 PUSH1 0x40 MLOAD PUSH3 0x461BCD PUSH1 0xE5 SHL DUP2 MSTORE PUSH1 0x20 PUSH1 0x4 DUP3 ADD MSTORE PUSH1 0x20 PUSH1 0x24 DUP3 ADD MSTORE PUSH32 0x455448206E6F7420726571756972656420666F7220746F6B656E207374616B65 PUSH1 0x44 DUP3 ADD MSTORE REVERT JUMPDEST PUSH1 0x40 MLOAD PUSH3 0x461BCD PUSH1 0xE5 SHL DUP2 MSTORE PUSH1 0x20 PUSH1 0x4 DUP3 ADD MSTORE PUSH1 0x13 PUSH1 0x24 DUP3 ADD MSTORE PUSH19 0x5374616B652062656C6F77206D696E696D756D PUSH1 0x68 SHL PUSH1 0x44 DUP3 ADD MSTORE PUSH1 0x64 SWAP1 REVERT JUMPDEST PUSH1 0x40 MLOAD PUSH3 0x461BCD PUSH1 0xE5 SHL DUP2 MSTORE PUSH1 0x20 PUSH1 0x4 DUP3 ADD MSTORE PUSH1 0x13 PUSH1 0x24 DUP3 ADD MSTORE PUSH19 0x151BDAD95B881B9BDD081CDD5C1C1BDC9D1959 PUSH1 0x6A SHL PUSH1 0x44 DUP3 ADD MSTORE PUSH1 0x64 SWAP1 REVERT JUMPDEST PUSH1 0x40 MLOAD PUSH3 0x461BCD PUSH1 0xE5 SHL DUP2 MSTORE PUSH1 0x20 PUSH1 0x4 DUP3 ADD MSTORE PUSH1 0x15 PUSH1 0x24 DUP3 ADD MSTORE PUSH21 0x1259195B9D1A5D1E48185B1C9958591E481D5CD959 PUSH1 0x5A SHL PUSH1 0x44 DUP3 ADD MSTORE PUSH1 0x64 SWAP1 REVERT JUMPDEST PUSH1 0x40 MLOAD PUSH3 0x461BCD PUSH1 0xE5 SHL DUP2 MSTORE PUSH1 0x20 PUSH1 0x4 DUP3 ADD MSTORE PUSH1 0x16 PUSH1 0x24 DUP3 ADD MSTORE PUSH22 0x24B73B30B634B21034B232B73A34BA3C90383937B7B3 PUSH1 0x51 SHL PUSH1 0x44 DUP3 ADD MSTORE PUSH1 0x64 SWAP1 REVERT JUMPDEST DUP2 CALLDATALOAD DUP2 MSTORE PUSH1 0x20 SWAP2 DUP3 ADD SWAP2 ADD PUSH2 0x8C4 JUMP JUMPDEST PUSH1 0x40 MLOAD PUSH3 0x461BCD PUSH1 0xE5 SHL DUP2 MSTORE PUSH1 0x20 PUSH1 0x4 DUP3 ADD MSTORE PUSH1 0x13 PUSH1 0x24 DUP3 ADD MSTORE PUSH19 0x24B73B30B634B2103B37BA329037B83A34B7B7 PUSH1 0x69 SHL PUSH1 0x44 DUP3 ADD MSTORE PUSH1 0x64 SWAP1 REVERT JUMPDEST PUSH1 0x40 MLOAD PUSH3 0x461BCD PUSH1 0xE5 SHL DUP2 MSTORE PUSH1 0x20 PUSH1 0x4 DUP3 ADD MSTORE PUSH1 0x17 PUSH1 0x24 DUP3 ADD MSTORE PUSH32 0x436F6E666964656E6365206D75737420626520312D3130000000000000000000 PUSH1 0x44 DUP3 ADD MSTORE PUSH1 0x64 SWAP1 REVERT JUMPDEST POP PUSH1 0xA PUSH1 0xFF PUSH1 0x44 CALLDATALOAD AND GT ISZERO PUSH2 0x849 JUMP JUMPDEST PUSH1 0x40 MLOAD PUSH3 0x461BCD PUSH1 0xE5 SHL DUP2 MSTORE PUSH1 0x20 PUSH1 0x4 DUP3 ADD MSTORE PUSH1 0xD PUSH1 0x24 DUP3 ADD MSTORE PUSH13 0x105B1C9958591E481D9BDD1959 PUSH1 0x9A SHL PUSH1 0x44 DUP3 ADD MSTORE PUSH1 0x64 SWAP1 REVERT JUMPDEST PUSH1 0x40 MLOAD PUSH3 0x461BCD PUSH1 0xE5 SHL DUP2 MSTORE PUSH1 0x20 PUSH1 0x4 DUP3 ADD MSTORE PUSH1 0x18 PUSH1 0x24 DUP3 ADD MSTORE PUSH32 0x566F74696E6720616C72656164792066696E616C697A65640000000000000000 PUSH1 0x44 DUP3 ADD MSTORE PUSH1 0x64 SWAP1 REVERT JUMPDEST PUSH1 0x40 MLOAD PUSH3 0x461BCD PUSH1 0xE5 SHL DUP2 MSTORE PUSH1 0x20 PUSH1 0x4 DUP3 ADD MSTORE PUSH1 0x13 PUSH1 0x24 DUP3 ADD MSTORE PUSH19 0x159BDD1A5B99C81C195C9A5BD908195B991959 PUSH1 0x6A SHL PUSH1 0x44 DUP3 ADD MSTORE PUSH1 0x64 SWAP1 REVERT JUMPDEST PUSH1 0x40 MLOAD PUSH3 0x461BCD PUSH1 0xE5 SHL DUP2 MSTORE PUSH1 0x20 PUSH1 0x4 DUP3 ADD MSTORE PUSH1 0x11 PUSH1 0x24 DUP3 ADD MSTORE PUSH17 0x566F74696E67206E6F7420616374697665 PUSH1 0x78 SHL PUSH1 0x44 DUP3 ADD MSTORE PUSH1 0x64 SWAP1 REVERT JUMPDEST POP PUSH1 0x5 SLOAD PUSH1 0x4 CALLDATALOAD LT PUSH2 0x7D3 JUMP JUMPDEST PUSH1 0x40 MLOAD PUSH3 0x461BCD PUSH1 0xE5 SHL DUP2 MSTORE PUSH1 0x20 PUSH1 0x4 DUP3 ADD MSTORE PUSH1 0x1F PUSH1 0x24 DUP3 ADD MSTORE PUSH32 0x5265656E7472616E637947756172643A207265656E7472616E742063616C6C00 PUSH1 0x44 DUP3 ADD MSTORE PUSH1 0x64 SWAP1 REVERT JUMPDEST CALLVALUE PUSH2 0x1CE JUMPI PUSH1 0x20 DUP1 PUSH1 0x3 NOT CALLDATASIZE ADD SLT PUSH2 0x1CE JUMPI PUSH1 0x4 CALLDATALOAD DUP1 ISZERO ISZERO DUP1 PUSH2 0x1116 JUMPI JUMPDEST PUSH2 0x1005 SWAP1 PUSH2 0x187F JUMP JUMPDEST PUSH1 0x0 MSTORE PUSH1 0x3 DUP2 MSTORE PUSH1 0x40 PUSH1 0x0 KECCAK256 SWAP1 PUSH1 0x1 SWAP2 DUP3 DUP2 ADD SLOAD PUSH1 0x2 DUP3 ADD SLOAD SWAP1 PUSH1 0x5 DUP4 ADD SLOAD SWAP4 PUSH1 0x7 DUP5 ADD SWAP6 PUSH1 0x8 DUP6 ADD SLOAD SWAP3 PUSH1 0x4 DUP7 ADD SLOAD SWAP5 PUSH2 0x1047 PUSH1 0xFF PUSH1 0xA DUP10 ADD SLOAD AND SWAP8 PUSH2 0x16E2 JUMP JUMPDEST SWAP8 PUSH1 0x40 MLOAD SWAP2 DUP3 DUP7 DUP13 SLOAD SWAP2 DUP3 DUP2 MSTORE ADD SWAP1 DUP2 SWAP13 PUSH1 0x0 MSTORE DUP8 PUSH1 0x0 KECCAK256 SWAP1 PUSH1 0x0 JUMPDEST DUP2 DUP2 LT PUSH2 0x1103 JUMPI POP POP POP SWAP2 PUSH1 0xFF SWAP2 PUSH2 0x107F DUP6 DUP10 SWAP7 SWAP6 SUB DUP6 PUSH2 0x16C0 JUMP JUMPDEST PUSH2 0x1095 PUSH1 0x40 MLOAD SWAP13 DUP14 PUSH2 0x120 SWAP1 DUP2 DUP2 MSTORE ADD SWAP1 PUSH2 0x1788 JUMP JUMPDEST SWAP6 DUP6 DUP14 ADD MSTORE PUSH1 0x40 DUP13 ADD MSTORE DUP2 DUP2 AND ISZERO ISZERO PUSH1 0x60 DUP13 ADD MSTORE PUSH1 0x8 SHR AND ISZERO ISZERO PUSH1 0x80 DUP11 ADD MSTORE DUP9 DUP4 SUB PUSH1 0xA0 DUP11 ADD MSTORE MLOAD SWAP2 DUP3 DUP2 MSTORE ADD SWAP8 SWAP3 PUSH1 0x0 JUMPDEST DUP3 DUP2 LT PUSH2 0x10F0 JUMPI DUP9 DUP1 DUP12 PUSH2 0x10EC DUP12 DUP12 DUP12 PUSH1 0xC0 DUP7 ADD MSTORE PUSH1 0xE0 DUP6 ADD MSTORE PUSH2 0x100 DUP5 ADD SWAP1 PUSH2 0x1656 JUMP JUMPDEST SUB SWAP1 RETURN JUMPDEST DUP5 MLOAD DUP11 MSTORE SWAP9 DUP2 ADD SWAP9 SWAP4 DUP2 ADD SWAP4 DUP4 ADD PUSH2 0x10C7 JUMP JUMPDEST DUP3 SLOAD DUP5 MSTORE SWAP3 DUP10 ADD SWAP3 SWAP2 DUP9 ADD SWAP2 DUP9 ADD PUSH2 0x1063 JUMP JUMPDEST POP PUSH1 0x5 SLOAD DUP2 LT PUSH2 0xFFC JUMP JUMPDEST CALLVALUE PUSH2 0x1CE JUMPI PUSH1 0x20 CALLDATASIZE PUSH1 0x3 NOT ADD SLT PUSH2 0x1CE JUMPI PUSH1 0x4 CALLDATALOAD PUSH1 0x9 DUP2 LT ISZERO PUSH2 0x1CE JUMPI PUSH2 0x1149 PUSH1 0x20 SWAP2 PUSH2 0x1978 JUMP JUMPDEST PUSH1 0x40 MLOAD SWAP1 DUP2 MSTORE RETURN JUMPDEST CALLVALUE PUSH2 0x1CE JUMPI PUSH1 0x0 CALLDATASIZE PUSH1 0x3 NOT ADD SLT PUSH2 0x1CE JUMPI PUSH2 0x116A PUSH2 0x17E1 JUMP JUMPDEST PUSH1 0x1 DUP1 SLOAD PUSH1 0x1 PUSH1 0x1 PUSH1 0xA0 SHL SUB NOT DUP2 AND SWAP1 SWAP2 SSTORE PUSH1 0x0 SWAP1 PUSH1 0x1 PUSH1 0x1 PUSH1 0xA0 SHL SUB AND PUSH32 0x8BE0079C531659141344CD1FD0A4F28419497F9722A3DAAFE3B4186F6B6457E0 DUP3 DUP1 LOG3 STOP JUMPDEST CALLVALUE PUSH2 0x1CE JUMPI PUSH1 0x60 CALLDATASIZE PUSH1 0x3 NOT ADD SLT PUSH2 0x1CE JUMPI PUSH1 0x24 CALLDATALOAD PUSH1 0xFF DUP2 AND DUP2 SUB PUSH2 0x1CE JUMPI PUSH2 0x1149 PUSH1 0x20 SWAP2 PUSH1 0x44 CALLDATALOAD SWAP1 PUSH1 0x4 CALLDATALOAD PUSH2 0x1937 JUMP JUMPDEST CALLVALUE PUSH2 0x1CE JUMPI PUSH1 0x20 CALLDATASIZE PUSH1 0x3 NOT ADD SLT PUSH2 0x1CE JUMPI PUSH1 0x4 CALLDATALOAD DUP1 ISZERO ISZERO DUP1 PUSH2 0x1389 JUMPI JUMPDEST PUSH2 0x1204 SWAP1 PUSH2 0x187F JUMP JUMPDEST DUP1 PUSH1 0x0 MSTORE PUSH1 0x3 DUP1 PUSH1 0x20 MSTORE PUSH1 0x40 PUSH1 0x0 KECCAK256 SWAP2 PUSH1 0x2 DUP4 ADD SLOAD TIMESTAMP GT ISZERO PUSH2 0x1344 JUMPI PUSH1 0x5 DUP4 ADD PUSH1 0xFF SWAP3 DUP4 DUP3 SLOAD PUSH1 0x8 SHR AND PUSH2 0x130B JUMPI PUSH1 0x0 SWAP5 SWAP3 PUSH1 0x7 DUP5 ADD SWAP1 DUP7 DUP1 JUMPDEST DUP8 DUP2 AND DUP6 DUP2 LT ISZERO PUSH2 0x12A5 JUMPI DUP10 PUSH2 0x1254 DUP4 DUP8 PUSH2 0x1909 JUMP JUMPDEST SWAP1 SLOAD SWAP1 DUP9 SHL SHR GT PUSH2 0x1288 JUMPI JUMPDEST POP DUP8 AND DUP8 DUP2 EQ PUSH2 0x1272 JUMPI PUSH1 0x1 ADD PUSH2 0x123E JUMP JUMPDEST PUSH4 0x4E487B71 PUSH1 0xE0 SHL PUSH1 0x0 MSTORE PUSH1 0x11 PUSH1 0x4 MSTORE PUSH1 0x24 PUSH1 0x0 REVERT JUMPDEST SWAP9 POP SWAP1 POP DUP7 PUSH2 0x1297 DUP3 DUP6 PUSH2 0x1909 JUMP JUMPDEST SWAP1 SLOAD SWAP1 DUP7 SHL SHR SWAP9 SWAP2 SWAP1 PUSH2 0x1260 JUMP JUMPDEST DUP4 PUSH32 0xBBBE9B42DDFA0692CD5F3DC618525DDE4B8FE438FE573F13B3FA9FB1287D6FCD PUSH1 0x60 DUP6 DUP12 DUP12 PUSH2 0x12D9 DUP4 PUSH1 0xA DUP5 ADD PUSH2 0x18F1 JUMP JUMPDEST PUSH2 0x100 PUSH2 0xFFFF NOT DUP3 SLOAD AND OR SWAP1 SSTORE PUSH1 0x4 PUSH1 0x8 DUP3 ADD SLOAD SWAP2 ADD SLOAD SWAP1 PUSH2 0x12FE PUSH1 0x40 MLOAD DUP1 SWAP5 PUSH2 0x1656 JUMP JUMPDEST PUSH1 0x20 DUP4 ADD MSTORE PUSH1 0x40 DUP3 ADD MSTORE LOG2 STOP JUMPDEST PUSH1 0x40 MLOAD PUSH3 0x461BCD PUSH1 0xE5 SHL DUP2 MSTORE PUSH1 0x20 PUSH1 0x4 DUP3 ADD MSTORE PUSH1 0x11 PUSH1 0x24 DUP3 ADD MSTORE PUSH17 0x105B1C9958591E48199A5B985B1A5E9959 PUSH1 0x7A SHL PUSH1 0x44 DUP3 ADD MSTORE PUSH1 0x64 SWAP1 REVERT JUMPDEST PUSH1 0x40 MLOAD PUSH3 0x461BCD PUSH1 0xE5 SHL DUP2 MSTORE PUSH1 0x20 PUSH1 0x4 DUP3 ADD MSTORE PUSH1 0x17 PUSH1 0x24 DUP3 ADD MSTORE PUSH32 0x566F74696E6720706572696F64206E6F7420656E646564000000000000000000 PUSH1 0x44 DUP3 ADD MSTORE PUSH1 0x64 SWAP1 REVERT JUMPDEST POP PUSH1 0x5 SLOAD DUP2 LT PUSH2 0x11FB JUMP JUMPDEST CALLVALUE PUSH2 0x1CE JUMPI PUSH1 0x20 CALLDATASIZE PUSH1 0x3 NOT ADD SLT PUSH2 0x1CE JUMPI PUSH2 0x13AD PUSH2 0x17E1 JUMP JUMPDEST PUSH1 0x4 CALLDATALOAD PUSH1 0x8 SSTORE STOP JUMPDEST CALLVALUE PUSH2 0x1CE JUMPI PUSH1 0x20 CALLDATASIZE PUSH1 0x3 NOT ADD SLT PUSH2 0x1CE JUMPI PUSH1 0x4 CALLDATALOAD PUSH2 0x13D1 PUSH2 0x17E1 JUMP JUMPDEST PUSH2 0xE10 DUP2 LT ISZERO DUP1 PUSH2 0x141F JUMPI JUMPDEST ISZERO PUSH2 0x13E7 JUMPI PUSH1 0x6 SSTORE STOP JUMPDEST PUSH1 0x40 MLOAD PUSH3 0x461BCD PUSH1 0xE5 SHL DUP2 MSTORE PUSH1 0x20 PUSH1 0x4 DUP3 ADD MSTORE PUSH1 0x10 PUSH1 0x24 DUP3 ADD MSTORE PUSH16 0x24B73B30B634B210323AB930BA34B7B7 PUSH1 0x81 SHL PUSH1 0x44 DUP3 ADD MSTORE PUSH1 0x64 SWAP1 REVERT JUMPDEST POP PUSH3 0x93A80 DUP2 GT ISZERO PUSH2 0x13DD JUMP JUMPDEST CALLVALUE PUSH2 0x1CE JUMPI PUSH1 0x20 CALLDATASIZE PUSH1 0x3 NOT ADD SLT PUSH2 0x1CE JUMPI PUSH1 0x4 CALLDATALOAD PUSH1 0x9 DUP2 LT ISZERO PUSH2 0x1CE JUMPI PUSH2 0x1454 PUSH1 0xC0 SWAP2 PUSH2 0x17C8 JUMP JUMPDEST PUSH1 0x1 DUP1 PUSH1 0xA0 SHL SUB DUP1 DUP3 SLOAD AND SWAP2 PUSH1 0xFF PUSH1 0x1 DUP3 ADD SLOAD PUSH1 0x3 PUSH1 0x2 DUP5 ADD SLOAD SWAP4 ADD SLOAD SWAP4 PUSH1 0x40 MLOAD SWAP6 DUP7 MSTORE DUP2 AND PUSH1 0x20 DUP7 ADD MSTORE DUP2 DUP2 PUSH1 0xA0 SHR AND PUSH1 0x40 DUP7 ADD MSTORE PUSH1 0xA8 SHR AND ISZERO ISZERO PUSH1 0x60 DUP5 ADD MSTORE PUSH1 0x80 DUP4 ADD MSTORE PUSH1 0xA0 DUP3 ADD MSTORE RETURN JUMPDEST CALLVALUE PUSH2 0x1CE JUMPI PUSH1 0x0 CALLDATASIZE PUSH1 0x3 NOT ADD SLT PUSH2 0x1CE JUMPI PUSH1 0x20 PUSH1 0x8 SLOAD PUSH1 0x40 MLOAD SWAP1 DUP2 MSTORE RETURN JUMPDEST CALLVALUE PUSH2 0x1CE JUMPI PUSH1 0x20 CALLDATASIZE PUSH1 0x3 NOT ADD SLT PUSH2 0x1CE JUMPI PUSH1 0x4 CALLDATALOAD PUSH1 0x0 MSTORE PUSH1 0x3 PUSH1 0x20 MSTORE PUSH2 0x152A PUSH1 0x40 PUSH1 0x0 KECCAK256 PUSH2 0x14EC DUP2 PUSH2 0x16E2 JUMP JUMPDEST SWAP1 PUSH2 0x10EC PUSH1 0x1 DUP3 ADD SLOAD SWAP2 PUSH1 0x2 DUP2 ADD SLOAD SWAP1 PUSH1 0xFF PUSH1 0x4 DUP3 ADD SLOAD PUSH1 0x5 DUP4 ADD SLOAD SWAP1 DUP3 PUSH1 0xA PUSH1 0x8 DUP7 ADD SLOAD SWAP6 ADD SLOAD AND SWAP5 PUSH1 0x40 MLOAD SWAP10 DUP11 SWAP10 PUSH2 0x100 DUP1 DUP13 MSTORE DUP12 ADD SWAP1 PUSH2 0x1788 JUMP JUMPDEST SWAP8 PUSH1 0x20 DUP11 ADD MSTORE PUSH1 0x40 DUP10 ADD MSTORE PUSH1 0x60 DUP9 ADD MSTORE DUP2 DUP2 AND ISZERO ISZERO PUSH1 0x80 DUP9 ADD MSTORE PUSH1 0x8 SHR AND ISZERO ISZERO PUSH1 0xA0 DUP7 ADD MSTORE PUSH1 0xC0 DUP6 ADD MSTORE PUSH1 0xE0 DUP5 ADD SWAP1 PUSH2 0x1656 JUMP JUMPDEST CALLVALUE PUSH2 0x1CE JUMPI PUSH1 0x0 CALLDATASIZE PUSH1 0x3 NOT ADD SLT PUSH2 0x1CE JUMPI PUSH1 0x20 PUSH1 0x5 SLOAD PUSH1 0x40 MLOAD SWAP1 DUP2 MSTORE RETURN JUMPDEST CALLVALUE PUSH2 0x1CE JUMPI PUSH1 0x40 CALLDATASIZE PUSH1 0x3 NOT ADD SLT PUSH2 0x1CE JUMPI PUSH1 0x4 CALLDATALOAD PUSH2 0x1598 PUSH2 0x1640 JUMP JUMPDEST SWAP1 DUP1 ISZERO ISZERO DUP1 PUSH2 0x1635 JUMPI JUMPDEST PUSH2 0x15AB SWAP1 PUSH2 0x187F JUMP JUMPDEST PUSH1 0x0 MSTORE PUSH1 0x3 PUSH1 0x20 MSTORE PUSH1 0x6 PUSH1 0x40 PUSH1 0x0 KECCAK256 ADD SWAP1 PUSH1 0x1 DUP1 PUSH1 0xA0 SHL SUB AND PUSH1 0x0 MSTORE PUSH1 0x20 MSTORE PUSH1 0xE0 PUSH1 0x40 PUSH1 0x0 KECCAK256 PUSH1 0xFF PUSH1 0x4 DUP3 ADD SLOAD AND SWAP1 DUP1 SLOAD SWAP1 PUSH1 0x1 DUP2 ADD SLOAD PUSH2 0x1624 PUSH1 0x5 PUSH1 0x3 DUP5 ADD SLOAD SWAP4 ADD SLOAD SWAP4 PUSH1 0x40 MLOAD SWAP6 ISZERO ISZERO DUP7 MSTORE PUSH2 0x1608 PUSH1 0x20 DUP8 ADD PUSH1 0xFF DUP4 AND PUSH2 0x1656 JUMP JUMPDEST PUSH1 0xFF DUP2 PUSH1 0x8 SHR AND PUSH1 0x40 DUP8 ADD MSTORE PUSH1 0xFF PUSH1 0x60 DUP8 ADD SWAP2 PUSH1 0x10 SHR AND PUSH2 0x1679 JUMP JUMPDEST PUSH1 0x80 DUP5 ADD MSTORE PUSH1 0xA0 DUP4 ADD MSTORE PUSH1 0xC0 DUP3 ADD MSTORE RETURN JUMPDEST POP PUSH1 0x5 SLOAD DUP2 LT PUSH2 0x15A2 JUMP JUMPDEST PUSH1 0x24 CALLDATALOAD SWAP1 PUSH1 0x1 PUSH1 0x1 PUSH1 0xA0 SHL SUB DUP3 AND DUP3 SUB PUSH2 0x1CE JUMPI JUMP JUMPDEST SWAP1 PUSH1 0x3 DUP3 LT ISZERO PUSH2 0x1663 JUMPI MSTORE JUMP JUMPDEST PUSH4 0x4E487B71 PUSH1 0xE0 SHL PUSH1 0x0 MSTORE PUSH1 0x21 PUSH1 0x4 MSTORE PUSH1 0x24 PUSH1 0x0 REVERT JUMPDEST SWAP1 PUSH1 0x9 DUP3 LT ISZERO PUSH2 0x1663 JUMPI MSTORE JUMP JUMPDEST SWAP1 PUSH1 0x1 DUP3 DUP2 SHR SWAP3 AND DUP1 ISZERO PUSH2 0x16B6 JUMPI JUMPDEST PUSH1 0x20 DUP4 LT EQ PUSH2 0x16A0 JUMPI JUMP JUMPDEST PUSH4 0x4E487B71 PUSH1 0xE0 SHL PUSH1 0x0 MSTORE PUSH1 0x22 PUSH1 0x4 MSTORE PUSH1 0x24 PUSH1 0x0 REVERT JUMPDEST SWAP2 PUSH1 0x7F AND SWAP2 PUSH2 0x1695 JUMP JUMPDEST SWAP1 PUSH1 0x1F DUP1 NOT SWAP2 ADD AND DUP2 ADD SWAP1 DUP2 LT PUSH8 0xFFFFFFFFFFFFFFFF DUP3 GT OR PUSH2 0xB87 JUMPI PUSH1 0x40 MSTORE JUMP JUMPDEST SWAP1 PUSH1 0x40 MLOAD SWAP2 DUP3 PUSH1 0x0 DUP3 SLOAD SWAP3 PUSH2 0x16F6 DUP5 PUSH2 0x1686 JUMP JUMPDEST SWAP1 DUP2 DUP5 MSTORE PUSH1 0x1 SWAP5 DUP6 DUP2 AND SWAP1 DUP2 PUSH1 0x0 EQ PUSH2 0x1765 JUMPI POP PUSH1 0x1 EQ PUSH2 0x1722 JUMPI JUMPDEST POP POP PUSH2 0x1720 SWAP3 POP SUB DUP4 PUSH2 0x16C0 JUMP JUMPDEST JUMP JUMPDEST SWAP1 SWAP4 SWAP2 POP PUSH1 0x0 MSTORE PUSH1 0x20 SWAP1 DUP2 PUSH1 0x0 KECCAK256 SWAP4 PUSH1 0x0 SWAP2 JUMPDEST DUP2 DUP4 LT PUSH2 0x174D JUMPI POP POP PUSH2 0x1720 SWAP4 POP DUP3 ADD ADD CODESIZE DUP1 PUSH2 0x1712 JUMP JUMPDEST DUP6 SLOAD DUP9 DUP5 ADD DUP6 ADD MSTORE SWAP5 DUP6 ADD SWAP5 DUP8 SWAP5 POP SWAP2 DUP4 ADD SWAP2 PUSH2 0x1735 JUMP JUMPDEST SWAP2 POP POP PUSH2 0x1720 SWAP5 POP PUSH1 0x20 SWAP3 POP PUSH1 0xFF NOT AND DUP3 DUP5 ADD MSTORE ISZERO ISZERO PUSH1 0x5 SHL DUP3 ADD ADD CODESIZE DUP1 PUSH2 0x1712 JUMP JUMPDEST SWAP2 SWAP1 DUP3 MLOAD SWAP3 DUP4 DUP3 MSTORE PUSH1 0x0 JUMPDEST DUP5 DUP2 LT PUSH2 0x17B4 JUMPI POP POP DUP3 PUSH1 0x0 PUSH1 0x20 DUP1 SWAP5 SWAP6 DUP5 ADD ADD MSTORE PUSH1 0x1F DUP1 NOT SWAP2 ADD AND ADD ADD SWAP1 JUMP JUMPDEST PUSH1 0x20 DUP2 DUP4 ADD DUP2 ADD MLOAD DUP5 DUP4 ADD DUP3 ADD MSTORE ADD PUSH2 0x1793 JUMP JUMPDEST PUSH1 0x9 DUP2 LT ISZERO PUSH2 0x1663 JUMPI PUSH1 0x0 MSTORE PUSH1 0x2 PUSH1 0x20 MSTORE PUSH1 0x40 PUSH1 0x0 KECCAK256 SWAP1 JUMP JUMPDEST PUSH1 0x1 SLOAD PUSH1 0x1 PUSH1 0x1 PUSH1 0xA0 SHL SUB AND CALLER SUB PUSH2 0x17F5 JUMPI JUMP JUMPDEST PUSH1 0x64 PUSH1 0x40 MLOAD PUSH3 0x461BCD PUSH1 0xE5 SHL DUP2 MSTORE PUSH1 0x20 PUSH1 0x4 DUP3 ADD MSTORE PUSH1 0x20 PUSH1 0x24 DUP3 ADD MSTORE PUSH32 0x4F776E61626C653A2063616C6C6572206973206E6F7420746865206F776E6572 PUSH1 0x44 DUP3 ADD MSTORE REVERT JUMPDEST PUSH1 0x0 NOT DUP2 EQ PUSH2 0x1272 JUMPI PUSH1 0x1 ADD SWAP1 JUMP JUMPDEST DUP2 DUP2 LT PUSH2 0x1853 JUMPI POP POP JUMP JUMPDEST PUSH1 0x0 DUP2 SSTORE PUSH1 0x1 ADD PUSH2 0x1848 JUMP JUMPDEST SWAP2 SWAP1 DUP3 ADD DUP1 SWAP3 GT PUSH2 0x1272 JUMPI JUMP JUMPDEST DUP2 DUP2 MUL SWAP3 SWAP2 DUP2 ISZERO SWAP2 DUP5 DIV EQ OR ISZERO PUSH2 0x1272 JUMPI JUMP JUMPDEST ISZERO PUSH2 0x1886 JUMPI JUMP JUMPDEST PUSH1 0x40 MLOAD PUSH3 0x461BCD PUSH1 0xE5 SHL DUP2 MSTORE PUSH1 0x20 PUSH1 0x4 DUP3 ADD MSTORE PUSH1 0x12 PUSH1 0x24 DUP3 ADD MSTORE PUSH18 0x125B9D985B1A590818DBDB9D195B9D081251 PUSH1 0x72 SHL PUSH1 0x44 DUP3 ADD MSTORE PUSH1 0x64 SWAP1 REVERT JUMPDEST PUSH1 0xFF AND PUSH1 0x4D DUP2 GT PUSH2 0x1272 JUMPI PUSH1 0xA EXP SWAP1 JUMP JUMPDEST DUP2 ISZERO PUSH2 0x18DB JUMPI DIV SWAP1 JUMP JUMPDEST PUSH4 0x4E487B71 PUSH1 0xE0 SHL PUSH1 0x0 MSTORE PUSH1 0x12 PUSH1 0x4 MSTORE PUSH1 0x24 PUSH1 0x0 REVERT JUMPDEST SWAP1 PUSH1 0x3 DUP2 LT ISZERO PUSH2 0x1663 JUMPI PUSH1 0xFF DUP1 NOT DUP4 SLOAD AND SWAP2 AND OR SWAP1 SSTORE JUMP JUMPDEST DUP1 SLOAD DUP3 LT ISZERO PUSH2 0x1921 JUMPI PUSH1 0x0 MSTORE PUSH1 0x20 PUSH1 0x0 KECCAK256 ADD SWAP1 PUSH1 0x0 SWAP1 JUMP JUMPDEST PUSH4 0x4E487B71 PUSH1 0xE0 SHL PUSH1 0x0 MSTORE PUSH1 0x32 PUSH1 0x4 MSTORE PUSH1 0x24 PUSH1 0x0 REVERT JUMPDEST SWAP2 PUSH1 0xA PUSH2 0x1957 PUSH2 0x195D SWAP4 PUSH1 0xFF PUSH2 0x194F PUSH2 0x3E8 SWAP8 PUSH2 0x1A8A JUMP JUMPDEST SWAP2 AND SWAP1 PUSH2 0x186C JUMP JUMPDEST DIV PUSH2 0x186C JUMP JUMPDEST DIV SWAP1 JUMP JUMPDEST MLOAD SWAP1 PUSH10 0xFFFFFFFFFFFFFFFFFFFF DUP3 AND DUP3 SUB PUSH2 0x1CE JUMPI JUMP JUMPDEST PUSH1 0x1 PUSH1 0x1 PUSH1 0xA0 SHL SUB SWAP1 PUSH1 0x1 SWAP1 PUSH2 0x198D SWAP1 PUSH2 0x17C8 JUMP JUMPDEST ADD SLOAD AND DUP1 ISZERO PUSH2 0x1A4E JUMPI PUSH1 0xA0 PUSH1 0x4 SWAP2 PUSH1 0x40 MLOAD SWAP3 DUP4 DUP1 SWAP3 PUSH4 0x3FABE5A3 PUSH1 0xE2 SHL DUP3 MSTORE GAS STATICCALL SWAP1 DUP2 ISZERO PUSH2 0xCBD JUMPI PUSH1 0x0 SWAP2 PUSH2 0x19FF JUMPI JUMPDEST POP PUSH1 0x0 DUP2 SGT ISZERO PUSH2 0x19CA JUMPI SWAP1 JUMP JUMPDEST PUSH1 0x40 MLOAD PUSH3 0x461BCD PUSH1 0xE5 SHL DUP2 MSTORE PUSH1 0x20 PUSH1 0x4 DUP3 ADD MSTORE PUSH1 0xD PUSH1 0x24 DUP3 ADD MSTORE PUSH13 0x496E76616C6964207072696365 PUSH1 0x98 SHL PUSH1 0x44 DUP3 ADD MSTORE PUSH1 0x64 SWAP1 REVERT JUMPDEST SWAP1 PUSH1 0xA0 DUP3 RETURNDATASIZE DUP3 GT PUSH2 0x1A46 JUMPI JUMPDEST DUP2 PUSH2 0x1A18 PUSH1 0xA0 SWAP4 DUP4 PUSH2 0x16C0 JUMP JUMPDEST DUP2 ADD SUB SLT PUSH2 0x1A43 JUMPI POP PUSH2 0x1A2A DUP2 PUSH2 0x1961 JUMP JUMPDEST POP PUSH2 0x1A3C PUSH1 0x80 PUSH1 0x20 DUP4 ADD MLOAD SWAP3 ADD PUSH2 0x1961 JUMP JUMPDEST POP CODESIZE PUSH2 0x19BD JUMP JUMPDEST DUP1 REVERT JUMPDEST RETURNDATASIZE SWAP2 POP PUSH2 0x1A0B JUMP JUMPDEST PUSH1 0x40 MLOAD PUSH3 0x461BCD PUSH1 0xE5 SHL DUP2 MSTORE PUSH1 0x20 PUSH1 0x4 DUP3 ADD MSTORE PUSH1 0x14 PUSH1 0x24 DUP3 ADD MSTORE PUSH20 0x141C9A58D9481BDC9858DB19481B9BDD081CD95D PUSH1 0x62 SHL PUSH1 0x44 DUP3 ADD MSTORE PUSH1 0x64 SWAP1 REVERT JUMPDEST DUP1 ISZERO PUSH2 0x1ACE JUMPI PUSH1 0x1 DUP1 DUP3 ADD DUP1 DUP4 GT PUSH2 0x1272 JUMPI DUP2 SHR SWAP1 DUP3 JUMPDEST DUP4 DUP4 LT PUSH2 0x1AAE JUMPI POP POP POP SWAP1 JUMP JUMPDEST SWAP1 SWAP2 SWAP3 POP PUSH2 0x1AC5 DUP4 PUSH2 0x1AC0 DUP2 DUP5 PUSH2 0x18D1 JUMP JUMPDEST PUSH2 0x185F JUMP JUMPDEST DUP3 SHR SWAP2 SWAP1 PUSH2 0x1AA1 JUMP JUMPDEST POP PUSH1 0x0 SWAP1 JUMP INVALID LOG2 PUSH5 0x6970667358 0x22 SLT KECCAK256 SWAP14 DUP1 RETURN 0xBA 0xD7 CODECOPY 0xAC SAR 0xCB EXTCODEHASH 0xB4 0x4D SWAP6 DUP11 SWAP16 0xDF EXTCODECOPY 0xC4 STATICCALL MUL 0x4F CREATE 0x2B SLOAD PUSH12 0x1290B42CACFADA64736F6C63 NUMBER STOP ADDMOD SGT STOP CALLER "},"methodIdentifiers":{"addToken(uint8,address,address,uint8,uint256,uint256)":"b53d568a","calculateVotingWeight(uint256,uint8,uint256)":"714d985f","contentItems(uint256)":"0e73afdf","defaultVotingDuration()":"a09312fd","finalizeVoting(uint256)":"49444831","getContentInfo(uint256)":"7509c330","getTokenPriceUSD(uint8)":"7354c7e3","getUserVote(uint256,address)":"03c7881a","merkleRoot()":"2eb4a7ab","minimumStakeUSD()":"eb6e1a62","nextContentId()":"0a248d7f","owner()":"8da5cb5b","renounceOwnership()":"715018a6","setDefaultVotingDuration(uint256)":"46f02f46","submitContent(string,uint256)":"dad3fc13","submitVote(uint256,uint8,uint8,uint8,uint256,bytes32[])":"782631a0","supportedTokens(uint8)":"3f572d36","transferOwnership(address)":"f2fde38b","updateMerkleRoot(bytes32)":"4783f0ef","updateToken(uint8,bool,uint256)":"b9a1d20d","usedMerkleLeaves(bytes32)":"f2d03924"}}}}}