{
  "_format": "hh-sol-artifact-1",
  "contractName": "ProofChainMultiTokenVoting",
  "sourceName": "contracts/ProofChainMultiTokenVoting.sol",
  "abi": [
    {
      "inputs": [
        {
          "internalType": "bytes32",
          "name": "_verifiedIdentityRoot",
          "type": "bytes32"
        }
      ],
      "stateMutability": "nonpayable",
      "type": "constructor"
    },
    {
      "anonymous": false,
      "inputs": [
        {
          "indexed": true,
          "internalType": "uint256",
          "name": "contentId",
          "type": "uint256"
        },
        {
          "indexed": false,
          "internalType": "string",
          "name": "ipfsHash",
          "type": "string"
        },
        {
          "indexed": false,
          "internalType": "uint256",
          "name": "commitDeadline",
          "type": "uint256"
        },
        {
          "indexed": false,
          "internalType": "uint256",
          "name": "revealDeadline",
          "type": "uint256"
        },
        {
          "indexed": true,
          "internalType": "address",
          "name": "creator",
          "type": "address"
        }
      ],
      "name": "ContentSubmitted",
      "type": "event"
    },
    {
      "anonymous": false,
      "inputs": [
        {
          "indexed": true,
          "internalType": "uint256",
          "name": "contentId",
          "type": "uint256"
        },
        {
          "indexed": false,
          "internalType": "string",
          "name": "attackType",
          "type": "string"
        }
      ],
      "name": "CoordinatedAttackDetected",
      "type": "event"
    },
    {
      "anonymous": false,
      "inputs": [
        {
          "indexed": true,
          "internalType": "uint256",
          "name": "contentId",
          "type": "uint256"
        },
        {
          "indexed": false,
          "internalType": "enum ProofChainMultiTokenVoting.TokenType[]",
          "name": "suspiciousTokens",
          "type": "uint8[]"
        }
      ],
      "name": "CrossTokenAttackDetected",
      "type": "event"
    },
    {
      "anonymous": false,
      "inputs": [
        {
          "indexed": true,
          "internalType": "uint256",
          "name": "contentId",
          "type": "uint256"
        },
        {
          "indexed": false,
          "internalType": "uint256",
          "name": "totalUSDRewards",
          "type": "uint256"
        },
        {
          "indexed": false,
          "internalType": "uint256",
          "name": "winnerCount",
          "type": "uint256"
        }
      ],
      "name": "MultiTokenRewardsDistributed",
      "type": "event"
    },
    {
      "anonymous": false,
      "inputs": [
        {
          "indexed": true,
          "internalType": "uint256",
          "name": "contentId",
          "type": "uint256"
        },
        {
          "indexed": true,
          "internalType": "address",
          "name": "voter",
          "type": "address"
        },
        {
          "indexed": false,
          "internalType": "enum ProofChainMultiTokenVoting.TokenType",
          "name": "tokenType",
          "type": "uint8"
        },
        {
          "indexed": false,
          "internalType": "uint256",
          "name": "stakeAmount",
          "type": "uint256"
        },
        {
          "indexed": false,
          "internalType": "uint256",
          "name": "usdValue",
          "type": "uint256"
        }
      ],
      "name": "MultiTokenVoteCommitted",
      "type": "event"
    },
    {
      "anonymous": false,
      "inputs": [
        {
          "indexed": true,
          "internalType": "uint256",
          "name": "contentId",
          "type": "uint256"
        },
        {
          "indexed": true,
          "internalType": "address",
          "name": "voter",
          "type": "address"
        },
        {
          "indexed": false,
          "internalType": "enum ProofChainMultiTokenVoting.VoteOption",
          "name": "vote",
          "type": "uint8"
        },
        {
          "indexed": false,
          "internalType": "uint256",
          "name": "confidence",
          "type": "uint256"
        },
        {
          "indexed": false,
          "internalType": "uint256",
          "name": "quadraticWeight",
          "type": "uint256"
        }
      ],
      "name": "MultiTokenVoteRevealed",
      "type": "event"
    },
    {
      "anonymous": false,
      "inputs": [
        {
          "indexed": true,
          "internalType": "address",
          "name": "previousOwner",
          "type": "address"
        },
        {
          "indexed": true,
          "internalType": "address",
          "name": "newOwner",
          "type": "address"
        }
      ],
      "name": "OwnershipTransferred",
      "type": "event"
    },
    {
      "anonymous": false,
      "inputs": [
        {
          "indexed": true,
          "internalType": "address",
          "name": "suspiciousAddress",
          "type": "address"
        },
        {
          "indexed": false,
          "internalType": "uint256",
          "name": "contentId",
          "type": "uint256"
        }
      ],
      "name": "SybilAttackDetected",
      "type": "event"
    },
    {
      "anonymous": false,
      "inputs": [
        {
          "indexed": true,
          "internalType": "enum ProofChainMultiTokenVoting.TokenType",
          "name": "tokenType",
          "type": "uint8"
        },
        {
          "indexed": false,
          "internalType": "address",
          "name": "tokenAddress",
          "type": "address"
        },
        {
          "indexed": false,
          "internalType": "address",
          "name": "priceOracle",
          "type": "address"
        }
      ],
      "name": "TokenAdded",
      "type": "event"
    },
    {
      "anonymous": false,
      "inputs": [
        {
          "indexed": true,
          "internalType": "enum ProofChainMultiTokenVoting.TokenType",
          "name": "tokenType",
          "type": "uint8"
        },
        {
          "indexed": false,
          "internalType": "bool",
          "name": "isActive",
          "type": "bool"
        },
        {
          "indexed": false,
          "internalType": "uint256",
          "name": "bonusMultiplier",
          "type": "uint256"
        }
      ],
      "name": "TokenUpdated",
      "type": "event"
    },
    {
      "anonymous": false,
      "inputs": [
        {
          "indexed": true,
          "internalType": "uint256",
          "name": "contentId",
          "type": "uint256"
        },
        {
          "indexed": false,
          "internalType": "enum ProofChainMultiTokenVoting.VoteOption",
          "name": "winningOption",
          "type": "uint8"
        },
        {
          "indexed": false,
          "internalType": "uint256",
          "name": "totalParticipants",
          "type": "uint256"
        },
        {
          "indexed": false,
          "internalType": "uint256",
          "name": "totalUSDStaked",
          "type": "uint256"
        }
      ],
      "name": "VotingFinalized",
      "type": "event"
    },
    {
      "inputs": [],
      "name": "ANTI_SYBIL_THRESHOLD_USD",
      "outputs": [
        {
          "internalType": "uint256",
          "name": "",
          "type": "uint256"
        }
      ],
      "stateMutability": "view",
      "type": "function"
    },
    {
      "inputs": [],
      "name": "BFT_THRESHOLD",
      "outputs": [
        {
          "internalType": "uint256",
          "name": "",
          "type": "uint256"
        }
      ],
      "stateMutability": "view",
      "type": "function"
    },
    {
      "inputs": [],
      "name": "CONFIDENCE_THRESHOLD",
      "outputs": [
        {
          "internalType": "uint256",
          "name": "",
          "type": "uint256"
        }
      ],
      "stateMutability": "view",
      "type": "function"
    },
    {
      "inputs": [],
      "name": "MAX_QUADRATIC_VOTES_USD",
      "outputs": [
        {
          "internalType": "uint256",
          "name": "",
          "type": "uint256"
        }
      ],
      "stateMutability": "view",
      "type": "function"
    },
    {
      "inputs": [],
      "name": "MIN_STAKE_DURATION",
      "outputs": [
        {
          "internalType": "uint256",
          "name": "",
          "type": "uint256"
        }
      ],
      "stateMutability": "view",
      "type": "function"
    },
    {
      "inputs": [],
      "name": "MIN_VOTING_PERIOD",
      "outputs": [
        {
          "internalType": "uint256",
          "name": "",
          "type": "uint256"
        }
      ],
      "stateMutability": "view",
      "type": "function"
    },
    {
      "inputs": [
        {
          "internalType": "enum ProofChainMultiTokenVoting.TokenType",
          "name": "tokenType",
          "type": "uint8"
        },
        {
          "internalType": "address",
          "name": "tokenAddress",
          "type": "address"
        },
        {
          "internalType": "address",
          "name": "priceOracleAddress",
          "type": "address"
        },
        {
          "internalType": "uint8",
          "name": "decimals",
          "type": "uint8"
        },
        {
          "internalType": "bool",
          "name": "isActive",
          "type": "bool"
        },
        {
          "internalType": "uint256",
          "name": "bonusMultiplier",
          "type": "uint256"
        },
        {
          "internalType": "uint256",
          "name": "minStakeAmount",
          "type": "uint256"
        }
      ],
      "name": "addOrUpdateToken",
      "outputs": [],
      "stateMutability": "nonpayable",
      "type": "function"
    },
    {
      "inputs": [
        {
          "internalType": "address",
          "name": "user",
          "type": "address"
        },
        {
          "internalType": "uint256",
          "name": "contentId",
          "type": "uint256"
        },
        {
          "internalType": "enum ProofChainMultiTokenVoting.TokenType",
          "name": "tokenType",
          "type": "uint8"
        }
      ],
      "name": "calculateMultiTokenStakeTimeWeight",
      "outputs": [
        {
          "internalType": "uint256",
          "name": "",
          "type": "uint256"
        }
      ],
      "stateMutability": "view",
      "type": "function"
    },
    {
      "inputs": [
        {
          "internalType": "uint256",
          "name": "usdValue",
          "type": "uint256"
        }
      ],
      "name": "calculateQuadraticWeightUSD",
      "outputs": [
        {
          "internalType": "uint256",
          "name": "",
          "type": "uint256"
        }
      ],
      "stateMutability": "pure",
      "type": "function"
    },
    {
      "inputs": [
        {
          "internalType": "uint256",
          "name": "contentId",
          "type": "uint256"
        }
      ],
      "name": "checkCrossTokenByzantineFaultTolerance",
      "outputs": [
        {
          "internalType": "bool",
          "name": "isConsensusReached",
          "type": "bool"
        },
        {
          "internalType": "enum ProofChainMultiTokenVoting.VoteOption",
          "name": "winningOption",
          "type": "uint8"
        }
      ],
      "stateMutability": "view",
      "type": "function"
    },
    {
      "inputs": [
        {
          "internalType": "uint256",
          "name": "contentId",
          "type": "uint256"
        },
        {
          "internalType": "bytes32",
          "name": "commitHash",
          "type": "bytes32"
        },
        {
          "internalType": "enum ProofChainMultiTokenVoting.TokenType",
          "name": "tokenType",
          "type": "uint8"
        },
        {
          "internalType": "uint256",
          "name": "stakeAmount",
          "type": "uint256"
        },
        {
          "internalType": "bytes32[]",
          "name": "merkleProof",
          "type": "bytes32[]"
        }
      ],
      "name": "commitMultiTokenVote",
      "outputs": [],
      "stateMutability": "payable",
      "type": "function"
    },
    {
      "inputs": [
        {
          "internalType": "uint256",
          "name": "",
          "type": "uint256"
        }
      ],
      "name": "contentItems",
      "outputs": [
        {
          "internalType": "string",
          "name": "ipfsHash",
          "type": "string"
        },
        {
          "internalType": "uint256",
          "name": "submissionTime",
          "type": "uint256"
        },
        {
          "internalType": "uint256",
          "name": "commitDeadline",
          "type": "uint256"
        },
        {
          "internalType": "uint256",
          "name": "revealDeadline",
          "type": "uint256"
        },
        {
          "internalType": "uint256",
          "name": "totalUSDValue",
          "type": "uint256"
        },
        {
          "internalType": "bool",
          "name": "isActive",
          "type": "bool"
        },
        {
          "internalType": "bool",
          "name": "isFinalized",
          "type": "bool"
        },
        {
          "internalType": "uint256",
          "name": "participantCount",
          "type": "uint256"
        }
      ],
      "stateMutability": "view",
      "type": "function"
    },
    {
      "inputs": [
        {
          "internalType": "enum ProofChainMultiTokenVoting.TokenType",
          "name": "tokenType",
          "type": "uint8"
        },
        {
          "internalType": "uint256",
          "name": "tokenAmount",
          "type": "uint256"
        }
      ],
      "name": "convertToUSD",
      "outputs": [
        {
          "internalType": "uint256",
          "name": "",
          "type": "uint256"
        }
      ],
      "stateMutability": "view",
      "type": "function"
    },
    {
      "inputs": [
        {
          "internalType": "enum ProofChainMultiTokenVoting.TokenType",
          "name": "tokenType",
          "type": "uint8"
        },
        {
          "internalType": "uint256",
          "name": "usdValue",
          "type": "uint256"
        }
      ],
      "name": "convertUSDToToken",
      "outputs": [
        {
          "internalType": "uint256",
          "name": "",
          "type": "uint256"
        }
      ],
      "stateMutability": "view",
      "type": "function"
    },
    {
      "inputs": [
        {
          "internalType": "uint256",
          "name": "contentId",
          "type": "uint256"
        }
      ],
      "name": "detectCrossTokenAttack",
      "outputs": [
        {
          "internalType": "bool",
          "name": "isAttack",
          "type": "bool"
        },
        {
          "internalType": "string",
          "name": "attackType",
          "type": "string"
        },
        {
          "internalType": "enum ProofChainMultiTokenVoting.TokenType[]",
          "name": "suspiciousTokens",
          "type": "uint8[]"
        }
      ],
      "stateMutability": "view",
      "type": "function"
    },
    {
      "inputs": [
        {
          "internalType": "uint256",
          "name": "contentId",
          "type": "uint256"
        }
      ],
      "name": "finalizeMultiTokenVoting",
      "outputs": [],
      "stateMutability": "nonpayable",
      "type": "function"
    },
    {
      "inputs": [
        {
          "internalType": "uint256",
          "name": "contentId",
          "type": "uint256"
        }
      ],
      "name": "getMultiTokenResults",
      "outputs": [
        {
          "internalType": "bool",
          "name": "isFinalized",
          "type": "bool"
        },
        {
          "internalType": "enum ProofChainMultiTokenVoting.VoteOption",
          "name": "winningOption",
          "type": "uint8"
        },
        {
          "internalType": "uint256[3]",
          "name": "voteDistribution",
          "type": "uint256[3]"
        },
        {
          "internalType": "uint256",
          "name": "totalParticipants",
          "type": "uint256"
        },
        {
          "internalType": "uint256",
          "name": "totalUSDValue",
          "type": "uint256"
        },
        {
          "internalType": "uint256[8]",
          "name": "tokenBreakdown",
          "type": "uint256[8]"
        }
      ],
      "stateMutability": "view",
      "type": "function"
    },
    {
      "inputs": [
        {
          "internalType": "enum ProofChainMultiTokenVoting.TokenType",
          "name": "tokenType",
          "type": "uint8"
        }
      ],
      "name": "getTokenPriceUSD",
      "outputs": [
        {
          "internalType": "uint256",
          "name": "",
          "type": "uint256"
        }
      ],
      "stateMutability": "view",
      "type": "function"
    },
    {
      "inputs": [
        {
          "internalType": "address",
          "name": "user",
          "type": "address"
        },
        {
          "internalType": "bytes32[]",
          "name": "merkleProof",
          "type": "bytes32[]"
        }
      ],
      "name": "isVerifiedIdentity",
      "outputs": [
        {
          "internalType": "bool",
          "name": "",
          "type": "bool"
        }
      ],
      "stateMutability": "view",
      "type": "function"
    },
    {
      "inputs": [],
      "name": "nextContentId",
      "outputs": [
        {
          "internalType": "uint256",
          "name": "",
          "type": "uint256"
        }
      ],
      "stateMutability": "view",
      "type": "function"
    },
    {
      "inputs": [],
      "name": "owner",
      "outputs": [
        {
          "internalType": "address",
          "name": "",
          "type": "address"
        }
      ],
      "stateMutability": "view",
      "type": "function"
    },
    {
      "inputs": [],
      "name": "renounceOwnership",
      "outputs": [],
      "stateMutability": "nonpayable",
      "type": "function"
    },
    {
      "inputs": [
        {
          "internalType": "uint256",
          "name": "contentId",
          "type": "uint256"
        },
        {
          "internalType": "enum ProofChainMultiTokenVoting.VoteOption",
          "name": "vote",
          "type": "uint8"
        },
        {
          "internalType": "uint256",
          "name": "confidence",
          "type": "uint256"
        },
        {
          "internalType": "uint256",
          "name": "salt",
          "type": "uint256"
        }
      ],
      "name": "revealMultiTokenVote",
      "outputs": [],
      "stateMutability": "nonpayable",
      "type": "function"
    },
    {
      "inputs": [
        {
          "internalType": "enum ProofChainMultiTokenVoting.TokenType",
          "name": "tokenType",
          "type": "uint8"
        },
        {
          "internalType": "bool",
          "name": "isActive",
          "type": "bool"
        }
      ],
      "name": "setTokenStatus",
      "outputs": [],
      "stateMutability": "nonpayable",
      "type": "function"
    },
    {
      "inputs": [
        {
          "internalType": "bytes32",
          "name": "_newRoot",
          "type": "bytes32"
        }
      ],
      "name": "setVerifiedIdentityRoot",
      "outputs": [],
      "stateMutability": "nonpayable",
      "type": "function"
    },
    {
      "inputs": [
        {
          "internalType": "string",
          "name": "ipfsHash",
          "type": "string"
        },
        {
          "internalType": "uint256",
          "name": "votingDuration",
          "type": "uint256"
        }
      ],
      "name": "submitContent",
      "outputs": [
        {
          "internalType": "uint256",
          "name": "contentId",
          "type": "uint256"
        }
      ],
      "stateMutability": "nonpayable",
      "type": "function"
    },
    {
      "inputs": [
        {
          "internalType": "enum ProofChainMultiTokenVoting.TokenType",
          "name": "",
          "type": "uint8"
        }
      ],
      "name": "supportedTokens",
      "outputs": [
        {
          "internalType": "address",
          "name": "tokenAddress",
          "type": "address"
        },
        {
          "internalType": "contract AggregatorV3Interface",
          "name": "priceOracle",
          "type": "address"
        },
        {
          "internalType": "uint8",
          "name": "decimals",
          "type": "uint8"
        },
        {
          "internalType": "bool",
          "name": "isActive",
          "type": "bool"
        },
        {
          "internalType": "uint256",
          "name": "bonusMultiplier",
          "type": "uint256"
        },
        {
          "internalType": "uint256",
          "name": "minStakeAmount",
          "type": "uint256"
        }
      ],
      "stateMutability": "view",
      "type": "function"
    },
    {
      "inputs": [
        {
          "internalType": "address",
          "name": "newOwner",
          "type": "address"
        }
      ],
      "name": "transferOwnership",
      "outputs": [],
      "stateMutability": "nonpayable",
      "type": "function"
    },
    {
      "inputs": [
        {
          "internalType": "address",
          "name": "",
          "type": "address"
        }
      ],
      "name": "userProfiles",
      "outputs": [
        {
          "internalType": "uint256",
          "name": "reputationScore",
          "type": "uint256"
        },
        {
          "internalType": "uint256",
          "name": "totalUSDStakeHistory",
          "type": "uint256"
        },
        {
          "internalType": "uint256",
          "name": "successfulVotes",
          "type": "uint256"
        },
        {
          "internalType": "uint256",
          "name": "totalVotes",
          "type": "uint256"
        },
        {
          "internalType": "bool",
          "name": "isVerified",
          "type": "bool"
        },
        {
          "internalType": "uint256",
          "name": "lastVoteTime",
          "type": "uint256"
        }
      ],
      "stateMutability": "view",
      "type": "function"
    },
    {
      "inputs": [
        {
          "internalType": "address",
          "name": "",
          "type": "address"
        },
        {
          "internalType": "uint256",
          "name": "",
          "type": "uint256"
        },
        {
          "internalType": "enum ProofChainMultiTokenVoting.TokenType",
          "name": "",
          "type": "uint8"
        }
      ],
      "name": "userStakeDeposits",
      "outputs": [
        {
          "internalType": "uint256",
          "name": "",
          "type": "uint256"
        }
      ],
      "stateMutability": "view",
      "type": "function"
    },
    {
      "inputs": [],
      "name": "verifiedIdentityRoot",
      "outputs": [
        {
          "internalType": "bytes32",
          "name": "",
          "type": "bytes32"
        }
      ],
      "stateMutability": "view",
      "type": "function"
    },
    {
      "inputs": [],
      "name": "withdrawStuckETH",
      "outputs": [],
      "stateMutability": "nonpayable",
      "type": "function"
    },
    {
      "inputs": [
        {
          "internalType": "address",
          "name": "tokenAddress",
          "type": "address"
        }
      ],
      "name": "withdrawStuckTokens",
      "outputs": [],
      "stateMutability": "nonpayable",
      "type": "function"
    }
  ],
  "bytecode": "0x6080346200065a57601f620034e038819003918201601f19168301916001600160401b038311848410176200065f578084926020946040528339810103126200065a5751600160008181558154336001600160a01b0319821681179093556001600160a01b0316907f8be0079c531659141344cd1fd0a4f28419497f9722a3daafe3b4186f6b6457e09080a36007556200009862000675565b600080825260208083018281526008604085019081526060850184815261041a60808701908152620f424060a0808901918252968052600590955295517f05b8ccbb9d4d8fb16ea74ce3c29a41f1b461fbdaff4714a0d9a8eb05499746bc80546001600160a01b0319166001600160a01b0392831617905592517f05b8ccbb9d4d8fb16ea74ce3c29a41f1b461fbdaff4714a0d9a8eb05499746bd8054935192516001600160b01b03199094169190941617941b60ff60a01b169390931792151560a81b60ff60a81b169290921790915590517f05b8ccbb9d4d8fb16ea74ce3c29a41f1b461fbdaff4714a0d9a8eb05499746be55517f05b8ccbb9d4d8fb16ea74ce3c29a41f1b461fbdaff4714a0d9a8eb05499746bf55620001ba62000675565b60008082526020808301828152601260408501908152606085018481526103e860808701908152662386f26fc1000060a08089019182526001909752600590955295517f1471eb6eb2c5e789fc3de43f8ce62938c7d1836ec861730447e2ada8fd81017b80546001600160a01b0319166001600160a01b0392831617905592517f1471eb6eb2c5e789fc3de43f8ce62938c7d1836ec861730447e2ada8fd81017c8054935192516001600160b01b03199094169190941617941b60ff60a01b169390931792151560a81b60ff60a81b169290921790915590517f1471eb6eb2c5e789fc3de43f8ce62938c7d1836ec861730447e2ada8fd81017d55517f1471eb6eb2c5e789fc3de43f8ce62938c7d1836ec861730447e2ada8fd81017e55620002e262000675565b60008082526020808301828152601260408501908152606085018481526103e860808701908152678ac7230489e8000060a08089019182526002909752600590955295517f89832631fb3c3307a103ba2c84ab569c64d6182a18893dcd163f0f1c2090733a80546001600160a01b0319166001600160a01b0392831617905592517f89832631fb3c3307a103ba2c84ab569c64d6182a18893dcd163f0f1c2090733b8054935192516001600160b01b03199094169190941617941b60ff60a01b169390931792151560a81b60ff60a81b169290921790915590517f89832631fb3c3307a103ba2c84ab569c64d6182a18893dcd163f0f1c2090733c55517f89832631fb3c3307a103ba2c84ab569c64d6182a18893dcd163f0f1c2090733d556200040b62000675565b60008082526020808301828152601260408501908152606085018481526104b060808701908152670de0b6b3a764000060a08089019182526003909752600590955295517fa9bc9a3a348c357ba16b37005d7e6b3236198c0e939f4af8c5f19b8deeb8ebc080546001600160a01b0319166001600160a01b0392831617905592517fa9bc9a3a348c357ba16b37005d7e6b3236198c0e939f4af8c5f19b8deeb8ebc18054935192516001600160b01b03199094169190941617941b60ff60a01b169390931792151560a81b60ff60a81b169290921790915590517fa9bc9a3a348c357ba16b37005d7e6b3236198c0e939f4af8c5f19b8deeb8ebc255517fa9bc9a3a348c357ba16b37005d7e6b3236198c0e939f4af8c5f19b8deeb8ebc3556200053462000675565b6000808252602080830182815260066040808601918252606086018581526103e8608088019081526298968060a0808a019182526004909852600590965296517f3eec716f11ba9e820c81ca75eb978ffb45831ef8b7a53e5e422c26008e1ca6d580546001600160a01b0319166001600160a01b0392831617905593517f3eec716f11ba9e820c81ca75eb978ffb45831ef8b7a53e5e422c26008e1ca6d68054945192516001600160b01b03199095169190951617951b60ff60a01b169490941790151560a81b60ff60a81b1617905591517f3eec716f11ba9e820c81ca75eb978ffb45831ef8b7a53e5e422c26008e1ca6d75590517f3eec716f11ba9e820c81ca75eb978ffb45831ef8b7a53e5e422c26008e1ca6d85551612e4a9081620006968239f35b600080fd5b634e487b7160e01b600052604160045260246000fd5b6040519060c082016001600160401b038111838210176200065f5760405256fe608080604052600436101561001357600080fd5b60003560e01c9081630a248d7f14611f0d575080630e73afdf14611df857806315a6cab014611ddb578063215809ca14611dbd5780632dac8d1014611b9c578063314857cb14611b4a578063332d56d714611ad45780633c4d8f1a1461157f5780633f572d361461150a5780634f6af1b7146114ee578063617f0490146112b857806363025f6d14611269578063715018a61461120c5780637354c7e3146111e4578063736ff24914610bbe57806383bf5f5a14610ba5578063849e85be14610b64578063877baeaa14610b4b5780638d41b83b146109435780638da5cb5b1461091a57806391b4980514610901578063a9f0cf4e146108ca578063cb96372814610770578063cd87969314610754578063d67bdd1614610733578063dad3fc13146103ee578063e0c570ba146103d0578063e214c855146103b4578063e33fb15c14610396578063ed45c1fc146102f8578063f2fde38b1461022f578063f5648a4f146101b55763fdcb09c61461018a57600080fd5b346101b05760203660031901126101b05760206101a860043561236d565b604051908152f35b600080fd5b346101b05760003660031901126101b0576101ce61213c565b600080808060018060a01b036001541647905af16101ea612b60565b50156101f257005b60405162461bcd60e51b8152602060048201526015602482015274115512081dda5d1a191c985dd85b0819985a5b1959605a1b6044820152606490fd5b346101b05760203660031901126101b057610248612065565b61025061213c565b6001600160a01b039081169081156102a457600154826bffffffffffffffffffffffff60a01b821617600155167f8be0079c531659141344cd1fd0a4f28419497f9722a3daafe3b4186f6b6457e0600080a3005b60405162461bcd60e51b815260206004820152602660248201527f4f776e61626c653a206e6577206f776e657220697320746865207a65726f206160448201526564647265737360d01b6064820152608490fd5b346101b05760403660031901126101b05760043560088110156101b057602435801515908181036101b0577ff452027f24e21c883950a8c162ad4cf41a0ceecfc4c68c595a16b769d4a4ec7e9161037c60409261035361213c565b600161035e876120ac565b01805460ff60a81b191691151560a81b60ff60a81b16919091179055565b6002610387856120ac565b015482519182526020820152a2005b346101b05760003660031901126101b0576020600754604051908152f35b346101b05760003660031901126101b057602060405160648152f35b346101b05760003660031901126101b05760206040516202a3008152f35b346101b05760403660031901126101b05760043567ffffffffffffffff8082116101b057366023830112156101b05781600401358181116101b057602492368483830101116101b05783359382156106ef576201518085106106ab5760065493610457856125a3565b60065584600052602095600287526040600020916104758354611f28565b601f8111610670575b5085846000601f8311600114610604576000926105f7575b50508660011b906000198860031b1c19161783555b60019042828501556104d06104c284841c42612414565b936002860194855542612414565b6003850190815560068501805460ff19168417905560405190946104f382611f7e565b6003825260098b83019160603684370191519283116105e257600160401b83116105e25781548383558084106105c5575b509189969491899398969498906000528b60002060005b8381106105ae57505050507faf06c115c0463326619153144c7c0efa3517f2d5e1bd64a149ccd88dbd2aae6b9596505491549260405194606086528260608701520160808501376000608087850101528783015260408201526080813395601f80199101168101030190a3604051908152f35b8251828201558c99508b9550918d01918a0161053b565b6105dc9083600052848d6000209182019101612738565b8b610524565b86634e487b7160e01b60005260416004526000fd5b870101359050848a610496565b915050601f1987169084600052878a6000209260005b8c82821061065557505010610639575b5050600186811b0183556104ab565b8601850135600019600389901b60f8161c19169055888061062a565b8a85018a01358655600190950194938401938b93500161061a565b61069b908460005289600020601f890160051c8101918b8a106106a1575b601f0160051c0190612738565b8861047e565b909150819061068e565b60649060176040519162461bcd60e51b8352602060048401528201527f566f74696e6720706572696f6420746f6f2073686f72740000000000000000006044820152fd5b60649060196040519162461bcd60e51b8352602060048401528201527f4950465320686173682063616e6e6f7420626520656d707479000000000000006044820152fd5b346101b05760203660031901126101b05761074c61213c565b600435600755005b346101b05760003660031901126101b057602060405160438152f35b346101b0576020806003193601126101b05761078a612065565b61079261213c565b6040516370a0823160e01b81523060048201526001600160a01b03918216918382602481865afa90811561088b578492600092610897575b5060015460405163a9059cbb60e01b815291166001600160a01b03166004820152602481019190915291829081600081604481015b03925af190811561088b5760009161085e575b501561081a57005b6064906040519062461bcd60e51b82526004820152601760248201527f546f6b656e207769746864726177616c206661696c65640000000000000000006044820152fd5b61087e9150823d8411610884575b6108768183611fb6565b81019061278f565b82610812565b503d61086c565b6040513d6000823e3d90fd5b8381949293503d83116108c3575b6108af8183611fb6565b810103126101b057905183916107ff6107ca565b503d6108a5565b346101b05760203660031901126101b05760406108ff6108eb600435612432565b8392919251921515835260208301906120dd565bf35b346101b05760206101a86109143661211d565b90612aff565b346101b05760003660031901126101b0576001546040516001600160a01b039091168152602090f35b346101b05760e03660031901126101b0576004356008811015806101b0576001600160a01b0360243581811692908390036101b057604435918083168093036101b0576064359060ff82168092036101b057608435918215158093036101b0576109ab61213c565b8515801590610b3d575b15610b00578415610abb57600391610a658892604051956109d587611f62565b89875260208701918983526040880190815260608801918252608088019460a435865280610a0b60a08b019860c4358a526120ac565b99518a5491166001600160a01b031990911617895592516001890180549251935160ff60a81b90151560a81b1660ff60a01b60a09590951b949094166001600160b01b03199093169190941660ff60a81b19161717179055565b51600284015551910155610aa5577fd7e0ffe3c5e893c914e856817d8bfcf09e393c7926b6cf6fd55867404db05cb19160409182519182526020820152a2005b634e487b7160e01b600052602160045260246000fd5b60405162461bcd60e51b815260206004820152601c60248201527f496e76616c6964207072696365206f7261636c652061646472657373000000006044820152606490fd5b60405162461bcd60e51b8152602060048201526015602482015274496e76616c696420746f6b656e206164647265737360581b6044820152606490fd5b5060009350600187146109b5565b346101b05760206101a8610b5e3661211d565b90612311565b346101b0576020610b9c610b77366120ea565b6001600160a01b039092166000908152600485526040808220928252918552206120c5565b54604051908152f35b346101b05760206101a8610bb8366120ea565b91612397565b346101b05760803660031901126101b057600360243510156101b05760043560005260026020526002604060002001544211156111a7576004356000526002602052600360406000200154421161116d57610c176127bf565b6044603c8135101580611161575b1561111d57600435600052600260205260076040600020013360005260205260406000209060ff600583015416156110e757600435600052600260205260086040600020013360005260205260ff600360406000200154166110b057600182015491600860ff84161015610aa557604051602081019060ff60f81b8060243560f81b1683528435602183015260643560418301523360601b60618301528560f81b16607582015260568152610cd981611f7e565b51902081540361107b57610cf360ff841660043533612397565b801561102657610d06600483015461236d565b33600090815260036020526040902054908115611010576103e88281018111610ffa57620f424093610d4293610d3d9201926122cd565b6122cd565b0492610d8160ff60405192610d5684611f62565b6024358452853560208501526064356040850152600160608501528660808501521660a08301612597565b60043560005260026020526008604060002001336000526020526040600020908051906003821015610aa55760a09160ff801985541691161783556020810151600184015560408101516002840155610def60608201511515600385019060ff801983541691151516179055565b6080810151600484015501516008811015610aa5576005610e1092016127a7565b6004356000526002602052610e2e60243560096040600020016123fc565b9080549160031b91610e428682851c612414565b831b9060001980941b19161790556004356000526002602052600b6040600020018054908115928315610fc5575b505050610f42575b3360005260036020526003604060002001610e9381546125a3565b90556004810154336000526003602052610eb66001604060002001918254612414565b9055610eeb610ee360028301549233600052600360205260ff6001600660406000200192015416906120c5565b918254612414565b9055336000526003602052426005604060002001557fb5458466af31e461fb5bd7387a10c145c0fe5ec3205a9bfe90c719552586403160405180610f383395600435953560243584612815565b0390a36001600055005b6004356000526002602052600b6040600020018054600160401b811015610faf57610f72916001820181556123fc565b81549060031b9033821b9160018060a01b03901b19161790556004356000526002602052600a604060002001610fa881546125a3565b9055610e78565b634e487b7160e01b600052604160045260246000fd5b909180935081810111610ffa57610fdd9201906123fc565b905460039190911b1c6001600160a01b0316331415848080610e70565b634e487b7160e01b600052601160045260246000fd5b610d429150610d3d620f4240936103e8926122cd565b60405162461bcd60e51b815260206004820152602860248201527f5374616b6520746f6f20726563656e74202d20666c617368206c6f616e207072818501526737ba32b1ba34b7b760c11b6064820152608490fd5b60405162461bcd60e51b815260206004820152600e60248201526d125b9d985b1a59081c995d99585b60921b81840152606490fd5b6064906f105b1c9958591e481c995d99585b195960821b6040519162461bcd60e51b83526020600484015260106024840152820152fd5b6064906e139bc818dbdb5b5a5d08199bdd5b99608a1b6040519162461bcd60e51b835260206004840152600f6024840152820152fd5b6064907f496e76616c696420636f6e666964656e6365206c6576656c00000000000000006040519162461bcd60e51b83526020600484015260186024840152820152fd5b50606481351115610c25565b60405162461bcd60e51b815260206004820152601260248201527114995d99585b081c1a185cd948195b99195960721b6044820152606490fd5b60405162461bcd60e51b81526020600482015260156024820152745374696c6c20696e20636f6d6d697420706861736560581b6044820152606490fd5b346101b05760203660031901126101b05760043560088110156101b0576101a86020916121ab565b346101b05760003660031901126101b05761122561213c565b600180546001600160a01b031981169091556000906001600160a01b03167f8be0079c531659141344cd1fd0a4f28419497f9722a3daafe3b4186f6b6457e08280a3005b346101b05760403660031901126101b057611282612065565b60243567ffffffffffffffff81116101b0576020916112a86112ae92369060040161207b565b91612cec565b6040519015158152f35b346101b0576020806003193601126101b0576040519067ffffffffffffffff6060830181811184821017610faf576040526060368437604051906101009081830190811183821017610faf576040523682376004356000526002825260406000209160ff9260068101549284600894851c161561149457600982018054949560009491939085805b82811690898210156113d05788611357828a6123fc565b919054600392831b1c116113ac575b611370828a6123fc565b905490821b1c9210156113965761139191611fe08260051b168d0152612421565b611340565b634e487b7160e01b600052603260045260246000fd5b925097506113ba88886123fc565b905490831b1c9782821015610aa5578192611366565b505089908994929460009360048601945b8781168381101561141057906113fa61140b92886120c5565b54611fe08260051b168b0152612421565b6113e1565b5050879450856005600a8201549101549060405195611437600196878952858901906120dd565b6000868560408a015b6003841061147f57505050505060a086015260c085015260009460e085015b83871061146c576101e086f35b815181529584019590820190820161145f565b81908551815201930191019091858891611440565b60405162461bcd60e51b815260048101849052602c60248201527f566f74696e67206e6f742066696e616c697a6564202d206e6f2065786974207060448201526b1bdb1b1cc8185b1b1bddd95960a21b6064820152608490fd5b346101b05760003660031901126101b0576020604051603c8152f35b346101b05760203660031901126101b05760043560088110156101b05761153260c0916120ac565b60018060a01b03808254169160ff6001820154600360028401549301549360405195865281166020860152818160a01c16604086015260a81c1615156060840152608083015260a0820152f35b60a03660031901126101b05760043560449081359160088310156101b057606480359060843567ffffffffffffffff81116101b0576115c56115cc91369060040161207b565b9033612cec565b15611a855783600052600260209181835281604060002001544211611a4f578560005281835261160660ff6006604060002001541661274f565b60ff6001611613896120ac565b015460a81c1615611a18576116266127bf565b83156119d7576003611637886120ac565b015484106119a05785600052818352600760406000200133600052835260ff6005604060002001541661196b5761166e8488612311565b94336000526003845260036040600020015415611909575b60018803611817578434036117df5750505b33600052600482526040600020856000528252426116ba8760406000206120c5565b556040516116c781611f62565b6024358152828101906116da8883612597565b604081019185835260608201904282526080830188815260a0840191600183528a600052868852600760406000200133600052885260406000209451855551926008841015610aa55761175d95611736600595600188016127a7565b518786015551600385015551600484015551151591019060ff801983541691151516179055565b846000528082526117758660046040600020016120c5565b611780848254612414565b9055846000528152600560406000200161179b848254612414565b90556117aa6040518096612018565b84015260408301527f646b27badc934e5e65404797d4be9eeb33f73f78932a721ef4ab31b538c2240a60603393a36001600055005b73125b98dbdc9c9958dd0811551208185b5bdd5b9d60621b84916040519262461bcd60e51b8452600484015260146024840152820152fd5b346118c9576000846001600160a01b036118308b6120ac565b541684604051809481936323b872dd60e01b83523360048401523060248401528b888401525af190811561088b576000916118ac575b5015611873575050611698565b74151bdad95b881d1c985b9cd9995c8819985a5b1959605a1b84916040519262461bcd60e51b8452600484015260156024840152820152fd5b6118c39150853d8711610884576108768183611fb6565b89611866565b7f446f206e6f742073656e642045544820666f7220746f6b656e207374616b657384916040519262461bcd60e51b84528060048501526024840152820152fd5b6402540be400861015611686576920555344207374616b6560b01b6084927f4e6577206163636f756e7473206e6565642068696768657220696e697469616c86936040519462461bcd60e51b86526004860152602a6024860152840152820152fd5b60405162461bcd60e51b8152600481018490526011602482015270105b1c9958591e4818dbdb5b5a5d1d1959607a1b81870152fd5b60405162461bcd60e51b81526004810184905260136024820152725374616b652062656c6f77206d696e696d756d60681b81870152fd5b60405162461bcd60e51b815260048101849052601960248201527f4d757374207374616b6520746f6b656e7320746f20766f74650000000000000081870152fd5b60405162461bcd60e51b8152600481018490526013602482015272151bdad95b881b9bdd081cdd5c1c1bdc9d1959606a1b81870152fd5b60405162461bcd60e51b815260048101849052601260248201527110dbdb5b5a5d081c1a185cd948195b99195960721b81870152fd5b8262189a5b60ea1b6084927f55736572206e6f74207665726966696564202d20706f74656e7469616c2053796040519362461bcd60e51b85526020600486015260236024860152840152820152fd5b346101b05760203660031901126101b0576001600160a01b03611af5612065565b16600052600360205260c060406000208054906001810154906002810154600382015490600560ff600485015416930154936040519586526020860152604085015260608401521515608083015260a0820152f35b346101b05760203660031901126101b057611b98611b696004356125b2565b611b8a60409492945194859415158552606060208601526060850190611fd8565b908382036040850152612025565b0390f35b346101b0576020806003193601126101b057600435611bb96127bf565b806000526002825260406000206003810154421115611d7f576006810192835493611be660ff861661274f565b60ff8560081c16611d465783611bfb816125b2565b9091611cc9575b5050611c0d90612432565b929015611c7057506101007fbbbe9b42ddfa0692cd5f3dc618525dde4b8fe438fe573f13b3fa9fb1287d6fcd949561ffff1916179055611c4d8185612832565b611c666005600a84015493015460405193849384612815565b0390a26001600055005b6084906040519062461bcd60e51b82526004820152602c60248201527f4e6f2042797a616e74696e6520636f6e73656e7375732072656163686564206160448201526b63726f737320746f6b656e7360a01b6064820152fd5b7ff4297e671f276d0232ee6e95bf0f9a24ec049fffffd46493be249cd8bcb85d6991837f922b4d9ec1316c4d95b1e9a05bb243eca228bc0d1da68b4931447ab92401b0b3611d26611d3b946040519182918b83528b830190612025565b0390a260405191829187835287830190611fd8565b0390a2838680611c02565b60405162461bcd60e51b8152600481018390526011602482015270105b1c9958591e48199a5b985b1a5e9959607a1b6044820152606490fd5b60405162461bcd60e51b815260048101849052601660248201527514995d99585b081c1a185cd9481b9bdd08195b99195960521b6044820152606490fd5b346101b05760003660031901126101b0576020604051620151808152f35b346101b05760003660031901126101b05760206040516127108152f35b346101b0576020806003193601126101b05760043560005260028152604060002090604051906000928054611e2c81611f28565b808552600191808316908115611ef25750600114611ebc575b5060ff90611e5885611e8b970386611fb6565b8201549160028101546003820154600583015491600a600685015494015495604051998a99610100808c528b0190611fd8565b97890152604088015260608701526080860152818116151560a086015260081c16151560c084015260e08301520390f35b945081600052826000206000905b868210611edf575084018301945060ff611e45565b8054868301860152908401908201611eca565b60ff19168686015250151560051b84018301945060ff611e45565b346101b05760003660031901126101b0576020906006548152f35b90600182811c92168015611f58575b6020831014611f4257565b634e487b7160e01b600052602260045260246000fd5b91607f1691611f37565b60c0810190811067ffffffffffffffff821117610faf57604052565b6080810190811067ffffffffffffffff821117610faf57604052565b6040810190811067ffffffffffffffff821117610faf57604052565b90601f8019910116810190811067ffffffffffffffff821117610faf57604052565b919082519283825260005b848110612004575050826000602080949584010152601f8019910116010190565b602081830181015184830182015201611fe3565b906008821015610aa55752565b90815180825260208080930193019160005b828110612045575050505090565b909192938280826120596001948951612018565b01950193929101612037565b600435906001600160a01b03821682036101b057565b9181601f840112156101b05782359167ffffffffffffffff83116101b0576020808501948460051b0101116101b057565b6008811015610aa5576000526005602052604060002090565b906008811015610aa557600052602052604060002090565b906003821015610aa55752565b60609060031901126101b0576004356001600160a01b03811681036101b057906024359060443560088110156101b05790565b60409060031901126101b05760043560088110156101b0579060243590565b6001546001600160a01b0316330361215057565b606460405162461bcd60e51b815260206004820152602060248201527f4f776e61626c653a2063616c6c6572206973206e6f7420746865206f776e65726044820152fd5b519069ffffffffffffffffffff821682036101b057565b6001600160a01b03906001906121c0906120ac565b01541680156122915760a060049160405192838092633fabe5a360e21b82525afa90811561088b57600091612242575b5060008113156121fd5790565b60405162461bcd60e51b815260206004820152601960248201527f496e76616c69642070726963652066726f6d206f7261636c65000000000000006044820152606490fd5b9060a0823d8211612289575b8161225b60a09383611fb6565b81010312612286575061226d81612194565b5061227f608060208301519201612194565b50386121f0565b80fd5b3d915061224e565b60405162461bcd60e51b8152602060048201526014602482015273141c9a58d9481bdc9858db19481b9bdd081cd95d60621b6044820152606490fd5b81810292918115918404141715610ffa57565b60ff16604d8111610ffa57600a0a90565b81156122fb570490565b634e487b7160e01b600052601260045260246000fd5b908015612366578160026123596123406123629461233a6123346103e8986120ac565b956121ab565b906122cd565b61235360ff600186015460a01c166122e0565b906122f1565b910154906122cd565b0490565b5050600090565b80156123915761237c90612dd0565b612710908181111561238c575090565b905090565b50600090565b916123c19160009360018060a01b03168452600460205260408420908452602052604083206120c5565b5480156123f85742034281116123e4576202a300116123e157506103e890565b90565b634e487b7160e01b82526011600452602482fd5b5090565b80548210156113965760005260206000200190600090565b91908201809211610ffa57565b60ff1660ff8114610ffa5760010190565b9060009182526002602052600960408320018054801561254f578184526020842054906001918183101561253b578386526020862083015461247391612414565b906002101561252757828552602085206002015461249091612414565b80156125205784825b6124a6575b505050508190565b60ff8116600380821015612519576124be83876123fc565b9054911b1c606490818102918183041490151715612505576124e2846043926122f1565b10156124fb5750906124f48392612421565b9091612499565b9550505090509190565b634e487b7160e01b88526011600452602488fd5b505061249e565b5050508190565b634e487b7160e01b85526032600452602485fd5b634e487b7160e01b86526032600452602486fd5b634e487b7160e01b84526032600452602484fd5b6040519061257082611f9a565b60048252634e6f6e6560e01b6020830152565b80518210156113965760209160051b010190565b6008821015610aa55752565b6000198114610ffa5760010190565b60009081526020906002825260409283822092845192610120840184811067ffffffffffffffff821117612724578652600880855261010036848701378190600587015480156127125783976004809101945b60ff808216858110156126f9576001918261261f836120ac565b015460a81c16156126ee5761263481896120c5565b548061264c575b50505061264790612421565b612605565b6126569082612311565b6064908181029181830414901517156126db57612675866050926122f1565b11612680578061263b565b92509550508798508392506126be91506126b96126c3947553696e676c6520546f6b656e20446f6d696e616e636560501b979899612583565b612597565b6125a3565b509451916126d083611f9a565b601683528201529190565b634e487b7160e01b8d526011855260248dfd5b505061264790612421565b5050505050505050509250909161270e612563565b9190565b5050509293505092509161270e612563565b634e487b7160e01b82526041600452602482fd5b818110612743575050565b60008155600101612738565b1561275657565b60405162461bcd60e51b8152602060048201526011602482015270566f74696e67206e6f742061637469766560781b6044820152606490fd5b908160209103126101b0575180151581036101b05790565b906008811015610aa55760ff80198354169116179055565b6002600054146127d0576002600055565b60405162461bcd60e51b815260206004820152601f60248201527f5265656e7472616e637947756172643a207265656e7472616e742063616c6c006044820152606490fd5b6040919493926128298260608101976120dd565b60208201520152565b9091816000526002602052604060002090600091600091600b8201906040518083602082955493848152019060005260206000209260005b818110612add57505061287f92500383611fb6565b60005b8251811015612916576001600160a01b0361289d8285612583565b511660005260088401602052604060002060ff600381818401541691826128f9575b50506128d5575b506128d0906125a3565b612882565b956128d0919560046128e96128f2936125a3565b98015490612414565b94906128c6565b8354169150808b1015610aa557811015610aa557891438806128bf565b5091939490928515908115612ad4575b50612acc57600584015460005b8451811015612a93576001600160a01b0361294e8287612583565b511690816000526008870160205260406000206007880160205260406000209060ff600382015416600014612a87575460ff1660038b1015610aa5576003811015610aa5578a03612a3a5780600260ff60016129b1940154169101549084612ba0565b81600052600360205260026040600020016129cc81546125a3565b905581600052600360205260406000205491600a928381018111610ffa576103e8908401811015612a1657612a119350905b60005260036020526040600020556125a3565b612933565b50806000526003602052604060002054928301809311610ffa57612a1192906129fe565b508160005260036020526040600020549160148311600014612a7a576013198301928311610ffa57612a11929060005260036020526040600020556125a3565b612a1192506000906129fe565b5050612a1191506125a3565b50919550937f5ae3d292bcbe7116abe3ad7384029544d76eb4c65a76c81485a355cff9bb822f93506040925082519182526020820152a2565b509350505050565b90501538612926565b84546001600160a01b031683526001948501948794506020909301920161286a565b90801561236657612b2f9061233a60ff6001612b23612b1d876120ac565b966121ab565b95015460a01c166122e0565b906305f5e1009081830292808404831490151715610ffa57818102918183041490151715610ffa576123e1916122f1565b3d15612b9b573d9067ffffffffffffffff8211610faf5760405191612b8f601f8201601f191660200184611fb6565b82523d6000602084013e565b606090565b908215612ce7576008811015610aa55760018103612c1857506000918291829182916001600160a01b03165af1612bd5612b60565b5015612bdd57565b60405162461bcd60e51b8152602060048201526013602482015272115512081d1c985b9cd9995c8819985a5b1959606a1b6044820152606490fd5b612c699260209290916001600160a01b0390612c33906120ac565b541690600060405180968195829463a9059cbb60e01b84526004840160209093929193604081019460018060a01b031681520152565b03925af190811561088b57600091612cc9575b5015612c8457565b60405162461bcd60e51b815260206004820152601c60248201527f546f6b656e20726577617264207472616e73666572206661696c6564000000006044820152606490fd5b612ce1915060203d8111610884576108768183611fb6565b38612c7c565b505050565b909192604091825190602091828101916bffffffffffffffffffffffff199060601b16825260148152612d1e81611f9a565b5190206007549467ffffffffffffffff8711610faf578660051b855197612d478583018a611fb6565b8852838801908201913683116101b0578490915b838310612dc05750505050916000925b8651841015612db657612d7e8488612583565b519085600083831015612da65750506000528252612da0846000205b936125a3565b92612d6b565b9091612da0938252855220612d9a565b9350945050501490565b8235815291810191859101612d5b565b8015612391576001808201808311610ffa57811c90825b838310612df45750505090565b90919250612e0b83612e0681846122f1565b612414565b821c9190612de756fea2646970667358221220fcecf9aa4b5eacb74e96ebab36d18dc1f0282a589b9c4e3af37563fd478c042964736f6c63430008130033",
  "linkReferences": {},
  "deployedLinkReferences": {}
}