{
  "_format": "hh-sol-artifact-1",
  "contractName": "ProofChainMultiTokenVoting",
  "sourceName": "contracts/ProofChainMultiTokenVoting.sol",
  "abi": [
    {
      "inputs": [
        {
          "internalType": "bytes32",
          "name": "_verifiedIdentityRoot",
          "type": "bytes32"
        }
      ],
      "stateMutability": "nonpayable",
      "type": "constructor"
    },
    {
      "anonymous": false,
      "inputs": [
        {
          "indexed": true,
          "internalType": "uint256",
          "name": "contentId",
          "type": "uint256"
        },
        {
          "indexed": false,
          "internalType": "string",
          "name": "ipfsHash",
          "type": "string"
        },
        {
          "indexed": false,
          "internalType": "uint256",
          "name": "commitDeadline",
          "type": "uint256"
        },
        {
          "indexed": false,
          "internalType": "uint256",
          "name": "revealDeadline",
          "type": "uint256"
        }
      ],
      "name": "ContentSubmitted",
      "type": "event"
    },
    {
      "anonymous": false,
      "inputs": [
        {
          "indexed": true,
          "internalType": "uint256",
          "name": "contentId",
          "type": "uint256"
        },
        {
          "indexed": false,
          "internalType": "string",
          "name": "attackType",
          "type": "string"
        }
      ],
      "name": "CoordinatedAttackDetected",
      "type": "event"
    },
    {
      "anonymous": false,
      "inputs": [
        {
          "indexed": true,
          "internalType": "uint256",
          "name": "contentId",
          "type": "uint256"
        },
        {
          "indexed": false,
          "internalType": "enum ProofChainMultiTokenVoting.TokenType[]",
          "name": "suspiciousTokens",
          "type": "uint8[]"
        }
      ],
      "name": "CrossTokenAttackDetected",
      "type": "event"
    },
    {
      "anonymous": false,
      "inputs": [
        {
          "indexed": true,
          "internalType": "uint256",
          "name": "contentId",
          "type": "uint256"
        },
        {
          "indexed": false,
          "internalType": "uint256",
          "name": "totalUSDRewards",
          "type": "uint256"
        },
        {
          "indexed": false,
          "internalType": "uint256",
          "name": "winnerCount",
          "type": "uint256"
        }
      ],
      "name": "MultiTokenRewardsDistributed",
      "type": "event"
    },
    {
      "anonymous": false,
      "inputs": [
        {
          "indexed": true,
          "internalType": "uint256",
          "name": "contentId",
          "type": "uint256"
        },
        {
          "indexed": true,
          "internalType": "address",
          "name": "voter",
          "type": "address"
        },
        {
          "indexed": false,
          "internalType": "enum ProofChainMultiTokenVoting.TokenType",
          "name": "tokenType",
          "type": "uint8"
        },
        {
          "indexed": false,
          "internalType": "uint256",
          "name": "stakeAmount",
          "type": "uint256"
        },
        {
          "indexed": false,
          "internalType": "uint256",
          "name": "usdValue",
          "type": "uint256"
        }
      ],
      "name": "MultiTokenVoteCommitted",
      "type": "event"
    },
    {
      "anonymous": false,
      "inputs": [
        {
          "indexed": true,
          "internalType": "uint256",
          "name": "contentId",
          "type": "uint256"
        },
        {
          "indexed": true,
          "internalType": "address",
          "name": "voter",
          "type": "address"
        },
        {
          "indexed": false,
          "internalType": "enum ProofChainMultiTokenVoting.VoteOption",
          "name": "vote",
          "type": "uint8"
        },
        {
          "indexed": false,
          "internalType": "uint256",
          "name": "confidence",
          "type": "uint256"
        },
        {
          "indexed": false,
          "internalType": "uint256",
          "name": "quadraticWeight",
          "type": "uint256"
        }
      ],
      "name": "MultiTokenVoteRevealed",
      "type": "event"
    },
    {
      "anonymous": false,
      "inputs": [
        {
          "indexed": true,
          "internalType": "address",
          "name": "previousOwner",
          "type": "address"
        },
        {
          "indexed": true,
          "internalType": "address",
          "name": "newOwner",
          "type": "address"
        }
      ],
      "name": "OwnershipTransferred",
      "type": "event"
    },
    {
      "anonymous": false,
      "inputs": [
        {
          "indexed": true,
          "internalType": "address",
          "name": "suspiciousAddress",
          "type": "address"
        },
        {
          "indexed": false,
          "internalType": "uint256",
          "name": "contentId",
          "type": "uint256"
        }
      ],
      "name": "SybilAttackDetected",
      "type": "event"
    },
    {
      "anonymous": false,
      "inputs": [
        {
          "indexed": true,
          "internalType": "enum ProofChainMultiTokenVoting.TokenType",
          "name": "tokenType",
          "type": "uint8"
        },
        {
          "indexed": false,
          "internalType": "address",
          "name": "tokenAddress",
          "type": "address"
        },
        {
          "indexed": false,
          "internalType": "address",
          "name": "priceOracle",
          "type": "address"
        }
      ],
      "name": "TokenAdded",
      "type": "event"
    },
    {
      "anonymous": false,
      "inputs": [
        {
          "indexed": true,
          "internalType": "enum ProofChainMultiTokenVoting.TokenType",
          "name": "tokenType",
          "type": "uint8"
        },
        {
          "indexed": false,
          "internalType": "bool",
          "name": "isActive",
          "type": "bool"
        },
        {
          "indexed": false,
          "internalType": "uint256",
          "name": "bonusMultiplier",
          "type": "uint256"
        }
      ],
      "name": "TokenUpdated",
      "type": "event"
    },
    {
      "anonymous": false,
      "inputs": [
        {
          "indexed": true,
          "internalType": "uint256",
          "name": "contentId",
          "type": "uint256"
        },
        {
          "indexed": false,
          "internalType": "enum ProofChainMultiTokenVoting.VoteOption",
          "name": "winningOption",
          "type": "uint8"
        },
        {
          "indexed": false,
          "internalType": "uint256",
          "name": "totalParticipants",
          "type": "uint256"
        },
        {
          "indexed": false,
          "internalType": "uint256",
          "name": "totalUSDStaked",
          "type": "uint256"
        }
      ],
      "name": "VotingFinalized",
      "type": "event"
    },
    {
      "inputs": [],
      "name": "ANTI_SYBIL_THRESHOLD_USD",
      "outputs": [
        {
          "internalType": "uint256",
          "name": "",
          "type": "uint256"
        }
      ],
      "stateMutability": "view",
      "type": "function"
    },
    {
      "inputs": [],
      "name": "BFT_THRESHOLD",
      "outputs": [
        {
          "internalType": "uint256",
          "name": "",
          "type": "uint256"
        }
      ],
      "stateMutability": "view",
      "type": "function"
    },
    {
      "inputs": [],
      "name": "CONFIDENCE_THRESHOLD",
      "outputs": [
        {
          "internalType": "uint256",
          "name": "",
          "type": "uint256"
        }
      ],
      "stateMutability": "view",
      "type": "function"
    },
    {
      "inputs": [],
      "name": "MAX_QUADRATIC_VOTES_USD",
      "outputs": [
        {
          "internalType": "uint256",
          "name": "",
          "type": "uint256"
        }
      ],
      "stateMutability": "view",
      "type": "function"
    },
    {
      "inputs": [],
      "name": "MIN_STAKE_DURATION",
      "outputs": [
        {
          "internalType": "uint256",
          "name": "",
          "type": "uint256"
        }
      ],
      "stateMutability": "view",
      "type": "function"
    },
    {
      "inputs": [],
      "name": "MIN_VOTING_PERIOD",
      "outputs": [
        {
          "internalType": "uint256",
          "name": "",
          "type": "uint256"
        }
      ],
      "stateMutability": "view",
      "type": "function"
    },
    {
      "inputs": [
        {
          "internalType": "enum ProofChainMultiTokenVoting.TokenType",
          "name": "tokenType",
          "type": "uint8"
        },
        {
          "internalType": "address",
          "name": "tokenAddress",
          "type": "address"
        },
        {
          "internalType": "address",
          "name": "priceOracleAddress",
          "type": "address"
        },
        {
          "internalType": "uint8",
          "name": "decimals",
          "type": "uint8"
        },
        {
          "internalType": "bool",
          "name": "isActive",
          "type": "bool"
        },
        {
          "internalType": "uint256",
          "name": "bonusMultiplier",
          "type": "uint256"
        },
        {
          "internalType": "uint256",
          "name": "minStakeAmount",
          "type": "uint256"
        }
      ],
      "name": "addOrUpdateToken",
      "outputs": [],
      "stateMutability": "nonpayable",
      "type": "function"
    },
    {
      "inputs": [
        {
          "internalType": "address",
          "name": "user",
          "type": "address"
        },
        {
          "internalType": "uint256",
          "name": "contentId",
          "type": "uint256"
        },
        {
          "internalType": "enum ProofChainMultiTokenVoting.TokenType",
          "name": "tokenType",
          "type": "uint8"
        }
      ],
      "name": "calculateMultiTokenStakeTimeWeight",
      "outputs": [
        {
          "internalType": "uint256",
          "name": "",
          "type": "uint256"
        }
      ],
      "stateMutability": "view",
      "type": "function"
    },
    {
      "inputs": [
        {
          "internalType": "uint256",
          "name": "usdValue",
          "type": "uint256"
        }
      ],
      "name": "calculateQuadraticWeightUSD",
      "outputs": [
        {
          "internalType": "uint256",
          "name": "",
          "type": "uint256"
        }
      ],
      "stateMutability": "pure",
      "type": "function"
    },
    {
      "inputs": [
        {
          "internalType": "uint256",
          "name": "contentId",
          "type": "uint256"
        }
      ],
      "name": "checkCrossTokenByzantineFaultTolerance",
      "outputs": [
        {
          "internalType": "bool",
          "name": "isConsensusReached",
          "type": "bool"
        },
        {
          "internalType": "enum ProofChainMultiTokenVoting.VoteOption",
          "name": "winningOption",
          "type": "uint8"
        }
      ],
      "stateMutability": "view",
      "type": "function"
    },
    {
      "inputs": [
        {
          "internalType": "uint256",
          "name": "contentId",
          "type": "uint256"
        },
        {
          "internalType": "bytes32",
          "name": "commitHash",
          "type": "bytes32"
        },
        {
          "internalType": "enum ProofChainMultiTokenVoting.TokenType",
          "name": "tokenType",
          "type": "uint8"
        },
        {
          "internalType": "uint256",
          "name": "stakeAmount",
          "type": "uint256"
        },
        {
          "internalType": "bytes32[]",
          "name": "merkleProof",
          "type": "bytes32[]"
        }
      ],
      "name": "commitMultiTokenVote",
      "outputs": [],
      "stateMutability": "payable",
      "type": "function"
    },
    {
      "inputs": [
        {
          "internalType": "uint256",
          "name": "",
          "type": "uint256"
        }
      ],
      "name": "contentItems",
      "outputs": [
        {
          "internalType": "string",
          "name": "ipfsHash",
          "type": "string"
        },
        {
          "internalType": "uint256",
          "name": "submissionTime",
          "type": "uint256"
        },
        {
          "internalType": "uint256",
          "name": "commitDeadline",
          "type": "uint256"
        },
        {
          "internalType": "uint256",
          "name": "revealDeadline",
          "type": "uint256"
        },
        {
          "internalType": "uint256",
          "name": "totalUSDValue",
          "type": "uint256"
        },
        {
          "internalType": "bool",
          "name": "isActive",
          "type": "bool"
        },
        {
          "internalType": "bool",
          "name": "isFinalized",
          "type": "bool"
        },
        {
          "internalType": "uint256",
          "name": "participantCount",
          "type": "uint256"
        }
      ],
      "stateMutability": "view",
      "type": "function"
    },
    {
      "inputs": [
        {
          "internalType": "enum ProofChainMultiTokenVoting.TokenType",
          "name": "tokenType",
          "type": "uint8"
        },
        {
          "internalType": "uint256",
          "name": "tokenAmount",
          "type": "uint256"
        }
      ],
      "name": "convertToUSD",
      "outputs": [
        {
          "internalType": "uint256",
          "name": "",
          "type": "uint256"
        }
      ],
      "stateMutability": "view",
      "type": "function"
    },
    {
      "inputs": [
        {
          "internalType": "enum ProofChainMultiTokenVoting.TokenType",
          "name": "tokenType",
          "type": "uint8"
        },
        {
          "internalType": "uint256",
          "name": "usdValue",
          "type": "uint256"
        }
      ],
      "name": "convertUSDToToken",
      "outputs": [
        {
          "internalType": "uint256",
          "name": "",
          "type": "uint256"
        }
      ],
      "stateMutability": "view",
      "type": "function"
    },
    {
      "inputs": [
        {
          "internalType": "uint256",
          "name": "contentId",
          "type": "uint256"
        }
      ],
      "name": "detectCrossTokenAttack",
      "outputs": [
        {
          "internalType": "bool",
          "name": "isAttack",
          "type": "bool"
        },
        {
          "internalType": "string",
          "name": "attackType",
          "type": "string"
        },
        {
          "internalType": "enum ProofChainMultiTokenVoting.TokenType[]",
          "name": "suspiciousTokens",
          "type": "uint8[]"
        }
      ],
      "stateMutability": "view",
      "type": "function"
    },
    {
      "inputs": [
        {
          "internalType": "uint256",
          "name": "contentId",
          "type": "uint256"
        }
      ],
      "name": "finalizeMultiTokenVoting",
      "outputs": [],
      "stateMutability": "nonpayable",
      "type": "function"
    },
    {
      "inputs": [
        {
          "internalType": "uint256",
          "name": "contentId",
          "type": "uint256"
        }
      ],
      "name": "getMultiTokenResults",
      "outputs": [
        {
          "internalType": "bool",
          "name": "isFinalized",
          "type": "bool"
        },
        {
          "internalType": "enum ProofChainMultiTokenVoting.VoteOption",
          "name": "winningOption",
          "type": "uint8"
        },
        {
          "internalType": "uint256[3]",
          "name": "voteDistribution",
          "type": "uint256[3]"
        },
        {
          "internalType": "uint256",
          "name": "totalParticipants",
          "type": "uint256"
        },
        {
          "internalType": "uint256",
          "name": "totalUSDValue",
          "type": "uint256"
        },
        {
          "internalType": "uint256[8]",
          "name": "tokenBreakdown",
          "type": "uint256[8]"
        }
      ],
      "stateMutability": "view",
      "type": "function"
    },
    {
      "inputs": [
        {
          "internalType": "enum ProofChainMultiTokenVoting.TokenType",
          "name": "tokenType",
          "type": "uint8"
        }
      ],
      "name": "getTokenPriceUSD",
      "outputs": [
        {
          "internalType": "uint256",
          "name": "",
          "type": "uint256"
        }
      ],
      "stateMutability": "view",
      "type": "function"
    },
    {
      "inputs": [
        {
          "internalType": "address",
          "name": "user",
          "type": "address"
        },
        {
          "internalType": "bytes32[]",
          "name": "merkleProof",
          "type": "bytes32[]"
        }
      ],
      "name": "isVerifiedIdentity",
      "outputs": [
        {
          "internalType": "bool",
          "name": "",
          "type": "bool"
        }
      ],
      "stateMutability": "view",
      "type": "function"
    },
    {
      "inputs": [],
      "name": "nextContentId",
      "outputs": [
        {
          "internalType": "uint256",
          "name": "",
          "type": "uint256"
        }
      ],
      "stateMutability": "view",
      "type": "function"
    },
    {
      "inputs": [],
      "name": "owner",
      "outputs": [
        {
          "internalType": "address",
          "name": "",
          "type": "address"
        }
      ],
      "stateMutability": "view",
      "type": "function"
    },
    {
      "inputs": [],
      "name": "renounceOwnership",
      "outputs": [],
      "stateMutability": "nonpayable",
      "type": "function"
    },
    {
      "inputs": [
        {
          "internalType": "uint256",
          "name": "contentId",
          "type": "uint256"
        },
        {
          "internalType": "enum ProofChainMultiTokenVoting.VoteOption",
          "name": "vote",
          "type": "uint8"
        },
        {
          "internalType": "uint256",
          "name": "confidence",
          "type": "uint256"
        },
        {
          "internalType": "uint256",
          "name": "salt",
          "type": "uint256"
        }
      ],
      "name": "revealMultiTokenVote",
      "outputs": [],
      "stateMutability": "nonpayable",
      "type": "function"
    },
    {
      "inputs": [
        {
          "internalType": "enum ProofChainMultiTokenVoting.TokenType",
          "name": "tokenType",
          "type": "uint8"
        },
        {
          "internalType": "bool",
          "name": "isActive",
          "type": "bool"
        }
      ],
      "name": "setTokenStatus",
      "outputs": [],
      "stateMutability": "nonpayable",
      "type": "function"
    },
    {
      "inputs": [
        {
          "internalType": "bytes32",
          "name": "_newRoot",
          "type": "bytes32"
        }
      ],
      "name": "setVerifiedIdentityRoot",
      "outputs": [],
      "stateMutability": "nonpayable",
      "type": "function"
    },
    {
      "inputs": [
        {
          "internalType": "string",
          "name": "ipfsHash",
          "type": "string"
        },
        {
          "internalType": "uint256",
          "name": "votingDuration",
          "type": "uint256"
        }
      ],
      "name": "submitContent",
      "outputs": [
        {
          "internalType": "uint256",
          "name": "contentId",
          "type": "uint256"
        }
      ],
      "stateMutability": "nonpayable",
      "type": "function"
    },
    {
      "inputs": [
        {
          "internalType": "enum ProofChainMultiTokenVoting.TokenType",
          "name": "",
          "type": "uint8"
        }
      ],
      "name": "supportedTokens",
      "outputs": [
        {
          "internalType": "address",
          "name": "tokenAddress",
          "type": "address"
        },
        {
          "internalType": "contract AggregatorV3Interface",
          "name": "priceOracle",
          "type": "address"
        },
        {
          "internalType": "uint8",
          "name": "decimals",
          "type": "uint8"
        },
        {
          "internalType": "bool",
          "name": "isActive",
          "type": "bool"
        },
        {
          "internalType": "uint256",
          "name": "bonusMultiplier",
          "type": "uint256"
        },
        {
          "internalType": "uint256",
          "name": "minStakeAmount",
          "type": "uint256"
        }
      ],
      "stateMutability": "view",
      "type": "function"
    },
    {
      "inputs": [
        {
          "internalType": "address",
          "name": "newOwner",
          "type": "address"
        }
      ],
      "name": "transferOwnership",
      "outputs": [],
      "stateMutability": "nonpayable",
      "type": "function"
    },
    {
      "inputs": [
        {
          "internalType": "address",
          "name": "",
          "type": "address"
        }
      ],
      "name": "userProfiles",
      "outputs": [
        {
          "internalType": "uint256",
          "name": "reputationScore",
          "type": "uint256"
        },
        {
          "internalType": "uint256",
          "name": "totalUSDStakeHistory",
          "type": "uint256"
        },
        {
          "internalType": "uint256",
          "name": "successfulVotes",
          "type": "uint256"
        },
        {
          "internalType": "uint256",
          "name": "totalVotes",
          "type": "uint256"
        },
        {
          "internalType": "bool",
          "name": "isVerified",
          "type": "bool"
        },
        {
          "internalType": "uint256",
          "name": "lastVoteTime",
          "type": "uint256"
        }
      ],
      "stateMutability": "view",
      "type": "function"
    },
    {
      "inputs": [
        {
          "internalType": "address",
          "name": "",
          "type": "address"
        },
        {
          "internalType": "uint256",
          "name": "",
          "type": "uint256"
        },
        {
          "internalType": "enum ProofChainMultiTokenVoting.TokenType",
          "name": "",
          "type": "uint8"
        }
      ],
      "name": "userStakeDeposits",
      "outputs": [
        {
          "internalType": "uint256",
          "name": "",
          "type": "uint256"
        }
      ],
      "stateMutability": "view",
      "type": "function"
    },
    {
      "inputs": [],
      "name": "verifiedIdentityRoot",
      "outputs": [
        {
          "internalType": "bytes32",
          "name": "",
          "type": "bytes32"
        }
      ],
      "stateMutability": "view",
      "type": "function"
    },
    {
      "inputs": [],
      "name": "withdrawStuckETH",
      "outputs": [],
      "stateMutability": "nonpayable",
      "type": "function"
    },
    {
      "inputs": [
        {
          "internalType": "address",
          "name": "tokenAddress",
          "type": "address"
        }
      ],
      "name": "withdrawStuckTokens",
      "outputs": [],
      "stateMutability": "nonpayable",
      "type": "function"
    }
  ],
  "bytecode": "0x60806040523480156200001157600080fd5b5060405162003f5238038062003f528339810160408190526200003491620004d2565b6001600055620000443362000480565b6007819055620004796040805160c0810182526000808252602082018190526008928201929092526060810182905261041a6080820152620f424060a08201529060059080815260208082019290925260409081016000908120845181546001600160a01b039182166001600160a01b03199091161782558585015160018084018054898801516060808c01511515600160a81b0260ff60a81b1960ff909316600160a01b026001600160a81b03199094169690971695909517919091171693909317909255608080880151600285015560a097880151600390940193909355845160c0810186528481529586018490526012948601949094529284018290526103e890840152662386f26fc10000938301939093529091600591815260208082019290925260409081016000908120845181546001600160a01b039182166001600160a01b031990911617825585850151600183018054888701516060808b01511515600160a81b0260ff60a81b1960ff909316600160a01b026001600160a81b0319909416959096169490941791909117169290921790915560808087015160028085019190915560a097880151600390940193909355845160c08101865284815295860184905260129486019490945284018290526103e892840192909252678ac7230489e80000938301939093529091600591815260208082019290925260409081016000908120845181546001600160a01b039182166001600160a01b031990911617825585850151600183018054888701516060808b01511515600160a81b0260ff60a81b1960ff909316600160a01b026001600160a81b03199094169590961694909417919091171692909217909155608080870151600284015560a096870151600393840155845160c08101865284815295860184905260129486019490945284018290526104b092840192909252670de0b6b3a7640000938301939093529091600591815260208082019290925260409081016000908120845181546001600160a01b039182166001600160a01b031990911617825585850151600183018054888701516060808b01511515600160a81b0260ff60a81b1960ff909316600160a01b026001600160a81b03199094169590961694909417919091171692909217909155608080870151600284015560a096870151600390930192909255835160c0810185528381529485018390526006938501939093529183018190526103e891830191909152629896809282019290925290600590600481526020808201929092526040908101600020835181546001600160a01b039182166001600160a01b0319909116178255928401516001820180549386015160608701511515600160a81b0260ff60a81b1960ff909216600160a01b026001600160a81b0319909616939096169290921793909317169290921790556080820151600282015560a090910151600390910155565b50620004ec565b600180546001600160a01b038381166001600160a01b0319831681179093556040519116919082907f8be0079c531659141344cd1fd0a4f28419497f9722a3daafe3b4186f6b6457e090600090a35050565b600060208284031215620004e557600080fd5b5051919050565b613a5680620004fc6000396000f3fe6080604052600436106101ee5760003560e01c8063849e85be1161010d578063d67bdd16116100a0578063e33fb15c1161006f578063e33fb15c1461068c578063ed45c1fc146106a2578063f2fde38b146106c2578063f5648a4f146106e2578063fdcb09c6146106f757600080fd5b8063d67bdd1614610620578063dad3fc1314610640578063e0c570ba14610660578063e214c8551461067757600080fd5b806391b49805116100dc57806391b498051461059d578063a9f0cf4e146105bd578063cb963728146105eb578063cd8796931461060b57600080fd5b8063849e85be146104f7578063877baeaa146105355780638d41b83b146105555780638da5cb5b1461057557600080fd5b80633f572d3611610185578063715018a611610154578063715018a6146104825780637354c7e314610497578063736ff249146104b757806383bf5f5a146104d757600080fd5b80633f572d36146103665780634f6af1b71461040b578063617f04901461042057806363025f6d1461045257600080fd5b80632dac8d10116101c15780632dac8d101461027d578063314857cb1461029f578063332d56d7146102ce5780633c4d8f1a1461035357600080fd5b80630a248d7f146101f35780630e73afdf1461021c57806315a6cab014610250578063215809ca14610266575b600080fd5b3480156101ff57600080fd5b5061020960065481565b6040519081526020015b60405180910390f35b34801561022857600080fd5b5061023c610237366004613094565b610717565b6040516102139897969594939291906130f3565b34801561025c57600080fd5b5061020961271081565b34801561027257600080fd5b506102096201518081565b34801561028957600080fd5b5061029d610298366004613094565b6107e9565b005b3480156102ab57600080fd5b506102bf6102ba366004613094565b610a55565b604051610213939291906131ae565b3480156102da57600080fd5b506103246102e93660046131f7565b6003602081905260009182526040909120805460018201546002830154938301546004840154600590940154929491939192909160ff169086565b6040805196875260208701959095529385019290925260608401521515608083015260a082015260c001610213565b61029d61036136600461326d565b610c87565b34801561037257600080fd5b506103c96103813660046132de565b60056020526000908152604090208054600182015460028301546003909301546001600160a01b03928316939282169260ff600160a01b8404811693600160a81b9004169186565b604080516001600160a01b03978816815296909516602087015260ff9093169385019390935215156060840152608083019190915260a082015260c001610213565b34801561041757600080fd5b50610209603c81565b34801561042c57600080fd5b5061044061043b366004613094565b6113a1565b60405161021396959493929190613309565b34801561045e57600080fd5b5061047261046d366004613389565b6115b2565b6040519015158152602001610213565b34801561048e57600080fd5b5061029d61163a565b3480156104a357600080fd5b506102096104b23660046132de565b61164e565b3480156104c357600080fd5b5061029d6104d23660046133dc565b6117a2565b3480156104e357600080fd5b506102096104f236600461341d565b611e85565b34801561050357600080fd5b5061020961051236600461341d565b600460209081526000938452604080852082529284528284209052825290205481565b34801561054157600080fd5b50610209610550366004613459565b611f22565b34801561056157600080fd5b5061029d610570366004613491565b611fda565b34801561058157600080fd5b506001546040516001600160a01b039091168152602001610213565b3480156105a957600080fd5b506102096105b8366004613459565b6121e2565b3480156105c957600080fd5b506105dd6105d8366004613094565b612290565b604051610213929190613514565b3480156105f757600080fd5b5061029d6106063660046131f7565b6123c4565b34801561061757600080fd5b50610209604381565b34801561062c57600080fd5b5061029d61063b366004613094565b61251e565b34801561064c57600080fd5b5061020961065b36600461352a565b61252b565b34801561066c57600080fd5b506102096202a30081565b34801561068357600080fd5b50610209606481565b34801561069857600080fd5b5061020960075481565b3480156106ae57600080fd5b5061029d6106bd3660046135a2565b6126c0565b3480156106ce57600080fd5b5061029d6106dd3660046131f7565b6127aa565b3480156106ee57600080fd5b5061029d612820565b34801561070357600080fd5b50610209610712366004613094565b6128d4565b600260205260009081526040902080548190610732906135d9565b80601f016020809104026020016040519081016040528092919081815260200182805461075e906135d9565b80156107ab5780601f10610780576101008083540402835291602001916107ab565b820191906000526020600020905b81548152906001019060200180831161078e57829003601f168201915b50505060018401546002850154600386015460058701546006880154600a90980154969793969295509093509160ff80821692610100909204169088565b6107f161290c565b6000818152600260205260409020600381015442116108505760405162461bcd60e51b815260206004820152601660248201527514995d99585b081c1a185cd9481b9bdd08195b99195960521b60448201526064015b60405180910390fd5b600681015460ff166108985760405162461bcd60e51b8152602060048201526011602482015270566f74696e67206e6f742061637469766560781b6044820152606401610847565b6006810154610100900460ff16156108e65760405162461bcd60e51b8152602060048201526011602482015270105b1c9958591e48199a5b985b1a5e9959607a1b6044820152606401610847565b60008060006108f485610a55565b925092509250821561097157847f922b4d9ec1316c4d95b1e9a05bb243eca228bc0d1da68b4931447ab92401b0b3826040516109309190613613565b60405180910390a2847ff4297e671f276d0232ee6e95bf0f9a24ec049fffffd46493be249cd8bcb85d69836040516109689190613626565b60405180910390a25b60008061097d87612290565b91509150816109e35760405162461bcd60e51b815260206004820152602c60248201527f4e6f2042797a616e74696e6520636f6e73656e7375732072656163686564206160448201526b63726f737320746f6b656e7360a01b6064820152608401610847565b60068601805461ffff19166101001790556109fe8782612965565b867fbbbe9b42ddfa0692cd5f3dc618525dde4b8fe438fe573f13b3fa9fb1287d6fcd8288600a01548960050154604051610a3a93929190613639565b60405180910390a2505050505050610a526001600055565b50565b600081815260026020908152604080832081516008808252610120820190935260609384938692918201610100803683375050506005830154909150600090808203610ac75750506040805180820190915260048152634e6f6e6560e01b60208201526000955093509150610c809050565b60005b60088160ff161015610c575760008160ff166007811115610aed57610aed613142565b905060056000826007811115610b0557610b05613142565b6007811115610b1657610b16613142565b8152602081019190915260400160002060010154600160a81b900460ff16610b3e5750610c45565b6000866004016000836007811115610b5857610b58613142565b6007811115610b6957610b69613142565b81526020019081526020016000205490506000811115610c42576000610b8f8383611f22565b9050605085610b9f836064613684565b610ba9919061369b565b1115610c405782878781518110610bc257610bc26136bd565b60200260200101906007811115610bdb57610bdb613142565b90816007811115610bee57610bee613142565b90525085610bfb816136d3565b505060408051808201909152601681527553696e676c6520546f6b656e20446f6d696e616e636560501b602082015260019b509950959750610c809650505050505050565b505b50505b80610c4f816136ec565b915050610aca565b50506040805180820190915260048152634e6f6e6560e01b602082015260009650945090925050505b9193909250565b8181610c943383836115b2565b610cec5760405162461bcd60e51b815260206004820152602360248201527f55736572206e6f74207665726966696564202d20706f74656e7469616c205379604482015262189a5b60ea1b6064820152608401610847565b600088815260026020819052604090912001548890421115610d455760405162461bcd60e51b815260206004820152601260248201527110dbdb5b5a5d081c1a185cd948195b99195960721b6044820152606401610847565b60008181526002602052604090206006015460ff16610d9a5760405162461bcd60e51b8152602060048201526011602482015270566f74696e67206e6f742061637469766560781b6044820152606401610847565b8660056000826007811115610db157610db1613142565b6007811115610dc257610dc2613142565b8152602081019190915260400160002060010154600160a81b900460ff16610e225760405162461bcd60e51b8152602060048201526013602482015272151bdad95b881b9bdd081cdd5c1c1bdc9d1959606a1b6044820152606401610847565b610e2a61290c565b60008711610e7a5760405162461bcd60e51b815260206004820152601960248201527f4d757374207374616b6520746f6b656e7320746f20766f7465000000000000006044820152606401610847565b60056000896007811115610e9057610e90613142565b6007811115610ea157610ea1613142565b815260200190815260200160002060030154871015610ef85760405162461bcd60e51b81526020600482015260136024820152725374616b652062656c6f77206d696e696d756d60681b6044820152606401610847565b60008a815260026020908152604080832033845260070190915290206005015460ff1615610f5c5760405162461bcd60e51b8152602060048201526011602482015270105b1c9958591e4818dbdb5b5a5d1d1959607a1b6044820152606401610847565b6000610f688989611f22565b3360009081526003602081905260408220015491925003610ff457610f9260646305f5e100613684565b811015610ff45760405162461bcd60e51b815260206004820152602a60248201527f4e6577206163636f756e7473206e6565642068696768657220696e697469616c60448201526920555344207374616b6560b01b6064820152608401610847565b600189600781111561100857611008613142565b03611058578734146110535760405162461bcd60e51b8152602060048201526014602482015273125b98dbdc9c9958dd0811551208185b5bdd5b9d60621b6044820152606401610847565b6111a2565b34156110a65760405162461bcd60e51b815260206004820181905260248201527f446f206e6f742073656e642045544820666f7220746f6b656e207374616b65736044820152606401610847565b6000600560008b60078111156110be576110be613142565b60078111156110cf576110cf613142565b8152602081019190915260409081016000205490516323b872dd60e01b8152336004820152306024820152604481018b90526001600160a01b03909116915081906323b872dd906064016020604051808303816000875af1158015611138573d6000803e3d6000fd5b505050506040513d601f19601f8201168201806040525081019061115c919061370b565b6111a05760405162461bcd60e51b8152602060048201526015602482015274151bdad95b881d1c985b9cd9995c8819985a5b1959605a1b6044820152606401610847565b505b3360009081526004602090815260408083208e8452909152812042918b60078111156111d0576111d0613142565b60078111156111e1576111e1613142565b8152602001908152602001600020819055506040518060c001604052808b81526020018a600781111561121657611216613142565b815260208082018b905242604080840191909152606083018590526001608090930183905260008f815260028352818120338252600790810184529190208451815591840151828401805493949193909260ff199091169190849081111561128057611280613142565b021790555060408201518160020155606082015181600301556080820151816004015560a08201518160050160006101000a81548160ff02191690831515021790555090505087600260008d815260200190815260200160002060040160008b60078111156112f1576112f1613142565b600781111561130257611302613142565b8152602001908152602001600020600082825461131f9190613728565b909155505060008b81526002602052604081206005018054839290611345908490613728565b909155505060405133908c907f646b27badc934e5e65404797d4be9eeb33f73f78932a721ef4ab31b538c2240a90611382908d908d90879061373b565b60405180910390a3506113956001600055565b50505050505050505050565b6000806113ac612ff7565b6000806113b7613015565b60008781526002602052604090206006810154610100900460ff166114335760405162461bcd60e51b815260206004820152602c60248201527f566f74696e67206e6f742066696e616c697a6564202d206e6f2065786974207060448201526b1bdb1b1cc8185b1b1bddd95960a21b6064820152608401610847565b60008060005b600984015460ff821610156114fe5782846009018260ff1681548110611461576114616136bd565b906000526020600020015411156114af57836009018160ff168154811061148a5761148a6136bd565b906000526020600020015492508060ff1660028111156114ac576114ac613142565b91505b836009018160ff16815481106114c7576114c76136bd565b9060005260206000200154888260ff16600381106114e7576114e76136bd565b6020020152806114f6816136ec565b915050611439565b5060005b60088160ff161015611586578360040160008260ff16600781111561152957611529613142565b600781111561153a5761153a613142565b600781111561154b5761154b613142565b815260200190815260200160002054858260ff166008811061156f5761156f6136bd565b60200201528061157e816136ec565b915050611502565b506006830154600a84015460059094015461010090910460ff169b919a50969850919650919350915050565b6040516bffffffffffffffffffffffff19606085901b166020820152600090819060340160405160208183030381529060405280519060200120905061162f848480806020026020016040519081016040528093929190818152602001838360200280828437600092019190915250506007549150849050612c98565b9150505b9392505050565b611642612cae565b61164c6000612d08565b565b6000806005600084600781111561166757611667613142565b600781111561167857611678613142565b8152602081019190915260400160002060018101549091506001600160a01b03166116dc5760405162461bcd60e51b8152602060048201526014602482015273141c9a58d9481bdc9858db19481b9bdd081cd95d60621b6044820152606401610847565b600181015460408051633fabe5a360e21b815290516000926001600160a01b03169163feaf968c9160048083019260a09291908290030181865afa158015611728573d6000803e3d6000fd5b505050506040513d601f19601f8201168201806040525081019061174c9190613763565b505050915050600081136116335760405162461bcd60e51b815260206004820152601960248201527f496e76616c69642070726963652066726f6d206f7261636c65000000000000006044820152606401610847565b60008481526002602081905260409091200154849042116117fd5760405162461bcd60e51b81526020600482015260156024820152745374696c6c20696e20636f6d6d697420706861736560581b6044820152606401610847565b6000818152600260205260409020600301544211156118535760405162461bcd60e51b815260206004820152601260248201527114995d99585b081c1a185cd948195b99195960721b6044820152606401610847565b61185b61290c565b603c831015801561186d575060648311155b6118b95760405162461bcd60e51b815260206004820152601860248201527f496e76616c696420636f6e666964656e6365206c6576656c00000000000000006044820152606401610847565b60008581526002602090815260408083203384526007019091529020600581015460ff1661191b5760405162461bcd60e51b815260206004820152600f60248201526e139bc818dbdb5b5a5d08199bdd5b99608a1b6044820152606401610847565b600086815260026020908152604080832033845260080190915290206003015460ff161561197e5760405162461bcd60e51b815260206004820152601060248201526f105b1c9958591e481c995d99585b195960821b6044820152606401610847565b600085600281111561199257611992613142565b600183015486908690339060ff1660078111156119b1576119b1613142565b60405160f895861b6001600160f81b031990811660208301526021820195909552604181019390935260609190911b6bffffffffffffffffffffffff1916606183015290921b16607582015260760160405160208183030381529060405280519060200120905081600001548114611a5c5760405162461bcd60e51b815260206004820152600e60248201526d125b9d985b1a59081c995d99585b60921b6044820152606401610847565b6001820154600090611a749033908a9060ff16611e85565b905060008111611ad75760405162461bcd60e51b815260206004820152602860248201527f5374616b6520746f6f20726563656e74202d20666c617368206c6f616e20707260448201526737ba32b1ba34b7b760c11b6064820152608401610847565b6000611ae684600401546128d4565b3360009081526003602052604081205491925090611b06576103e8611b22565b33600090815260036020526040902054611b22906103e8613728565b90506000620f424082611b358686613684565b611b3f9190613684565b611b49919061369b565b90506040518060c001604052808b6002811115611b6857611b68613142565b8152602081018b9052604081018a90526001606082018190526080820184905288015460a09091019060ff166007811115611ba557611ba5613142565b905260008c81526002602081815260408084203385526008019091529091208251815491929091839160ff19909116906001908490811115611be957611be9613142565b0217905550602082015160018083019190915560408301516002830155606083015160038301805491151560ff199283161790556080840151600484015560a0840151600584018054919390929190911690836007811115611c4d57611c4d613142565b021790555090505080600260008d81526020019081526020016000206009018b6002811115611c7e57611c7e613142565b60ff1681548110611c9157611c916136bd565b906000526020600020016000828254611caa9190613728565b909155505060008b8152600260205260409020600b01541580611d12575060008b8152600260205260409020600b018054339190611cea906001906137b3565b81548110611cfa57611cfa6136bd565b6000918252602090912001546001600160a01b031614155b15611d645760008b81526002602090815260408220600b8101805460018101825590845291832090910180546001600160a01b031916331790558c8252600a01805491611d5e836136d3565b91905055505b336000908152600360208190526040822001805491611d82836136d3565b909155505060048601543360009081526003602052604081206001018054909190611dae908490613728565b9091555050600286015433600090815260036020526040812060018901546006909101919060ff166007811115611de757611de7613142565b6007811115611df857611df8613142565b81526020019081526020016000206000828254611e159190613728565b9091555050336000818152600360205260409081902042600590910155518c907fb5458466af31e461fb5bd7387a10c145c0fe5ec3205a9bfe90c719552586403190611e66908e908e908790613639565b60405180910390a3505050505050611e7e6001600055565b5050505050565b6001600160a01b03831660009081526004602090815260408083208584529091528120819081846007811115611ebd57611ebd613142565b6007811115611ece57611ece613142565b815260200190815260200160002054905080600003611ef1576000915050611633565b6000611efd82426137b3565b90506202a300811015611f1557600092505050611633565b506103e895945050505050565b600081600003611f3457506000611fd4565b600060056000856007811115611f4c57611f4c613142565b6007811115611f5d57611f5d613142565b815260200190815260200160002090506000611f788561164e565b6001830154909150600090611f9890600160a01b900460ff16600a6138aa565b611fa28387613684565b611fac919061369b565b905060006103e8846002015483611fc39190613684565b611fcd919061369b565b9450505050505b92915050565b611fe2612cae565b6001600160a01b0386166120305760405162461bcd60e51b8152602060048201526015602482015274496e76616c696420746f6b656e206164647265737360581b6044820152606401610847565b6001600160a01b0385166120865760405162461bcd60e51b815260206004820152601c60248201527f496e76616c6964207072696365206f7261636c652061646472657373000000006044820152606401610847565b6040518060c00160405280876001600160a01b03168152602001866001600160a01b031681526020018560ff168152602001841515815260200183815260200182815250600560008960078111156120e0576120e0613142565b60078111156120f1576120f1613142565b81526020808201929092526040908101600020835181546001600160a01b039182166001600160a01b0319909116178255928401516001820180549386015160608701511515600160a81b0260ff60a81b1960ff909216600160a01b026001600160a81b0319909616939096169290921793909317169290921790556080820151600282015560a09091015160039091015586600781111561219557612195613142565b604080516001600160a01b03808a168252881660208201527fd7e0ffe3c5e893c914e856817d8bfcf09e393c7926b6cf6fd55867404db05cb191015b60405180910390a250505050505050565b6000816000036121f457506000611fd4565b60006005600085600781111561220c5761220c613142565b600781111561221d5761221d613142565b8152602001908152602001600020905060006122388561164e565b9050600061224a826305f5e100613684565b600184015461226490600160a01b900460ff16600a6138aa565b61226e9087613684565b61227c906305f5e100613684565b612286919061369b565b9695505050505050565b60008181526002602081905260408220600981018054849384929181106122b9576122b96136bd565b9060005260206000200154826009016001815481106122da576122da6136bd565b9060005260206000200154836009016000815481106122fb576122fb6136bd565b90600052602060002001546123109190613728565b61231a9190613728565b905080600003612331575060009485945092505050565b60005b60038160ff1610156123b657604382846009018360ff168154811061235b5761235b6136bd565b906000526020600020015460646123729190613684565b61237c919061369b565b106123a45760018160ff16600281111561239857612398613142565b94509450505050915091565b806123ae816136ec565b915050612334565b506000958695509350505050565b6123cc612cae565b6040516370a0823160e01b815230600482015281906000906001600160a01b038316906370a0823190602401602060405180830381865afa158015612415573d6000803e3d6000fd5b505050506040513d601f19601f8201168201806040525081019061243991906138b9565b9050816001600160a01b031663a9059cbb61245c6001546001600160a01b031690565b6040516001600160e01b031960e084901b1681526001600160a01b039091166004820152602481018490526044016020604051808303816000875af11580156124a9573d6000803e3d6000fd5b505050506040513d601f19601f820116820180604052508101906124cd919061370b565b6125195760405162461bcd60e51b815260206004820152601760248201527f546f6b656e207769746864726177616c206661696c65640000000000000000006044820152606401610847565b505050565b612526612cae565b600755565b60008261257a5760405162461bcd60e51b815260206004820152601960248201527f4950465320686173682063616e6e6f7420626520656d707479000000000000006044820152606401610847565b620151808210156125cd5760405162461bcd60e51b815260206004820152601760248201527f566f74696e6720706572696f6420746f6f2073686f72740000000000000000006044820152606401610847565b600680549060006125dd836136d3565b909155506000818152600260205260409020909150806125fe858783613920565b5042600182015561261060028461369b565b61261a9042613728565b60028201556126298342613728565b60038281019190915560068201805460ff1916600117905560408051828152608081019091529060208201606080368337505081516126719260098501925060200190613034565b50817fdf8c0ea62c99f958724f8360cbafc4373fe974603c81928345362caa101817b68686846002015485600301546040516126b094939291906139e0565b60405180910390a2509392505050565b6126c8612cae565b80600560008460078111156126df576126df613142565b60078111156126f0576126f0613142565b815260200190815260200160002060010160156101000a81548160ff02191690831515021790555081600781111561272a5761272a613142565b7ff452027f24e21c883950a8c162ad4cf41a0ceecfc4c68c595a16b769d4a4ec7e826005600086600781111561276257612762613142565b600781111561277357612773613142565b81526020019081526020016000206002015460405161279e9291909115158252602082015260400190565b60405180910390a25050565b6127b2612cae565b6001600160a01b0381166128175760405162461bcd60e51b815260206004820152602660248201527f4f776e61626c653a206e6577206f776e657220697320746865207a65726f206160448201526564647265737360d01b6064820152608401610847565b610a5281612d08565b612828612cae565b600061283c6001546001600160a01b031690565b6001600160a01b03164760405160006040518083038185875af1925050503d8060008114612886576040519150601f19603f3d011682016040523d82523d6000602084013e61288b565b606091505b5050905080610a525760405162461bcd60e51b8152602060048201526015602482015274115512081dda5d1a191c985dd85b0819985a5b1959605a1b6044820152606401610847565b6000816000036128e657506000919050565b60006128f183612d5a565b905061271081116129025780611633565b6127109392505050565b60026000540361295e5760405162461bcd60e51b815260206004820152601f60248201527f5265656e7472616e637947756172643a207265656e7472616e742063616c6c006044820152606401610847565b6002600055565b6000828152600260209081526040808320600b81018054835181860281018601909452808452919493849384939092918301828280156129ce57602002820191906000526020600020905b81546001600160a01b031681526001909101906020018083116129b0575b5050505050905060005b8151811015612a935760008282815181106129f5576129f56136bd565b6020908102919091018101516001600160a01b038116600090815260088901909252604090912060038101549192509060ff168015612a595750876002811115612a4157612a41613142565b815460ff166002811115612a5757612a57613142565b145b15612a7e5785612a68816136d3565b965050806004015485612a7b9190613728565b94505b50508080612a8b906136d3565b9150506129d8565b50821580612a9f575081155b15612aac57505050505050565b600584015460005b8251811015612c5f576000838281518110612ad157612ad16136bd565b6020908102919091018101516001600160a01b038116600090815260088a018352604080822060078c01909452902060038301549193509060ff1615612c4957896002811115612b2357612b23613142565b825460ff166002811115612b3957612b39613142565b03612bfd5760018101546002820154612b5991859160ff90911690612dbb565b6001600160a01b0383166000908152600360205260408120600201805491612b80836136d3565b90915550506001600160a01b0383166000908152600360205260409020546103e890612bad90600a613728565b11612bdb576001600160a01b038316600090815260036020526040902054612bd690600a613728565b612bdf565b6103e85b6001600160a01b038416600090815260036020526040902055612c49565b6001600160a01b038316600090815260036020526040902054601410612c24576000612bdf565b6001600160a01b038316600090815260036020526040902054612bdf906014906137b3565b5050508080612c57906136d3565b915050612ab4565b50604080518281526020810186905288917f5ae3d292bcbe7116abe3ad7384029544d76eb4c65a76c81485a355cff9bb822f91016121d1565b600082612ca58584612f7e565b14949350505050565b6001546001600160a01b0316331461164c5760405162461bcd60e51b815260206004820181905260248201527f4f776e61626c653a2063616c6c6572206973206e6f7420746865206f776e65726044820152606401610847565b600180546001600160a01b038381166001600160a01b0319831681179093556040519116919082907f8be0079c531659141344cd1fd0a4f28419497f9722a3daafe3b4186f6b6457e090600090a35050565b600081600003612d6c57506000919050565b60006002612d7b846001613728565b612d85919061369b565b9050825b80821015611633575080600281612da0818761369b565b612daa9190613728565b612db4919061369b565b9150612d89565b80600003612dc857505050565b6001826007811115612ddc57612ddc613142565b03612e80576000836001600160a01b03168260405160006040518083038185875af1925050503d8060008114612e2e576040519150601f19603f3d011682016040523d82523d6000602084013e612e33565b606091505b5050905080612e7a5760405162461bcd60e51b8152602060048201526013602482015272115512081d1c985b9cd9995c8819985a5b1959606a1b6044820152606401610847565b50505050565b600060056000846007811115612e9857612e98613142565b6007811115612ea957612ea9613142565b81526020810191909152604090810160002054905163a9059cbb60e01b81526001600160a01b038681166004830152602482018590529091169150819063a9059cbb906044016020604051808303816000875af1158015612f0e573d6000803e3d6000fd5b505050506040513d601f19601f82011682018060405250810190612f32919061370b565b612e7a5760405162461bcd60e51b815260206004820152601c60248201527f546f6b656e20726577617264207472616e73666572206661696c6564000000006044820152606401610847565b600081815b8451811015612fc357612faf82868381518110612fa257612fa26136bd565b6020026020010151612fcb565b915080612fbb816136d3565b915050612f83565b509392505050565b6000818310612fe7576000828152602084905260409020611633565b5060009182526020526040902090565b60405180606001604052806003906020820280368337509192915050565b6040518061010001604052806008906020820280368337509192915050565b82805482825590600052602060002090810192821561306f579160200282015b8281111561306f578251825591602001919060010190613054565b5061307b92915061307f565b5090565b5b8082111561307b5760008155600101613080565b6000602082840312156130a657600080fd5b5035919050565b6000815180845260005b818110156130d3576020818501810151868301820152016130b7565b506000602082860101526020601f19601f83011685010191505092915050565b60006101008083526131078184018c6130ad565b602084019a909a525050604081019690965260608601949094526080850192909252151560a0840152151560c083015260e090910152919050565b634e487b7160e01b600052602160045260246000fd5b6008811061316857613168613142565b9052565b600081518084526020808501945080840160005b838110156131a357613193878351613158565b9582019590820190600101613180565b509495945050505050565b83151581526060602082015260006131c960608301856130ad565b8281036040840152612286818561316c565b80356001600160a01b03811681146131f257600080fd5b919050565b60006020828403121561320957600080fd5b611633826131db565b8035600881106131f257600080fd5b60008083601f84011261323357600080fd5b50813567ffffffffffffffff81111561324b57600080fd5b6020830191508360208260051b850101111561326657600080fd5b9250929050565b60008060008060008060a0878903121561328657600080fd5b863595506020870135945061329d60408801613212565b935060608701359250608087013567ffffffffffffffff8111156132c057600080fd5b6132cc89828a01613221565b979a9699509497509295939492505050565b6000602082840312156132f057600080fd5b61163382613212565b6003811061316857613168613142565b86151581526101e081016020613321818401896132f9565b604083018760005b600381101561334657815183529183019190830190600101613329565b5050508560a08401528460c084015260e083018460005b600881101561337a5781518352918301919083019060010161335d565b50505050979650505050505050565b60008060006040848603121561339e57600080fd5b6133a7846131db565b9250602084013567ffffffffffffffff8111156133c357600080fd5b6133cf86828701613221565b9497909650939450505050565b600080600080608085870312156133f257600080fd5b8435935060208501356003811061340857600080fd5b93969395505050506040820135916060013590565b60008060006060848603121561343257600080fd5b61343b846131db565b92506020840135915061345060408501613212565b90509250925092565b6000806040838503121561346c57600080fd5b61347583613212565b946020939093013593505050565b8015158114610a5257600080fd5b600080600080600080600060e0888a0312156134ac57600080fd5b6134b588613212565b96506134c3602089016131db565b95506134d1604089016131db565b9450606088013560ff811681146134e757600080fd5b935060808801356134f781613483565b9699959850939692959460a0840135945060c09093013592915050565b82151581526040810161163360208301846132f9565b60008060006040848603121561353f57600080fd5b833567ffffffffffffffff8082111561355757600080fd5b818601915086601f83011261356b57600080fd5b81358181111561357a57600080fd5b87602082850101111561358c57600080fd5b6020928301989097509590910135949350505050565b600080604083850312156135b557600080fd5b6135be83613212565b915060208301356135ce81613483565b809150509250929050565b600181811c908216806135ed57607f821691505b60208210810361360d57634e487b7160e01b600052602260045260246000fd5b50919050565b602081526000611633602083018461316c565b60208152600061163360208301846130ad565b6060810161364782866132f9565b602082019390935260400152919050565b634e487b7160e01b600052604160045260246000fd5b634e487b7160e01b600052601160045260246000fd5b8082028115828204841417611fd457611fd461366e565b6000826136b857634e487b7160e01b600052601260045260246000fd5b500490565b634e487b7160e01b600052603260045260246000fd5b6000600182016136e5576136e561366e565b5060010190565b600060ff821660ff81036137025761370261366e565b60010192915050565b60006020828403121561371d57600080fd5b815161163381613483565b80820180821115611fd457611fd461366e565b606081016136478286613158565b805169ffffffffffffffffffff811681146131f257600080fd5b600080600080600060a0868803121561377b57600080fd5b61378486613749565b94506020860151935060408601519250606086015191506137a760808701613749565b90509295509295909350565b81810381811115611fd457611fd461366e565b600181815b808511156138015781600019048211156137e7576137e761366e565b808516156137f457918102915b93841c93908002906137cb565b509250929050565b60008261381857506001611fd4565b8161382557506000611fd4565b816001811461383b576002811461384557613861565b6001915050611fd4565b60ff8411156138565761385661366e565b50506001821b611fd4565b5060208310610133831016604e8410600b8410161715613884575081810a611fd4565b61388e83836137c6565b80600019048211156138a2576138a261366e565b029392505050565b600061163360ff841683613809565b6000602082840312156138cb57600080fd5b5051919050565b601f82111561251957600081815260208120601f850160051c810160208610156138f95750805b601f850160051c820191505b8181101561391857828155600101613905565b505050505050565b67ffffffffffffffff83111561393857613938613658565b61394c8361394683546135d9565b836138d2565b6000601f84116001811461398057600085156139685750838201355b600019600387901b1c1916600186901b178355611e7e565b600083815260209020601f19861690835b828110156139b15786850135825560209485019460019092019101613991565b50868210156139ce5760001960f88860031b161c19848701351681555b505060018560011b0183555050505050565b606081528360608201528385608083013760006080858301015260006080601f19601f87011683010190508360208301528260408301529594505050505056fea2646970667358221220b7cfb4730bd2456aacc07ecf596e56acd1c8bb131cc2cf1ce966d166b7f29b7464736f6c63430008130033",
  "linkReferences": {},
  "deployedLinkReferences": {}
}