{
  "_format": "hh-sol-artifact-1",
  "contractName": "ProofChainSimpleVoting",
  "sourceName": "contracts/ProofChainSimpleVoting.sol",
  "abi": [
    {
      "inputs": [
        {
          "internalType": "bytes32",
          "name": "_merkleRoot",
          "type": "bytes32"
        }
      ],
      "stateMutability": "nonpayable",
      "type": "constructor"
    },
    {
      "anonymous": false,
      "inputs": [
        {
          "indexed": true,
          "internalType": "uint256",
          "name": "contentId",
          "type": "uint256"
        },
        {
          "indexed": false,
          "internalType": "string",
          "name": "ipfsHash",
          "type": "string"
        },
        {
          "indexed": false,
          "internalType": "uint256",
          "name": "votingDeadline",
          "type": "uint256"
        },
        {
          "indexed": true,
          "internalType": "address",
          "name": "creator",
          "type": "address"
        }
      ],
      "name": "ContentSubmitted",
      "type": "event"
    },
    {
      "anonymous": false,
      "inputs": [
        {
          "indexed": true,
          "internalType": "address",
          "name": "previousOwner",
          "type": "address"
        },
        {
          "indexed": true,
          "internalType": "address",
          "name": "newOwner",
          "type": "address"
        }
      ],
      "name": "OwnershipTransferred",
      "type": "event"
    },
    {
      "anonymous": false,
      "inputs": [
        {
          "indexed": true,
          "internalType": "enum ProofChainSimpleVoting.TokenType",
          "name": "tokenType",
          "type": "uint8"
        },
        {
          "indexed": false,
          "internalType": "address",
          "name": "tokenAddress",
          "type": "address"
        },
        {
          "indexed": false,
          "internalType": "address",
          "name": "priceOracle",
          "type": "address"
        }
      ],
      "name": "TokenAdded",
      "type": "event"
    },
    {
      "anonymous": false,
      "inputs": [
        {
          "indexed": true,
          "internalType": "enum ProofChainSimpleVoting.TokenType",
          "name": "tokenType",
          "type": "uint8"
        },
        {
          "indexed": false,
          "internalType": "bool",
          "name": "isActive",
          "type": "bool"
        },
        {
          "indexed": false,
          "internalType": "uint256",
          "name": "bonusMultiplier",
          "type": "uint256"
        }
      ],
      "name": "TokenUpdated",
      "type": "event"
    },
    {
      "anonymous": false,
      "inputs": [
        {
          "indexed": true,
          "internalType": "uint256",
          "name": "contentId",
          "type": "uint256"
        },
        {
          "indexed": true,
          "internalType": "address",
          "name": "voter",
          "type": "address"
        },
        {
          "indexed": false,
          "internalType": "enum ProofChainSimpleVoting.VoteOption",
          "name": "vote",
          "type": "uint8"
        },
        {
          "indexed": false,
          "internalType": "uint8",
          "name": "confidence",
          "type": "uint8"
        },
        {
          "indexed": false,
          "internalType": "enum ProofChainSimpleVoting.TokenType",
          "name": "tokenType",
          "type": "uint8"
        },
        {
          "indexed": false,
          "internalType": "uint256",
          "name": "stakeAmount",
          "type": "uint256"
        },
        {
          "indexed": false,
          "internalType": "uint256",
          "name": "weight",
          "type": "uint256"
        }
      ],
      "name": "VoteSubmitted",
      "type": "event"
    },
    {
      "anonymous": false,
      "inputs": [
        {
          "indexed": true,
          "internalType": "uint256",
          "name": "contentId",
          "type": "uint256"
        },
        {
          "indexed": false,
          "internalType": "enum ProofChainSimpleVoting.VoteOption",
          "name": "winningOption",
          "type": "uint8"
        },
        {
          "indexed": false,
          "internalType": "uint256",
          "name": "totalParticipants",
          "type": "uint256"
        },
        {
          "indexed": false,
          "internalType": "uint256",
          "name": "totalUSDValue",
          "type": "uint256"
        }
      ],
      "name": "VotingFinalized",
      "type": "event"
    },
    {
      "inputs": [
        {
          "internalType": "enum ProofChainSimpleVoting.TokenType",
          "name": "tokenType",
          "type": "uint8"
        },
        {
          "internalType": "address",
          "name": "tokenAddress",
          "type": "address"
        },
        {
          "internalType": "address",
          "name": "priceOracle",
          "type": "address"
        },
        {
          "internalType": "uint8",
          "name": "decimals",
          "type": "uint8"
        },
        {
          "internalType": "uint256",
          "name": "bonusMultiplier",
          "type": "uint256"
        },
        {
          "internalType": "uint256",
          "name": "minStakeAmount",
          "type": "uint256"
        }
      ],
      "name": "addToken",
      "outputs": [],
      "stateMutability": "nonpayable",
      "type": "function"
    },
    {
      "inputs": [
        {
          "internalType": "uint256",
          "name": "usdValue",
          "type": "uint256"
        },
        {
          "internalType": "uint8",
          "name": "confidence",
          "type": "uint8"
        },
        {
          "internalType": "uint256",
          "name": "bonusMultiplier",
          "type": "uint256"
        }
      ],
      "name": "calculateVotingWeight",
      "outputs": [
        {
          "internalType": "uint256",
          "name": "",
          "type": "uint256"
        }
      ],
      "stateMutability": "pure",
      "type": "function"
    },
    {
      "inputs": [
        {
          "internalType": "uint256",
          "name": "",
          "type": "uint256"
        }
      ],
      "name": "contentItems",
      "outputs": [
        {
          "internalType": "string",
          "name": "ipfsHash",
          "type": "string"
        },
        {
          "internalType": "uint256",
          "name": "submissionTime",
          "type": "uint256"
        },
        {
          "internalType": "uint256",
          "name": "votingDeadline",
          "type": "uint256"
        },
        {
          "internalType": "uint256",
          "name": "totalUSDValue",
          "type": "uint256"
        },
        {
          "internalType": "bool",
          "name": "isActive",
          "type": "bool"
        },
        {
          "internalType": "bool",
          "name": "isFinalized",
          "type": "bool"
        },
        {
          "internalType": "uint256",
          "name": "participantCount",
          "type": "uint256"
        },
        {
          "internalType": "enum ProofChainSimpleVoting.VoteOption",
          "name": "winningOption",
          "type": "uint8"
        }
      ],
      "stateMutability": "view",
      "type": "function"
    },
    {
      "inputs": [],
      "name": "defaultVotingDuration",
      "outputs": [
        {
          "internalType": "uint256",
          "name": "",
          "type": "uint256"
        }
      ],
      "stateMutability": "view",
      "type": "function"
    },
    {
      "inputs": [
        {
          "internalType": "uint256",
          "name": "contentId",
          "type": "uint256"
        }
      ],
      "name": "finalizeVoting",
      "outputs": [],
      "stateMutability": "nonpayable",
      "type": "function"
    },
    {
      "inputs": [
        {
          "internalType": "uint256",
          "name": "contentId",
          "type": "uint256"
        }
      ],
      "name": "getContentInfo",
      "outputs": [
        {
          "internalType": "string",
          "name": "ipfsHash",
          "type": "string"
        },
        {
          "internalType": "uint256",
          "name": "submissionTime",
          "type": "uint256"
        },
        {
          "internalType": "uint256",
          "name": "votingDeadline",
          "type": "uint256"
        },
        {
          "internalType": "bool",
          "name": "isActive",
          "type": "bool"
        },
        {
          "internalType": "bool",
          "name": "isFinalized",
          "type": "bool"
        },
        {
          "internalType": "uint256[]",
          "name": "voteDistribution",
          "type": "uint256[]"
        },
        {
          "internalType": "uint256",
          "name": "participantCount",
          "type": "uint256"
        },
        {
          "internalType": "uint256",
          "name": "totalUSDValue",
          "type": "uint256"
        },
        {
          "internalType": "enum ProofChainSimpleVoting.VoteOption",
          "name": "winningOption",
          "type": "uint8"
        }
      ],
      "stateMutability": "view",
      "type": "function"
    },
    {
      "inputs": [
        {
          "internalType": "enum ProofChainSimpleVoting.TokenType",
          "name": "tokenType",
          "type": "uint8"
        }
      ],
      "name": "getTokenPriceUSD",
      "outputs": [
        {
          "internalType": "uint256",
          "name": "",
          "type": "uint256"
        }
      ],
      "stateMutability": "view",
      "type": "function"
    },
    {
      "inputs": [
        {
          "internalType": "uint256",
          "name": "contentId",
          "type": "uint256"
        },
        {
          "internalType": "address",
          "name": "user",
          "type": "address"
        }
      ],
      "name": "getUserVote",
      "outputs": [
        {
          "internalType": "bool",
          "name": "hasVoted",
          "type": "bool"
        },
        {
          "internalType": "enum ProofChainSimpleVoting.VoteOption",
          "name": "vote",
          "type": "uint8"
        },
        {
          "internalType": "uint8",
          "name": "confidence",
          "type": "uint8"
        },
        {
          "internalType": "enum ProofChainSimpleVoting.TokenType",
          "name": "tokenType",
          "type": "uint8"
        },
        {
          "internalType": "uint256",
          "name": "stakeAmount",
          "type": "uint256"
        },
        {
          "internalType": "uint256",
          "name": "weight",
          "type": "uint256"
        },
        {
          "internalType": "uint256",
          "name": "timestamp",
          "type": "uint256"
        }
      ],
      "stateMutability": "view",
      "type": "function"
    },
    {
      "inputs": [],
      "name": "merkleRoot",
      "outputs": [
        {
          "internalType": "bytes32",
          "name": "",
          "type": "bytes32"
        }
      ],
      "stateMutability": "view",
      "type": "function"
    },
    {
      "inputs": [],
      "name": "minimumStakeUSD",
      "outputs": [
        {
          "internalType": "uint256",
          "name": "",
          "type": "uint256"
        }
      ],
      "stateMutability": "view",
      "type": "function"
    },
    {
      "inputs": [],
      "name": "nextContentId",
      "outputs": [
        {
          "internalType": "uint256",
          "name": "",
          "type": "uint256"
        }
      ],
      "stateMutability": "view",
      "type": "function"
    },
    {
      "inputs": [],
      "name": "owner",
      "outputs": [
        {
          "internalType": "address",
          "name": "",
          "type": "address"
        }
      ],
      "stateMutability": "view",
      "type": "function"
    },
    {
      "inputs": [],
      "name": "renounceOwnership",
      "outputs": [],
      "stateMutability": "nonpayable",
      "type": "function"
    },
    {
      "inputs": [
        {
          "internalType": "uint256",
          "name": "_duration",
          "type": "uint256"
        }
      ],
      "name": "setDefaultVotingDuration",
      "outputs": [],
      "stateMutability": "nonpayable",
      "type": "function"
    },
    {
      "inputs": [
        {
          "internalType": "string",
          "name": "ipfsHash",
          "type": "string"
        },
        {
          "internalType": "uint256",
          "name": "votingDuration",
          "type": "uint256"
        }
      ],
      "name": "submitContent",
      "outputs": [
        {
          "internalType": "uint256",
          "name": "",
          "type": "uint256"
        }
      ],
      "stateMutability": "nonpayable",
      "type": "function"
    },
    {
      "inputs": [
        {
          "internalType": "uint256",
          "name": "contentId",
          "type": "uint256"
        },
        {
          "internalType": "enum ProofChainSimpleVoting.VoteOption",
          "name": "vote",
          "type": "uint8"
        },
        {
          "internalType": "uint8",
          "name": "confidence",
          "type": "uint8"
        },
        {
          "internalType": "enum ProofChainSimpleVoting.TokenType",
          "name": "tokenType",
          "type": "uint8"
        },
        {
          "internalType": "uint256",
          "name": "stakeAmount",
          "type": "uint256"
        },
        {
          "internalType": "bytes32[]",
          "name": "merkleProof",
          "type": "bytes32[]"
        }
      ],
      "name": "submitVote",
      "outputs": [],
      "stateMutability": "payable",
      "type": "function"
    },
    {
      "inputs": [
        {
          "internalType": "enum ProofChainSimpleVoting.TokenType",
          "name": "",
          "type": "uint8"
        }
      ],
      "name": "supportedTokens",
      "outputs": [
        {
          "internalType": "address",
          "name": "tokenAddress",
          "type": "address"
        },
        {
          "internalType": "contract AggregatorV3Interface",
          "name": "priceOracle",
          "type": "address"
        },
        {
          "internalType": "uint8",
          "name": "decimals",
          "type": "uint8"
        },
        {
          "internalType": "bool",
          "name": "isActive",
          "type": "bool"
        },
        {
          "internalType": "uint256",
          "name": "bonusMultiplier",
          "type": "uint256"
        },
        {
          "internalType": "uint256",
          "name": "minStakeAmount",
          "type": "uint256"
        }
      ],
      "stateMutability": "view",
      "type": "function"
    },
    {
      "inputs": [
        {
          "internalType": "address",
          "name": "newOwner",
          "type": "address"
        }
      ],
      "name": "transferOwnership",
      "outputs": [],
      "stateMutability": "nonpayable",
      "type": "function"
    },
    {
      "inputs": [
        {
          "internalType": "bytes32",
          "name": "_merkleRoot",
          "type": "bytes32"
        }
      ],
      "name": "updateMerkleRoot",
      "outputs": [],
      "stateMutability": "nonpayable",
      "type": "function"
    },
    {
      "inputs": [
        {
          "internalType": "enum ProofChainSimpleVoting.TokenType",
          "name": "tokenType",
          "type": "uint8"
        },
        {
          "internalType": "bool",
          "name": "isActive",
          "type": "bool"
        },
        {
          "internalType": "uint256",
          "name": "bonusMultiplier",
          "type": "uint256"
        }
      ],
      "name": "updateToken",
      "outputs": [],
      "stateMutability": "nonpayable",
      "type": "function"
    },
    {
      "inputs": [
        {
          "internalType": "bytes32",
          "name": "",
          "type": "bytes32"
        }
      ],
      "name": "usedMerkleLeaves",
      "outputs": [
        {
          "internalType": "bool",
          "name": "",
          "type": "bool"
        }
      ],
      "stateMutability": "view",
      "type": "function"
    }
  ],
  "bytecode": "0x6080346100af57601f611bd538819003918201601f19168301916001600160401b038311848410176100b4578084926020946040528339810103126100af5751600160008181558154336001600160a01b0319821681179093556040519392916001600160a01b03909116907f8be0079c531659141344cd1fd0a4f28419497f9722a3daafe3b4186f6b6457e09080a3600160055562015180600655600a600755600855611b0a90816100cb8239f35b600080fd5b634e487b7160e01b600052604160045260246000fdfe6080604052600436101561001257600080fd5b60003560e01c806303c7881a1461157c5780630a248d7f1461155e5780630e73afdf146114bf5780632eb4a7ab146114a15780633f572d361461142c57806346f02f46146113b55780634783f0ef1461139457806349444831146111de578063714d985f146111ae578063715018a6146111515780637354c7e3146111215780637509c33014610fde578063782631a01461073f5780638da5cb5b14610716578063a09312fd146106f8578063b53d568a1461061b578063b9a1d20d14610584578063dad3fc1314610222578063eb6e1a6214610204578063f2d03924146101d35763f2fde38b1461010357600080fd5b346101ce5760203660031901126101ce576004356001600160a01b03818116918290036101ce576101326117e1565b811561017a57600154826bffffffffffffffffffffffff60a01b821617600155167f8be0079c531659141344cd1fd0a4f28419497f9722a3daafe3b4186f6b6457e0600080a3005b60405162461bcd60e51b815260206004820152602660248201527f4f776e61626c653a206e6577206f776e657220697320746865207a65726f206160448201526564647265737360d01b6064820152608490fd5b600080fd5b346101ce5760203660031901126101ce576004356000526004602052602060ff604060002054166040519015158152f35b346101ce5760003660031901126101ce576020600754604051908152f35b346101ce5760403660031901126101ce5760043567ffffffffffffffff8082116101ce57366023830112156101ce5781600401358181116101ce57602492368483830101116101ce57833593821561054b578415610541575b603c85101580610534575b156104f0576005549361029885611839565b60055584600052602095600387526040600020916102b68354611686565b601f81116104b5575b5085846000601f83116001146104495760009261043c575b50508660011b906000198860031b1c19161783555b6102fd60019242848601554261185f565b6002840190815560058401805460ff19168417905560405190936080820183811183821017610427576040526003825260078a830191606036843701915192831161041257600160401b83116104125781548383558084106103f5575b509287928996949795926000528a600020976000985b828a106103dc57505050507fbc19d37dc499c8455564517e576d7d380a7a6f6f340aefd0ee7007abb30a6c4294955054916040519360408552826040860152016060840137600060608684010152868201526060813395601f80199101168101030190a3604051908152f35b81518a820155988301988b98508a9550908c0190610370565b61040c9083600052848c6000209182019101611848565b8a61035a565b85634e487b7160e01b60005260416004526000fd5b86634e487b7160e01b60005260416004526000fd5b870101359050848a6102d7565b915050601f1987169084600052878a6000209260005b8c82821061049a5750501061047e575b5050600186811b0183556102ec565b8601850135600019600389901b60f8161c19169055888061046f565b8a85018a01358655600190950194938401938b93500161045f565b6104e0908460005289600020601f890160051c8101918b8a106104e6575b601f0160051c0190611848565b886102bf565b90915081906104d3565b60649060176040519162461bcd60e51b8352602060048401528201527f496e76616c696420766f74696e67206475726174696f6e0000000000000000006044820152fd5b5062093a80851115610286565b600654945061027b565b60649060126040519162461bcd60e51b8352602060048401528201527112541194c81a185cda081c995c5d5a5c995960721b6044820152fd5b346101ce5760603660031901126101ce5760043560098110156101ce576024358015158091036101ce5760407ff452027f24e21c883950a8c162ad4cf41a0ceecfc4c68c595a16b769d4a4ec7e916044356105dd6117e1565b60016105e8866117c8565b01805460ff60a81b191660a884901b60ff60a81b1617905580600261060c876117c8565b015582519182526020820152a2005b346101ce5760c03660031901126101ce5760043560098110156101ce57610640611640565b6001600160a01b03604435818116908190036101ce576064359060ff821682036101ce577fd7e0ffe3c5e893c914e856817d8bfcf09e393c7926b6cf6fd55867404db05cb1936040936106916117e1565b61069a876117c8565b80546001600160a01b0319169190921690811782556001820180546001600160b01b031916841760a09590951b60ff60a01b1694909417600160a81b17909355608435600282015560a43560039091015582519182526020820152a2005b346101ce5760003660031901126101ce576020600654604051908152f35b346101ce5760003660031901126101ce576001546040516001600160a01b039091168152602090f35b60c03660031901126101ce57600360243510156101ce5760ff60443516604435036101ce57600960643510156101ce5767ffffffffffffffff60a435116101ce5736602360a4350112156101ce5767ffffffffffffffff60a43560040135116101ce5736602460a4356004013560051b60a4350101116101ce57600260005414610f99576002600055600435151580610f8c575b6107dc9061187f565b6004356000526003602052604060002060058101549060ff821615610f5357600201544211610f185760081c60ff16610ed357600435600052600360205260066040600020013360005260205260ff60046040600020015416610e9e57600160ff60443516101580610e8e575b15610e4957600260ff6024351611610e0e576040513360601b60208201526014815280604081011067ffffffffffffffff604083011117610b87576040810160405280516020820120600854906108af602060a4356004013560051b01604085016116c0565b60a43560048101356040850152602401606084015b602460a4356004013560051b60a43501018210610dfe575050806000915b60408501518310156109325760608360051b860101519081811060001461091e5760005260205261091860406000205b92611839565b916108e2565b906000526020526109186040600020610912565b8303610dc05780600052600460205260ff60406000205416610d83576109596064356117c8565b9060ff600183015460a81c1615610d4857600382015460843510610d0d57606435600103610c1e576084353403610be2576109bc6109a360843561099e606435611978565b61186c565b6109b660ff600186015460a01c166118c0565b906118d1565b915b6007548310610b9d5760026109d891015460443584611937565b91600435600052600360205260406000209033600052600682016020526040600020610a06602435826118f1565b805462ff000060643560101b169061ff0060443560081b169062ffff00191617178155608435600182015581600282015584600382015560048101600160ff19825416179055600542910155610a6160243560078401611909565b81549060031b90610a748782841c61185f565b821b91600019901b1916179055606435600052600382016020526040600020610aa0608435825461185f565b9055610ab16004830191825461185f565b9055600981015490600160401b821015610b8757610add82600160089401600984015560098301611909565b81546001600160a01b0360039290921b91821b19163390911b179055018054610b0590611839565b905560005260046020526040600020600160ff1982541617905560405190610b2f82602435611656565b60ff604435166020830152610b4960408301606435611679565b6084356060830152608082015233907ff641c07ff9548b4d94093e2363e7bead14740019250d143f6e940989f4e91bb360a060043592a36001600055005b634e487b7160e01b600052604160045260246000fd5b60405162461bcd60e51b815260206004820152601d60248201527f5374616b652062656c6f77206d696e696d756d205553442076616c75650000006044820152606490fd5b60405162461bcd60e51b8152602060048201526014602482015273125b98dbdc9c9958dd0811551208185b5bdd5b9d60621b6044820152606490fd5b34610cc95781546040516323b872dd60e01b8152336004820152306024820152608435604482015290602090829060649082906000906001600160a01b03165af18015610cbd57610c85575b50610c7f6109a360843561099e606435611978565b916109be565b6020813d602011610cb5575b81610c9e602093836116c0565b810103126101ce5751801515036101ce5782610c6a565b3d9150610c91565b6040513d6000823e3d90fd5b606460405162461bcd60e51b815260206004820152602060248201527f455448206e6f7420726571756972656420666f7220746f6b656e207374616b656044820152fd5b60405162461bcd60e51b81526020600482015260136024820152725374616b652062656c6f77206d696e696d756d60681b6044820152606490fd5b60405162461bcd60e51b8152602060048201526013602482015272151bdad95b881b9bdd081cdd5c1c1bdc9d1959606a1b6044820152606490fd5b60405162461bcd60e51b81526020600482015260156024820152741259195b9d1a5d1e48185b1c9958591e481d5cd959605a1b6044820152606490fd5b60405162461bcd60e51b815260206004820152601660248201527524b73b30b634b21034b232b73a34ba3c90383937b7b360511b6044820152606490fd5b81358152602091820191016108c4565b60405162461bcd60e51b815260206004820152601360248201527224b73b30b634b2103b37ba329037b83a34b7b760691b6044820152606490fd5b60405162461bcd60e51b815260206004820152601760248201527f436f6e666964656e6365206d75737420626520312d31300000000000000000006044820152606490fd5b50600a60ff604435161115610849565b60405162461bcd60e51b815260206004820152600d60248201526c105b1c9958591e481d9bdd1959609a1b6044820152606490fd5b60405162461bcd60e51b815260206004820152601860248201527f566f74696e6720616c72656164792066696e616c697a656400000000000000006044820152606490fd5b60405162461bcd60e51b8152602060048201526013602482015272159bdd1a5b99c81c195c9a5bd908195b991959606a1b6044820152606490fd5b60405162461bcd60e51b8152602060048201526011602482015270566f74696e67206e6f742061637469766560781b6044820152606490fd5b50600554600435106107d3565b60405162461bcd60e51b815260206004820152601f60248201527f5265656e7472616e637947756172643a207265656e7472616e742063616c6c006044820152606490fd5b346101ce576020806003193601126101ce5760043580151580611116575b6110059061187f565b6000526003815260406000209060019182810154600282015490600583015493600784019560088501549260048601549461104760ff600a89015416976116e2565b976040519182868c54918281520190819c600052876000209060005b818110611103575050509160ff9161107f8589969503856116c0565b6110956040519c8d610120908181520190611788565b95858d015260408c0152818116151560608c015260081c16151560808a015288830360a08a0152519182815201979260005b8281106110f05788808b6110ec8b8b8b60c086015260e0850152610100840190611656565b0390f35b84518a52988101989381019383016110c7565b8254845292890192918801918801611063565b506005548110610ffc565b346101ce5760203660031901126101ce5760043560098110156101ce57611149602091611978565b604051908152f35b346101ce5760003660031901126101ce5761116a6117e1565b600180546001600160a01b031981169091556000906001600160a01b03167f8be0079c531659141344cd1fd0a4f28419497f9722a3daafe3b4186f6b6457e08280a3005b346101ce5760603660031901126101ce5760243560ff811681036101ce5761114960209160443590600435611937565b346101ce5760203660031901126101ce5760043580151580611389575b6112049061187f565b806000526003806020526040600020916002830154421115611344576005830160ff9283825460081c1661130b5760009492600784019086805b878116858110156112a557896112548387611909565b905490881b1c11611288575b5087168781146112725760010161123e565b634e487b7160e01b600052601160045260246000fd5b98509050866112978285611909565b905490861b1c989190611260565b837fbbbe9b42ddfa0692cd5f3dc618525dde4b8fe438fe573f13b3fa9fb1287d6fcd6060858b8b6112d983600a84016118f1565b61010061ffff1982541617905560046008820154910154906112fe6040518094611656565b60208301526040820152a2005b60405162461bcd60e51b8152602060048201526011602482015270105b1c9958591e48199a5b985b1a5e9959607a1b6044820152606490fd5b60405162461bcd60e51b815260206004820152601760248201527f566f74696e6720706572696f64206e6f7420656e6465640000000000000000006044820152606490fd5b5060055481106111fb565b346101ce5760203660031901126101ce576113ad6117e1565b600435600855005b346101ce5760203660031901126101ce576004356113d16117e1565b610e108110158061141f575b156113e757600655005b60405162461bcd60e51b815260206004820152601060248201526f24b73b30b634b210323ab930ba34b7b760811b6044820152606490fd5b5062093a808111156113dd565b346101ce5760203660031901126101ce5760043560098110156101ce5761145460c0916117c8565b60018060a01b03808254169160ff6001820154600360028401549301549360405195865281166020860152818160a01c16604086015260a81c1615156060840152608083015260a0820152f35b346101ce5760003660031901126101ce576020600854604051908152f35b346101ce5760203660031901126101ce57600435600052600360205261152a60406000206114ec816116e2565b906110ec60018201549160028101549060ff600482015460058301549082600a60088601549501541694604051998a99610100808c528b0190611788565b9760208a0152604089015260608801528181161515608088015260081c16151560a086015260c085015260e0840190611656565b346101ce5760003660031901126101ce576020600554604051908152f35b346101ce5760403660031901126101ce57600435611598611640565b9080151580611635575b6115ab9061187f565b600052600360205260066040600020019060018060a01b031660005260205260e0604060002060ff600482015416908054906001810154611624600560038401549301549360405195151586526116086020870160ff8316611656565b60ff8160081c16604087015260ff606087019160101c16611679565b608084015260a083015260c0820152f35b5060055481106115a2565b602435906001600160a01b03821682036101ce57565b9060038210156116635752565b634e487b7160e01b600052602160045260246000fd5b9060098210156116635752565b90600182811c921680156116b6575b60208310146116a057565b634e487b7160e01b600052602260045260246000fd5b91607f1691611695565b90601f8019910116810190811067ffffffffffffffff821117610b8757604052565b90604051918260008254926116f684611686565b9081845260019485811690816000146117655750600114611722575b5050611720925003836116c0565b565b9093915060005260209081600020936000915b81831061174d57505061172093508201013880611712565b85548884018501529485019487945091830191611735565b91505061172094506020925060ff191682840152151560051b8201013880611712565b919082519283825260005b8481106117b4575050826000602080949584010152601f8019910116010190565b602081830181015184830182015201611793565b6009811015611663576000526002602052604060002090565b6001546001600160a01b031633036117f557565b606460405162461bcd60e51b815260206004820152602060248201527f4f776e61626c653a2063616c6c6572206973206e6f7420746865206f776e65726044820152fd5b60001981146112725760010190565b818110611853575050565b60008155600101611848565b9190820180921161127257565b8181029291811591840414171561127257565b1561188657565b60405162461bcd60e51b8152602060048201526012602482015271125b9d985b1a590818dbdb9d195b9d08125160721b6044820152606490fd5b60ff16604d811161127257600a0a90565b81156118db570490565b634e487b7160e01b600052601260045260246000fd5b9060038110156116635760ff80198354169116179055565b80548210156119215760005260206000200190600090565b634e487b7160e01b600052603260045260246000fd5b91600a61195761195d9360ff61194f6103e897611a8a565b91169061186c565b0461186c565b0490565b519069ffffffffffffffffffff821682036101ce57565b6001600160a01b039060019061198d906117c8565b0154168015611a4e5760a060049160405192838092633fabe5a360e21b82525afa908115610cbd576000916119ff575b5060008113156119ca5790565b60405162461bcd60e51b815260206004820152600d60248201526c496e76616c696420707269636560981b6044820152606490fd5b9060a0823d8211611a46575b81611a1860a093836116c0565b81010312611a435750611a2a81611961565b50611a3c608060208301519201611961565b50386119bd565b80fd5b3d9150611a0b565b60405162461bcd60e51b8152602060048201526014602482015273141c9a58d9481bdc9858db19481b9bdd081cd95d60621b6044820152606490fd5b8015611ace57600180820180831161127257811c90825b838310611aae5750505090565b90919250611ac583611ac081846118d1565b61185f565b821c9190611aa1565b5060009056fea26469706673582212209d80f3bad739ac1dcb3fb44d958a9fdf3cc4fa024ff02b546b1290b42cacfada64736f6c63430008130033",
  "linkReferences": {},
  "deployedLinkReferences": {}
}